{
	"contracts/SimpleStorage.sol": {
		"Storage": {
			"abi": [
				{
					"inputs": [
						{
							"internalType": "string",
							"name": "_name",
							"type": "string"
						},
						{
							"internalType": "uint256",
							"name": "_favoriteNumber",
							"type": "uint256"
						}
					],
					"name": "addPerson",
					"outputs": [],
					"stateMutability": "nonpayable",
					"type": "function"
				},
				{
					"inputs": [],
					"name": "favoriteNumber",
					"outputs": [
						{
							"internalType": "uint256",
							"name": "",
							"type": "uint256"
						}
					],
					"stateMutability": "view",
					"type": "function"
				},
				{
					"inputs": [
						{
							"internalType": "uint256",
							"name": "",
							"type": "uint256"
						}
					],
					"name": "people",
					"outputs": [
						{
							"internalType": "string",
							"name": "name",
							"type": "string"
						},
						{
							"internalType": "uint256",
							"name": "favoriteNumber",
							"type": "uint256"
						}
					],
					"stateMutability": "view",
					"type": "function"
				},
				{
					"inputs": [],
					"name": "retrieve",
					"outputs": [
						{
							"internalType": "uint256",
							"name": "",
							"type": "uint256"
						}
					],
					"stateMutability": "view",
					"type": "function"
				},
				{
					"inputs": [
						{
							"internalType": "uint256",
							"name": "_favoriteNumber",
							"type": "uint256"
						}
					],
					"name": "store",
					"outputs": [],
					"stateMutability": "nonpayable",
					"type": "function"
				}
			],
			"devdoc": {
				"custom:dev-run-script": "./scripts/deploy_with_ethers.ts",
				"details": "Store & retrieve value in a variable",
				"kind": "dev",
				"methods": {},
				"title": "Storage",
				"version": 1
			},
			"evm": {
				"assembly": "    /* \"contracts/SimpleStorage.sol\":187:791  contract Storage {... */\n  mstore(0x40, 0x80)\n  callvalue\n  dup1\n  iszero\n  tag_1\n  jumpi\n  0x00\n  dup1\n  revert\ntag_1:\n  pop\n  dataSize(sub_0)\n  dup1\n  dataOffset(sub_0)\n  0x00\n  codecopy\n  0x00\n  return\nstop\n\nsub_0: assembly {\n        /* \"contracts/SimpleStorage.sol\":187:791  contract Storage {... */\n      mstore(0x40, 0x80)\n      callvalue\n      dup1\n      iszero\n      tag_1\n      jumpi\n      0x00\n      dup1\n      revert\n    tag_1:\n      pop\n      jumpi(tag_2, lt(calldatasize, 0x04))\n      shr(0xe0, calldataload(0x00))\n      dup1\n      0x2e64cec1\n      eq\n      tag_3\n      jumpi\n      dup1\n      0x471f7cdf\n      eq\n      tag_4\n      jumpi\n      dup1\n      0x6057361d\n      eq\n      tag_5\n      jumpi\n      dup1\n      0x6f760f41\n      eq\n      tag_6\n      jumpi\n      dup1\n      0x9e7a13ad\n      eq\n      tag_7\n      jumpi\n    tag_2:\n      0x00\n      dup1\n      revert\n        /* \"contracts/SimpleStorage.sol\":697:783  function retrieve() public view returns(uint256){... */\n    tag_3:\n      tag_8\n      tag_9\n      jump\t// in\n    tag_8:\n      mload(0x40)\n      tag_10\n      swap2\n      swap1\n      tag_11\n      jump\t// in\n    tag_10:\n      mload(0x40)\n      dup1\n      swap2\n      sub\n      swap1\n      return\n        /* \"contracts/SimpleStorage.sol\":210:239  uint256 public favoriteNumber */\n    tag_4:\n      tag_12\n      tag_13\n      jump\t// in\n    tag_12:\n      mload(0x40)\n      tag_14\n      swap2\n      swap1\n      tag_11\n      jump\t// in\n    tag_14:\n      mload(0x40)\n      dup1\n      swap2\n      sub\n      swap1\n      return\n        /* \"contracts/SimpleStorage.sol\":567:691  function store(uint256 _favoriteNumber) public{... */\n    tag_5:\n      tag_15\n      0x04\n      dup1\n      calldatasize\n      sub\n      dup2\n      add\n      swap1\n      tag_16\n      swap2\n      swap1\n      tag_17\n      jump\t// in\n    tag_16:\n      tag_18\n      jump\t// in\n    tag_15:\n      stop\n        /* \"contracts/SimpleStorage.sol\":354:560  function addPerson(string memory _name, uint256 _favoriteNumber) public {... */\n    tag_6:\n      tag_19\n      0x04\n      dup1\n      calldatasize\n      sub\n      dup2\n      add\n      swap1\n      tag_20\n      swap2\n      swap1\n      tag_21\n      jump\t// in\n    tag_20:\n      tag_22\n      jump\t// in\n    tag_19:\n      stop\n        /* \"contracts/SimpleStorage.sol\":325:347  People[] public people */\n    tag_7:\n      tag_23\n      0x04\n      dup1\n      calldatasize\n      sub\n      dup2\n      add\n      swap1\n      tag_24\n      swap2\n      swap1\n      tag_17\n      jump\t// in\n    tag_24:\n      tag_25\n      jump\t// in\n    tag_23:\n      mload(0x40)\n      tag_26\n      swap3\n      swap2\n      swap1\n      tag_27\n      jump\t// in\n    tag_26:\n      mload(0x40)\n      dup1\n      swap2\n      sub\n      swap1\n      return\n        /* \"contracts/SimpleStorage.sol\":697:783  function retrieve() public view returns(uint256){... */\n    tag_9:\n        /* \"contracts/SimpleStorage.sol\":737:744  uint256 */\n      0x00\n        /* \"contracts/SimpleStorage.sol\":762:776  favoriteNumber */\n      dup1\n      sload\n        /* \"contracts/SimpleStorage.sol\":755:776  return favoriteNumber */\n      swap1\n      pop\n        /* \"contracts/SimpleStorage.sol\":697:783  function retrieve() public view returns(uint256){... */\n      swap1\n      jump\t// out\n        /* \"contracts/SimpleStorage.sol\":210:239  uint256 public favoriteNumber */\n    tag_13:\n      sload(0x00)\n      dup2\n      jump\t// out\n        /* \"contracts/SimpleStorage.sol\":567:691  function store(uint256 _favoriteNumber) public{... */\n    tag_18:\n        /* \"contracts/SimpleStorage.sol\":640:655  _favoriteNumber */\n      dup1\n        /* \"contracts/SimpleStorage.sol\":623:637  favoriteNumber */\n      0x00\n        /* \"contracts/SimpleStorage.sol\":623:655  favoriteNumber = _favoriteNumber */\n      dup2\n      swap1\n      sstore\n      pop\n        /* \"contracts/SimpleStorage.sol\":666:681  uint256 testVar */\n      0x00\n        /* \"contracts/SimpleStorage.sol\":683:684  5 */\n      0x05\n        /* \"contracts/SimpleStorage.sol\":666:684  uint256 testVar =5 */\n      swap1\n      pop\n        /* \"contracts/SimpleStorage.sol\":613:691  {... */\n      pop\n        /* \"contracts/SimpleStorage.sol\":567:691  function store(uint256 _favoriteNumber) public{... */\n      pop\n      jump\t// out\n        /* \"contracts/SimpleStorage.sol\":354:560  function addPerson(string memory _name, uint256 _favoriteNumber) public {... */\n    tag_22:\n        /* \"contracts/SimpleStorage.sol\":436:459  People memory newPerson */\n      0x00\n        /* \"contracts/SimpleStorage.sol\":462:516  People({name: _name, favoriteNumber: _favoriteNumber}) */\n      mload(0x40)\n      dup1\n      0x40\n      add\n      0x40\n      mstore\n      dup1\n        /* \"contracts/SimpleStorage.sol\":476:481  _name */\n      dup5\n        /* \"contracts/SimpleStorage.sol\":462:516  People({name: _name, favoriteNumber: _favoriteNumber}) */\n      dup2\n      mstore\n      0x20\n      add\n        /* \"contracts/SimpleStorage.sol\":499:514  _favoriteNumber */\n      dup4\n        /* \"contracts/SimpleStorage.sol\":462:516  People({name: _name, favoriteNumber: _favoriteNumber}) */\n      dup2\n      mstore\n      pop\n        /* \"contracts/SimpleStorage.sol\":436:516  People memory newPerson = People({name: _name, favoriteNumber: _favoriteNumber}) */\n      swap1\n      pop\n        /* \"contracts/SimpleStorage.sol\":526:532  people */\n      0x01\n        /* \"contracts/SimpleStorage.sol\":538:547  newPerson */\n      dup2\n        /* \"contracts/SimpleStorage.sol\":526:548  people.push(newPerson) */\n      swap1\n      dup1\n      0x01\n      dup2\n      sload\n      add\n      dup1\n      dup3\n      sstore\n      dup1\n      swap2\n      pop\n      pop\n      0x01\n      swap1\n      sub\n      swap1\n      0x00\n      mstore\n      keccak256(0x00, 0x20)\n      swap1\n      0x02\n      mul\n      add\n      0x00\n      swap1\n      swap2\n      swap1\n      swap2\n      swap1\n      swap2\n      pop\n      0x00\n      dup3\n      add\n      mload\n      dup2\n      0x00\n      add\n      swap1\n      dup2\n      tag_32\n      swap2\n      swap1\n      tag_33\n      jump\t// in\n    tag_32:\n      pop\n      0x20\n      dup3\n      add\n      mload\n      dup2\n      0x01\n      add\n      sstore\n      pop\n      pop\n        /* \"contracts/SimpleStorage.sol\":426:560  {... */\n      pop\n        /* \"contracts/SimpleStorage.sol\":354:560  function addPerson(string memory _name, uint256 _favoriteNumber) public {... */\n      pop\n      pop\n      jump\t// out\n        /* \"contracts/SimpleStorage.sol\":325:347  People[] public people */\n    tag_25:\n      0x01\n      dup2\n      dup2\n      sload\n      dup2\n      lt\n      tag_34\n      jumpi\n      0x00\n      dup1\n      revert\n    tag_34:\n      swap1\n      0x00\n      mstore\n      keccak256(0x00, 0x20)\n      swap1\n      0x02\n      mul\n      add\n      0x00\n      swap2\n      pop\n      swap1\n      pop\n      dup1\n      0x00\n      add\n      dup1\n      sload\n      tag_36\n      swap1\n      tag_37\n      jump\t// in\n    tag_36:\n      dup1\n      0x1f\n      add\n      0x20\n      dup1\n      swap2\n      div\n      mul\n      0x20\n      add\n      mload(0x40)\n      swap1\n      dup2\n      add\n      0x40\n      mstore\n      dup1\n      swap3\n      swap2\n      swap1\n      dup2\n      dup2\n      mstore\n      0x20\n      add\n      dup3\n      dup1\n      sload\n      tag_38\n      swap1\n      tag_37\n      jump\t// in\n    tag_38:\n      dup1\n      iszero\n      tag_39\n      jumpi\n      dup1\n      0x1f\n      lt\n      tag_40\n      jumpi\n      0x0100\n      dup1\n      dup4\n      sload\n      div\n      mul\n      dup4\n      mstore\n      swap2\n      0x20\n      add\n      swap2\n      jump(tag_39)\n    tag_40:\n      dup3\n      add\n      swap2\n      swap1\n      0x00\n      mstore\n      keccak256(0x00, 0x20)\n      swap1\n    tag_41:\n      dup2\n      sload\n      dup2\n      mstore\n      swap1\n      0x01\n      add\n      swap1\n      0x20\n      add\n      dup1\n      dup4\n      gt\n      tag_41\n      jumpi\n      dup3\n      swap1\n      sub\n      0x1f\n      and\n      dup3\n      add\n      swap2\n    tag_39:\n      pop\n      pop\n      pop\n      pop\n      pop\n      swap1\n      dup1\n      0x01\n      add\n      sload\n      swap1\n      pop\n      dup3\n      jump\t// out\n        /* \"#utility.yul\":7:84   */\n    tag_42:\n        /* \"#utility.yul\":44:51   */\n      0x00\n        /* \"#utility.yul\":73:78   */\n      dup2\n        /* \"#utility.yul\":62:78   */\n      swap1\n      pop\n        /* \"#utility.yul\":7:84   */\n      swap2\n      swap1\n      pop\n      jump\t// out\n        /* \"#utility.yul\":90:208   */\n    tag_43:\n        /* \"#utility.yul\":177:201   */\n      tag_82\n        /* \"#utility.yul\":195:200   */\n      dup2\n        /* \"#utility.yul\":177:201   */\n      tag_42\n      jump\t// in\n    tag_82:\n        /* \"#utility.yul\":172:175   */\n      dup3\n        /* \"#utility.yul\":165:202   */\n      mstore\n        /* \"#utility.yul\":90:208   */\n      pop\n      pop\n      jump\t// out\n        /* \"#utility.yul\":214:436   */\n    tag_11:\n        /* \"#utility.yul\":307:311   */\n      0x00\n        /* \"#utility.yul\":345:347   */\n      0x20\n        /* \"#utility.yul\":334:343   */\n      dup3\n        /* \"#utility.yul\":330:348   */\n      add\n        /* \"#utility.yul\":322:348   */\n      swap1\n      pop\n        /* \"#utility.yul\":358:429   */\n      tag_84\n        /* \"#utility.yul\":426:427   */\n      0x00\n        /* \"#utility.yul\":415:424   */\n      dup4\n        /* \"#utility.yul\":411:428   */\n      add\n        /* \"#utility.yul\":402:408   */\n      dup5\n        /* \"#utility.yul\":358:429   */\n      tag_43\n      jump\t// in\n    tag_84:\n        /* \"#utility.yul\":214:436   */\n      swap3\n      swap2\n      pop\n      pop\n      jump\t// out\n        /* \"#utility.yul\":442:517   */\n    tag_44:\n        /* \"#utility.yul\":475:481   */\n      0x00\n        /* \"#utility.yul\":508:510   */\n      0x40\n        /* \"#utility.yul\":502:511   */\n      mload\n        /* \"#utility.yul\":492:511   */\n      swap1\n      pop\n        /* \"#utility.yul\":442:517   */\n      swap1\n      jump\t// out\n        /* \"#utility.yul\":523:640   */\n    tag_45:\n        /* \"#utility.yul\":632:633   */\n      0x00\n        /* \"#utility.yul\":629:630   */\n      dup1\n        /* \"#utility.yul\":622:634   */\n      revert\n        /* \"#utility.yul\":646:763   */\n    tag_46:\n        /* \"#utility.yul\":755:756   */\n      0x00\n        /* \"#utility.yul\":752:753   */\n      dup1\n        /* \"#utility.yul\":745:757   */\n      revert\n        /* \"#utility.yul\":769:891   */\n    tag_47:\n        /* \"#utility.yul\":842:866   */\n      tag_89\n        /* \"#utility.yul\":860:865   */\n      dup2\n        /* \"#utility.yul\":842:866   */\n      tag_42\n      jump\t// in\n    tag_89:\n        /* \"#utility.yul\":835:840   */\n      dup2\n        /* \"#utility.yul\":832:867   */\n      eq\n        /* \"#utility.yul\":822:885   */\n      tag_90\n      jumpi\n        /* \"#utility.yul\":881:882   */\n      0x00\n        /* \"#utility.yul\":878:879   */\n      dup1\n        /* \"#utility.yul\":871:883   */\n      revert\n        /* \"#utility.yul\":822:885   */\n    tag_90:\n        /* \"#utility.yul\":769:891   */\n      pop\n      jump\t// out\n        /* \"#utility.yul\":897:1036   */\n    tag_48:\n        /* \"#utility.yul\":943:948   */\n      0x00\n        /* \"#utility.yul\":981:987   */\n      dup2\n        /* \"#utility.yul\":968:988   */\n      calldataload\n        /* \"#utility.yul\":959:988   */\n      swap1\n      pop\n        /* \"#utility.yul\":997:1030   */\n      tag_92\n        /* \"#utility.yul\":1024:1029   */\n      dup2\n        /* \"#utility.yul\":997:1030   */\n      tag_47\n      jump\t// in\n    tag_92:\n        /* \"#utility.yul\":897:1036   */\n      swap3\n      swap2\n      pop\n      pop\n      jump\t// out\n        /* \"#utility.yul\":1042:1371   */\n    tag_17:\n        /* \"#utility.yul\":1101:1107   */\n      0x00\n        /* \"#utility.yul\":1150:1152   */\n      0x20\n        /* \"#utility.yul\":1138:1147   */\n      dup3\n        /* \"#utility.yul\":1129:1136   */\n      dup5\n        /* \"#utility.yul\":1125:1148   */\n      sub\n        /* \"#utility.yul\":1121:1153   */\n      slt\n        /* \"#utility.yul\":1118:1237   */\n      iszero\n      tag_94\n      jumpi\n        /* \"#utility.yul\":1156:1235   */\n      tag_95\n      tag_45\n      jump\t// in\n    tag_95:\n        /* \"#utility.yul\":1118:1237   */\n    tag_94:\n        /* \"#utility.yul\":1276:1277   */\n      0x00\n        /* \"#utility.yul\":1301:1354   */\n      tag_96\n        /* \"#utility.yul\":1346:1353   */\n      dup5\n        /* \"#utility.yul\":1337:1343   */\n      dup3\n        /* \"#utility.yul\":1326:1335   */\n      dup6\n        /* \"#utility.yul\":1322:1344   */\n      add\n        /* \"#utility.yul\":1301:1354   */\n      tag_48\n      jump\t// in\n    tag_96:\n        /* \"#utility.yul\":1291:1354   */\n      swap2\n      pop\n        /* \"#utility.yul\":1247:1364   */\n      pop\n        /* \"#utility.yul\":1042:1371   */\n      swap3\n      swap2\n      pop\n      pop\n      jump\t// out\n        /* \"#utility.yul\":1377:1494   */\n    tag_49:\n        /* \"#utility.yul\":1486:1487   */\n      0x00\n        /* \"#utility.yul\":1483:1484   */\n      dup1\n        /* \"#utility.yul\":1476:1488   */\n      revert\n        /* \"#utility.yul\":1500:1617   */\n    tag_50:\n        /* \"#utility.yul\":1609:1610   */\n      0x00\n        /* \"#utility.yul\":1606:1607   */\n      dup1\n        /* \"#utility.yul\":1599:1611   */\n      revert\n        /* \"#utility.yul\":1623:1725   */\n    tag_51:\n        /* \"#utility.yul\":1664:1670   */\n      0x00\n        /* \"#utility.yul\":1715:1717   */\n      0x1f\n        /* \"#utility.yul\":1711:1718   */\n      not\n        /* \"#utility.yul\":1706:1708   */\n      0x1f\n        /* \"#utility.yul\":1699:1704   */\n      dup4\n        /* \"#utility.yul\":1695:1709   */\n      add\n        /* \"#utility.yul\":1691:1719   */\n      and\n        /* \"#utility.yul\":1681:1719   */\n      swap1\n      pop\n        /* \"#utility.yul\":1623:1725   */\n      swap2\n      swap1\n      pop\n      jump\t// out\n        /* \"#utility.yul\":1731:1911   */\n    tag_52:\n        /* \"#utility.yul\":1779:1856   */\n      0x4e487b7100000000000000000000000000000000000000000000000000000000\n        /* \"#utility.yul\":1776:1777   */\n      0x00\n        /* \"#utility.yul\":1769:1857   */\n      mstore\n        /* \"#utility.yul\":1876:1880   */\n      0x41\n        /* \"#utility.yul\":1873:1874   */\n      0x04\n        /* \"#utility.yul\":1866:1881   */\n      mstore\n        /* \"#utility.yul\":1900:1904   */\n      0x24\n        /* \"#utility.yul\":1897:1898   */\n      0x00\n        /* \"#utility.yul\":1890:1905   */\n      revert\n        /* \"#utility.yul\":1917:2198   */\n    tag_53:\n        /* \"#utility.yul\":2000:2027   */\n      tag_102\n        /* \"#utility.yul\":2022:2026   */\n      dup3\n        /* \"#utility.yul\":2000:2027   */\n      tag_51\n      jump\t// in\n    tag_102:\n        /* \"#utility.yul\":1992:1998   */\n      dup2\n        /* \"#utility.yul\":1988:2028   */\n      add\n        /* \"#utility.yul\":2130:2136   */\n      dup2\n        /* \"#utility.yul\":2118:2128   */\n      dup2\n        /* \"#utility.yul\":2115:2137   */\n      lt\n        /* \"#utility.yul\":2094:2112   */\n      0xffffffffffffffff\n        /* \"#utility.yul\":2082:2092   */\n      dup3\n        /* \"#utility.yul\":2079:2113   */\n      gt\n        /* \"#utility.yul\":2076:2138   */\n      or\n        /* \"#utility.yul\":2073:2161   */\n      iszero\n      tag_103\n      jumpi\n        /* \"#utility.yul\":2141:2159   */\n      tag_104\n      tag_52\n      jump\t// in\n    tag_104:\n        /* \"#utility.yul\":2073:2161   */\n    tag_103:\n        /* \"#utility.yul\":2181:2191   */\n      dup1\n        /* \"#utility.yul\":2177:2179   */\n      0x40\n        /* \"#utility.yul\":2170:2192   */\n      mstore\n        /* \"#utility.yul\":1960:2198   */\n      pop\n        /* \"#utility.yul\":1917:2198   */\n      pop\n      pop\n      jump\t// out\n        /* \"#utility.yul\":2204:2333   */\n    tag_54:\n        /* \"#utility.yul\":2238:2244   */\n      0x00\n        /* \"#utility.yul\":2265:2285   */\n      tag_106\n      tag_44\n      jump\t// in\n    tag_106:\n        /* \"#utility.yul\":2255:2285   */\n      swap1\n      pop\n        /* \"#utility.yul\":2294:2327   */\n      tag_107\n        /* \"#utility.yul\":2322:2326   */\n      dup3\n        /* \"#utility.yul\":2314:2320   */\n      dup3\n        /* \"#utility.yul\":2294:2327   */\n      tag_53\n      jump\t// in\n    tag_107:\n        /* \"#utility.yul\":2204:2333   */\n      swap2\n      swap1\n      pop\n      jump\t// out\n        /* \"#utility.yul\":2339:2647   */\n    tag_55:\n        /* \"#utility.yul\":2401:2405   */\n      0x00\n        /* \"#utility.yul\":2491:2509   */\n      0xffffffffffffffff\n        /* \"#utility.yul\":2483:2489   */\n      dup3\n        /* \"#utility.yul\":2480:2510   */\n      gt\n        /* \"#utility.yul\":2477:2533   */\n      iszero\n      tag_109\n      jumpi\n        /* \"#utility.yul\":2513:2531   */\n      tag_110\n      tag_52\n      jump\t// in\n    tag_110:\n        /* \"#utility.yul\":2477:2533   */\n    tag_109:\n        /* \"#utility.yul\":2551:2580   */\n      tag_111\n        /* \"#utility.yul\":2573:2579   */\n      dup3\n        /* \"#utility.yul\":2551:2580   */\n      tag_51\n      jump\t// in\n    tag_111:\n        /* \"#utility.yul\":2543:2580   */\n      swap1\n      pop\n        /* \"#utility.yul\":2635:2639   */\n      0x20\n        /* \"#utility.yul\":2629:2633   */\n      dup2\n        /* \"#utility.yul\":2625:2640   */\n      add\n        /* \"#utility.yul\":2617:2640   */\n      swap1\n      pop\n        /* \"#utility.yul\":2339:2647   */\n      swap2\n      swap1\n      pop\n      jump\t// out\n        /* \"#utility.yul\":2653:2799   */\n    tag_56:\n        /* \"#utility.yul\":2750:2756   */\n      dup3\n        /* \"#utility.yul\":2745:2748   */\n      dup2\n        /* \"#utility.yul\":2740:2743   */\n      dup4\n        /* \"#utility.yul\":2727:2757   */\n      calldatacopy\n        /* \"#utility.yul\":2791:2792   */\n      0x00\n        /* \"#utility.yul\":2782:2788   */\n      dup4\n        /* \"#utility.yul\":2777:2780   */\n      dup4\n        /* \"#utility.yul\":2773:2789   */\n      add\n        /* \"#utility.yul\":2766:2793   */\n      mstore\n        /* \"#utility.yul\":2653:2799   */\n      pop\n      pop\n      pop\n      jump\t// out\n        /* \"#utility.yul\":2805:3230   */\n    tag_57:\n        /* \"#utility.yul\":2883:2888   */\n      0x00\n        /* \"#utility.yul\":2908:2974   */\n      tag_114\n        /* \"#utility.yul\":2924:2973   */\n      tag_115\n        /* \"#utility.yul\":2966:2972   */\n      dup5\n        /* \"#utility.yul\":2924:2973   */\n      tag_55\n      jump\t// in\n    tag_115:\n        /* \"#utility.yul\":2908:2974   */\n      tag_54\n      jump\t// in\n    tag_114:\n        /* \"#utility.yul\":2899:2974   */\n      swap1\n      pop\n        /* \"#utility.yul\":2997:3003   */\n      dup3\n        /* \"#utility.yul\":2990:2995   */\n      dup2\n        /* \"#utility.yul\":2983:3004   */\n      mstore\n        /* \"#utility.yul\":3035:3039   */\n      0x20\n        /* \"#utility.yul\":3028:3033   */\n      dup2\n        /* \"#utility.yul\":3024:3040   */\n      add\n        /* \"#utility.yul\":3073:3076   */\n      dup5\n        /* \"#utility.yul\":3064:3070   */\n      dup5\n        /* \"#utility.yul\":3059:3062   */\n      dup5\n        /* \"#utility.yul\":3055:3071   */\n      add\n        /* \"#utility.yul\":3052:3077   */\n      gt\n        /* \"#utility.yul\":3049:3161   */\n      iszero\n      tag_116\n      jumpi\n        /* \"#utility.yul\":3080:3159   */\n      tag_117\n      tag_50\n      jump\t// in\n    tag_117:\n        /* \"#utility.yul\":3049:3161   */\n    tag_116:\n        /* \"#utility.yul\":3170:3224   */\n      tag_118\n        /* \"#utility.yul\":3217:3223   */\n      dup5\n        /* \"#utility.yul\":3212:3215   */\n      dup3\n        /* \"#utility.yul\":3207:3210   */\n      dup6\n        /* \"#utility.yul\":3170:3224   */\n      tag_56\n      jump\t// in\n    tag_118:\n        /* \"#utility.yul\":2889:3230   */\n      pop\n        /* \"#utility.yul\":2805:3230   */\n      swap4\n      swap3\n      pop\n      pop\n      pop\n      jump\t// out\n        /* \"#utility.yul\":3250:3590   */\n    tag_58:\n        /* \"#utility.yul\":3306:3311   */\n      0x00\n        /* \"#utility.yul\":3355:3358   */\n      dup3\n        /* \"#utility.yul\":3348:3352   */\n      0x1f\n        /* \"#utility.yul\":3340:3346   */\n      dup4\n        /* \"#utility.yul\":3336:3353   */\n      add\n        /* \"#utility.yul\":3332:3359   */\n      slt\n        /* \"#utility.yul\":3322:3444   */\n      tag_120\n      jumpi\n        /* \"#utility.yul\":3363:3442   */\n      tag_121\n      tag_49\n      jump\t// in\n    tag_121:\n        /* \"#utility.yul\":3322:3444   */\n    tag_120:\n        /* \"#utility.yul\":3480:3486   */\n      dup2\n        /* \"#utility.yul\":3467:3487   */\n      calldataload\n        /* \"#utility.yul\":3505:3584   */\n      tag_122\n        /* \"#utility.yul\":3580:3583   */\n      dup5\n        /* \"#utility.yul\":3572:3578   */\n      dup3\n        /* \"#utility.yul\":3565:3569   */\n      0x20\n        /* \"#utility.yul\":3557:3563   */\n      dup7\n        /* \"#utility.yul\":3553:3570   */\n      add\n        /* \"#utility.yul\":3505:3584   */\n      tag_57\n      jump\t// in\n    tag_122:\n        /* \"#utility.yul\":3496:3584   */\n      swap2\n      pop\n        /* \"#utility.yul\":3312:3590   */\n      pop\n        /* \"#utility.yul\":3250:3590   */\n      swap3\n      swap2\n      pop\n      pop\n      jump\t// out\n        /* \"#utility.yul\":3596:4250   */\n    tag_21:\n        /* \"#utility.yul\":3674:3680   */\n      0x00\n        /* \"#utility.yul\":3682:3688   */\n      dup1\n        /* \"#utility.yul\":3731:3733   */\n      0x40\n        /* \"#utility.yul\":3719:3728   */\n      dup4\n        /* \"#utility.yul\":3710:3717   */\n      dup6\n        /* \"#utility.yul\":3706:3729   */\n      sub\n        /* \"#utility.yul\":3702:3734   */\n      slt\n        /* \"#utility.yul\":3699:3818   */\n      iszero\n      tag_124\n      jumpi\n        /* \"#utility.yul\":3737:3816   */\n      tag_125\n      tag_45\n      jump\t// in\n    tag_125:\n        /* \"#utility.yul\":3699:3818   */\n    tag_124:\n        /* \"#utility.yul\":3885:3886   */\n      0x00\n        /* \"#utility.yul\":3874:3883   */\n      dup4\n        /* \"#utility.yul\":3870:3887   */\n      add\n        /* \"#utility.yul\":3857:3888   */\n      calldataload\n        /* \"#utility.yul\":3915:3933   */\n      0xffffffffffffffff\n        /* \"#utility.yul\":3907:3913   */\n      dup2\n        /* \"#utility.yul\":3904:3934   */\n      gt\n        /* \"#utility.yul\":3901:4018   */\n      iszero\n      tag_126\n      jumpi\n        /* \"#utility.yul\":3937:4016   */\n      tag_127\n      tag_46\n      jump\t// in\n    tag_127:\n        /* \"#utility.yul\":3901:4018   */\n    tag_126:\n        /* \"#utility.yul\":4042:4105   */\n      tag_128\n        /* \"#utility.yul\":4097:4104   */\n      dup6\n        /* \"#utility.yul\":4088:4094   */\n      dup3\n        /* \"#utility.yul\":4077:4086   */\n      dup7\n        /* \"#utility.yul\":4073:4095   */\n      add\n        /* \"#utility.yul\":4042:4105   */\n      tag_58\n      jump\t// in\n    tag_128:\n        /* \"#utility.yul\":4032:4105   */\n      swap3\n      pop\n        /* \"#utility.yul\":3828:4115   */\n      pop\n        /* \"#utility.yul\":4154:4156   */\n      0x20\n        /* \"#utility.yul\":4180:4233   */\n      tag_129\n        /* \"#utility.yul\":4225:4232   */\n      dup6\n        /* \"#utility.yul\":4216:4222   */\n      dup3\n        /* \"#utility.yul\":4205:4214   */\n      dup7\n        /* \"#utility.yul\":4201:4223   */\n      add\n        /* \"#utility.yul\":4180:4233   */\n      tag_48\n      jump\t// in\n    tag_129:\n        /* \"#utility.yul\":4170:4233   */\n      swap2\n      pop\n        /* \"#utility.yul\":4125:4243   */\n      pop\n        /* \"#utility.yul\":3596:4250   */\n      swap3\n      pop\n      swap3\n      swap1\n      pop\n      jump\t// out\n        /* \"#utility.yul\":4256:4355   */\n    tag_59:\n        /* \"#utility.yul\":4308:4314   */\n      0x00\n        /* \"#utility.yul\":4342:4347   */\n      dup2\n        /* \"#utility.yul\":4336:4348   */\n      mload\n        /* \"#utility.yul\":4326:4348   */\n      swap1\n      pop\n        /* \"#utility.yul\":4256:4355   */\n      swap2\n      swap1\n      pop\n      jump\t// out\n        /* \"#utility.yul\":4361:4530   */\n    tag_60:\n        /* \"#utility.yul\":4445:4456   */\n      0x00\n        /* \"#utility.yul\":4479:4485   */\n      dup3\n        /* \"#utility.yul\":4474:4477   */\n      dup3\n        /* \"#utility.yul\":4467:4486   */\n      mstore\n        /* \"#utility.yul\":4519:4523   */\n      0x20\n        /* \"#utility.yul\":4514:4517   */\n      dup3\n        /* \"#utility.yul\":4510:4524   */\n      add\n        /* \"#utility.yul\":4495:4524   */\n      swap1\n      pop\n        /* \"#utility.yul\":4361:4530   */\n      swap3\n      swap2\n      pop\n      pop\n      jump\t// out\n        /* \"#utility.yul\":4536:4782   */\n    tag_61:\n        /* \"#utility.yul\":4617:4618   */\n      0x00\n        /* \"#utility.yul\":4627:4740   */\n    tag_133:\n        /* \"#utility.yul\":4641:4647   */\n      dup4\n        /* \"#utility.yul\":4638:4639   */\n      dup2\n        /* \"#utility.yul\":4635:4648   */\n      lt\n        /* \"#utility.yul\":4627:4740   */\n      iszero\n      tag_135\n      jumpi\n        /* \"#utility.yul\":4726:4727   */\n      dup1\n        /* \"#utility.yul\":4721:4724   */\n      dup3\n        /* \"#utility.yul\":4717:4728   */\n      add\n        /* \"#utility.yul\":4711:4729   */\n      mload\n        /* \"#utility.yul\":4707:4708   */\n      dup2\n        /* \"#utility.yul\":4702:4705   */\n      dup5\n        /* \"#utility.yul\":4698:4709   */\n      add\n        /* \"#utility.yul\":4691:4730   */\n      mstore\n        /* \"#utility.yul\":4663:4665   */\n      0x20\n        /* \"#utility.yul\":4660:4661   */\n      dup2\n        /* \"#utility.yul\":4656:4666   */\n      add\n        /* \"#utility.yul\":4651:4666   */\n      swap1\n      pop\n        /* \"#utility.yul\":4627:4740   */\n      jump(tag_133)\n    tag_135:\n        /* \"#utility.yul\":4774:4775   */\n      0x00\n        /* \"#utility.yul\":4765:4771   */\n      dup5\n        /* \"#utility.yul\":4760:4763   */\n      dup5\n        /* \"#utility.yul\":4756:4772   */\n      add\n        /* \"#utility.yul\":4749:4776   */\n      mstore\n        /* \"#utility.yul\":4598:4782   */\n      pop\n        /* \"#utility.yul\":4536:4782   */\n      pop\n      pop\n      pop\n      jump\t// out\n        /* \"#utility.yul\":4788:5165   */\n    tag_62:\n        /* \"#utility.yul\":4876:4879   */\n      0x00\n        /* \"#utility.yul\":4904:4943   */\n      tag_137\n        /* \"#utility.yul\":4937:4942   */\n      dup3\n        /* \"#utility.yul\":4904:4943   */\n      tag_59\n      jump\t// in\n    tag_137:\n        /* \"#utility.yul\":4959:5030   */\n      tag_138\n        /* \"#utility.yul\":5023:5029   */\n      dup2\n        /* \"#utility.yul\":5018:5021   */\n      dup6\n        /* \"#utility.yul\":4959:5030   */\n      tag_60\n      jump\t// in\n    tag_138:\n        /* \"#utility.yul\":4952:5030   */\n      swap4\n      pop\n        /* \"#utility.yul\":5039:5104   */\n      tag_139\n        /* \"#utility.yul\":5097:5103   */\n      dup2\n        /* \"#utility.yul\":5092:5095   */\n      dup6\n        /* \"#utility.yul\":5085:5089   */\n      0x20\n        /* \"#utility.yul\":5078:5083   */\n      dup7\n        /* \"#utility.yul\":5074:5090   */\n      add\n        /* \"#utility.yul\":5039:5104   */\n      tag_61\n      jump\t// in\n    tag_139:\n        /* \"#utility.yul\":5129:5158   */\n      tag_140\n        /* \"#utility.yul\":5151:5157   */\n      dup2\n        /* \"#utility.yul\":5129:5158   */\n      tag_51\n      jump\t// in\n    tag_140:\n        /* \"#utility.yul\":5124:5127   */\n      dup5\n        /* \"#utility.yul\":5120:5159   */\n      add\n        /* \"#utility.yul\":5113:5159   */\n      swap2\n      pop\n        /* \"#utility.yul\":4880:5165   */\n      pop\n        /* \"#utility.yul\":4788:5165   */\n      swap3\n      swap2\n      pop\n      pop\n      jump\t// out\n        /* \"#utility.yul\":5171:5594   */\n    tag_27:\n        /* \"#utility.yul\":5312:5316   */\n      0x00\n        /* \"#utility.yul\":5350:5352   */\n      0x40\n        /* \"#utility.yul\":5339:5348   */\n      dup3\n        /* \"#utility.yul\":5335:5353   */\n      add\n        /* \"#utility.yul\":5327:5353   */\n      swap1\n      pop\n        /* \"#utility.yul\":5399:5408   */\n      dup2\n        /* \"#utility.yul\":5393:5397   */\n      dup2\n        /* \"#utility.yul\":5389:5409   */\n      sub\n        /* \"#utility.yul\":5385:5386   */\n      0x00\n        /* \"#utility.yul\":5374:5383   */\n      dup4\n        /* \"#utility.yul\":5370:5387   */\n      add\n        /* \"#utility.yul\":5363:5410   */\n      mstore\n        /* \"#utility.yul\":5427:5505   */\n      tag_142\n        /* \"#utility.yul\":5500:5504   */\n      dup2\n        /* \"#utility.yul\":5491:5497   */\n      dup6\n        /* \"#utility.yul\":5427:5505   */\n      tag_62\n      jump\t// in\n    tag_142:\n        /* \"#utility.yul\":5419:5505   */\n      swap1\n      pop\n        /* \"#utility.yul\":5515:5587   */\n      tag_143\n        /* \"#utility.yul\":5583:5585   */\n      0x20\n        /* \"#utility.yul\":5572:5581   */\n      dup4\n        /* \"#utility.yul\":5568:5586   */\n      add\n        /* \"#utility.yul\":5559:5565   */\n      dup5\n        /* \"#utility.yul\":5515:5587   */\n      tag_43\n      jump\t// in\n    tag_143:\n        /* \"#utility.yul\":5171:5594   */\n      swap4\n      swap3\n      pop\n      pop\n      pop\n      jump\t// out\n        /* \"#utility.yul\":5600:5780   */\n    tag_63:\n        /* \"#utility.yul\":5648:5725   */\n      0x4e487b7100000000000000000000000000000000000000000000000000000000\n        /* \"#utility.yul\":5645:5646   */\n      0x00\n        /* \"#utility.yul\":5638:5726   */\n      mstore\n        /* \"#utility.yul\":5745:5749   */\n      0x22\n        /* \"#utility.yul\":5742:5743   */\n      0x04\n        /* \"#utility.yul\":5735:5750   */\n      mstore\n        /* \"#utility.yul\":5769:5773   */\n      0x24\n        /* \"#utility.yul\":5766:5767   */\n      0x00\n        /* \"#utility.yul\":5759:5774   */\n      revert\n        /* \"#utility.yul\":5786:6106   */\n    tag_37:\n        /* \"#utility.yul\":5830:5836   */\n      0x00\n        /* \"#utility.yul\":5867:5868   */\n      0x02\n        /* \"#utility.yul\":5861:5865   */\n      dup3\n        /* \"#utility.yul\":5857:5869   */\n      div\n        /* \"#utility.yul\":5847:5869   */\n      swap1\n      pop\n        /* \"#utility.yul\":5914:5915   */\n      0x01\n        /* \"#utility.yul\":5908:5912   */\n      dup3\n        /* \"#utility.yul\":5904:5916   */\n      and\n        /* \"#utility.yul\":5935:5953   */\n      dup1\n        /* \"#utility.yul\":5925:6006   */\n      tag_146\n      jumpi\n        /* \"#utility.yul\":5991:5995   */\n      0x7f\n        /* \"#utility.yul\":5983:5989   */\n      dup3\n        /* \"#utility.yul\":5979:5996   */\n      and\n        /* \"#utility.yul\":5969:5996   */\n      swap2\n      pop\n        /* \"#utility.yul\":5925:6006   */\n    tag_146:\n        /* \"#utility.yul\":6053:6055   */\n      0x20\n        /* \"#utility.yul\":6045:6051   */\n      dup3\n        /* \"#utility.yul\":6042:6056   */\n      lt\n        /* \"#utility.yul\":6022:6040   */\n      dup2\n        /* \"#utility.yul\":6019:6057   */\n      sub\n        /* \"#utility.yul\":6016:6100   */\n      tag_147\n      jumpi\n        /* \"#utility.yul\":6072:6090   */\n      tag_148\n      tag_63\n      jump\t// in\n    tag_148:\n        /* \"#utility.yul\":6016:6100   */\n    tag_147:\n        /* \"#utility.yul\":5837:6106   */\n      pop\n        /* \"#utility.yul\":5786:6106   */\n      swap2\n      swap1\n      pop\n      jump\t// out\n        /* \"#utility.yul\":6112:6253   */\n    tag_64:\n        /* \"#utility.yul\":6161:6165   */\n      0x00\n        /* \"#utility.yul\":6184:6187   */\n      dup2\n        /* \"#utility.yul\":6176:6187   */\n      swap1\n      pop\n        /* \"#utility.yul\":6207:6210   */\n      dup2\n        /* \"#utility.yul\":6204:6205   */\n      0x00\n        /* \"#utility.yul\":6197:6211   */\n      mstore\n        /* \"#utility.yul\":6241:6245   */\n      0x20\n        /* \"#utility.yul\":6238:6239   */\n      0x00\n        /* \"#utility.yul\":6228:6246   */\n      keccak256\n        /* \"#utility.yul\":6220:6246   */\n      swap1\n      pop\n        /* \"#utility.yul\":6112:6253   */\n      swap2\n      swap1\n      pop\n      jump\t// out\n        /* \"#utility.yul\":6259:6352   */\n    tag_65:\n        /* \"#utility.yul\":6296:6302   */\n      0x00\n        /* \"#utility.yul\":6343:6345   */\n      0x20\n        /* \"#utility.yul\":6338:6340   */\n      0x1f\n        /* \"#utility.yul\":6331:6336   */\n      dup4\n        /* \"#utility.yul\":6327:6341   */\n      add\n        /* \"#utility.yul\":6323:6346   */\n      div\n        /* \"#utility.yul\":6313:6346   */\n      swap1\n      pop\n        /* \"#utility.yul\":6259:6352   */\n      swap2\n      swap1\n      pop\n      jump\t// out\n        /* \"#utility.yul\":6358:6465   */\n    tag_66:\n        /* \"#utility.yul\":6402:6410   */\n      0x00\n        /* \"#utility.yul\":6452:6457   */\n      dup3\n        /* \"#utility.yul\":6446:6450   */\n      dup3\n        /* \"#utility.yul\":6442:6458   */\n      shl\n        /* \"#utility.yul\":6421:6458   */\n      swap1\n      pop\n        /* \"#utility.yul\":6358:6465   */\n      swap3\n      swap2\n      pop\n      pop\n      jump\t// out\n        /* \"#utility.yul\":6471:6864   */\n    tag_67:\n        /* \"#utility.yul\":6540:6546   */\n      0x00\n        /* \"#utility.yul\":6590:6591   */\n      0x08\n        /* \"#utility.yul\":6578:6588   */\n      dup4\n        /* \"#utility.yul\":6574:6592   */\n      mul\n        /* \"#utility.yul\":6613:6710   */\n      tag_153\n        /* \"#utility.yul\":6643:6709   */\n      0xffffffffffffffffffffffffffffffffffffffffffffffffffffffffffffffff\n        /* \"#utility.yul\":6632:6641   */\n      dup3\n        /* \"#utility.yul\":6613:6710   */\n      tag_66\n      jump\t// in\n    tag_153:\n        /* \"#utility.yul\":6731:6770   */\n      tag_154\n        /* \"#utility.yul\":6761:6769   */\n      dup7\n        /* \"#utility.yul\":6750:6759   */\n      dup4\n        /* \"#utility.yul\":6731:6770   */\n      tag_66\n      jump\t// in\n    tag_154:\n        /* \"#utility.yul\":6719:6770   */\n      swap6\n      pop\n        /* \"#utility.yul\":6803:6807   */\n      dup1\n        /* \"#utility.yul\":6799:6808   */\n      not\n        /* \"#utility.yul\":6792:6797   */\n      dup5\n        /* \"#utility.yul\":6788:6809   */\n      and\n        /* \"#utility.yul\":6779:6809   */\n      swap4\n      pop\n        /* \"#utility.yul\":6852:6856   */\n      dup1\n        /* \"#utility.yul\":6842:6850   */\n      dup7\n        /* \"#utility.yul\":6838:6857   */\n      and\n        /* \"#utility.yul\":6831:6836   */\n      dup5\n        /* \"#utility.yul\":6828:6858   */\n      or\n        /* \"#utility.yul\":6818:6858   */\n      swap3\n      pop\n        /* \"#utility.yul\":6547:6864   */\n      pop\n      pop\n        /* \"#utility.yul\":6471:6864   */\n      swap4\n      swap3\n      pop\n      pop\n      pop\n      jump\t// out\n        /* \"#utility.yul\":6870:6930   */\n    tag_68:\n        /* \"#utility.yul\":6898:6901   */\n      0x00\n        /* \"#utility.yul\":6919:6924   */\n      dup2\n        /* \"#utility.yul\":6912:6924   */\n      swap1\n      pop\n        /* \"#utility.yul\":6870:6930   */\n      swap2\n      swap1\n      pop\n      jump\t// out\n        /* \"#utility.yul\":6936:7078   */\n    tag_69:\n        /* \"#utility.yul\":6986:6995   */\n      0x00\n        /* \"#utility.yul\":7019:7072   */\n      tag_157\n        /* \"#utility.yul\":7037:7071   */\n      tag_158\n        /* \"#utility.yul\":7046:7070   */\n      tag_159\n        /* \"#utility.yul\":7064:7069   */\n      dup5\n        /* \"#utility.yul\":7046:7070   */\n      tag_42\n      jump\t// in\n    tag_159:\n        /* \"#utility.yul\":7037:7071   */\n      tag_68\n      jump\t// in\n    tag_158:\n        /* \"#utility.yul\":7019:7072   */\n      tag_42\n      jump\t// in\n    tag_157:\n        /* \"#utility.yul\":7006:7072   */\n      swap1\n      pop\n        /* \"#utility.yul\":6936:7078   */\n      swap2\n      swap1\n      pop\n      jump\t// out\n        /* \"#utility.yul\":7084:7159   */\n    tag_70:\n        /* \"#utility.yul\":7127:7130   */\n      0x00\n        /* \"#utility.yul\":7148:7153   */\n      dup2\n        /* \"#utility.yul\":7141:7153   */\n      swap1\n      pop\n        /* \"#utility.yul\":7084:7159   */\n      swap2\n      swap1\n      pop\n      jump\t// out\n        /* \"#utility.yul\":7165:7434   */\n    tag_71:\n        /* \"#utility.yul\":7275:7314   */\n      tag_162\n        /* \"#utility.yul\":7306:7313   */\n      dup4\n        /* \"#utility.yul\":7275:7314   */\n      tag_69\n      jump\t// in\n    tag_162:\n        /* \"#utility.yul\":7336:7427   */\n      tag_163\n        /* \"#utility.yul\":7385:7426   */\n      tag_164\n        /* \"#utility.yul\":7409:7425   */\n      dup3\n        /* \"#utility.yul\":7385:7426   */\n      tag_70\n      jump\t// in\n    tag_164:\n        /* \"#utility.yul\":7377:7383   */\n      dup5\n        /* \"#utility.yul\":7370:7374   */\n      dup5\n        /* \"#utility.yul\":7364:7375   */\n      sload\n        /* \"#utility.yul\":7336:7427   */\n      tag_67\n      jump\t// in\n    tag_163:\n        /* \"#utility.yul\":7330:7334   */\n      dup3\n        /* \"#utility.yul\":7323:7428   */\n      sstore\n        /* \"#utility.yul\":7241:7434   */\n      pop\n        /* \"#utility.yul\":7165:7434   */\n      pop\n      pop\n      pop\n      jump\t// out\n        /* \"#utility.yul\":7440:7513   */\n    tag_72:\n        /* \"#utility.yul\":7485:7488   */\n      0x00\n        /* \"#utility.yul\":7440:7513   */\n      swap1\n      jump\t// out\n        /* \"#utility.yul\":7519:7708   */\n    tag_73:\n        /* \"#utility.yul\":7596:7628   */\n      tag_167\n      tag_72\n      jump\t// in\n    tag_167:\n        /* \"#utility.yul\":7637:7702   */\n      tag_168\n        /* \"#utility.yul\":7695:7701   */\n      dup2\n        /* \"#utility.yul\":7687:7693   */\n      dup5\n        /* \"#utility.yul\":7681:7685   */\n      dup5\n        /* \"#utility.yul\":7637:7702   */\n      tag_71\n      jump\t// in\n    tag_168:\n        /* \"#utility.yul\":7572:7708   */\n      pop\n        /* \"#utility.yul\":7519:7708   */\n      pop\n      pop\n      jump\t// out\n        /* \"#utility.yul\":7714:7900   */\n    tag_74:\n        /* \"#utility.yul\":7774:7894   */\n    tag_170:\n        /* \"#utility.yul\":7791:7794   */\n      dup2\n        /* \"#utility.yul\":7784:7789   */\n      dup2\n        /* \"#utility.yul\":7781:7795   */\n      lt\n        /* \"#utility.yul\":7774:7894   */\n      iszero\n      tag_172\n      jumpi\n        /* \"#utility.yul\":7845:7884   */\n      tag_173\n        /* \"#utility.yul\":7882:7883   */\n      0x00\n        /* \"#utility.yul\":7875:7880   */\n      dup3\n        /* \"#utility.yul\":7845:7884   */\n      tag_73\n      jump\t// in\n    tag_173:\n        /* \"#utility.yul\":7818:7819   */\n      0x01\n        /* \"#utility.yul\":7811:7816   */\n      dup2\n        /* \"#utility.yul\":7807:7820   */\n      add\n        /* \"#utility.yul\":7798:7820   */\n      swap1\n      pop\n        /* \"#utility.yul\":7774:7894   */\n      jump(tag_170)\n    tag_172:\n        /* \"#utility.yul\":7714:7900   */\n      pop\n      pop\n      jump\t// out\n        /* \"#utility.yul\":7906:8449   */\n    tag_75:\n        /* \"#utility.yul\":8007:8009   */\n      0x1f\n        /* \"#utility.yul\":8002:8005   */\n      dup3\n        /* \"#utility.yul\":7999:8010   */\n      gt\n        /* \"#utility.yul\":7996:8442   */\n      iszero\n      tag_175\n      jumpi\n        /* \"#utility.yul\":8041:8079   */\n      tag_176\n        /* \"#utility.yul\":8073:8078   */\n      dup2\n        /* \"#utility.yul\":8041:8079   */\n      tag_64\n      jump\t// in\n    tag_176:\n        /* \"#utility.yul\":8125:8154   */\n      tag_177\n        /* \"#utility.yul\":8143:8153   */\n      dup5\n        /* \"#utility.yul\":8125:8154   */\n      tag_65\n      jump\t// in\n    tag_177:\n        /* \"#utility.yul\":8115:8123   */\n      dup2\n        /* \"#utility.yul\":8111:8155   */\n      add\n        /* \"#utility.yul\":8308:8310   */\n      0x20\n        /* \"#utility.yul\":8296:8306   */\n      dup6\n        /* \"#utility.yul\":8293:8311   */\n      lt\n        /* \"#utility.yul\":8290:8339   */\n      iszero\n      tag_178\n      jumpi\n        /* \"#utility.yul\":8329:8337   */\n      dup2\n        /* \"#utility.yul\":8314:8337   */\n      swap1\n      pop\n        /* \"#utility.yul\":8290:8339   */\n    tag_178:\n        /* \"#utility.yul\":8352:8432   */\n      tag_179\n        /* \"#utility.yul\":8408:8430   */\n      tag_180\n        /* \"#utility.yul\":8426:8429   */\n      dup6\n        /* \"#utility.yul\":8408:8430   */\n      tag_65\n      jump\t// in\n    tag_180:\n        /* \"#utility.yul\":8398:8406   */\n      dup4\n        /* \"#utility.yul\":8394:8431   */\n      add\n        /* \"#utility.yul\":8381:8392   */\n      dup3\n        /* \"#utility.yul\":8352:8432   */\n      tag_74\n      jump\t// in\n    tag_179:\n        /* \"#utility.yul\":8011:8442   */\n      pop\n      pop\n        /* \"#utility.yul\":7996:8442   */\n    tag_175:\n        /* \"#utility.yul\":7906:8449   */\n      pop\n      pop\n      pop\n      jump\t// out\n        /* \"#utility.yul\":8455:8572   */\n    tag_76:\n        /* \"#utility.yul\":8509:8517   */\n      0x00\n        /* \"#utility.yul\":8559:8564   */\n      dup3\n        /* \"#utility.yul\":8553:8557   */\n      dup3\n        /* \"#utility.yul\":8549:8565   */\n      shr\n        /* \"#utility.yul\":8528:8565   */\n      swap1\n      pop\n        /* \"#utility.yul\":8455:8572   */\n      swap3\n      swap2\n      pop\n      pop\n      jump\t// out\n        /* \"#utility.yul\":8578:8747   */\n    tag_77:\n        /* \"#utility.yul\":8622:8628   */\n      0x00\n        /* \"#utility.yul\":8655:8706   */\n      tag_183\n        /* \"#utility.yul\":8703:8704   */\n      0x00\n        /* \"#utility.yul\":8699:8705   */\n      not\n        /* \"#utility.yul\":8691:8696   */\n      dup5\n        /* \"#utility.yul\":8688:8689   */\n      0x08\n        /* \"#utility.yul\":8684:8697   */\n      mul\n        /* \"#utility.yul\":8655:8706   */\n      tag_76\n      jump\t// in\n    tag_183:\n        /* \"#utility.yul\":8651:8707   */\n      not\n        /* \"#utility.yul\":8736:8740   */\n      dup1\n        /* \"#utility.yul\":8730:8734   */\n      dup4\n        /* \"#utility.yul\":8726:8741   */\n      and\n        /* \"#utility.yul\":8716:8741   */\n      swap2\n      pop\n        /* \"#utility.yul\":8629:8747   */\n      pop\n        /* \"#utility.yul\":8578:8747   */\n      swap3\n      swap2\n      pop\n      pop\n      jump\t// out\n        /* \"#utility.yul\":8752:9047   */\n    tag_78:\n        /* \"#utility.yul\":8828:8832   */\n      0x00\n        /* \"#utility.yul\":8974:9003   */\n      tag_185\n        /* \"#utility.yul\":8999:9002   */\n      dup4\n        /* \"#utility.yul\":8993:8997   */\n      dup4\n        /* \"#utility.yul\":8974:9003   */\n      tag_77\n      jump\t// in\n    tag_185:\n        /* \"#utility.yul\":8966:9003   */\n      swap2\n      pop\n        /* \"#utility.yul\":9036:9039   */\n      dup3\n        /* \"#utility.yul\":9033:9034   */\n      0x02\n        /* \"#utility.yul\":9029:9040   */\n      mul\n        /* \"#utility.yul\":9023:9027   */\n      dup3\n        /* \"#utility.yul\":9020:9041   */\n      or\n        /* \"#utility.yul\":9012:9041   */\n      swap1\n      pop\n        /* \"#utility.yul\":8752:9047   */\n      swap3\n      swap2\n      pop\n      pop\n      jump\t// out\n        /* \"#utility.yul\":9052:10447   */\n    tag_33:\n        /* \"#utility.yul\":9169:9206   */\n      tag_187\n        /* \"#utility.yul\":9202:9205   */\n      dup3\n        /* \"#utility.yul\":9169:9206   */\n      tag_59\n      jump\t// in\n    tag_187:\n        /* \"#utility.yul\":9271:9289   */\n      0xffffffffffffffff\n        /* \"#utility.yul\":9263:9269   */\n      dup2\n        /* \"#utility.yul\":9260:9290   */\n      gt\n        /* \"#utility.yul\":9257:9313   */\n      iszero\n      tag_188\n      jumpi\n        /* \"#utility.yul\":9293:9311   */\n      tag_189\n      tag_52\n      jump\t// in\n    tag_189:\n        /* \"#utility.yul\":9257:9313   */\n    tag_188:\n        /* \"#utility.yul\":9337:9375   */\n      tag_190\n        /* \"#utility.yul\":9369:9373   */\n      dup3\n        /* \"#utility.yul\":9363:9374   */\n      sload\n        /* \"#utility.yul\":9337:9375   */\n      tag_37\n      jump\t// in\n    tag_190:\n        /* \"#utility.yul\":9422:9489   */\n      tag_191\n        /* \"#utility.yul\":9482:9488   */\n      dup3\n        /* \"#utility.yul\":9474:9480   */\n      dup3\n        /* \"#utility.yul\":9468:9472   */\n      dup6\n        /* \"#utility.yul\":9422:9489   */\n      tag_75\n      jump\t// in\n    tag_191:\n        /* \"#utility.yul\":9516:9517   */\n      0x00\n        /* \"#utility.yul\":9540:9544   */\n      0x20\n        /* \"#utility.yul\":9527:9544   */\n      swap1\n      pop\n        /* \"#utility.yul\":9572:9574   */\n      0x1f\n        /* \"#utility.yul\":9564:9570   */\n      dup4\n        /* \"#utility.yul\":9561:9575   */\n      gt\n        /* \"#utility.yul\":9589:9590   */\n      0x01\n        /* \"#utility.yul\":9584:10202   */\n      dup2\n      eq\n      tag_193\n      jumpi\n        /* \"#utility.yul\":10246:10247   */\n      0x00\n        /* \"#utility.yul\":10263:10269   */\n      dup5\n        /* \"#utility.yul\":10260:10337   */\n      iszero\n      tag_194\n      jumpi\n        /* \"#utility.yul\":10312:10321   */\n      dup3\n        /* \"#utility.yul\":10307:10310   */\n      dup8\n        /* \"#utility.yul\":10303:10322   */\n      add\n        /* \"#utility.yul\":10297:10323   */\n      mload\n        /* \"#utility.yul\":10288:10323   */\n      swap1\n      pop\n        /* \"#utility.yul\":10260:10337   */\n    tag_194:\n        /* \"#utility.yul\":10363:10430   */\n      tag_195\n        /* \"#utility.yul\":10423:10429   */\n      dup6\n        /* \"#utility.yul\":10416:10421   */\n      dup3\n        /* \"#utility.yul\":10363:10430   */\n      tag_78\n      jump\t// in\n    tag_195:\n        /* \"#utility.yul\":10357:10361   */\n      dup7\n        /* \"#utility.yul\":10350:10431   */\n      sstore\n        /* \"#utility.yul\":10219:10441   */\n      pop\n        /* \"#utility.yul\":9554:10441   */\n      jump(tag_192)\n        /* \"#utility.yul\":9584:10202   */\n    tag_193:\n        /* \"#utility.yul\":9636:9640   */\n      0x1f\n        /* \"#utility.yul\":9632:9641   */\n      not\n        /* \"#utility.yul\":9624:9630   */\n      dup5\n        /* \"#utility.yul\":9620:9642   */\n      and\n        /* \"#utility.yul\":9670:9707   */\n      tag_196\n        /* \"#utility.yul\":9702:9706   */\n      dup7\n        /* \"#utility.yul\":9670:9707   */\n      tag_64\n      jump\t// in\n    tag_196:\n        /* \"#utility.yul\":9729:9730   */\n      0x00\n        /* \"#utility.yul\":9743:9951   */\n    tag_197:\n        /* \"#utility.yul\":9757:9764   */\n      dup3\n        /* \"#utility.yul\":9754:9755   */\n      dup2\n        /* \"#utility.yul\":9751:9765   */\n      lt\n        /* \"#utility.yul\":9743:9951   */\n      iszero\n      tag_199\n      jumpi\n        /* \"#utility.yul\":9836:9845   */\n      dup5\n        /* \"#utility.yul\":9831:9834   */\n      dup10\n        /* \"#utility.yul\":9827:9846   */\n      add\n        /* \"#utility.yul\":9821:9847   */\n      mload\n        /* \"#utility.yul\":9813:9819   */\n      dup3\n        /* \"#utility.yul\":9806:9848   */\n      sstore\n        /* \"#utility.yul\":9887:9888   */\n      0x01\n        /* \"#utility.yul\":9879:9885   */\n      dup3\n        /* \"#utility.yul\":9875:9889   */\n      add\n        /* \"#utility.yul\":9865:9889   */\n      swap2\n      pop\n        /* \"#utility.yul\":9934:9936   */\n      0x20\n        /* \"#utility.yul\":9923:9932   */\n      dup6\n        /* \"#utility.yul\":9919:9937   */\n      add\n        /* \"#utility.yul\":9906:9937   */\n      swap5\n      pop\n        /* \"#utility.yul\":9780:9784   */\n      0x20\n        /* \"#utility.yul\":9777:9778   */\n      dup2\n        /* \"#utility.yul\":9773:9785   */\n      add\n        /* \"#utility.yul\":9768:9785   */\n      swap1\n      pop\n        /* \"#utility.yul\":9743:9951   */\n      jump(tag_197)\n    tag_199:\n        /* \"#utility.yul\":9979:9985   */\n      dup7\n        /* \"#utility.yul\":9970:9977   */\n      dup4\n        /* \"#utility.yul\":9967:9986   */\n      lt\n        /* \"#utility.yul\":9964:10143   */\n      iszero\n      tag_200\n      jumpi\n        /* \"#utility.yul\":10037:10046   */\n      dup5\n        /* \"#utility.yul\":10032:10035   */\n      dup10\n        /* \"#utility.yul\":10028:10047   */\n      add\n        /* \"#utility.yul\":10022:10048   */\n      mload\n        /* \"#utility.yul\":10080:10128   */\n      tag_201\n        /* \"#utility.yul\":10122:10126   */\n      0x1f\n        /* \"#utility.yul\":10114:10120   */\n      dup10\n        /* \"#utility.yul\":10110:10127   */\n      and\n        /* \"#utility.yul\":10099:10108   */\n      dup3\n        /* \"#utility.yul\":10080:10128   */\n      tag_77\n      jump\t// in\n    tag_201:\n        /* \"#utility.yul\":10072:10078   */\n      dup4\n        /* \"#utility.yul\":10065:10129   */\n      sstore\n        /* \"#utility.yul\":9987:10143   */\n      pop\n        /* \"#utility.yul\":9964:10143   */\n    tag_200:\n        /* \"#utility.yul\":10189:10190   */\n      0x01\n        /* \"#utility.yul\":10185:10186   */\n      0x02\n        /* \"#utility.yul\":10177:10183   */\n      dup9\n        /* \"#utility.yul\":10173:10187   */\n      mul\n        /* \"#utility.yul\":10169:10191   */\n      add\n        /* \"#utility.yul\":10163:10167   */\n      dup9\n        /* \"#utility.yul\":10156:10192   */\n      sstore\n        /* \"#utility.yul\":9591:10202   */\n      pop\n      pop\n      pop\n        /* \"#utility.yul\":9554:10441   */\n    tag_192:\n      pop\n        /* \"#utility.yul\":9144:10447   */\n      pop\n      pop\n      pop\n        /* \"#utility.yul\":9052:10447   */\n      pop\n      pop\n      jump\t// out\n\n    auxdata: 0xa2646970667358221220cda075ccec91ee928057dd4b2f95b62caef78b623335216419edc7464394a7b864736f6c63430008110033\n}\n",
				"bytecode": {
					"linkReferences": {},
					"object": "608060405234801561001057600080fd5b5061084f806100206000396000f3fe608060405234801561001057600080fd5b50600436106100575760003560e01c80632e64cec11461005c578063471f7cdf1461007a5780636057361d146100985780636f760f41146100b45780639e7a13ad146100d0575b600080fd5b610064610101565b6040516100719190610262565b60405180910390f35b61008261010a565b60405161008f9190610262565b60405180910390f35b6100b260048036038101906100ad91906102bd565b610110565b005b6100ce60048036038101906100c99190610430565b610121565b005b6100ea60048036038101906100e591906102bd565b61018d565b6040516100f892919061050b565b60405180910390f35b60008054905090565b60005481565b806000819055506000600590505050565b600060405180604001604052808481526020018381525090506001819080600181540180825580915050600190039060005260206000209060020201600090919091909150600082015181600001908161017b9190610747565b50602082015181600101555050505050565b6001818154811061019d57600080fd5b90600052602060002090600202016000915090508060000180546101c09061056a565b80601f01602080910402602001604051908101604052809291908181526020018280546101ec9061056a565b80156102395780601f1061020e57610100808354040283529160200191610239565b820191906000526020600020905b81548152906001019060200180831161021c57829003601f168201915b5050505050908060010154905082565b6000819050919050565b61025c81610249565b82525050565b60006020820190506102776000830184610253565b92915050565b6000604051905090565b600080fd5b600080fd5b61029a81610249565b81146102a557600080fd5b50565b6000813590506102b781610291565b92915050565b6000602082840312156102d3576102d2610287565b5b60006102e1848285016102a8565b91505092915050565b600080fd5b600080fd5b6000601f19601f8301169050919050565b7f4e487b7100000000000000000000000000000000000000000000000000000000600052604160045260246000fd5b61033d826102f4565b810181811067ffffffffffffffff8211171561035c5761035b610305565b5b80604052505050565b600061036f61027d565b905061037b8282610334565b919050565b600067ffffffffffffffff82111561039b5761039a610305565b5b6103a4826102f4565b9050602081019050919050565b82818337600083830152505050565b60006103d36103ce84610380565b610365565b9050828152602081018484840111156103ef576103ee6102ef565b5b6103fa8482856103b1565b509392505050565b600082601f830112610417576104166102ea565b5b81356104278482602086016103c0565b91505092915050565b6000806040838503121561044757610446610287565b5b600083013567ffffffffffffffff8111156104655761046461028c565b5b61047185828601610402565b9250506020610482858286016102a8565b9150509250929050565b600081519050919050565b600082825260208201905092915050565b60005b838110156104c65780820151818401526020810190506104ab565b60008484015250505050565b60006104dd8261048c565b6104e78185610497565b93506104f78185602086016104a8565b610500816102f4565b840191505092915050565b6000604082019050818103600083015261052581856104d2565b90506105346020830184610253565b9392505050565b7f4e487b7100000000000000000000000000000000000000000000000000000000600052602260045260246000fd5b6000600282049050600182168061058257607f821691505b6020821081036105955761059461053b565b5b50919050565b60008190508160005260206000209050919050565b60006020601f8301049050919050565b600082821b905092915050565b6000600883026105fd7fffffffffffffffffffffffffffffffffffffffffffffffffffffffffffffffff826105c0565b61060786836105c0565b95508019841693508086168417925050509392505050565b6000819050919050565b600061064461063f61063a84610249565b61061f565b610249565b9050919050565b6000819050919050565b61065e83610629565b61067261066a8261064b565b8484546105cd565b825550505050565b600090565b61068761067a565b610692818484610655565b505050565b5b818110156106b6576106ab60008261067f565b600181019050610698565b5050565b601f8211156106fb576106cc8161059b565b6106d5846105b0565b810160208510156106e4578190505b6106f86106f0856105b0565b830182610697565b50505b505050565b600082821c905092915050565b600061071e60001984600802610700565b1980831691505092915050565b6000610737838361070d565b9150826002028217905092915050565b6107508261048c565b67ffffffffffffffff81111561076957610768610305565b5b610773825461056a565b61077e8282856106ba565b600060209050601f8311600181146107b1576000841561079f578287015190505b6107a9858261072b565b865550610811565b601f1984166107bf8661059b565b60005b828110156107e7578489015182556001820191506020850194506020810190506107c2565b868310156108045784890151610800601f89168261070d565b8355505b6001600288020188555050505b50505050505056fea2646970667358221220cda075ccec91ee928057dd4b2f95b62caef78b623335216419edc7464394a7b864736f6c63430008110033",
					"opcodes": "PUSH1 0x80 PUSH1 0x40 MSTORE CALLVALUE DUP1 ISZERO PUSH2 0x10 JUMPI PUSH1 0x0 DUP1 REVERT JUMPDEST POP PUSH2 0x84F DUP1 PUSH2 0x20 PUSH1 0x0 CODECOPY PUSH1 0x0 RETURN INVALID PUSH1 0x80 PUSH1 0x40 MSTORE CALLVALUE DUP1 ISZERO PUSH2 0x10 JUMPI PUSH1 0x0 DUP1 REVERT JUMPDEST POP PUSH1 0x4 CALLDATASIZE LT PUSH2 0x57 JUMPI PUSH1 0x0 CALLDATALOAD PUSH1 0xE0 SHR DUP1 PUSH4 0x2E64CEC1 EQ PUSH2 0x5C JUMPI DUP1 PUSH4 0x471F7CDF EQ PUSH2 0x7A JUMPI DUP1 PUSH4 0x6057361D EQ PUSH2 0x98 JUMPI DUP1 PUSH4 0x6F760F41 EQ PUSH2 0xB4 JUMPI DUP1 PUSH4 0x9E7A13AD EQ PUSH2 0xD0 JUMPI JUMPDEST PUSH1 0x0 DUP1 REVERT JUMPDEST PUSH2 0x64 PUSH2 0x101 JUMP JUMPDEST PUSH1 0x40 MLOAD PUSH2 0x71 SWAP2 SWAP1 PUSH2 0x262 JUMP JUMPDEST PUSH1 0x40 MLOAD DUP1 SWAP2 SUB SWAP1 RETURN JUMPDEST PUSH2 0x82 PUSH2 0x10A JUMP JUMPDEST PUSH1 0x40 MLOAD PUSH2 0x8F SWAP2 SWAP1 PUSH2 0x262 JUMP JUMPDEST PUSH1 0x40 MLOAD DUP1 SWAP2 SUB SWAP1 RETURN JUMPDEST PUSH2 0xB2 PUSH1 0x4 DUP1 CALLDATASIZE SUB DUP2 ADD SWAP1 PUSH2 0xAD SWAP2 SWAP1 PUSH2 0x2BD JUMP JUMPDEST PUSH2 0x110 JUMP JUMPDEST STOP JUMPDEST PUSH2 0xCE PUSH1 0x4 DUP1 CALLDATASIZE SUB DUP2 ADD SWAP1 PUSH2 0xC9 SWAP2 SWAP1 PUSH2 0x430 JUMP JUMPDEST PUSH2 0x121 JUMP JUMPDEST STOP JUMPDEST PUSH2 0xEA PUSH1 0x4 DUP1 CALLDATASIZE SUB DUP2 ADD SWAP1 PUSH2 0xE5 SWAP2 SWAP1 PUSH2 0x2BD JUMP JUMPDEST PUSH2 0x18D JUMP JUMPDEST PUSH1 0x40 MLOAD PUSH2 0xF8 SWAP3 SWAP2 SWAP1 PUSH2 0x50B JUMP JUMPDEST PUSH1 0x40 MLOAD DUP1 SWAP2 SUB SWAP1 RETURN JUMPDEST PUSH1 0x0 DUP1 SLOAD SWAP1 POP SWAP1 JUMP JUMPDEST PUSH1 0x0 SLOAD DUP2 JUMP JUMPDEST DUP1 PUSH1 0x0 DUP2 SWAP1 SSTORE POP PUSH1 0x0 PUSH1 0x5 SWAP1 POP POP POP JUMP JUMPDEST PUSH1 0x0 PUSH1 0x40 MLOAD DUP1 PUSH1 0x40 ADD PUSH1 0x40 MSTORE DUP1 DUP5 DUP2 MSTORE PUSH1 0x20 ADD DUP4 DUP2 MSTORE POP SWAP1 POP PUSH1 0x1 DUP2 SWAP1 DUP1 PUSH1 0x1 DUP2 SLOAD ADD DUP1 DUP3 SSTORE DUP1 SWAP2 POP POP PUSH1 0x1 SWAP1 SUB SWAP1 PUSH1 0x0 MSTORE PUSH1 0x20 PUSH1 0x0 KECCAK256 SWAP1 PUSH1 0x2 MUL ADD PUSH1 0x0 SWAP1 SWAP2 SWAP1 SWAP2 SWAP1 SWAP2 POP PUSH1 0x0 DUP3 ADD MLOAD DUP2 PUSH1 0x0 ADD SWAP1 DUP2 PUSH2 0x17B SWAP2 SWAP1 PUSH2 0x747 JUMP JUMPDEST POP PUSH1 0x20 DUP3 ADD MLOAD DUP2 PUSH1 0x1 ADD SSTORE POP POP POP POP POP JUMP JUMPDEST PUSH1 0x1 DUP2 DUP2 SLOAD DUP2 LT PUSH2 0x19D JUMPI PUSH1 0x0 DUP1 REVERT JUMPDEST SWAP1 PUSH1 0x0 MSTORE PUSH1 0x20 PUSH1 0x0 KECCAK256 SWAP1 PUSH1 0x2 MUL ADD PUSH1 0x0 SWAP2 POP SWAP1 POP DUP1 PUSH1 0x0 ADD DUP1 SLOAD PUSH2 0x1C0 SWAP1 PUSH2 0x56A JUMP JUMPDEST DUP1 PUSH1 0x1F ADD PUSH1 0x20 DUP1 SWAP2 DIV MUL PUSH1 0x20 ADD PUSH1 0x40 MLOAD SWAP1 DUP2 ADD PUSH1 0x40 MSTORE DUP1 SWAP3 SWAP2 SWAP1 DUP2 DUP2 MSTORE PUSH1 0x20 ADD DUP3 DUP1 SLOAD PUSH2 0x1EC SWAP1 PUSH2 0x56A JUMP JUMPDEST DUP1 ISZERO PUSH2 0x239 JUMPI DUP1 PUSH1 0x1F LT PUSH2 0x20E JUMPI PUSH2 0x100 DUP1 DUP4 SLOAD DIV MUL DUP4 MSTORE SWAP2 PUSH1 0x20 ADD SWAP2 PUSH2 0x239 JUMP JUMPDEST DUP3 ADD SWAP2 SWAP1 PUSH1 0x0 MSTORE PUSH1 0x20 PUSH1 0x0 KECCAK256 SWAP1 JUMPDEST DUP2 SLOAD DUP2 MSTORE SWAP1 PUSH1 0x1 ADD SWAP1 PUSH1 0x20 ADD DUP1 DUP4 GT PUSH2 0x21C JUMPI DUP3 SWAP1 SUB PUSH1 0x1F AND DUP3 ADD SWAP2 JUMPDEST POP POP POP POP POP SWAP1 DUP1 PUSH1 0x1 ADD SLOAD SWAP1 POP DUP3 JUMP JUMPDEST PUSH1 0x0 DUP2 SWAP1 POP SWAP2 SWAP1 POP JUMP JUMPDEST PUSH2 0x25C DUP2 PUSH2 0x249 JUMP JUMPDEST DUP3 MSTORE POP POP JUMP JUMPDEST PUSH1 0x0 PUSH1 0x20 DUP3 ADD SWAP1 POP PUSH2 0x277 PUSH1 0x0 DUP4 ADD DUP5 PUSH2 0x253 JUMP JUMPDEST SWAP3 SWAP2 POP POP JUMP JUMPDEST PUSH1 0x0 PUSH1 0x40 MLOAD SWAP1 POP SWAP1 JUMP JUMPDEST PUSH1 0x0 DUP1 REVERT JUMPDEST PUSH1 0x0 DUP1 REVERT JUMPDEST PUSH2 0x29A DUP2 PUSH2 0x249 JUMP JUMPDEST DUP2 EQ PUSH2 0x2A5 JUMPI PUSH1 0x0 DUP1 REVERT JUMPDEST POP JUMP JUMPDEST PUSH1 0x0 DUP2 CALLDATALOAD SWAP1 POP PUSH2 0x2B7 DUP2 PUSH2 0x291 JUMP JUMPDEST SWAP3 SWAP2 POP POP JUMP JUMPDEST PUSH1 0x0 PUSH1 0x20 DUP3 DUP5 SUB SLT ISZERO PUSH2 0x2D3 JUMPI PUSH2 0x2D2 PUSH2 0x287 JUMP JUMPDEST JUMPDEST PUSH1 0x0 PUSH2 0x2E1 DUP5 DUP3 DUP6 ADD PUSH2 0x2A8 JUMP JUMPDEST SWAP2 POP POP SWAP3 SWAP2 POP POP JUMP JUMPDEST PUSH1 0x0 DUP1 REVERT JUMPDEST PUSH1 0x0 DUP1 REVERT JUMPDEST PUSH1 0x0 PUSH1 0x1F NOT PUSH1 0x1F DUP4 ADD AND SWAP1 POP SWAP2 SWAP1 POP JUMP JUMPDEST PUSH32 0x4E487B7100000000000000000000000000000000000000000000000000000000 PUSH1 0x0 MSTORE PUSH1 0x41 PUSH1 0x4 MSTORE PUSH1 0x24 PUSH1 0x0 REVERT JUMPDEST PUSH2 0x33D DUP3 PUSH2 0x2F4 JUMP JUMPDEST DUP2 ADD DUP2 DUP2 LT PUSH8 0xFFFFFFFFFFFFFFFF DUP3 GT OR ISZERO PUSH2 0x35C JUMPI PUSH2 0x35B PUSH2 0x305 JUMP JUMPDEST JUMPDEST DUP1 PUSH1 0x40 MSTORE POP POP POP JUMP JUMPDEST PUSH1 0x0 PUSH2 0x36F PUSH2 0x27D JUMP JUMPDEST SWAP1 POP PUSH2 0x37B DUP3 DUP3 PUSH2 0x334 JUMP JUMPDEST SWAP2 SWAP1 POP JUMP JUMPDEST PUSH1 0x0 PUSH8 0xFFFFFFFFFFFFFFFF DUP3 GT ISZERO PUSH2 0x39B JUMPI PUSH2 0x39A PUSH2 0x305 JUMP JUMPDEST JUMPDEST PUSH2 0x3A4 DUP3 PUSH2 0x2F4 JUMP JUMPDEST SWAP1 POP PUSH1 0x20 DUP2 ADD SWAP1 POP SWAP2 SWAP1 POP JUMP JUMPDEST DUP3 DUP2 DUP4 CALLDATACOPY PUSH1 0x0 DUP4 DUP4 ADD MSTORE POP POP POP JUMP JUMPDEST PUSH1 0x0 PUSH2 0x3D3 PUSH2 0x3CE DUP5 PUSH2 0x380 JUMP JUMPDEST PUSH2 0x365 JUMP JUMPDEST SWAP1 POP DUP3 DUP2 MSTORE PUSH1 0x20 DUP2 ADD DUP5 DUP5 DUP5 ADD GT ISZERO PUSH2 0x3EF JUMPI PUSH2 0x3EE PUSH2 0x2EF JUMP JUMPDEST JUMPDEST PUSH2 0x3FA DUP5 DUP3 DUP6 PUSH2 0x3B1 JUMP JUMPDEST POP SWAP4 SWAP3 POP POP POP JUMP JUMPDEST PUSH1 0x0 DUP3 PUSH1 0x1F DUP4 ADD SLT PUSH2 0x417 JUMPI PUSH2 0x416 PUSH2 0x2EA JUMP JUMPDEST JUMPDEST DUP2 CALLDATALOAD PUSH2 0x427 DUP5 DUP3 PUSH1 0x20 DUP7 ADD PUSH2 0x3C0 JUMP JUMPDEST SWAP2 POP POP SWAP3 SWAP2 POP POP JUMP JUMPDEST PUSH1 0x0 DUP1 PUSH1 0x40 DUP4 DUP6 SUB SLT ISZERO PUSH2 0x447 JUMPI PUSH2 0x446 PUSH2 0x287 JUMP JUMPDEST JUMPDEST PUSH1 0x0 DUP4 ADD CALLDATALOAD PUSH8 0xFFFFFFFFFFFFFFFF DUP2 GT ISZERO PUSH2 0x465 JUMPI PUSH2 0x464 PUSH2 0x28C JUMP JUMPDEST JUMPDEST PUSH2 0x471 DUP6 DUP3 DUP7 ADD PUSH2 0x402 JUMP JUMPDEST SWAP3 POP POP PUSH1 0x20 PUSH2 0x482 DUP6 DUP3 DUP7 ADD PUSH2 0x2A8 JUMP JUMPDEST SWAP2 POP POP SWAP3 POP SWAP3 SWAP1 POP JUMP JUMPDEST PUSH1 0x0 DUP2 MLOAD SWAP1 POP SWAP2 SWAP1 POP JUMP JUMPDEST PUSH1 0x0 DUP3 DUP3 MSTORE PUSH1 0x20 DUP3 ADD SWAP1 POP SWAP3 SWAP2 POP POP JUMP JUMPDEST PUSH1 0x0 JUMPDEST DUP4 DUP2 LT ISZERO PUSH2 0x4C6 JUMPI DUP1 DUP3 ADD MLOAD DUP2 DUP5 ADD MSTORE PUSH1 0x20 DUP2 ADD SWAP1 POP PUSH2 0x4AB JUMP JUMPDEST PUSH1 0x0 DUP5 DUP5 ADD MSTORE POP POP POP POP JUMP JUMPDEST PUSH1 0x0 PUSH2 0x4DD DUP3 PUSH2 0x48C JUMP JUMPDEST PUSH2 0x4E7 DUP2 DUP6 PUSH2 0x497 JUMP JUMPDEST SWAP4 POP PUSH2 0x4F7 DUP2 DUP6 PUSH1 0x20 DUP7 ADD PUSH2 0x4A8 JUMP JUMPDEST PUSH2 0x500 DUP2 PUSH2 0x2F4 JUMP JUMPDEST DUP5 ADD SWAP2 POP POP SWAP3 SWAP2 POP POP JUMP JUMPDEST PUSH1 0x0 PUSH1 0x40 DUP3 ADD SWAP1 POP DUP2 DUP2 SUB PUSH1 0x0 DUP4 ADD MSTORE PUSH2 0x525 DUP2 DUP6 PUSH2 0x4D2 JUMP JUMPDEST SWAP1 POP PUSH2 0x534 PUSH1 0x20 DUP4 ADD DUP5 PUSH2 0x253 JUMP JUMPDEST SWAP4 SWAP3 POP POP POP JUMP JUMPDEST PUSH32 0x4E487B7100000000000000000000000000000000000000000000000000000000 PUSH1 0x0 MSTORE PUSH1 0x22 PUSH1 0x4 MSTORE PUSH1 0x24 PUSH1 0x0 REVERT JUMPDEST PUSH1 0x0 PUSH1 0x2 DUP3 DIV SWAP1 POP PUSH1 0x1 DUP3 AND DUP1 PUSH2 0x582 JUMPI PUSH1 0x7F DUP3 AND SWAP2 POP JUMPDEST PUSH1 0x20 DUP3 LT DUP2 SUB PUSH2 0x595 JUMPI PUSH2 0x594 PUSH2 0x53B JUMP JUMPDEST JUMPDEST POP SWAP2 SWAP1 POP JUMP JUMPDEST PUSH1 0x0 DUP2 SWAP1 POP DUP2 PUSH1 0x0 MSTORE PUSH1 0x20 PUSH1 0x0 KECCAK256 SWAP1 POP SWAP2 SWAP1 POP JUMP JUMPDEST PUSH1 0x0 PUSH1 0x20 PUSH1 0x1F DUP4 ADD DIV SWAP1 POP SWAP2 SWAP1 POP JUMP JUMPDEST PUSH1 0x0 DUP3 DUP3 SHL SWAP1 POP SWAP3 SWAP2 POP POP JUMP JUMPDEST PUSH1 0x0 PUSH1 0x8 DUP4 MUL PUSH2 0x5FD PUSH32 0xFFFFFFFFFFFFFFFFFFFFFFFFFFFFFFFFFFFFFFFFFFFFFFFFFFFFFFFFFFFFFFFF DUP3 PUSH2 0x5C0 JUMP JUMPDEST PUSH2 0x607 DUP7 DUP4 PUSH2 0x5C0 JUMP JUMPDEST SWAP6 POP DUP1 NOT DUP5 AND SWAP4 POP DUP1 DUP7 AND DUP5 OR SWAP3 POP POP POP SWAP4 SWAP3 POP POP POP JUMP JUMPDEST PUSH1 0x0 DUP2 SWAP1 POP SWAP2 SWAP1 POP JUMP JUMPDEST PUSH1 0x0 PUSH2 0x644 PUSH2 0x63F PUSH2 0x63A DUP5 PUSH2 0x249 JUMP JUMPDEST PUSH2 0x61F JUMP JUMPDEST PUSH2 0x249 JUMP JUMPDEST SWAP1 POP SWAP2 SWAP1 POP JUMP JUMPDEST PUSH1 0x0 DUP2 SWAP1 POP SWAP2 SWAP1 POP JUMP JUMPDEST PUSH2 0x65E DUP4 PUSH2 0x629 JUMP JUMPDEST PUSH2 0x672 PUSH2 0x66A DUP3 PUSH2 0x64B JUMP JUMPDEST DUP5 DUP5 SLOAD PUSH2 0x5CD JUMP JUMPDEST DUP3 SSTORE POP POP POP POP JUMP JUMPDEST PUSH1 0x0 SWAP1 JUMP JUMPDEST PUSH2 0x687 PUSH2 0x67A JUMP JUMPDEST PUSH2 0x692 DUP2 DUP5 DUP5 PUSH2 0x655 JUMP JUMPDEST POP POP POP JUMP JUMPDEST JUMPDEST DUP2 DUP2 LT ISZERO PUSH2 0x6B6 JUMPI PUSH2 0x6AB PUSH1 0x0 DUP3 PUSH2 0x67F JUMP JUMPDEST PUSH1 0x1 DUP2 ADD SWAP1 POP PUSH2 0x698 JUMP JUMPDEST POP POP JUMP JUMPDEST PUSH1 0x1F DUP3 GT ISZERO PUSH2 0x6FB JUMPI PUSH2 0x6CC DUP2 PUSH2 0x59B JUMP JUMPDEST PUSH2 0x6D5 DUP5 PUSH2 0x5B0 JUMP JUMPDEST DUP2 ADD PUSH1 0x20 DUP6 LT ISZERO PUSH2 0x6E4 JUMPI DUP2 SWAP1 POP JUMPDEST PUSH2 0x6F8 PUSH2 0x6F0 DUP6 PUSH2 0x5B0 JUMP JUMPDEST DUP4 ADD DUP3 PUSH2 0x697 JUMP JUMPDEST POP POP JUMPDEST POP POP POP JUMP JUMPDEST PUSH1 0x0 DUP3 DUP3 SHR SWAP1 POP SWAP3 SWAP2 POP POP JUMP JUMPDEST PUSH1 0x0 PUSH2 0x71E PUSH1 0x0 NOT DUP5 PUSH1 0x8 MUL PUSH2 0x700 JUMP JUMPDEST NOT DUP1 DUP4 AND SWAP2 POP POP SWAP3 SWAP2 POP POP JUMP JUMPDEST PUSH1 0x0 PUSH2 0x737 DUP4 DUP4 PUSH2 0x70D JUMP JUMPDEST SWAP2 POP DUP3 PUSH1 0x2 MUL DUP3 OR SWAP1 POP SWAP3 SWAP2 POP POP JUMP JUMPDEST PUSH2 0x750 DUP3 PUSH2 0x48C JUMP JUMPDEST PUSH8 0xFFFFFFFFFFFFFFFF DUP2 GT ISZERO PUSH2 0x769 JUMPI PUSH2 0x768 PUSH2 0x305 JUMP JUMPDEST JUMPDEST PUSH2 0x773 DUP3 SLOAD PUSH2 0x56A JUMP JUMPDEST PUSH2 0x77E DUP3 DUP3 DUP6 PUSH2 0x6BA JUMP JUMPDEST PUSH1 0x0 PUSH1 0x20 SWAP1 POP PUSH1 0x1F DUP4 GT PUSH1 0x1 DUP2 EQ PUSH2 0x7B1 JUMPI PUSH1 0x0 DUP5 ISZERO PUSH2 0x79F JUMPI DUP3 DUP8 ADD MLOAD SWAP1 POP JUMPDEST PUSH2 0x7A9 DUP6 DUP3 PUSH2 0x72B JUMP JUMPDEST DUP7 SSTORE POP PUSH2 0x811 JUMP JUMPDEST PUSH1 0x1F NOT DUP5 AND PUSH2 0x7BF DUP7 PUSH2 0x59B JUMP JUMPDEST PUSH1 0x0 JUMPDEST DUP3 DUP2 LT ISZERO PUSH2 0x7E7 JUMPI DUP5 DUP10 ADD MLOAD DUP3 SSTORE PUSH1 0x1 DUP3 ADD SWAP2 POP PUSH1 0x20 DUP6 ADD SWAP5 POP PUSH1 0x20 DUP2 ADD SWAP1 POP PUSH2 0x7C2 JUMP JUMPDEST DUP7 DUP4 LT ISZERO PUSH2 0x804 JUMPI DUP5 DUP10 ADD MLOAD PUSH2 0x800 PUSH1 0x1F DUP10 AND DUP3 PUSH2 0x70D JUMP JUMPDEST DUP4 SSTORE POP JUMPDEST PUSH1 0x1 PUSH1 0x2 DUP9 MUL ADD DUP9 SSTORE POP POP POP JUMPDEST POP POP POP POP POP POP JUMP INVALID LOG2 PUSH5 0x6970667358 0x22 SLT KECCAK256 0xCD LOG0 PUSH22 0xCCEC91EE928057DD4B2F95B62CAEF78B623335216419 0xED 0xC7 CHAINID NUMBER SWAP5 0xA7 0xB8 PUSH5 0x736F6C6343 STOP ADDMOD GT STOP CALLER "
				},
				"gasEstimates": {
					"creation": {
						"codeDepositCost": "425400",
						"executionCost": "461",
						"totalCost": "425861"
					},
					"external": {
						"addPerson(string,uint256)": "infinite",
						"favoriteNumber()": "2429",
						"people(uint256)": "infinite",
						"retrieve()": "2415",
						"store(uint256)": "22555"
					}
				},
				"methodIdentifiers": {
					"addPerson(string,uint256)": "6f760f41",
					"favoriteNumber()": "471f7cdf",
					"people(uint256)": "9e7a13ad",
					"retrieve()": "2e64cec1",
					"store(uint256)": "6057361d"
				}
			},
			"storageLayout": {
				"storage": [
					{
						"astId": 4,
						"contract": "contracts/SimpleStorage.sol:Storage",
						"label": "favoriteNumber",
						"offset": 0,
						"slot": "0",
						"type": "t_uint256"
					},
					{
						"astId": 13,
						"contract": "contracts/SimpleStorage.sol:Storage",
						"label": "people",
						"offset": 0,
						"slot": "1",
						"type": "t_array(t_struct(People)9_storage)dyn_storage"
					}
				],
				"types": {
					"t_array(t_struct(People)9_storage)dyn_storage": {
						"base": "t_struct(People)9_storage",
						"encoding": "dynamic_array",
						"label": "struct Storage.People[]",
						"numberOfBytes": "32"
					},
					"t_string_storage": {
						"encoding": "bytes",
						"label": "string",
						"numberOfBytes": "32"
					},
					"t_struct(People)9_storage": {
						"encoding": "inplace",
						"label": "struct Storage.People",
						"members": [
							{
								"astId": 6,
								"contract": "contracts/SimpleStorage.sol:Storage",
								"label": "name",
								"offset": 0,
								"slot": "0",
								"type": "t_string_storage"
							},
							{
								"astId": 8,
								"contract": "contracts/SimpleStorage.sol:Storage",
								"label": "favoriteNumber",
								"offset": 0,
								"slot": "1",
								"type": "t_uint256"
							}
						],
						"numberOfBytes": "64"
					},
					"t_uint256": {
						"encoding": "inplace",
						"label": "uint256",
						"numberOfBytes": "32"
					}
				}
			},
			"userdoc": {
				"kind": "user",
				"methods": {},
				"version": 1
			}
		}
	}
}