{
	"docs.chain.link/samples/APIRequests/APIConsumer.sol": {
		"APIConsumer": {
			"abi": [
				{
					"inputs": [],
					"stateMutability": "nonpayable",
					"type": "constructor"
				},
				{
					"anonymous": false,
					"inputs": [
						{
							"indexed": true,
							"internalType": "bytes32",
							"name": "id",
							"type": "bytes32"
						}
					],
					"name": "ChainlinkCancelled",
					"type": "event"
				},
				{
					"anonymous": false,
					"inputs": [
						{
							"indexed": true,
							"internalType": "bytes32",
							"name": "id",
							"type": "bytes32"
						}
					],
					"name": "ChainlinkFulfilled",
					"type": "event"
				},
				{
					"anonymous": false,
					"inputs": [
						{
							"indexed": true,
							"internalType": "bytes32",
							"name": "id",
							"type": "bytes32"
						}
					],
					"name": "ChainlinkRequested",
					"type": "event"
				},
				{
					"anonymous": false,
					"inputs": [
						{
							"indexed": true,
							"internalType": "address",
							"name": "from",
							"type": "address"
						},
						{
							"indexed": true,
							"internalType": "address",
							"name": "to",
							"type": "address"
						}
					],
					"name": "OwnershipTransferRequested",
					"type": "event"
				},
				{
					"anonymous": false,
					"inputs": [
						{
							"indexed": true,
							"internalType": "address",
							"name": "from",
							"type": "address"
						},
						{
							"indexed": true,
							"internalType": "address",
							"name": "to",
							"type": "address"
						}
					],
					"name": "OwnershipTransferred",
					"type": "event"
				},
				{
					"anonymous": false,
					"inputs": [
						{
							"indexed": true,
							"internalType": "bytes32",
							"name": "requestId",
							"type": "bytes32"
						},
						{
							"indexed": false,
							"internalType": "uint256",
							"name": "volume",
							"type": "uint256"
						}
					],
					"name": "RequestVolume",
					"type": "event"
				},
				{
					"inputs": [],
					"name": "acceptOwnership",
					"outputs": [],
					"stateMutability": "nonpayable",
					"type": "function"
				},
				{
					"inputs": [
						{
							"internalType": "bytes32",
							"name": "_requestId",
							"type": "bytes32"
						},
						{
							"internalType": "uint256",
							"name": "_volume",
							"type": "uint256"
						}
					],
					"name": "fulfill",
					"outputs": [],
					"stateMutability": "nonpayable",
					"type": "function"
				},
				{
					"inputs": [],
					"name": "owner",
					"outputs": [
						{
							"internalType": "address",
							"name": "",
							"type": "address"
						}
					],
					"stateMutability": "view",
					"type": "function"
				},
				{
					"inputs": [],
					"name": "requestVolumeData",
					"outputs": [
						{
							"internalType": "bytes32",
							"name": "requestId",
							"type": "bytes32"
						}
					],
					"stateMutability": "nonpayable",
					"type": "function"
				},
				{
					"inputs": [
						{
							"internalType": "address",
							"name": "to",
							"type": "address"
						}
					],
					"name": "transferOwnership",
					"outputs": [],
					"stateMutability": "nonpayable",
					"type": "function"
				},
				{
					"inputs": [],
					"name": "volume",
					"outputs": [
						{
							"internalType": "uint256",
							"name": "",
							"type": "uint256"
						}
					],
					"stateMutability": "view",
					"type": "function"
				},
				{
					"inputs": [],
					"name": "withdrawLink",
					"outputs": [],
					"stateMutability": "nonpayable",
					"type": "function"
				}
			],
			"devdoc": {
				"kind": "dev",
				"methods": {},
				"version": 1
			},
			"evm": {
				"assembly": "    /* \"docs.chain.link/samples/APIRequests/APIConsumer.sol\":551:3393  contract APIConsumer is ChainlinkClient, ConfirmedOwner {... */\n  mstore(0x40, 0x80)\n    /* \"@chainlink/contracts/src/v0.8/ChainlinkClient.sol\":1291:1292  1 */\n  0x01\n    /* \"@chainlink/contracts/src/v0.8/ChainlinkClient.sol\":1258:1292  uint256 private s_requestCount = 1 */\n  0x04\n  sstore\n    /* \"docs.chain.link/samples/APIRequests/APIConsumer.sol\":1112:1443  constructor() ConfirmedOwner(msg.sender) {... */\n  callvalue\n  dup1\n  iszero\n  tag_1\n  jumpi\n  0x00\n  dup1\n  revert\ntag_1:\n  pop\n    /* \"docs.chain.link/samples/APIRequests/APIConsumer.sol\":1141:1151  msg.sender */\n  caller\n    /* \"@chainlink/contracts/src/v0.8/ConfirmedOwner.sol\":327:335  newOwner */\n  dup1\n    /* \"@chainlink/contracts/src/v0.8/ConfirmedOwner.sol\":345:346  0 */\n  0x00\n    /* \"@chainlink/contracts/src/v0.8/ConfirmedOwnerWithProposal.sol\":572:573  0 */\n  dup1\n    /* \"@chainlink/contracts/src/v0.8/ConfirmedOwnerWithProposal.sol\":552:574  newOwner != address(0) */\n  0xffffffffffffffffffffffffffffffffffffffff\n  and\n    /* \"@chainlink/contracts/src/v0.8/ConfirmedOwnerWithProposal.sol\":552:560  newOwner */\n  dup3\n    /* \"@chainlink/contracts/src/v0.8/ConfirmedOwnerWithProposal.sol\":552:574  newOwner != address(0) */\n  0xffffffffffffffffffffffffffffffffffffffff\n  and\n  eq\n  iszero\n    /* \"@chainlink/contracts/src/v0.8/ConfirmedOwnerWithProposal.sol\":544:603  require(newOwner != address(0), \"Cannot set owner to zero\") */\n  tag_6\n  jumpi\n  mload(0x40)\n  0x08c379a000000000000000000000000000000000000000000000000000000000\n  dup2\n  mstore\n  0x04\n  add\n  tag_7\n  swap1\n  tag_8\n  jump\t// in\ntag_7:\n  mload(0x40)\n  dup1\n  swap2\n  sub\n  swap1\n  revert\ntag_6:\n    /* \"@chainlink/contracts/src/v0.8/ConfirmedOwnerWithProposal.sol\":620:628  newOwner */\n  dup2\n    /* \"@chainlink/contracts/src/v0.8/ConfirmedOwnerWithProposal.sol\":610:617  s_owner */\n  0x06\n  0x00\n    /* \"@chainlink/contracts/src/v0.8/ConfirmedOwnerWithProposal.sol\":610:628  s_owner = newOwner */\n  0x0100\n  exp\n  dup2\n  sload\n  dup2\n  0xffffffffffffffffffffffffffffffffffffffff\n  mul\n  not\n  and\n  swap1\n  dup4\n  0xffffffffffffffffffffffffffffffffffffffff\n  and\n  mul\n  or\n  swap1\n  sstore\n  pop\n    /* \"@chainlink/contracts/src/v0.8/ConfirmedOwnerWithProposal.sol\":662:663  0 */\n  0x00\n    /* \"@chainlink/contracts/src/v0.8/ConfirmedOwnerWithProposal.sol\":638:664  pendingOwner != address(0) */\n  0xffffffffffffffffffffffffffffffffffffffff\n  and\n    /* \"@chainlink/contracts/src/v0.8/ConfirmedOwnerWithProposal.sol\":638:650  pendingOwner */\n  dup2\n    /* \"@chainlink/contracts/src/v0.8/ConfirmedOwnerWithProposal.sol\":638:664  pendingOwner != address(0) */\n  0xffffffffffffffffffffffffffffffffffffffff\n  and\n  eq\n    /* \"@chainlink/contracts/src/v0.8/ConfirmedOwnerWithProposal.sol\":634:713  if (pendingOwner != address(0)) {... */\n  tag_9\n  jumpi\n    /* \"@chainlink/contracts/src/v0.8/ConfirmedOwnerWithProposal.sol\":674:706  _transferOwnership(pendingOwner) */\n  tag_10\n    /* \"@chainlink/contracts/src/v0.8/ConfirmedOwnerWithProposal.sol\":693:705  pendingOwner */\n  dup2\n    /* \"@chainlink/contracts/src/v0.8/ConfirmedOwnerWithProposal.sol\":674:692  _transferOwnership */\n  shl(0x20, tag_11)\n    /* \"@chainlink/contracts/src/v0.8/ConfirmedOwnerWithProposal.sol\":674:706  _transferOwnership(pendingOwner) */\n  0x20\n  shr\n  jump\t// in\ntag_10:\n    /* \"@chainlink/contracts/src/v0.8/ConfirmedOwnerWithProposal.sol\":634:713  if (pendingOwner != address(0)) {... */\ntag_9:\n    /* \"@chainlink/contracts/src/v0.8/ConfirmedOwnerWithProposal.sol\":486:717  constructor(address newOwner, address pendingOwner) {... */\n  pop\n  pop\n    /* \"@chainlink/contracts/src/v0.8/ConfirmedOwner.sol\":270:351  constructor(address newOwner) ConfirmedOwnerWithProposal(newOwner, address(0)) {} */\n  pop\n    /* \"docs.chain.link/samples/APIRequests/APIConsumer.sol\":1163:1224  setChainlinkToken(0x326C977E6efc84E512bB9C30f76E30c160eD06FB) */\n  tag_14\n    /* \"docs.chain.link/samples/APIRequests/APIConsumer.sol\":1181:1223  0x326C977E6efc84E512bB9C30f76E30c160eD06FB */\n  0x326c977e6efc84e512bb9c30f76e30c160ed06fb\n    /* \"docs.chain.link/samples/APIRequests/APIConsumer.sol\":1163:1180  setChainlinkToken */\n  shl(0x20, tag_15)\n    /* \"docs.chain.link/samples/APIRequests/APIConsumer.sol\":1163:1224  setChainlinkToken(0x326C977E6efc84E512bB9C30f76E30c160eD06FB) */\n  0x20\n  shr\n  jump\t// in\ntag_14:\n    /* \"docs.chain.link/samples/APIRequests/APIConsumer.sol\":1234:1296  setChainlinkOracle(0xCC79157eb46F5624204f47AB42b3906cAA40eaB7) */\n  tag_16\n    /* \"docs.chain.link/samples/APIRequests/APIConsumer.sol\":1253:1295  0xCC79157eb46F5624204f47AB42b3906cAA40eaB7 */\n  0xcc79157eb46f5624204f47ab42b3906caa40eab7\n    /* \"docs.chain.link/samples/APIRequests/APIConsumer.sol\":1234:1252  setChainlinkOracle */\n  shl(0x20, tag_17)\n    /* \"docs.chain.link/samples/APIRequests/APIConsumer.sol\":1234:1296  setChainlinkOracle(0xCC79157eb46F5624204f47AB42b3906cAA40eaB7) */\n  0x20\n  shr\n  jump\t// in\ntag_16:\n    /* \"docs.chain.link/samples/APIRequests/APIConsumer.sol\":1306:1348  jobId = \"ca98366cc7314957b8c012c72f05aeeb\" */\n  0x6361393833363663633733313439353762386330313263373266303561656562\n    /* \"docs.chain.link/samples/APIRequests/APIConsumer.sol\":1306:1311  jobId */\n  0x09\n    /* \"docs.chain.link/samples/APIRequests/APIConsumer.sol\":1306:1348  jobId = \"ca98366cc7314957b8c012c72f05aeeb\" */\n  dup2\n  swap1\n  sstore\n  pop\n    /* \"docs.chain.link/samples/APIRequests/APIConsumer.sol\":1390:1392  10 */\n  0x0a\n    /* \"@chainlink/contracts/src/v0.8/ChainlinkClient.sol\":675:681  10**18 */\n  0x0de0b6b3a7640000\n    /* \"docs.chain.link/samples/APIRequests/APIConsumer.sol\":1365:1366  1 */\n  0x01\n    /* \"docs.chain.link/samples/APIRequests/APIConsumer.sol\":1365:1386  1 * LINK_DIVISIBILITY */\n  tag_18\n  swap2\n  swap1\n  tag_19\n  jump\t// in\ntag_18:\n    /* \"docs.chain.link/samples/APIRequests/APIConsumer.sol\":1364:1392  (1 * LINK_DIVISIBILITY) / 10 */\n  tag_20\n  swap2\n  swap1\n  tag_21\n  jump\t// in\ntag_20:\n    /* \"docs.chain.link/samples/APIRequests/APIConsumer.sol\":1358:1361  fee */\n  0x0a\n    /* \"docs.chain.link/samples/APIRequests/APIConsumer.sol\":1358:1392  fee = (1 * LINK_DIVISIBILITY) / 10 */\n  dup2\n  swap1\n  sstore\n  pop\n    /* \"docs.chain.link/samples/APIRequests/APIConsumer.sol\":551:3393  contract APIConsumer is ChainlinkClient, ConfirmedOwner {... */\n  jump(tag_22)\n    /* \"@chainlink/contracts/src/v0.8/ConfirmedOwnerWithProposal.sol\":1497:1685  function _transferOwnership(address to) private {... */\ntag_11:\n    /* \"@chainlink/contracts/src/v0.8/ConfirmedOwnerWithProposal.sol\":1565:1575  msg.sender */\n  caller\n    /* \"@chainlink/contracts/src/v0.8/ConfirmedOwnerWithProposal.sol\":1559:1575  to != msg.sender */\n  0xffffffffffffffffffffffffffffffffffffffff\n  and\n    /* \"@chainlink/contracts/src/v0.8/ConfirmedOwnerWithProposal.sol\":1559:1561  to */\n  dup2\n    /* \"@chainlink/contracts/src/v0.8/ConfirmedOwnerWithProposal.sol\":1559:1575  to != msg.sender */\n  0xffffffffffffffffffffffffffffffffffffffff\n  and\n  eq\n  iszero\n    /* \"@chainlink/contracts/src/v0.8/ConfirmedOwnerWithProposal.sol\":1551:1603  require(to != msg.sender, \"Cannot transfer to self\") */\n  tag_24\n  jumpi\n  mload(0x40)\n  0x08c379a000000000000000000000000000000000000000000000000000000000\n  dup2\n  mstore\n  0x04\n  add\n  tag_25\n  swap1\n  tag_26\n  jump\t// in\ntag_25:\n  mload(0x40)\n  dup1\n  swap2\n  sub\n  swap1\n  revert\ntag_24:\n    /* \"@chainlink/contracts/src/v0.8/ConfirmedOwnerWithProposal.sol\":1627:1629  to */\n  dup1\n    /* \"@chainlink/contracts/src/v0.8/ConfirmedOwnerWithProposal.sol\":1610:1624  s_pendingOwner */\n  0x07\n  0x00\n    /* \"@chainlink/contracts/src/v0.8/ConfirmedOwnerWithProposal.sol\":1610:1629  s_pendingOwner = to */\n  0x0100\n  exp\n  dup2\n  sload\n  dup2\n  0xffffffffffffffffffffffffffffffffffffffff\n  mul\n  not\n  and\n  swap1\n  dup4\n  0xffffffffffffffffffffffffffffffffffffffff\n  and\n  mul\n  or\n  swap1\n  sstore\n  pop\n    /* \"@chainlink/contracts/src/v0.8/ConfirmedOwnerWithProposal.sol\":1677:1679  to */\n  dup1\n    /* \"@chainlink/contracts/src/v0.8/ConfirmedOwnerWithProposal.sol\":1641:1680  OwnershipTransferRequested(s_owner, to) */\n  0xffffffffffffffffffffffffffffffffffffffff\n  and\n    /* \"@chainlink/contracts/src/v0.8/ConfirmedOwnerWithProposal.sol\":1668:1675  s_owner */\n  0x06\n  0x00\n  swap1\n  sload\n  swap1\n  0x0100\n  exp\n  swap1\n  div\n  0xffffffffffffffffffffffffffffffffffffffff\n  and\n    /* \"@chainlink/contracts/src/v0.8/ConfirmedOwnerWithProposal.sol\":1641:1680  OwnershipTransferRequested(s_owner, to) */\n  0xffffffffffffffffffffffffffffffffffffffff\n  and\n  0xed8889f560326eb138920d842192f0eb3dd22b4f139c87a2c57538e05bae1278\n  mload(0x40)\n  mload(0x40)\n  dup1\n  swap2\n  sub\n  swap1\n  log3\n    /* \"@chainlink/contracts/src/v0.8/ConfirmedOwnerWithProposal.sol\":1497:1685  function _transferOwnership(address to) private {... */\n  pop\n  jump\t// out\n    /* \"@chainlink/contracts/src/v0.8/ChainlinkClient.sol\":8625:8733  function setChainlinkToken(address linkAddress) internal {... */\ntag_15:\n    /* \"@chainlink/contracts/src/v0.8/ChainlinkClient.sol\":8716:8727  linkAddress */\n  dup1\n    /* \"@chainlink/contracts/src/v0.8/ChainlinkClient.sol\":8688:8694  s_link */\n  0x02\n  0x00\n    /* \"@chainlink/contracts/src/v0.8/ChainlinkClient.sol\":8688:8728  s_link = LinkTokenInterface(linkAddress) */\n  0x0100\n  exp\n  dup2\n  sload\n  dup2\n  0xffffffffffffffffffffffffffffffffffffffff\n  mul\n  not\n  and\n  swap1\n  dup4\n  0xffffffffffffffffffffffffffffffffffffffff\n  and\n  mul\n  or\n  swap1\n  sstore\n  pop\n    /* \"@chainlink/contracts/src/v0.8/ChainlinkClient.sol\":8625:8733  function setChainlinkToken(address linkAddress) internal {... */\n  pop\n  jump\t// out\n    /* \"@chainlink/contracts/src/v0.8/ChainlinkClient.sol\":8391:8505  function setChainlinkOracle(address oracleAddress) internal {... */\ntag_17:\n    /* \"@chainlink/contracts/src/v0.8/ChainlinkClient.sol\":8486:8499  oracleAddress */\n  dup1\n    /* \"@chainlink/contracts/src/v0.8/ChainlinkClient.sol\":8457:8465  s_oracle */\n  0x03\n  0x00\n    /* \"@chainlink/contracts/src/v0.8/ChainlinkClient.sol\":8457:8500  s_oracle = OperatorInterface(oracleAddress) */\n  0x0100\n  exp\n  dup2\n  sload\n  dup2\n  0xffffffffffffffffffffffffffffffffffffffff\n  mul\n  not\n  and\n  swap1\n  dup4\n  0xffffffffffffffffffffffffffffffffffffffff\n  and\n  mul\n  or\n  swap1\n  sstore\n  pop\n    /* \"@chainlink/contracts/src/v0.8/ChainlinkClient.sol\":8391:8505  function setChainlinkOracle(address oracleAddress) internal {... */\n  pop\n  jump\t// out\n    /* \"#utility.yul\":7:373   */\ntag_30:\n    /* \"#utility.yul\":149:152   */\n  0x00\n    /* \"#utility.yul\":170:237   */\n  tag_32\n    /* \"#utility.yul\":234:236   */\n  0x18\n    /* \"#utility.yul\":229:232   */\n  dup4\n    /* \"#utility.yul\":170:237   */\n  tag_33\n  jump\t// in\ntag_32:\n    /* \"#utility.yul\":163:237   */\n  swap2\n  pop\n    /* \"#utility.yul\":246:339   */\n  tag_34\n    /* \"#utility.yul\":335:338   */\n  dup3\n    /* \"#utility.yul\":246:339   */\n  tag_35\n  jump\t// in\ntag_34:\n    /* \"#utility.yul\":364:366   */\n  0x20\n    /* \"#utility.yul\":359:362   */\n  dup3\n    /* \"#utility.yul\":355:367   */\n  add\n    /* \"#utility.yul\":348:367   */\n  swap1\n  pop\n    /* \"#utility.yul\":7:373   */\n  swap2\n  swap1\n  pop\n  jump\t// out\n    /* \"#utility.yul\":379:745   */\ntag_36:\n    /* \"#utility.yul\":521:524   */\n  0x00\n    /* \"#utility.yul\":542:609   */\n  tag_38\n    /* \"#utility.yul\":606:608   */\n  0x17\n    /* \"#utility.yul\":601:604   */\n  dup4\n    /* \"#utility.yul\":542:609   */\n  tag_33\n  jump\t// in\ntag_38:\n    /* \"#utility.yul\":535:609   */\n  swap2\n  pop\n    /* \"#utility.yul\":618:711   */\n  tag_39\n    /* \"#utility.yul\":707:710   */\n  dup3\n    /* \"#utility.yul\":618:711   */\n  tag_40\n  jump\t// in\ntag_39:\n    /* \"#utility.yul\":736:738   */\n  0x20\n    /* \"#utility.yul\":731:734   */\n  dup3\n    /* \"#utility.yul\":727:739   */\n  add\n    /* \"#utility.yul\":720:739   */\n  swap1\n  pop\n    /* \"#utility.yul\":379:745   */\n  swap2\n  swap1\n  pop\n  jump\t// out\n    /* \"#utility.yul\":751:1170   */\ntag_8:\n    /* \"#utility.yul\":917:921   */\n  0x00\n    /* \"#utility.yul\":955:957   */\n  0x20\n    /* \"#utility.yul\":944:953   */\n  dup3\n    /* \"#utility.yul\":940:958   */\n  add\n    /* \"#utility.yul\":932:958   */\n  swap1\n  pop\n    /* \"#utility.yul\":1004:1013   */\n  dup2\n    /* \"#utility.yul\":998:1002   */\n  dup2\n    /* \"#utility.yul\":994:1014   */\n  sub\n    /* \"#utility.yul\":990:991   */\n  0x00\n    /* \"#utility.yul\":979:988   */\n  dup4\n    /* \"#utility.yul\":975:992   */\n  add\n    /* \"#utility.yul\":968:1015   */\n  mstore\n    /* \"#utility.yul\":1032:1163   */\n  tag_42\n    /* \"#utility.yul\":1158:1162   */\n  dup2\n    /* \"#utility.yul\":1032:1163   */\n  tag_30\n  jump\t// in\ntag_42:\n    /* \"#utility.yul\":1024:1163   */\n  swap1\n  pop\n    /* \"#utility.yul\":751:1170   */\n  swap2\n  swap1\n  pop\n  jump\t// out\n    /* \"#utility.yul\":1176:1595   */\ntag_26:\n    /* \"#utility.yul\":1342:1346   */\n  0x00\n    /* \"#utility.yul\":1380:1382   */\n  0x20\n    /* \"#utility.yul\":1369:1378   */\n  dup3\n    /* \"#utility.yul\":1365:1383   */\n  add\n    /* \"#utility.yul\":1357:1383   */\n  swap1\n  pop\n    /* \"#utility.yul\":1429:1438   */\n  dup2\n    /* \"#utility.yul\":1423:1427   */\n  dup2\n    /* \"#utility.yul\":1419:1439   */\n  sub\n    /* \"#utility.yul\":1415:1416   */\n  0x00\n    /* \"#utility.yul\":1404:1413   */\n  dup4\n    /* \"#utility.yul\":1400:1417   */\n  add\n    /* \"#utility.yul\":1393:1440   */\n  mstore\n    /* \"#utility.yul\":1457:1588   */\n  tag_44\n    /* \"#utility.yul\":1583:1587   */\n  dup2\n    /* \"#utility.yul\":1457:1588   */\n  tag_36\n  jump\t// in\ntag_44:\n    /* \"#utility.yul\":1449:1588   */\n  swap1\n  pop\n    /* \"#utility.yul\":1176:1595   */\n  swap2\n  swap1\n  pop\n  jump\t// out\n    /* \"#utility.yul\":1601:1770   */\ntag_33:\n    /* \"#utility.yul\":1685:1696   */\n  0x00\n    /* \"#utility.yul\":1719:1725   */\n  dup3\n    /* \"#utility.yul\":1714:1717   */\n  dup3\n    /* \"#utility.yul\":1707:1726   */\n  mstore\n    /* \"#utility.yul\":1759:1763   */\n  0x20\n    /* \"#utility.yul\":1754:1757   */\n  dup3\n    /* \"#utility.yul\":1750:1764   */\n  add\n    /* \"#utility.yul\":1735:1764   */\n  swap1\n  pop\n    /* \"#utility.yul\":1601:1770   */\n  swap3\n  swap2\n  pop\n  pop\n  jump\t// out\n    /* \"#utility.yul\":1776:1961   */\ntag_21:\n    /* \"#utility.yul\":1816:1817   */\n  0x00\n    /* \"#utility.yul\":1833:1853   */\n  tag_47\n    /* \"#utility.yul\":1851:1852   */\n  dup3\n    /* \"#utility.yul\":1833:1853   */\n  tag_48\n  jump\t// in\ntag_47:\n    /* \"#utility.yul\":1828:1853   */\n  swap2\n  pop\n    /* \"#utility.yul\":1867:1887   */\n  tag_49\n    /* \"#utility.yul\":1885:1886   */\n  dup4\n    /* \"#utility.yul\":1867:1887   */\n  tag_48\n  jump\t// in\ntag_49:\n    /* \"#utility.yul\":1862:1887   */\n  swap3\n  pop\n    /* \"#utility.yul\":1906:1907   */\n  dup3\n    /* \"#utility.yul\":1896:1931   */\n  tag_50\n  jumpi\n    /* \"#utility.yul\":1911:1929   */\n  tag_51\n  tag_52\n  jump\t// in\ntag_51:\n    /* \"#utility.yul\":1896:1931   */\ntag_50:\n    /* \"#utility.yul\":1953:1954   */\n  dup3\n    /* \"#utility.yul\":1950:1951   */\n  dup3\n    /* \"#utility.yul\":1946:1955   */\n  div\n    /* \"#utility.yul\":1941:1955   */\n  swap1\n  pop\n    /* \"#utility.yul\":1776:1961   */\n  swap3\n  swap2\n  pop\n  pop\n  jump\t// out\n    /* \"#utility.yul\":1967:2315   */\ntag_19:\n    /* \"#utility.yul\":2007:2014   */\n  0x00\n    /* \"#utility.yul\":2030:2050   */\n  tag_54\n    /* \"#utility.yul\":2048:2049   */\n  dup3\n    /* \"#utility.yul\":2030:2050   */\n  tag_48\n  jump\t// in\ntag_54:\n    /* \"#utility.yul\":2025:2050   */\n  swap2\n  pop\n    /* \"#utility.yul\":2064:2084   */\n  tag_55\n    /* \"#utility.yul\":2082:2083   */\n  dup4\n    /* \"#utility.yul\":2064:2084   */\n  tag_48\n  jump\t// in\ntag_55:\n    /* \"#utility.yul\":2059:2084   */\n  swap3\n  pop\n    /* \"#utility.yul\":2252:2253   */\n  dup2\n    /* \"#utility.yul\":2184:2250   */\n  0xffffffffffffffffffffffffffffffffffffffffffffffffffffffffffffffff\n    /* \"#utility.yul\":2180:2254   */\n  div\n    /* \"#utility.yul\":2177:2178   */\n  dup4\n    /* \"#utility.yul\":2174:2255   */\n  gt\n    /* \"#utility.yul\":2169:2170   */\n  dup3\n    /* \"#utility.yul\":2162:2171   */\n  iszero\n    /* \"#utility.yul\":2155:2172   */\n  iszero\n    /* \"#utility.yul\":2151:2256   */\n  and\n    /* \"#utility.yul\":2148:2279   */\n  iszero\n  tag_56\n  jumpi\n    /* \"#utility.yul\":2259:2277   */\n  tag_57\n  tag_58\n  jump\t// in\ntag_57:\n    /* \"#utility.yul\":2148:2279   */\ntag_56:\n    /* \"#utility.yul\":2307:2308   */\n  dup3\n    /* \"#utility.yul\":2304:2305   */\n  dup3\n    /* \"#utility.yul\":2300:2309   */\n  mul\n    /* \"#utility.yul\":2289:2309   */\n  swap1\n  pop\n    /* \"#utility.yul\":1967:2315   */\n  swap3\n  swap2\n  pop\n  pop\n  jump\t// out\n    /* \"#utility.yul\":2321:2398   */\ntag_48:\n    /* \"#utility.yul\":2358:2365   */\n  0x00\n    /* \"#utility.yul\":2387:2392   */\n  dup2\n    /* \"#utility.yul\":2376:2392   */\n  swap1\n  pop\n    /* \"#utility.yul\":2321:2398   */\n  swap2\n  swap1\n  pop\n  jump\t// out\n    /* \"#utility.yul\":2404:2584   */\ntag_58:\n    /* \"#utility.yul\":2452:2529   */\n  0x4e487b7100000000000000000000000000000000000000000000000000000000\n    /* \"#utility.yul\":2449:2450   */\n  0x00\n    /* \"#utility.yul\":2442:2530   */\n  mstore\n    /* \"#utility.yul\":2549:2553   */\n  0x11\n    /* \"#utility.yul\":2546:2547   */\n  0x04\n    /* \"#utility.yul\":2539:2554   */\n  mstore\n    /* \"#utility.yul\":2573:2577   */\n  0x24\n    /* \"#utility.yul\":2570:2571   */\n  0x00\n    /* \"#utility.yul\":2563:2578   */\n  revert\n    /* \"#utility.yul\":2590:2770   */\ntag_52:\n    /* \"#utility.yul\":2638:2715   */\n  0x4e487b7100000000000000000000000000000000000000000000000000000000\n    /* \"#utility.yul\":2635:2636   */\n  0x00\n    /* \"#utility.yul\":2628:2716   */\n  mstore\n    /* \"#utility.yul\":2735:2739   */\n  0x12\n    /* \"#utility.yul\":2732:2733   */\n  0x04\n    /* \"#utility.yul\":2725:2740   */\n  mstore\n    /* \"#utility.yul\":2759:2763   */\n  0x24\n    /* \"#utility.yul\":2756:2757   */\n  0x00\n    /* \"#utility.yul\":2749:2764   */\n  revert\n    /* \"#utility.yul\":2776:2950   */\ntag_35:\n    /* \"#utility.yul\":2916:2942   */\n  0x43616e6e6f7420736574206f776e657220746f207a65726f0000000000000000\n    /* \"#utility.yul\":2912:2913   */\n  0x00\n    /* \"#utility.yul\":2904:2910   */\n  dup3\n    /* \"#utility.yul\":2900:2914   */\n  add\n    /* \"#utility.yul\":2893:2943   */\n  mstore\n    /* \"#utility.yul\":2776:2950   */\n  pop\n  jump\t// out\n    /* \"#utility.yul\":2956:3129   */\ntag_40:\n    /* \"#utility.yul\":3096:3121   */\n  0x43616e6e6f74207472616e7366657220746f2073656c66000000000000000000\n    /* \"#utility.yul\":3092:3093   */\n  0x00\n    /* \"#utility.yul\":3084:3090   */\n  dup3\n    /* \"#utility.yul\":3080:3094   */\n  add\n    /* \"#utility.yul\":3073:3122   */\n  mstore\n    /* \"#utility.yul\":2956:3129   */\n  pop\n  jump\t// out\n    /* \"docs.chain.link/samples/APIRequests/APIConsumer.sol\":551:3393  contract APIConsumer is ChainlinkClient, ConfirmedOwner {... */\ntag_22:\n  dataSize(sub_0)\n  dup1\n  dataOffset(sub_0)\n  0x00\n  codecopy\n  0x00\n  return\nstop\n\nsub_0: assembly {\n        /* \"docs.chain.link/samples/APIRequests/APIConsumer.sol\":551:3393  contract APIConsumer is ChainlinkClient, ConfirmedOwner {... */\n      mstore(0x40, 0x80)\n      callvalue\n      dup1\n      iszero\n      tag_1\n      jumpi\n      0x00\n      dup1\n      revert\n    tag_1:\n      pop\n      jumpi(tag_2, lt(calldatasize, 0x04))\n      shr(0xe0, calldataload(0x00))\n      dup1\n      0x8da5cb5b\n      gt\n      tag_10\n      jumpi\n      dup1\n      0x8da5cb5b\n      eq\n      tag_6\n      jumpi\n      dup1\n      0x8dc654a2\n      eq\n      tag_7\n      jumpi\n      dup1\n      0xc618a1e4\n      eq\n      tag_8\n      jumpi\n      dup1\n      0xf2fde38b\n      eq\n      tag_9\n      jumpi\n      jump(tag_2)\n    tag_10:\n      dup1\n      0x4357855e\n      eq\n      tag_3\n      jumpi\n      dup1\n      0x6021abac\n      eq\n      tag_4\n      jumpi\n      dup1\n      0x79ba5097\n      eq\n      tag_5\n      jumpi\n    tag_2:\n      0x00\n      dup1\n      revert\n        /* \"docs.chain.link/samples/APIRequests/APIConsumer.sol\":2852:3056  function fulfill(... */\n    tag_3:\n      tag_11\n      0x04\n      dup1\n      calldatasize\n      sub\n      dup2\n      add\n      swap1\n      tag_12\n      swap2\n      swap1\n      tag_13\n      jump\t// in\n    tag_12:\n      tag_14\n      jump\t// in\n    tag_11:\n      stop\n        /* \"docs.chain.link/samples/APIRequests/APIConsumer.sol\":1629:2779  function requestVolumeData() public returns (bytes32 requestId) {... */\n    tag_4:\n      tag_15\n      tag_16\n      jump\t// in\n    tag_15:\n      mload(0x40)\n      tag_17\n      swap2\n      swap1\n      tag_18\n      jump\t// in\n    tag_17:\n      mload(0x40)\n      dup1\n      swap2\n      sub\n      swap1\n      return\n        /* \"@chainlink/contracts/src/v0.8/ConfirmedOwnerWithProposal.sol\":1016:1281  function acceptOwnership() external override {... */\n    tag_5:\n      tag_19\n      tag_20\n      jump\t// in\n    tag_19:\n      stop\n        /* \"@chainlink/contracts/src/v0.8/ConfirmedOwnerWithProposal.sol\":1332:1413  function owner() public view override returns (address) {... */\n    tag_6:\n      tag_21\n      tag_22\n      jump\t// in\n    tag_21:\n      mload(0x40)\n      tag_23\n      swap2\n      swap1\n      tag_24\n      jump\t// in\n    tag_23:\n      mload(0x40)\n      dup1\n      swap2\n      sub\n      swap1\n      return\n        /* \"docs.chain.link/samples/APIRequests/APIConsumer.sol\":3133:3391  function withdrawLink() public onlyOwner {... */\n    tag_7:\n      tag_25\n      tag_26\n      jump\t// in\n    tag_25:\n      stop\n        /* \"docs.chain.link/samples/APIRequests/APIConsumer.sol\":657:678  uint256 public volume */\n    tag_8:\n      tag_27\n      tag_28\n      jump\t// in\n    tag_27:\n      mload(0x40)\n      tag_29\n      swap2\n      swap1\n      tag_30\n      jump\t// in\n    tag_29:\n      mload(0x40)\n      dup1\n      swap2\n      sub\n      swap1\n      return\n        /* \"@chainlink/contracts/src/v0.8/ConfirmedOwnerWithProposal.sol\":826:924  function transferOwnership(address to) public override onlyOwner {... */\n    tag_9:\n      tag_31\n      0x04\n      dup1\n      calldatasize\n      sub\n      dup2\n      add\n      swap1\n      tag_32\n      swap2\n      swap1\n      tag_33\n      jump\t// in\n    tag_32:\n      tag_34\n      jump\t// in\n    tag_31:\n      stop\n        /* \"docs.chain.link/samples/APIRequests/APIConsumer.sol\":2852:3056  function fulfill(... */\n    tag_14:\n        /* \"docs.chain.link/samples/APIRequests/APIConsumer.sol\":2962:2972  _requestId */\n      dup2\n        /* \"@chainlink/contracts/src/v0.8/ChainlinkClient.sol\":11663:11680  s_pendingRequests */\n      0x05\n        /* \"@chainlink/contracts/src/v0.8/ChainlinkClient.sol\":11663:11691  s_pendingRequests[requestId] */\n      0x00\n        /* \"@chainlink/contracts/src/v0.8/ChainlinkClient.sol\":11681:11690  requestId */\n      dup3\n        /* \"@chainlink/contracts/src/v0.8/ChainlinkClient.sol\":11663:11691  s_pendingRequests[requestId] */\n      dup2\n      mstore\n      0x20\n      add\n      swap1\n      dup2\n      mstore\n      0x20\n      add\n      0x00\n      keccak256\n      0x00\n      swap1\n      sload\n      swap1\n      0x0100\n      exp\n      swap1\n      div\n      0xffffffffffffffffffffffffffffffffffffffff\n      and\n        /* \"@chainlink/contracts/src/v0.8/ChainlinkClient.sol\":11649:11691  msg.sender == s_pendingRequests[requestId] */\n      0xffffffffffffffffffffffffffffffffffffffff\n      and\n        /* \"@chainlink/contracts/src/v0.8/ChainlinkClient.sol\":11649:11659  msg.sender */\n      caller\n        /* \"@chainlink/contracts/src/v0.8/ChainlinkClient.sol\":11649:11691  msg.sender == s_pendingRequests[requestId] */\n      0xffffffffffffffffffffffffffffffffffffffff\n      and\n      eq\n        /* \"@chainlink/contracts/src/v0.8/ChainlinkClient.sol\":11641:11736  require(msg.sender == s_pendingRequests[requestId], \"Source must be the oracle of the request\") */\n      tag_36\n      jumpi\n      mload(0x40)\n      0x08c379a000000000000000000000000000000000000000000000000000000000\n      dup2\n      mstore\n      0x04\n      add\n      tag_37\n      swap1\n      tag_38\n      jump\t// in\n    tag_37:\n      mload(0x40)\n      dup1\n      swap2\n      sub\n      swap1\n      revert\n    tag_36:\n        /* \"@chainlink/contracts/src/v0.8/ChainlinkClient.sol\":11749:11766  s_pendingRequests */\n      0x05\n        /* \"@chainlink/contracts/src/v0.8/ChainlinkClient.sol\":11749:11777  s_pendingRequests[requestId] */\n      0x00\n        /* \"@chainlink/contracts/src/v0.8/ChainlinkClient.sol\":11767:11776  requestId */\n      dup3\n        /* \"@chainlink/contracts/src/v0.8/ChainlinkClient.sol\":11749:11777  s_pendingRequests[requestId] */\n      dup2\n      mstore\n      0x20\n      add\n      swap1\n      dup2\n      mstore\n      0x20\n      add\n      0x00\n      keccak256\n      0x00\n        /* \"@chainlink/contracts/src/v0.8/ChainlinkClient.sol\":11742:11777  delete s_pendingRequests[requestId] */\n      0x0100\n      exp\n      dup2\n      sload\n      swap1\n      0xffffffffffffffffffffffffffffffffffffffff\n      mul\n      not\n      and\n      swap1\n      sstore\n        /* \"@chainlink/contracts/src/v0.8/ChainlinkClient.sol\":11807:11816  requestId */\n      dup1\n        /* \"@chainlink/contracts/src/v0.8/ChainlinkClient.sol\":11788:11817  ChainlinkFulfilled(requestId) */\n      0x7cc135e0cebb02c3480ae5d74d377283180a2601f8f644edf7987b009316c63a\n      mload(0x40)\n      mload(0x40)\n      dup1\n      swap2\n      sub\n      swap1\n      log2\n        /* \"docs.chain.link/samples/APIRequests/APIConsumer.sol\":3003:3013  _requestId */\n      dup3\n        /* \"docs.chain.link/samples/APIRequests/APIConsumer.sol\":2989:3023  RequestVolume(_requestId, _volume) */\n      0x673b38182859a514d734bdfcb49d3a05c4a641dec9311d9894c9717bcb79af76\n        /* \"docs.chain.link/samples/APIRequests/APIConsumer.sol\":3015:3022  _volume */\n      dup4\n        /* \"docs.chain.link/samples/APIRequests/APIConsumer.sol\":2989:3023  RequestVolume(_requestId, _volume) */\n      mload(0x40)\n      tag_40\n      swap2\n      swap1\n      tag_30\n      jump\t// in\n    tag_40:\n      mload(0x40)\n      dup1\n      swap2\n      sub\n      swap1\n      log2\n        /* \"docs.chain.link/samples/APIRequests/APIConsumer.sol\":3042:3049  _volume */\n      dup2\n        /* \"docs.chain.link/samples/APIRequests/APIConsumer.sol\":3033:3039  volume */\n      0x08\n        /* \"docs.chain.link/samples/APIRequests/APIConsumer.sol\":3033:3049  volume = _volume */\n      dup2\n      swap1\n      sstore\n      pop\n        /* \"docs.chain.link/samples/APIRequests/APIConsumer.sol\":2852:3056  function fulfill(... */\n      pop\n      pop\n      pop\n      jump\t// out\n        /* \"docs.chain.link/samples/APIRequests/APIConsumer.sol\":1629:2779  function requestVolumeData() public returns (bytes32 requestId) {... */\n    tag_16:\n        /* \"docs.chain.link/samples/APIRequests/APIConsumer.sol\":1674:1691  bytes32 requestId */\n      0x00\n        /* \"docs.chain.link/samples/APIRequests/APIConsumer.sol\":1703:1731  Chainlink.Request memory req */\n      dup1\n        /* \"docs.chain.link/samples/APIRequests/APIConsumer.sol\":1734:1846  buildChainlinkRequest(... */\n      tag_42\n        /* \"docs.chain.link/samples/APIRequests/APIConsumer.sol\":1769:1774  jobId */\n      sload(0x09)\n        /* \"docs.chain.link/samples/APIRequests/APIConsumer.sol\":1796:1800  this */\n      address\n        /* \"docs.chain.link/samples/APIRequests/APIConsumer.sol\":1815:1836  this.fulfill.selector */\n      shl(0xe0, 0x4357855e)\n        /* \"docs.chain.link/samples/APIRequests/APIConsumer.sol\":1734:1755  buildChainlinkRequest */\n      tag_43\n        /* \"docs.chain.link/samples/APIRequests/APIConsumer.sol\":1734:1846  buildChainlinkRequest(... */\n      jump\t// in\n    tag_42:\n        /* \"docs.chain.link/samples/APIRequests/APIConsumer.sol\":1703:1846  Chainlink.Request memory req = buildChainlinkRequest(... */\n      swap1\n      pop\n        /* \"docs.chain.link/samples/APIRequests/APIConsumer.sol\":1910:2035  req.add(... */\n      tag_44\n      mload(0x40)\n      dup1\n      0x40\n      add\n      0x40\n      mstore\n      dup1\n      0x03\n      dup2\n      mstore\n      0x20\n      add\n      0x6765740000000000000000000000000000000000000000000000000000000000\n      dup2\n      mstore\n      pop\n      mload(0x40)\n      dup1\n      0x80\n      add\n      0x40\n      mstore\n      dup1\n      0x49\n      dup2\n      mstore\n      0x20\n      add\n      data_f3fa6b402eb4c49347f9ac6c8c8e0baf0eacaf39bcd59583feb12d9b90720124\n      0x49\n      swap2\n      codecopy\n        /* \"docs.chain.link/samples/APIRequests/APIConsumer.sol\":1910:1913  req */\n      dup4\n        /* \"docs.chain.link/samples/APIRequests/APIConsumer.sol\":1910:1917  req.add */\n      tag_45\n      swap1\n        /* \"docs.chain.link/samples/APIRequests/APIConsumer.sol\":1910:2035  req.add(... */\n      swap3\n      swap2\n      swap1\n      0xffffffff\n      and\n      jump\t// in\n    tag_44:\n        /* \"docs.chain.link/samples/APIRequests/APIConsumer.sol\":2442:2485  req.add(\"path\", \"RAW,ETH,USD,VOLUME24HOUR\") */\n      tag_46\n      mload(0x40)\n      dup1\n      0x40\n      add\n      0x40\n      mstore\n      dup1\n      0x04\n      dup2\n      mstore\n      0x20\n      add\n      0x7061746800000000000000000000000000000000000000000000000000000000\n      dup2\n      mstore\n      pop\n      mload(0x40)\n      dup1\n      0x40\n      add\n      0x40\n      mstore\n      dup1\n      0x18\n      dup2\n      mstore\n      0x20\n      add\n      0x5241572c4554482c5553442c564f4c554d453234484f55520000000000000000\n      dup2\n      mstore\n      pop\n        /* \"docs.chain.link/samples/APIRequests/APIConsumer.sol\":2442:2445  req */\n      dup4\n        /* \"docs.chain.link/samples/APIRequests/APIConsumer.sol\":2442:2449  req.add */\n      tag_45\n      swap1\n        /* \"docs.chain.link/samples/APIRequests/APIConsumer.sol\":2442:2485  req.add(\"path\", \"RAW,ETH,USD,VOLUME24HOUR\") */\n      swap3\n      swap2\n      swap1\n      0xffffffff\n      and\n      jump\t// in\n    tag_46:\n        /* \"docs.chain.link/samples/APIRequests/APIConsumer.sol\":2624:2642  int256 timesAmount */\n      0x00\n        /* \"docs.chain.link/samples/APIRequests/APIConsumer.sol\":2645:2653  10 ** 18 */\n      0x0de0b6b3a7640000\n        /* \"docs.chain.link/samples/APIRequests/APIConsumer.sol\":2624:2653  int256 timesAmount = 10 ** 18 */\n      swap1\n      pop\n        /* \"docs.chain.link/samples/APIRequests/APIConsumer.sol\":2663:2695  req.addInt(\"times\", timesAmount) */\n      tag_47\n      mload(0x40)\n      dup1\n      0x40\n      add\n      0x40\n      mstore\n      dup1\n      0x05\n      dup2\n      mstore\n      0x20\n      add\n      0x74696d6573000000000000000000000000000000000000000000000000000000\n      dup2\n      mstore\n      pop\n        /* \"docs.chain.link/samples/APIRequests/APIConsumer.sol\":2683:2694  timesAmount */\n      dup3\n        /* \"docs.chain.link/samples/APIRequests/APIConsumer.sol\":2663:2666  req */\n      dup5\n        /* \"docs.chain.link/samples/APIRequests/APIConsumer.sol\":2663:2673  req.addInt */\n      tag_48\n      swap1\n        /* \"docs.chain.link/samples/APIRequests/APIConsumer.sol\":2663:2695  req.addInt(\"times\", timesAmount) */\n      swap3\n      swap2\n      swap1\n      0xffffffff\n      and\n      jump\t// in\n    tag_47:\n        /* \"docs.chain.link/samples/APIRequests/APIConsumer.sol\":2742:2772  sendChainlinkRequest(req, fee) */\n      tag_49\n        /* \"docs.chain.link/samples/APIRequests/APIConsumer.sol\":2763:2766  req */\n      dup3\n        /* \"docs.chain.link/samples/APIRequests/APIConsumer.sol\":2768:2771  fee */\n      sload(0x0a)\n        /* \"docs.chain.link/samples/APIRequests/APIConsumer.sol\":2742:2762  sendChainlinkRequest */\n      tag_50\n        /* \"docs.chain.link/samples/APIRequests/APIConsumer.sol\":2742:2772  sendChainlinkRequest(req, fee) */\n      jump\t// in\n    tag_49:\n        /* \"docs.chain.link/samples/APIRequests/APIConsumer.sol\":2735:2772  return sendChainlinkRequest(req, fee) */\n      swap3\n      pop\n      pop\n      pop\n        /* \"docs.chain.link/samples/APIRequests/APIConsumer.sol\":1629:2779  function requestVolumeData() public returns (bytes32 requestId) {... */\n      swap1\n      jump\t// out\n        /* \"@chainlink/contracts/src/v0.8/ConfirmedOwnerWithProposal.sol\":1016:1281  function acceptOwnership() external override {... */\n    tag_20:\n        /* \"@chainlink/contracts/src/v0.8/ConfirmedOwnerWithProposal.sol\":1089:1103  s_pendingOwner */\n      0x07\n      0x00\n      swap1\n      sload\n      swap1\n      0x0100\n      exp\n      swap1\n      div\n      0xffffffffffffffffffffffffffffffffffffffff\n      and\n        /* \"@chainlink/contracts/src/v0.8/ConfirmedOwnerWithProposal.sol\":1075:1103  msg.sender == s_pendingOwner */\n      0xffffffffffffffffffffffffffffffffffffffff\n      and\n        /* \"@chainlink/contracts/src/v0.8/ConfirmedOwnerWithProposal.sol\":1075:1085  msg.sender */\n      caller\n        /* \"@chainlink/contracts/src/v0.8/ConfirmedOwnerWithProposal.sol\":1075:1103  msg.sender == s_pendingOwner */\n      0xffffffffffffffffffffffffffffffffffffffff\n      and\n      eq\n        /* \"@chainlink/contracts/src/v0.8/ConfirmedOwnerWithProposal.sol\":1067:1130  require(msg.sender == s_pendingOwner, \"Must be proposed owner\") */\n      tag_52\n      jumpi\n      mload(0x40)\n      0x08c379a000000000000000000000000000000000000000000000000000000000\n      dup2\n      mstore\n      0x04\n      add\n      tag_53\n      swap1\n      tag_54\n      jump\t// in\n    tag_53:\n      mload(0x40)\n      dup1\n      swap2\n      sub\n      swap1\n      revert\n    tag_52:\n        /* \"@chainlink/contracts/src/v0.8/ConfirmedOwnerWithProposal.sol\":1137:1153  address oldOwner */\n      0x00\n        /* \"@chainlink/contracts/src/v0.8/ConfirmedOwnerWithProposal.sol\":1156:1163  s_owner */\n      0x06\n      0x00\n      swap1\n      sload\n      swap1\n      0x0100\n      exp\n      swap1\n      div\n      0xffffffffffffffffffffffffffffffffffffffff\n      and\n        /* \"@chainlink/contracts/src/v0.8/ConfirmedOwnerWithProposal.sol\":1137:1163  address oldOwner = s_owner */\n      swap1\n      pop\n        /* \"@chainlink/contracts/src/v0.8/ConfirmedOwnerWithProposal.sol\":1179:1189  msg.sender */\n      caller\n        /* \"@chainlink/contracts/src/v0.8/ConfirmedOwnerWithProposal.sol\":1169:1176  s_owner */\n      0x06\n      0x00\n        /* \"@chainlink/contracts/src/v0.8/ConfirmedOwnerWithProposal.sol\":1169:1189  s_owner = msg.sender */\n      0x0100\n      exp\n      dup2\n      sload\n      dup2\n      0xffffffffffffffffffffffffffffffffffffffff\n      mul\n      not\n      and\n      swap1\n      dup4\n      0xffffffffffffffffffffffffffffffffffffffff\n      and\n      mul\n      or\n      swap1\n      sstore\n      pop\n        /* \"@chainlink/contracts/src/v0.8/ConfirmedOwnerWithProposal.sol\":1220:1221  0 */\n      0x00\n        /* \"@chainlink/contracts/src/v0.8/ConfirmedOwnerWithProposal.sol\":1195:1209  s_pendingOwner */\n      0x07\n      0x00\n        /* \"@chainlink/contracts/src/v0.8/ConfirmedOwnerWithProposal.sol\":1195:1222  s_pendingOwner = address(0) */\n      0x0100\n      exp\n      dup2\n      sload\n      dup2\n      0xffffffffffffffffffffffffffffffffffffffff\n      mul\n      not\n      and\n      swap1\n      dup4\n      0xffffffffffffffffffffffffffffffffffffffff\n      and\n      mul\n      or\n      swap1\n      sstore\n      pop\n        /* \"@chainlink/contracts/src/v0.8/ConfirmedOwnerWithProposal.sol\":1265:1275  msg.sender */\n      caller\n        /* \"@chainlink/contracts/src/v0.8/ConfirmedOwnerWithProposal.sol\":1234:1276  OwnershipTransferred(oldOwner, msg.sender) */\n      0xffffffffffffffffffffffffffffffffffffffff\n      and\n        /* \"@chainlink/contracts/src/v0.8/ConfirmedOwnerWithProposal.sol\":1255:1263  oldOwner */\n      dup2\n        /* \"@chainlink/contracts/src/v0.8/ConfirmedOwnerWithProposal.sol\":1234:1276  OwnershipTransferred(oldOwner, msg.sender) */\n      0xffffffffffffffffffffffffffffffffffffffff\n      and\n      0x8be0079c531659141344cd1fd0a4f28419497f9722a3daafe3b4186f6b6457e0\n      mload(0x40)\n      mload(0x40)\n      dup1\n      swap2\n      sub\n      swap1\n      log3\n        /* \"@chainlink/contracts/src/v0.8/ConfirmedOwnerWithProposal.sol\":1061:1281  {... */\n      pop\n        /* \"@chainlink/contracts/src/v0.8/ConfirmedOwnerWithProposal.sol\":1016:1281  function acceptOwnership() external override {... */\n      jump\t// out\n        /* \"@chainlink/contracts/src/v0.8/ConfirmedOwnerWithProposal.sol\":1332:1413  function owner() public view override returns (address) {... */\n    tag_22:\n        /* \"@chainlink/contracts/src/v0.8/ConfirmedOwnerWithProposal.sol\":1379:1386  address */\n      0x00\n        /* \"@chainlink/contracts/src/v0.8/ConfirmedOwnerWithProposal.sol\":1401:1408  s_owner */\n      0x06\n      0x00\n      swap1\n      sload\n      swap1\n      0x0100\n      exp\n      swap1\n      div\n      0xffffffffffffffffffffffffffffffffffffffff\n      and\n        /* \"@chainlink/contracts/src/v0.8/ConfirmedOwnerWithProposal.sol\":1394:1408  return s_owner */\n      swap1\n      pop\n        /* \"@chainlink/contracts/src/v0.8/ConfirmedOwnerWithProposal.sol\":1332:1413  function owner() public view override returns (address) {... */\n      swap1\n      jump\t// out\n        /* \"docs.chain.link/samples/APIRequests/APIConsumer.sol\":3133:3391  function withdrawLink() public onlyOwner {... */\n    tag_26:\n        /* \"@chainlink/contracts/src/v0.8/ConfirmedOwnerWithProposal.sol\":1956:1976  _validateOwnership() */\n      tag_57\n        /* \"@chainlink/contracts/src/v0.8/ConfirmedOwnerWithProposal.sol\":1956:1974  _validateOwnership */\n      tag_58\n        /* \"@chainlink/contracts/src/v0.8/ConfirmedOwnerWithProposal.sol\":1956:1976  _validateOwnership() */\n      jump\t// in\n    tag_57:\n        /* \"docs.chain.link/samples/APIRequests/APIConsumer.sol\":3184:3207  LinkTokenInterface link */\n      0x00\n        /* \"docs.chain.link/samples/APIRequests/APIConsumer.sol\":3229:3252  chainlinkTokenAddress() */\n      tag_60\n        /* \"docs.chain.link/samples/APIRequests/APIConsumer.sol\":3229:3250  chainlinkTokenAddress */\n      tag_61\n        /* \"docs.chain.link/samples/APIRequests/APIConsumer.sol\":3229:3252  chainlinkTokenAddress() */\n      jump\t// in\n    tag_60:\n        /* \"docs.chain.link/samples/APIRequests/APIConsumer.sol\":3184:3253  LinkTokenInterface link = LinkTokenInterface(chainlinkTokenAddress()) */\n      swap1\n      pop\n        /* \"docs.chain.link/samples/APIRequests/APIConsumer.sol\":3284:3288  link */\n      dup1\n        /* \"docs.chain.link/samples/APIRequests/APIConsumer.sol\":3284:3297  link.transfer */\n      0xffffffffffffffffffffffffffffffffffffffff\n      and\n      0xa9059cbb\n        /* \"docs.chain.link/samples/APIRequests/APIConsumer.sol\":3298:3308  msg.sender */\n      caller\n        /* \"docs.chain.link/samples/APIRequests/APIConsumer.sol\":3310:3314  link */\n      dup4\n        /* \"docs.chain.link/samples/APIRequests/APIConsumer.sol\":3310:3324  link.balanceOf */\n      0xffffffffffffffffffffffffffffffffffffffff\n      and\n      0x70a08231\n        /* \"docs.chain.link/samples/APIRequests/APIConsumer.sol\":3333:3337  this */\n      address\n        /* \"docs.chain.link/samples/APIRequests/APIConsumer.sol\":3310:3339  link.balanceOf(address(this)) */\n      mload(0x40)\n      dup3\n      0xffffffff\n      and\n      0xe0\n      shl\n      dup2\n      mstore\n      0x04\n      add\n      tag_62\n      swap2\n      swap1\n      tag_24\n      jump\t// in\n    tag_62:\n      0x20\n      mload(0x40)\n      dup1\n      dup4\n      sub\n      dup2\n      dup7\n      dup1\n      extcodesize\n      iszero\n      dup1\n      iszero\n      tag_63\n      jumpi\n      0x00\n      dup1\n      revert\n    tag_63:\n      pop\n      gas\n      staticcall\n      iszero\n      dup1\n      iszero\n      tag_65\n      jumpi\n      returndatasize\n      0x00\n      dup1\n      returndatacopy\n      revert(0x00, returndatasize)\n    tag_65:\n      pop\n      pop\n      pop\n      pop\n      mload(0x40)\n      returndatasize\n      not(0x1f)\n      0x1f\n      dup3\n      add\n      and\n      dup3\n      add\n      dup1\n      0x40\n      mstore\n      pop\n      dup2\n      add\n      swap1\n      tag_66\n      swap2\n      swap1\n      tag_67\n      jump\t// in\n    tag_66:\n        /* \"docs.chain.link/samples/APIRequests/APIConsumer.sol\":3284:3340  link.transfer(msg.sender, link.balanceOf(address(this))) */\n      mload(0x40)\n      dup4\n      0xffffffff\n      and\n      0xe0\n      shl\n      dup2\n      mstore\n      0x04\n      add\n      tag_68\n      swap3\n      swap2\n      swap1\n      tag_69\n      jump\t// in\n    tag_68:\n      0x20\n      mload(0x40)\n      dup1\n      dup4\n      sub\n      dup2\n      0x00\n      dup8\n      dup1\n      extcodesize\n      iszero\n      dup1\n      iszero\n      tag_70\n      jumpi\n      0x00\n      dup1\n      revert\n    tag_70:\n      pop\n      gas\n      call\n      iszero\n      dup1\n      iszero\n      tag_72\n      jumpi\n      returndatasize\n      0x00\n      dup1\n      returndatacopy\n      revert(0x00, returndatasize)\n    tag_72:\n      pop\n      pop\n      pop\n      pop\n      mload(0x40)\n      returndatasize\n      not(0x1f)\n      0x1f\n      dup3\n      add\n      and\n      dup3\n      add\n      dup1\n      0x40\n      mstore\n      pop\n      dup2\n      add\n      swap1\n      tag_73\n      swap2\n      swap1\n      tag_74\n      jump\t// in\n    tag_73:\n        /* \"docs.chain.link/samples/APIRequests/APIConsumer.sol\":3263:3384  require(... */\n      tag_75\n      jumpi\n      mload(0x40)\n      0x08c379a000000000000000000000000000000000000000000000000000000000\n      dup2\n      mstore\n      0x04\n      add\n      tag_76\n      swap1\n      tag_77\n      jump\t// in\n    tag_76:\n      mload(0x40)\n      dup1\n      swap2\n      sub\n      swap1\n      revert\n    tag_75:\n        /* \"docs.chain.link/samples/APIRequests/APIConsumer.sol\":3174:3391  {... */\n      pop\n        /* \"docs.chain.link/samples/APIRequests/APIConsumer.sol\":3133:3391  function withdrawLink() public onlyOwner {... */\n      jump\t// out\n        /* \"docs.chain.link/samples/APIRequests/APIConsumer.sol\":657:678  uint256 public volume */\n    tag_28:\n      sload(0x08)\n      dup2\n      jump\t// out\n        /* \"@chainlink/contracts/src/v0.8/ConfirmedOwnerWithProposal.sol\":826:924  function transferOwnership(address to) public override onlyOwner {... */\n    tag_34:\n        /* \"@chainlink/contracts/src/v0.8/ConfirmedOwnerWithProposal.sol\":1956:1976  _validateOwnership() */\n      tag_79\n        /* \"@chainlink/contracts/src/v0.8/ConfirmedOwnerWithProposal.sol\":1956:1974  _validateOwnership */\n      tag_58\n        /* \"@chainlink/contracts/src/v0.8/ConfirmedOwnerWithProposal.sol\":1956:1976  _validateOwnership() */\n      jump\t// in\n    tag_79:\n        /* \"@chainlink/contracts/src/v0.8/ConfirmedOwnerWithProposal.sol\":897:919  _transferOwnership(to) */\n      tag_81\n        /* \"@chainlink/contracts/src/v0.8/ConfirmedOwnerWithProposal.sol\":916:918  to */\n      dup2\n        /* \"@chainlink/contracts/src/v0.8/ConfirmedOwnerWithProposal.sol\":897:915  _transferOwnership */\n      tag_82\n        /* \"@chainlink/contracts/src/v0.8/ConfirmedOwnerWithProposal.sol\":897:919  _transferOwnership(to) */\n      jump\t// in\n    tag_81:\n        /* \"@chainlink/contracts/src/v0.8/ConfirmedOwnerWithProposal.sol\":826:924  function transferOwnership(address to) public override onlyOwner {... */\n      pop\n      jump\t// out\n        /* \"@chainlink/contracts/src/v0.8/ChainlinkClient.sol\":1850:2133  function buildChainlinkRequest(... */\n    tag_43:\n        /* \"@chainlink/contracts/src/v0.8/ChainlinkClient.sol\":1992:2016  Chainlink.Request memory */\n      tag_83\n      tag_84\n      jump\t// in\n    tag_83:\n        /* \"@chainlink/contracts/src/v0.8/ChainlinkClient.sol\":2024:2052  Chainlink.Request memory req */\n      tag_86\n      tag_84\n      jump\t// in\n    tag_86:\n        /* \"@chainlink/contracts/src/v0.8/ChainlinkClient.sol\":2065:2128  req.initialize(specId, callbackAddr, callbackFunctionSignature) */\n      tag_87\n        /* \"@chainlink/contracts/src/v0.8/ChainlinkClient.sol\":2080:2086  specId */\n      dup6\n        /* \"@chainlink/contracts/src/v0.8/ChainlinkClient.sol\":2088:2100  callbackAddr */\n      dup6\n        /* \"@chainlink/contracts/src/v0.8/ChainlinkClient.sol\":2102:2127  callbackFunctionSignature */\n      dup6\n        /* \"@chainlink/contracts/src/v0.8/ChainlinkClient.sol\":2065:2068  req */\n      dup5\n        /* \"@chainlink/contracts/src/v0.8/ChainlinkClient.sol\":2065:2079  req.initialize */\n      tag_88\n      swap1\n        /* \"@chainlink/contracts/src/v0.8/ChainlinkClient.sol\":2065:2128  req.initialize(specId, callbackAddr, callbackFunctionSignature) */\n      swap4\n      swap3\n      swap2\n      swap1\n      0xffffffff\n      and\n      jump\t// in\n    tag_87:\n        /* \"@chainlink/contracts/src/v0.8/ChainlinkClient.sol\":2058:2128  return req.initialize(specId, callbackAddr, callbackFunctionSignature) */\n      swap2\n      pop\n      pop\n        /* \"@chainlink/contracts/src/v0.8/ChainlinkClient.sol\":1850:2133  function buildChainlinkRequest(... */\n      swap4\n      swap3\n      pop\n      pop\n      pop\n      jump\t// out\n        /* \"@chainlink/contracts/src/v0.8/Chainlink.sol\":1951:2126  function add(... */\n    tag_45:\n        /* \"@chainlink/contracts/src/v0.8/Chainlink.sol\":2061:2087  self.buf.encodeString(key) */\n      tag_90\n        /* \"@chainlink/contracts/src/v0.8/Chainlink.sol\":2083:2086  key */\n      dup3\n        /* \"@chainlink/contracts/src/v0.8/Chainlink.sol\":2061:2065  self */\n      dup5\n        /* \"@chainlink/contracts/src/v0.8/Chainlink.sol\":2061:2069  self.buf */\n      0x80\n      add\n      mload\n        /* \"@chainlink/contracts/src/v0.8/Chainlink.sol\":2061:2082  self.buf.encodeString */\n      tag_91\n      swap1\n        /* \"@chainlink/contracts/src/v0.8/Chainlink.sol\":2061:2087  self.buf.encodeString(key) */\n      swap2\n      swap1\n      0xffffffff\n      and\n      jump\t// in\n    tag_90:\n        /* \"@chainlink/contracts/src/v0.8/Chainlink.sol\":2093:2121  self.buf.encodeString(value) */\n      tag_92\n        /* \"@chainlink/contracts/src/v0.8/Chainlink.sol\":2115:2120  value */\n      dup2\n        /* \"@chainlink/contracts/src/v0.8/Chainlink.sol\":2093:2097  self */\n      dup5\n        /* \"@chainlink/contracts/src/v0.8/Chainlink.sol\":2093:2101  self.buf */\n      0x80\n      add\n      mload\n        /* \"@chainlink/contracts/src/v0.8/Chainlink.sol\":2093:2114  self.buf.encodeString */\n      tag_91\n      swap1\n        /* \"@chainlink/contracts/src/v0.8/Chainlink.sol\":2093:2121  self.buf.encodeString(value) */\n      swap2\n      swap1\n      0xffffffff\n      and\n      jump\t// in\n    tag_92:\n        /* \"@chainlink/contracts/src/v0.8/Chainlink.sol\":1951:2126  function add(... */\n      pop\n      pop\n      pop\n      jump\t// out\n        /* \"@chainlink/contracts/src/v0.8/Chainlink.sol\":2712:2880  function addInt(... */\n    tag_48:\n        /* \"@chainlink/contracts/src/v0.8/Chainlink.sol\":2818:2844  self.buf.encodeString(key) */\n      tag_94\n        /* \"@chainlink/contracts/src/v0.8/Chainlink.sol\":2840:2843  key */\n      dup3\n        /* \"@chainlink/contracts/src/v0.8/Chainlink.sol\":2818:2822  self */\n      dup5\n        /* \"@chainlink/contracts/src/v0.8/Chainlink.sol\":2818:2826  self.buf */\n      0x80\n      add\n      mload\n        /* \"@chainlink/contracts/src/v0.8/Chainlink.sol\":2818:2839  self.buf.encodeString */\n      tag_91\n      swap1\n        /* \"@chainlink/contracts/src/v0.8/Chainlink.sol\":2818:2844  self.buf.encodeString(key) */\n      swap2\n      swap1\n      0xffffffff\n      and\n      jump\t// in\n    tag_94:\n        /* \"@chainlink/contracts/src/v0.8/Chainlink.sol\":2850:2875  self.buf.encodeInt(value) */\n      tag_95\n        /* \"@chainlink/contracts/src/v0.8/Chainlink.sol\":2869:2874  value */\n      dup2\n        /* \"@chainlink/contracts/src/v0.8/Chainlink.sol\":2850:2854  self */\n      dup5\n        /* \"@chainlink/contracts/src/v0.8/Chainlink.sol\":2850:2858  self.buf */\n      0x80\n      add\n      mload\n        /* \"@chainlink/contracts/src/v0.8/Chainlink.sol\":2850:2868  self.buf.encodeInt */\n      tag_96\n      swap1\n        /* \"@chainlink/contracts/src/v0.8/Chainlink.sol\":2850:2875  self.buf.encodeInt(value) */\n      swap2\n      swap1\n      0xffffffff\n      and\n      jump\t// in\n    tag_95:\n        /* \"@chainlink/contracts/src/v0.8/Chainlink.sol\":2712:2880  function addInt(... */\n      pop\n      pop\n      pop\n      jump\t// out\n        /* \"@chainlink/contracts/src/v0.8/ChainlinkClient.sol\":2992:3169  function sendChainlinkRequest(Chainlink.Request memory req, uint256 payment) internal returns (bytes32) {... */\n    tag_50:\n        /* \"@chainlink/contracts/src/v0.8/ChainlinkClient.sol\":3087:3094  bytes32 */\n      0x00\n        /* \"@chainlink/contracts/src/v0.8/ChainlinkClient.sol\":3109:3164  sendChainlinkRequestTo(address(s_oracle), req, payment) */\n      tag_98\n        /* \"@chainlink/contracts/src/v0.8/ChainlinkClient.sol\":3140:3148  s_oracle */\n      0x03\n      0x00\n      swap1\n      sload\n      swap1\n      0x0100\n      exp\n      swap1\n      div\n      0xffffffffffffffffffffffffffffffffffffffff\n      and\n        /* \"@chainlink/contracts/src/v0.8/ChainlinkClient.sol\":3151:3154  req */\n      dup5\n        /* \"@chainlink/contracts/src/v0.8/ChainlinkClient.sol\":3156:3163  payment */\n      dup5\n        /* \"@chainlink/contracts/src/v0.8/ChainlinkClient.sol\":3109:3131  sendChainlinkRequestTo */\n      tag_99\n        /* \"@chainlink/contracts/src/v0.8/ChainlinkClient.sol\":3109:3164  sendChainlinkRequestTo(address(s_oracle), req, payment) */\n      jump\t// in\n    tag_98:\n        /* \"@chainlink/contracts/src/v0.8/ChainlinkClient.sol\":3102:3164  return sendChainlinkRequestTo(address(s_oracle), req, payment) */\n      swap1\n      pop\n        /* \"@chainlink/contracts/src/v0.8/ChainlinkClient.sol\":2992:3169  function sendChainlinkRequest(Chainlink.Request memory req, uint256 payment) internal returns (bytes32) {... */\n      swap3\n      swap2\n      pop\n      pop\n      jump\t// out\n        /* \"@chainlink/contracts/src/v0.8/ConfirmedOwnerWithProposal.sol\":1730:1841  function _validateOwnership() internal view {... */\n    tag_58:\n        /* \"@chainlink/contracts/src/v0.8/ConfirmedOwnerWithProposal.sol\":1802:1809  s_owner */\n      0x06\n      0x00\n      swap1\n      sload\n      swap1\n      0x0100\n      exp\n      swap1\n      div\n      0xffffffffffffffffffffffffffffffffffffffff\n      and\n        /* \"@chainlink/contracts/src/v0.8/ConfirmedOwnerWithProposal.sol\":1788:1809  msg.sender == s_owner */\n      0xffffffffffffffffffffffffffffffffffffffff\n      and\n        /* \"@chainlink/contracts/src/v0.8/ConfirmedOwnerWithProposal.sol\":1788:1798  msg.sender */\n      caller\n        /* \"@chainlink/contracts/src/v0.8/ConfirmedOwnerWithProposal.sol\":1788:1809  msg.sender == s_owner */\n      0xffffffffffffffffffffffffffffffffffffffff\n      and\n      eq\n        /* \"@chainlink/contracts/src/v0.8/ConfirmedOwnerWithProposal.sol\":1780:1836  require(msg.sender == s_owner, \"Only callable by owner\") */\n      tag_101\n      jumpi\n      mload(0x40)\n      0x08c379a000000000000000000000000000000000000000000000000000000000\n      dup2\n      mstore\n      0x04\n      add\n      tag_102\n      swap1\n      tag_103\n      jump\t// in\n    tag_102:\n      mload(0x40)\n      dup1\n      swap2\n      sub\n      swap1\n      revert\n    tag_101:\n        /* \"@chainlink/contracts/src/v0.8/ConfirmedOwnerWithProposal.sol\":1730:1841  function _validateOwnership() internal view {... */\n      jump\t// out\n        /* \"@chainlink/contracts/src/v0.8/ChainlinkClient.sol\":9098:9196  function chainlinkTokenAddress() internal view returns (address) {... */\n    tag_61:\n        /* \"@chainlink/contracts/src/v0.8/ChainlinkClient.sol\":9154:9161  address */\n      0x00\n        /* \"@chainlink/contracts/src/v0.8/ChainlinkClient.sol\":9184:9190  s_link */\n      0x02\n      0x00\n      swap1\n      sload\n      swap1\n      0x0100\n      exp\n      swap1\n      div\n      0xffffffffffffffffffffffffffffffffffffffff\n      and\n        /* \"@chainlink/contracts/src/v0.8/ChainlinkClient.sol\":9169:9191  return address(s_link) */\n      swap1\n      pop\n        /* \"@chainlink/contracts/src/v0.8/ChainlinkClient.sol\":9098:9196  function chainlinkTokenAddress() internal view returns (address) {... */\n      swap1\n      jump\t// out\n        /* \"@chainlink/contracts/src/v0.8/ConfirmedOwnerWithProposal.sol\":1497:1685  function _transferOwnership(address to) private {... */\n    tag_82:\n        /* \"@chainlink/contracts/src/v0.8/ConfirmedOwnerWithProposal.sol\":1565:1575  msg.sender */\n      caller\n        /* \"@chainlink/contracts/src/v0.8/ConfirmedOwnerWithProposal.sol\":1559:1575  to != msg.sender */\n      0xffffffffffffffffffffffffffffffffffffffff\n      and\n        /* \"@chainlink/contracts/src/v0.8/ConfirmedOwnerWithProposal.sol\":1559:1561  to */\n      dup2\n        /* \"@chainlink/contracts/src/v0.8/ConfirmedOwnerWithProposal.sol\":1559:1575  to != msg.sender */\n      0xffffffffffffffffffffffffffffffffffffffff\n      and\n      eq\n      iszero\n        /* \"@chainlink/contracts/src/v0.8/ConfirmedOwnerWithProposal.sol\":1551:1603  require(to != msg.sender, \"Cannot transfer to self\") */\n      tag_106\n      jumpi\n      mload(0x40)\n      0x08c379a000000000000000000000000000000000000000000000000000000000\n      dup2\n      mstore\n      0x04\n      add\n      tag_107\n      swap1\n      tag_108\n      jump\t// in\n    tag_107:\n      mload(0x40)\n      dup1\n      swap2\n      sub\n      swap1\n      revert\n    tag_106:\n        /* \"@chainlink/contracts/src/v0.8/ConfirmedOwnerWithProposal.sol\":1627:1629  to */\n      dup1\n        /* \"@chainlink/contracts/src/v0.8/ConfirmedOwnerWithProposal.sol\":1610:1624  s_pendingOwner */\n      0x07\n      0x00\n        /* \"@chainlink/contracts/src/v0.8/ConfirmedOwnerWithProposal.sol\":1610:1629  s_pendingOwner = to */\n      0x0100\n      exp\n      dup2\n      sload\n      dup2\n      0xffffffffffffffffffffffffffffffffffffffff\n      mul\n      not\n      and\n      swap1\n      dup4\n      0xffffffffffffffffffffffffffffffffffffffff\n      and\n      mul\n      or\n      swap1\n      sstore\n      pop\n        /* \"@chainlink/contracts/src/v0.8/ConfirmedOwnerWithProposal.sol\":1677:1679  to */\n      dup1\n        /* \"@chainlink/contracts/src/v0.8/ConfirmedOwnerWithProposal.sol\":1641:1680  OwnershipTransferRequested(s_owner, to) */\n      0xffffffffffffffffffffffffffffffffffffffff\n      and\n        /* \"@chainlink/contracts/src/v0.8/ConfirmedOwnerWithProposal.sol\":1668:1675  s_owner */\n      0x06\n      0x00\n      swap1\n      sload\n      swap1\n      0x0100\n      exp\n      swap1\n      div\n      0xffffffffffffffffffffffffffffffffffffffff\n      and\n        /* \"@chainlink/contracts/src/v0.8/ConfirmedOwnerWithProposal.sol\":1641:1680  OwnershipTransferRequested(s_owner, to) */\n      0xffffffffffffffffffffffffffffffffffffffff\n      and\n      0xed8889f560326eb138920d842192f0eb3dd22b4f139c87a2c57538e05bae1278\n      mload(0x40)\n      mload(0x40)\n      dup1\n      swap2\n      sub\n      swap1\n      log3\n        /* \"@chainlink/contracts/src/v0.8/ConfirmedOwnerWithProposal.sol\":1497:1685  function _transferOwnership(address to) private {... */\n      pop\n      jump\t// out\n        /* \"@chainlink/contracts/src/v0.8/Chainlink.sol\":987:1338  function initialize(... */\n    tag_88:\n        /* \"@chainlink/contracts/src/v0.8/Chainlink.sol\":1129:1153  Chainlink.Request memory */\n      tag_109\n      tag_84\n      jump\t// in\n    tag_109:\n        /* \"@chainlink/contracts/src/v0.8/Chainlink.sol\":1161:1210  BufferChainlink.init(self.buf, defaultBufferSize) */\n      tag_111\n        /* \"@chainlink/contracts/src/v0.8/Chainlink.sol\":1182:1186  self */\n      dup6\n        /* \"@chainlink/contracts/src/v0.8/Chainlink.sol\":1182:1190  self.buf */\n      0x80\n      add\n      mload\n        /* \"@chainlink/contracts/src/v0.8/Chainlink.sol\":361:364  256 */\n      0x0100\n        /* \"@chainlink/contracts/src/v0.8/Chainlink.sol\":1161:1181  BufferChainlink.init */\n      tag_112\n        /* \"@chainlink/contracts/src/v0.8/Chainlink.sol\":1161:1210  BufferChainlink.init(self.buf, defaultBufferSize) */\n      jump\t// in\n    tag_111:\n      pop\n        /* \"@chainlink/contracts/src/v0.8/Chainlink.sol\":1226:1231  jobId */\n      dup4\n        /* \"@chainlink/contracts/src/v0.8/Chainlink.sol\":1216:1220  self */\n      dup6\n        /* \"@chainlink/contracts/src/v0.8/Chainlink.sol\":1216:1223  self.id */\n      0x00\n      add\n        /* \"@chainlink/contracts/src/v0.8/Chainlink.sol\":1216:1231  self.id = jobId */\n      dup2\n      dup2\n      mstore\n      pop\n      pop\n        /* \"@chainlink/contracts/src/v0.8/Chainlink.sol\":1260:1272  callbackAddr */\n      dup3\n        /* \"@chainlink/contracts/src/v0.8/Chainlink.sol\":1237:1241  self */\n      dup6\n        /* \"@chainlink/contracts/src/v0.8/Chainlink.sol\":1237:1257  self.callbackAddress */\n      0x20\n      add\n        /* \"@chainlink/contracts/src/v0.8/Chainlink.sol\":1237:1272  self.callbackAddress = callbackAddr */\n      swap1\n      0xffffffffffffffffffffffffffffffffffffffff\n      and\n      swap1\n      dup2\n      0xffffffffffffffffffffffffffffffffffffffff\n      and\n      dup2\n      mstore\n      pop\n      pop\n        /* \"@chainlink/contracts/src/v0.8/Chainlink.sol\":1304:1316  callbackFunc */\n      dup2\n        /* \"@chainlink/contracts/src/v0.8/Chainlink.sol\":1278:1282  self */\n      dup6\n        /* \"@chainlink/contracts/src/v0.8/Chainlink.sol\":1278:1301  self.callbackFunctionId */\n      0x40\n      add\n        /* \"@chainlink/contracts/src/v0.8/Chainlink.sol\":1278:1316  self.callbackFunctionId = callbackFunc */\n      swap1\n      not(0xffffffffffffffffffffffffffffffffffffffffffffffffffffffff)\n      and\n      swap1\n      dup2\n      not(0xffffffffffffffffffffffffffffffffffffffffffffffffffffffff)\n      and\n      dup2\n      mstore\n      pop\n      pop\n        /* \"@chainlink/contracts/src/v0.8/Chainlink.sol\":1329:1333  self */\n      dup5\n        /* \"@chainlink/contracts/src/v0.8/Chainlink.sol\":1322:1333  return self */\n      swap1\n      pop\n        /* \"@chainlink/contracts/src/v0.8/Chainlink.sol\":987:1338  function initialize(... */\n      swap5\n      swap4\n      pop\n      pop\n      pop\n      pop\n      jump\t// out\n        /* \"@chainlink/contracts/src/v0.8/vendor/CBORChainlink.sol\":2777:2981  function encodeString(BufferChainlink.buffer memory buf, string memory value) internal pure {... */\n    tag_91:\n        /* \"@chainlink/contracts/src/v0.8/vendor/CBORChainlink.sol\":2875:2946  encodeFixedNumeric(buf, MAJOR_TYPE_STRING, uint64(bytes(value).length)) */\n      tag_114\n        /* \"@chainlink/contracts/src/v0.8/vendor/CBORChainlink.sol\":2894:2897  buf */\n      dup3\n        /* \"@chainlink/contracts/src/v0.8/vendor/CBORChainlink.sol\":383:384  3 */\n      0x03\n        /* \"@chainlink/contracts/src/v0.8/vendor/CBORChainlink.sol\":2931:2936  value */\n      dup4\n        /* \"@chainlink/contracts/src/v0.8/vendor/CBORChainlink.sol\":2925:2944  bytes(value).length */\n      mload\n        /* \"@chainlink/contracts/src/v0.8/vendor/CBORChainlink.sol\":2875:2893  encodeFixedNumeric */\n      tag_115\n        /* \"@chainlink/contracts/src/v0.8/vendor/CBORChainlink.sol\":2875:2946  encodeFixedNumeric(buf, MAJOR_TYPE_STRING, uint64(bytes(value).length)) */\n      jump\t// in\n    tag_114:\n        /* \"@chainlink/contracts/src/v0.8/vendor/CBORChainlink.sol\":2952:2976  buf.append(bytes(value)) */\n      tag_116\n        /* \"@chainlink/contracts/src/v0.8/vendor/CBORChainlink.sol\":2969:2974  value */\n      dup2\n        /* \"@chainlink/contracts/src/v0.8/vendor/CBORChainlink.sol\":2952:2955  buf */\n      dup4\n        /* \"@chainlink/contracts/src/v0.8/vendor/CBORChainlink.sol\":2952:2962  buf.append */\n      tag_117\n      swap1\n        /* \"@chainlink/contracts/src/v0.8/vendor/CBORChainlink.sol\":2952:2976  buf.append(bytes(value)) */\n      swap2\n      swap1\n      0xffffffff\n      and\n      jump\t// in\n    tag_116:\n      pop\n        /* \"@chainlink/contracts/src/v0.8/vendor/CBORChainlink.sol\":2777:2981  function encodeString(BufferChainlink.buffer memory buf, string memory value) internal pure {... */\n      pop\n      pop\n      jump\t// out\n        /* \"@chainlink/contracts/src/v0.8/vendor/CBORChainlink.sol\":1704:2150  function encodeInt(BufferChainlink.buffer memory buf, int value) internal pure {... */\n    tag_96:\n        /* \"@chainlink/contracts/src/v0.8/vendor/CBORChainlink.sol\":1800:1820  -0x10000000000000000 */\n      0xffffffffffffffffffffffffffffffffffffffffffffffff0000000000000000\n        /* \"@chainlink/contracts/src/v0.8/vendor/CBORChainlink.sol\":1792:1797  value */\n      dup2\n        /* \"@chainlink/contracts/src/v0.8/vendor/CBORChainlink.sol\":1792:1820  value < -0x10000000000000000 */\n      slt\n        /* \"@chainlink/contracts/src/v0.8/vendor/CBORChainlink.sol\":1789:2146  if(value < -0x10000000000000000) {... */\n      iszero\n      tag_119\n      jumpi\n        /* \"@chainlink/contracts/src/v0.8/vendor/CBORChainlink.sol\":1830:1860  encodeSignedBigNum(buf, value) */\n      tag_120\n        /* \"@chainlink/contracts/src/v0.8/vendor/CBORChainlink.sol\":1849:1852  buf */\n      dup3\n        /* \"@chainlink/contracts/src/v0.8/vendor/CBORChainlink.sol\":1854:1859  value */\n      dup3\n        /* \"@chainlink/contracts/src/v0.8/vendor/CBORChainlink.sol\":1830:1848  encodeSignedBigNum */\n      tag_121\n        /* \"@chainlink/contracts/src/v0.8/vendor/CBORChainlink.sol\":1830:1860  encodeSignedBigNum(buf, value) */\n      jump\t// in\n    tag_120:\n        /* \"@chainlink/contracts/src/v0.8/vendor/CBORChainlink.sol\":1789:2146  if(value < -0x10000000000000000) {... */\n      jump(tag_122)\n    tag_119:\n        /* \"@chainlink/contracts/src/v0.8/vendor/CBORChainlink.sol\":1884:1902  0xFFFFFFFFFFFFFFFF */\n      0xffffffffffffffff\n        /* \"@chainlink/contracts/src/v0.8/vendor/CBORChainlink.sol\":1876:1881  value */\n      dup2\n        /* \"@chainlink/contracts/src/v0.8/vendor/CBORChainlink.sol\":1876:1902  value > 0xFFFFFFFFFFFFFFFF */\n      sgt\n        /* \"@chainlink/contracts/src/v0.8/vendor/CBORChainlink.sol\":1873:2146  if(value > 0xFFFFFFFFFFFFFFFF) {... */\n      iszero\n      tag_123\n      jumpi\n        /* \"@chainlink/contracts/src/v0.8/vendor/CBORChainlink.sol\":1912:1942  encodeBigNum(buf, uint(value)) */\n      tag_124\n        /* \"@chainlink/contracts/src/v0.8/vendor/CBORChainlink.sol\":1925:1928  buf */\n      dup3\n        /* \"@chainlink/contracts/src/v0.8/vendor/CBORChainlink.sol\":1935:1940  value */\n      dup3\n        /* \"@chainlink/contracts/src/v0.8/vendor/CBORChainlink.sol\":1912:1924  encodeBigNum */\n      tag_125\n        /* \"@chainlink/contracts/src/v0.8/vendor/CBORChainlink.sol\":1912:1942  encodeBigNum(buf, uint(value)) */\n      jump\t// in\n    tag_124:\n        /* \"@chainlink/contracts/src/v0.8/vendor/CBORChainlink.sol\":1873:2146  if(value > 0xFFFFFFFFFFFFFFFF) {... */\n      jump(tag_126)\n    tag_123:\n        /* \"@chainlink/contracts/src/v0.8/vendor/CBORChainlink.sol\":1967:1968  0 */\n      0x00\n        /* \"@chainlink/contracts/src/v0.8/vendor/CBORChainlink.sol\":1958:1963  value */\n      dup2\n        /* \"@chainlink/contracts/src/v0.8/vendor/CBORChainlink.sol\":1958:1968  value >= 0 */\n      slt\n        /* \"@chainlink/contracts/src/v0.8/vendor/CBORChainlink.sol\":1955:2146  if(value >= 0) {... */\n      tag_127\n      jumpi\n        /* \"@chainlink/contracts/src/v0.8/vendor/CBORChainlink.sol\":1978:2041  encodeFixedNumeric(buf, MAJOR_TYPE_INT, uint64(uint256(value))) */\n      tag_128\n        /* \"@chainlink/contracts/src/v0.8/vendor/CBORChainlink.sol\":1997:2000  buf */\n      dup3\n        /* \"@chainlink/contracts/src/v0.8/vendor/CBORChainlink.sol\":234:235  0 */\n      0x00\n        /* \"@chainlink/contracts/src/v0.8/vendor/CBORChainlink.sol\":2033:2038  value */\n      dup4\n        /* \"@chainlink/contracts/src/v0.8/vendor/CBORChainlink.sol\":1978:1996  encodeFixedNumeric */\n      tag_115\n        /* \"@chainlink/contracts/src/v0.8/vendor/CBORChainlink.sol\":1978:2041  encodeFixedNumeric(buf, MAJOR_TYPE_INT, uint64(uint256(value))) */\n      jump\t// in\n    tag_128:\n        /* \"@chainlink/contracts/src/v0.8/vendor/CBORChainlink.sol\":1955:2146  if(value >= 0) {... */\n      jump(tag_129)\n    tag_127:\n        /* \"@chainlink/contracts/src/v0.8/vendor/CBORChainlink.sol\":2062:2139  encodeFixedNumeric(buf, MAJOR_TYPE_NEGATIVE_INT, uint64(uint256(-1 - value))) */\n      tag_130\n        /* \"@chainlink/contracts/src/v0.8/vendor/CBORChainlink.sol\":2081:2084  buf */\n      dup3\n        /* \"@chainlink/contracts/src/v0.8/vendor/CBORChainlink.sol\":288:289  1 */\n      0x01\n        /* \"@chainlink/contracts/src/v0.8/vendor/CBORChainlink.sol\":2131:2136  value */\n      dup4\n        /* \"@chainlink/contracts/src/v0.8/vendor/CBORChainlink.sol\":2126:2128  -1 */\n      0xffffffffffffffffffffffffffffffffffffffffffffffffffffffffffffffff\n        /* \"@chainlink/contracts/src/v0.8/vendor/CBORChainlink.sol\":2126:2136  -1 - value */\n      tag_131\n      swap2\n      swap1\n      tag_132\n      jump\t// in\n    tag_131:\n        /* \"@chainlink/contracts/src/v0.8/vendor/CBORChainlink.sol\":2062:2080  encodeFixedNumeric */\n      tag_115\n        /* \"@chainlink/contracts/src/v0.8/vendor/CBORChainlink.sol\":2062:2139  encodeFixedNumeric(buf, MAJOR_TYPE_NEGATIVE_INT, uint64(uint256(-1 - value))) */\n      jump\t// in\n    tag_130:\n        /* \"@chainlink/contracts/src/v0.8/vendor/CBORChainlink.sol\":1955:2146  if(value >= 0) {... */\n    tag_129:\n        /* \"@chainlink/contracts/src/v0.8/vendor/CBORChainlink.sol\":1873:2146  if(value > 0xFFFFFFFFFFFFFFFF) {... */\n    tag_126:\n        /* \"@chainlink/contracts/src/v0.8/vendor/CBORChainlink.sol\":1789:2146  if(value < -0x10000000000000000) {... */\n    tag_122:\n        /* \"@chainlink/contracts/src/v0.8/vendor/CBORChainlink.sol\":1704:2150  function encodeInt(BufferChainlink.buffer memory buf, int value) internal pure {... */\n      pop\n      pop\n      jump\t// out\n        /* \"@chainlink/contracts/src/v0.8/ChainlinkClient.sol\":3687:4443  function sendChainlinkRequestTo(... */\n    tag_99:\n        /* \"@chainlink/contracts/src/v0.8/ChainlinkClient.sol\":3823:3840  bytes32 requestId */\n      0x00\n        /* \"@chainlink/contracts/src/v0.8/ChainlinkClient.sol\":3848:3861  uint256 nonce */\n      dup1\n        /* \"@chainlink/contracts/src/v0.8/ChainlinkClient.sol\":3864:3878  s_requestCount */\n      sload(0x04)\n        /* \"@chainlink/contracts/src/v0.8/ChainlinkClient.sol\":3848:3878  uint256 nonce = s_requestCount */\n      swap1\n      pop\n        /* \"@chainlink/contracts/src/v0.8/ChainlinkClient.sol\":3909:3910  1 */\n      0x01\n        /* \"@chainlink/contracts/src/v0.8/ChainlinkClient.sol\":3901:3906  nonce */\n      dup2\n        /* \"@chainlink/contracts/src/v0.8/ChainlinkClient.sol\":3901:3910  nonce + 1 */\n      tag_134\n      swap2\n      swap1\n      tag_135\n      jump\t// in\n    tag_134:\n        /* \"@chainlink/contracts/src/v0.8/ChainlinkClient.sol\":3884:3898  s_requestCount */\n      0x04\n        /* \"@chainlink/contracts/src/v0.8/ChainlinkClient.sol\":3884:3910  s_requestCount = nonce + 1 */\n      dup2\n      swap1\n      sstore\n      pop\n        /* \"@chainlink/contracts/src/v0.8/ChainlinkClient.sol\":3916:3943  bytes memory encodedRequest */\n      0x00\n        /* \"@chainlink/contracts/src/v0.8/ChainlinkClient.sol\":3976:4024  ChainlinkRequestInterface.oracleRequest.selector */\n      shl(0xe0, 0x40429946)\n        /* \"@chainlink/contracts/src/v0.8/ChainlinkClient.sol\":784:785  0 */\n      0x00\n        /* \"@chainlink/contracts/src/v0.8/ChainlinkClient.sol\":728:729  0 */\n      dup1\n        /* \"@chainlink/contracts/src/v0.8/ChainlinkClient.sol\":4245:4248  req */\n      dup8\n        /* \"@chainlink/contracts/src/v0.8/ChainlinkClient.sol\":4245:4251  req.id */\n      0x00\n      add\n      mload\n        /* \"@chainlink/contracts/src/v0.8/ChainlinkClient.sol\":4267:4271  this */\n      address\n        /* \"@chainlink/contracts/src/v0.8/ChainlinkClient.sol\":4280:4283  req */\n      dup10\n        /* \"@chainlink/contracts/src/v0.8/ChainlinkClient.sol\":4280:4302  req.callbackFunctionId */\n      0x40\n      add\n      mload\n        /* \"@chainlink/contracts/src/v0.8/ChainlinkClient.sol\":4310:4315  nonce */\n      dup8\n        /* \"@chainlink/contracts/src/v0.8/ChainlinkClient.sol\":837:838  1 */\n      0x01\n        /* \"@chainlink/contracts/src/v0.8/ChainlinkClient.sol\":4350:4353  req */\n      dup13\n        /* \"@chainlink/contracts/src/v0.8/ChainlinkClient.sol\":4350:4357  req.buf */\n      0x80\n      add\n      mload\n        /* \"@chainlink/contracts/src/v0.8/ChainlinkClient.sol\":4350:4361  req.buf.buf */\n      0x00\n      add\n      mload\n        /* \"@chainlink/contracts/src/v0.8/ChainlinkClient.sol\":3946:4367  abi.encodeWithSelector(... */\n      add(0x24, mload(0x40))\n      tag_136\n      swap9\n      swap8\n      swap7\n      swap6\n      swap5\n      swap4\n      swap3\n      swap2\n      swap1\n      tag_137\n      jump\t// in\n    tag_136:\n      mload(0x40)\n      0x20\n      dup2\n      dup4\n      sub\n      sub\n      dup2\n      mstore\n      swap1\n      0x40\n      mstore\n      swap1\n      not(0xffffffffffffffffffffffffffffffffffffffffffffffffffffffff)\n      and\n      0x20\n      dup3\n      add\n      dup1\n      mload\n      0xffffffffffffffffffffffffffffffffffffffffffffffffffffffff\n      dup4\n      dup2\n      dup4\n      and\n      or\n      dup4\n      mstore\n      pop\n      pop\n      pop\n      pop\n        /* \"@chainlink/contracts/src/v0.8/ChainlinkClient.sol\":3916:4367  bytes memory encodedRequest = abi.encodeWithSelector(... */\n      swap1\n      pop\n        /* \"@chainlink/contracts/src/v0.8/ChainlinkClient.sol\":4380:4438  _rawRequest(oracleAddress, nonce, payment, encodedRequest) */\n      tag_138\n        /* \"@chainlink/contracts/src/v0.8/ChainlinkClient.sol\":4392:4405  oracleAddress */\n      dup7\n        /* \"@chainlink/contracts/src/v0.8/ChainlinkClient.sol\":4407:4412  nonce */\n      dup4\n        /* \"@chainlink/contracts/src/v0.8/ChainlinkClient.sol\":4414:4421  payment */\n      dup7\n        /* \"@chainlink/contracts/src/v0.8/ChainlinkClient.sol\":4423:4437  encodedRequest */\n      dup5\n        /* \"@chainlink/contracts/src/v0.8/ChainlinkClient.sol\":4380:4391  _rawRequest */\n      tag_139\n        /* \"@chainlink/contracts/src/v0.8/ChainlinkClient.sol\":4380:4438  _rawRequest(oracleAddress, nonce, payment, encodedRequest) */\n      jump\t// in\n    tag_138:\n        /* \"@chainlink/contracts/src/v0.8/ChainlinkClient.sol\":4373:4438  return _rawRequest(oracleAddress, nonce, payment, encodedRequest) */\n      swap3\n      pop\n      pop\n      pop\n        /* \"@chainlink/contracts/src/v0.8/ChainlinkClient.sol\":3687:4443  function sendChainlinkRequestTo(... */\n      swap4\n      swap3\n      pop\n      pop\n      pop\n      jump\t// out\n        /* \"@chainlink/contracts/src/v0.8/vendor/BufferChainlink.sol\":1001:1400  function init(buffer memory buf, uint256 capacity) internal pure returns (buffer memory) {... */\n    tag_112:\n        /* \"@chainlink/contracts/src/v0.8/vendor/BufferChainlink.sol\":1075:1088  buffer memory */\n      tag_140\n      tag_141\n      jump\t// in\n    tag_140:\n        /* \"@chainlink/contracts/src/v0.8/vendor/BufferChainlink.sol\":1117:1118  0 */\n      0x00\n        /* \"@chainlink/contracts/src/v0.8/vendor/BufferChainlink.sol\":1111:1113  32 */\n      0x20\n        /* \"@chainlink/contracts/src/v0.8/vendor/BufferChainlink.sol\":1100:1108  capacity */\n      dup4\n        /* \"@chainlink/contracts/src/v0.8/vendor/BufferChainlink.sol\":1100:1113  capacity % 32 */\n      tag_143\n      swap2\n      swap1\n      tag_144\n      jump\t// in\n    tag_143:\n        /* \"@chainlink/contracts/src/v0.8/vendor/BufferChainlink.sol\":1100:1118  capacity % 32 != 0 */\n      eq\n        /* \"@chainlink/contracts/src/v0.8/vendor/BufferChainlink.sol\":1096:1167  if (capacity % 32 != 0) {... */\n      tag_145\n      jumpi\n        /* \"@chainlink/contracts/src/v0.8/vendor/BufferChainlink.sol\":1157:1159  32 */\n      0x20\n        /* \"@chainlink/contracts/src/v0.8/vendor/BufferChainlink.sol\":1146:1154  capacity */\n      dup3\n        /* \"@chainlink/contracts/src/v0.8/vendor/BufferChainlink.sol\":1146:1159  capacity % 32 */\n      tag_146\n      swap2\n      swap1\n      tag_144\n      jump\t// in\n    tag_146:\n        /* \"@chainlink/contracts/src/v0.8/vendor/BufferChainlink.sol\":1140:1142  32 */\n      0x20\n        /* \"@chainlink/contracts/src/v0.8/vendor/BufferChainlink.sol\":1140:1160  32 - (capacity % 32) */\n      tag_147\n      swap2\n      swap1\n      tag_148\n      jump\t// in\n    tag_147:\n        /* \"@chainlink/contracts/src/v0.8/vendor/BufferChainlink.sol\":1128:1160  capacity += 32 - (capacity % 32) */\n      dup3\n      tag_149\n      swap2\n      swap1\n      tag_135\n      jump\t// in\n    tag_149:\n      swap2\n      pop\n        /* \"@chainlink/contracts/src/v0.8/vendor/BufferChainlink.sol\":1096:1167  if (capacity % 32 != 0) {... */\n    tag_145:\n        /* \"@chainlink/contracts/src/v0.8/vendor/BufferChainlink.sol\":1229:1237  capacity */\n      dup2\n        /* \"@chainlink/contracts/src/v0.8/vendor/BufferChainlink.sol\":1214:1217  buf */\n      dup4\n        /* \"@chainlink/contracts/src/v0.8/vendor/BufferChainlink.sol\":1214:1226  buf.capacity */\n      0x20\n      add\n        /* \"@chainlink/contracts/src/v0.8/vendor/BufferChainlink.sol\":1214:1237  buf.capacity = capacity */\n      dup2\n      dup2\n      mstore\n      pop\n      pop\n        /* \"@chainlink/contracts/src/v0.8/vendor/BufferChainlink.sol\":1277:1281  0x40 */\n      0x40\n        /* \"@chainlink/contracts/src/v0.8/vendor/BufferChainlink.sol\":1271:1282  mload(0x40) */\n      mload\n        /* \"@chainlink/contracts/src/v0.8/vendor/BufferChainlink.sol\":1301:1304  ptr */\n      dup1\n        /* \"@chainlink/contracts/src/v0.8/vendor/BufferChainlink.sol\":1296:1299  buf */\n      dup5\n        /* \"@chainlink/contracts/src/v0.8/vendor/BufferChainlink.sol\":1289:1305  mstore(buf, ptr) */\n      mstore\n        /* \"@chainlink/contracts/src/v0.8/vendor/BufferChainlink.sol\":1324:1325  0 */\n      0x00\n        /* \"@chainlink/contracts/src/v0.8/vendor/BufferChainlink.sol\":1319:1322  ptr */\n      dup2\n        /* \"@chainlink/contracts/src/v0.8/vendor/BufferChainlink.sol\":1312:1326  mstore(ptr, 0) */\n      mstore\n        /* \"@chainlink/contracts/src/v0.8/vendor/BufferChainlink.sol\":1363:1371  capacity */\n      dup3\n        /* \"@chainlink/contracts/src/v0.8/vendor/BufferChainlink.sol\":1358:1361  ptr */\n      dup2\n        /* \"@chainlink/contracts/src/v0.8/vendor/BufferChainlink.sol\":1354:1372  add(ptr, capacity) */\n      add\n        /* \"@chainlink/contracts/src/v0.8/vendor/BufferChainlink.sol\":1350:1352  32 */\n      0x20\n        /* \"@chainlink/contracts/src/v0.8/vendor/BufferChainlink.sol\":1346:1373  add(32, add(ptr, capacity)) */\n      add\n        /* \"@chainlink/contracts/src/v0.8/vendor/BufferChainlink.sol\":1340:1344  0x40 */\n      0x40\n        /* \"@chainlink/contracts/src/v0.8/vendor/BufferChainlink.sol\":1333:1374  mstore(0x40, add(32, add(ptr, capacity))) */\n      mstore\n        /* \"@chainlink/contracts/src/v0.8/vendor/BufferChainlink.sol\":1252:1380  {... */\n      pop\n        /* \"@chainlink/contracts/src/v0.8/vendor/BufferChainlink.sol\":1392:1395  buf */\n      dup3\n        /* \"@chainlink/contracts/src/v0.8/vendor/BufferChainlink.sol\":1385:1395  return buf */\n      swap1\n      pop\n        /* \"@chainlink/contracts/src/v0.8/vendor/BufferChainlink.sol\":1001:1400  function init(buffer memory buf, uint256 capacity) internal pure returns (buffer memory) {... */\n      swap3\n      swap2\n      pop\n      pop\n      jump\t// out\n        /* \"@chainlink/contracts/src/v0.8/vendor/CBORChainlink.sol\":682:1307  function encodeFixedNumeric(BufferChainlink.buffer memory buf, uint8 major, uint64 value) private pure {... */\n    tag_115:\n        /* \"@chainlink/contracts/src/v0.8/vendor/CBORChainlink.sol\":803:805  23 */\n      0x17\n        /* \"@chainlink/contracts/src/v0.8/vendor/CBORChainlink.sol\":794:799  value */\n      dup2\n        /* \"@chainlink/contracts/src/v0.8/vendor/CBORChainlink.sol\":794:805  value <= 23 */\n      0xffffffffffffffff\n      and\n      gt\n        /* \"@chainlink/contracts/src/v0.8/vendor/CBORChainlink.sol\":791:1303  if(value <= 23) {... */\n      tag_151\n      jumpi\n        /* \"@chainlink/contracts/src/v0.8/vendor/CBORChainlink.sol\":815:859  buf.appendUint8(uint8((major << 5) | value)) */\n      tag_152\n        /* \"@chainlink/contracts/src/v0.8/vendor/CBORChainlink.sol\":852:857  value */\n      dup2\n        /* \"@chainlink/contracts/src/v0.8/vendor/CBORChainlink.sol\":847:848  5 */\n      0x05\n        /* \"@chainlink/contracts/src/v0.8/vendor/CBORChainlink.sol\":838:843  major */\n      dup5\n        /* \"@chainlink/contracts/src/v0.8/vendor/CBORChainlink.sol\":838:848  major << 5 */\n      0xff\n      and\n      swap1\n      shl\n        /* \"@chainlink/contracts/src/v0.8/vendor/CBORChainlink.sol\":837:857  (major << 5) | value */\n      0xff\n      and\n      or\n        /* \"@chainlink/contracts/src/v0.8/vendor/CBORChainlink.sol\":815:818  buf */\n      dup5\n        /* \"@chainlink/contracts/src/v0.8/vendor/CBORChainlink.sol\":815:830  buf.appendUint8 */\n      tag_153\n      swap1\n        /* \"@chainlink/contracts/src/v0.8/vendor/CBORChainlink.sol\":815:859  buf.appendUint8(uint8((major << 5) | value)) */\n      swap2\n      swap1\n      0xffffffff\n      and\n      jump\t// in\n    tag_152:\n      pop\n        /* \"@chainlink/contracts/src/v0.8/vendor/CBORChainlink.sol\":791:1303  if(value <= 23) {... */\n      jump(tag_154)\n    tag_151:\n        /* \"@chainlink/contracts/src/v0.8/vendor/CBORChainlink.sol\":885:889  0xFF */\n      0xff\n        /* \"@chainlink/contracts/src/v0.8/vendor/CBORChainlink.sol\":876:881  value */\n      dup2\n        /* \"@chainlink/contracts/src/v0.8/vendor/CBORChainlink.sol\":876:889  value <= 0xFF */\n      0xffffffffffffffff\n      and\n      gt\n        /* \"@chainlink/contracts/src/v0.8/vendor/CBORChainlink.sol\":872:1303  if (value <= 0xFF) {... */\n      tag_155\n      jumpi\n        /* \"@chainlink/contracts/src/v0.8/vendor/CBORChainlink.sol\":899:940  buf.appendUint8(uint8((major << 5) | 24)) */\n      tag_156\n        /* \"@chainlink/contracts/src/v0.8/vendor/CBORChainlink.sol\":936:938  24 */\n      0x18\n        /* \"@chainlink/contracts/src/v0.8/vendor/CBORChainlink.sol\":931:932  5 */\n      0x05\n        /* \"@chainlink/contracts/src/v0.8/vendor/CBORChainlink.sol\":922:927  major */\n      dup5\n        /* \"@chainlink/contracts/src/v0.8/vendor/CBORChainlink.sol\":922:932  major << 5 */\n      0xff\n      and\n      swap1\n      shl\n        /* \"@chainlink/contracts/src/v0.8/vendor/CBORChainlink.sol\":921:938  (major << 5) | 24 */\n      or\n        /* \"@chainlink/contracts/src/v0.8/vendor/CBORChainlink.sol\":899:902  buf */\n      dup5\n        /* \"@chainlink/contracts/src/v0.8/vendor/CBORChainlink.sol\":899:914  buf.appendUint8 */\n      tag_153\n      swap1\n        /* \"@chainlink/contracts/src/v0.8/vendor/CBORChainlink.sol\":899:940  buf.appendUint8(uint8((major << 5) | 24)) */\n      swap2\n      swap1\n      0xffffffff\n      and\n      jump\t// in\n    tag_156:\n      pop\n        /* \"@chainlink/contracts/src/v0.8/vendor/CBORChainlink.sol\":948:971  buf.appendInt(value, 1) */\n      tag_157\n        /* \"@chainlink/contracts/src/v0.8/vendor/CBORChainlink.sol\":962:967  value */\n      dup2\n        /* \"@chainlink/contracts/src/v0.8/vendor/CBORChainlink.sol\":948:971  buf.appendInt(value, 1) */\n      0xffffffffffffffff\n      and\n        /* \"@chainlink/contracts/src/v0.8/vendor/CBORChainlink.sol\":969:970  1 */\n      0x01\n        /* \"@chainlink/contracts/src/v0.8/vendor/CBORChainlink.sol\":948:951  buf */\n      dup6\n        /* \"@chainlink/contracts/src/v0.8/vendor/CBORChainlink.sol\":948:961  buf.appendInt */\n      tag_158\n      swap1\n        /* \"@chainlink/contracts/src/v0.8/vendor/CBORChainlink.sol\":948:971  buf.appendInt(value, 1) */\n      swap3\n      swap2\n      swap1\n      0xffffffff\n      and\n      jump\t// in\n    tag_157:\n      pop\n        /* \"@chainlink/contracts/src/v0.8/vendor/CBORChainlink.sol\":872:1303  if (value <= 0xFF) {... */\n      jump(tag_159)\n    tag_155:\n        /* \"@chainlink/contracts/src/v0.8/vendor/CBORChainlink.sol\":997:1003  0xFFFF */\n      0xffff\n        /* \"@chainlink/contracts/src/v0.8/vendor/CBORChainlink.sol\":988:993  value */\n      dup2\n        /* \"@chainlink/contracts/src/v0.8/vendor/CBORChainlink.sol\":988:1003  value <= 0xFFFF */\n      0xffffffffffffffff\n      and\n      gt\n        /* \"@chainlink/contracts/src/v0.8/vendor/CBORChainlink.sol\":984:1303  if (value <= 0xFFFF) {... */\n      tag_160\n      jumpi\n        /* \"@chainlink/contracts/src/v0.8/vendor/CBORChainlink.sol\":1013:1054  buf.appendUint8(uint8((major << 5) | 25)) */\n      tag_161\n        /* \"@chainlink/contracts/src/v0.8/vendor/CBORChainlink.sol\":1050:1052  25 */\n      0x19\n        /* \"@chainlink/contracts/src/v0.8/vendor/CBORChainlink.sol\":1045:1046  5 */\n      0x05\n        /* \"@chainlink/contracts/src/v0.8/vendor/CBORChainlink.sol\":1036:1041  major */\n      dup5\n        /* \"@chainlink/contracts/src/v0.8/vendor/CBORChainlink.sol\":1036:1046  major << 5 */\n      0xff\n      and\n      swap1\n      shl\n        /* \"@chainlink/contracts/src/v0.8/vendor/CBORChainlink.sol\":1035:1052  (major << 5) | 25 */\n      or\n        /* \"@chainlink/contracts/src/v0.8/vendor/CBORChainlink.sol\":1013:1016  buf */\n      dup5\n        /* \"@chainlink/contracts/src/v0.8/vendor/CBORChainlink.sol\":1013:1028  buf.appendUint8 */\n      tag_153\n      swap1\n        /* \"@chainlink/contracts/src/v0.8/vendor/CBORChainlink.sol\":1013:1054  buf.appendUint8(uint8((major << 5) | 25)) */\n      swap2\n      swap1\n      0xffffffff\n      and\n      jump\t// in\n    tag_161:\n      pop\n        /* \"@chainlink/contracts/src/v0.8/vendor/CBORChainlink.sol\":1062:1085  buf.appendInt(value, 2) */\n      tag_162\n        /* \"@chainlink/contracts/src/v0.8/vendor/CBORChainlink.sol\":1076:1081  value */\n      dup2\n        /* \"@chainlink/contracts/src/v0.8/vendor/CBORChainlink.sol\":1062:1085  buf.appendInt(value, 2) */\n      0xffffffffffffffff\n      and\n        /* \"@chainlink/contracts/src/v0.8/vendor/CBORChainlink.sol\":1083:1084  2 */\n      0x02\n        /* \"@chainlink/contracts/src/v0.8/vendor/CBORChainlink.sol\":1062:1065  buf */\n      dup6\n        /* \"@chainlink/contracts/src/v0.8/vendor/CBORChainlink.sol\":1062:1075  buf.appendInt */\n      tag_158\n      swap1\n        /* \"@chainlink/contracts/src/v0.8/vendor/CBORChainlink.sol\":1062:1085  buf.appendInt(value, 2) */\n      swap3\n      swap2\n      swap1\n      0xffffffff\n      and\n      jump\t// in\n    tag_162:\n      pop\n        /* \"@chainlink/contracts/src/v0.8/vendor/CBORChainlink.sol\":984:1303  if (value <= 0xFFFF) {... */\n      jump(tag_163)\n    tag_160:\n        /* \"@chainlink/contracts/src/v0.8/vendor/CBORChainlink.sol\":1111:1121  0xFFFFFFFF */\n      0xffffffff\n        /* \"@chainlink/contracts/src/v0.8/vendor/CBORChainlink.sol\":1102:1107  value */\n      dup2\n        /* \"@chainlink/contracts/src/v0.8/vendor/CBORChainlink.sol\":1102:1121  value <= 0xFFFFFFFF */\n      0xffffffffffffffff\n      and\n      gt\n        /* \"@chainlink/contracts/src/v0.8/vendor/CBORChainlink.sol\":1098:1303  if (value <= 0xFFFFFFFF) {... */\n      tag_164\n      jumpi\n        /* \"@chainlink/contracts/src/v0.8/vendor/CBORChainlink.sol\":1131:1172  buf.appendUint8(uint8((major << 5) | 26)) */\n      tag_165\n        /* \"@chainlink/contracts/src/v0.8/vendor/CBORChainlink.sol\":1168:1170  26 */\n      0x1a\n        /* \"@chainlink/contracts/src/v0.8/vendor/CBORChainlink.sol\":1163:1164  5 */\n      0x05\n        /* \"@chainlink/contracts/src/v0.8/vendor/CBORChainlink.sol\":1154:1159  major */\n      dup5\n        /* \"@chainlink/contracts/src/v0.8/vendor/CBORChainlink.sol\":1154:1164  major << 5 */\n      0xff\n      and\n      swap1\n      shl\n        /* \"@chainlink/contracts/src/v0.8/vendor/CBORChainlink.sol\":1153:1170  (major << 5) | 26 */\n      or\n        /* \"@chainlink/contracts/src/v0.8/vendor/CBORChainlink.sol\":1131:1134  buf */\n      dup5\n        /* \"@chainlink/contracts/src/v0.8/vendor/CBORChainlink.sol\":1131:1146  buf.appendUint8 */\n      tag_153\n      swap1\n        /* \"@chainlink/contracts/src/v0.8/vendor/CBORChainlink.sol\":1131:1172  buf.appendUint8(uint8((major << 5) | 26)) */\n      swap2\n      swap1\n      0xffffffff\n      and\n      jump\t// in\n    tag_165:\n      pop\n        /* \"@chainlink/contracts/src/v0.8/vendor/CBORChainlink.sol\":1180:1203  buf.appendInt(value, 4) */\n      tag_166\n        /* \"@chainlink/contracts/src/v0.8/vendor/CBORChainlink.sol\":1194:1199  value */\n      dup2\n        /* \"@chainlink/contracts/src/v0.8/vendor/CBORChainlink.sol\":1180:1203  buf.appendInt(value, 4) */\n      0xffffffffffffffff\n      and\n        /* \"@chainlink/contracts/src/v0.8/vendor/CBORChainlink.sol\":1201:1202  4 */\n      0x04\n        /* \"@chainlink/contracts/src/v0.8/vendor/CBORChainlink.sol\":1180:1183  buf */\n      dup6\n        /* \"@chainlink/contracts/src/v0.8/vendor/CBORChainlink.sol\":1180:1193  buf.appendInt */\n      tag_158\n      swap1\n        /* \"@chainlink/contracts/src/v0.8/vendor/CBORChainlink.sol\":1180:1203  buf.appendInt(value, 4) */\n      swap3\n      swap2\n      swap1\n      0xffffffff\n      and\n      jump\t// in\n    tag_166:\n      pop\n        /* \"@chainlink/contracts/src/v0.8/vendor/CBORChainlink.sol\":1098:1303  if (value <= 0xFFFFFFFF) {... */\n      jump(tag_167)\n    tag_164:\n        /* \"@chainlink/contracts/src/v0.8/vendor/CBORChainlink.sol\":1224:1265  buf.appendUint8(uint8((major << 5) | 27)) */\n      tag_168\n        /* \"@chainlink/contracts/src/v0.8/vendor/CBORChainlink.sol\":1261:1263  27 */\n      0x1b\n        /* \"@chainlink/contracts/src/v0.8/vendor/CBORChainlink.sol\":1256:1257  5 */\n      0x05\n        /* \"@chainlink/contracts/src/v0.8/vendor/CBORChainlink.sol\":1247:1252  major */\n      dup5\n        /* \"@chainlink/contracts/src/v0.8/vendor/CBORChainlink.sol\":1247:1257  major << 5 */\n      0xff\n      and\n      swap1\n      shl\n        /* \"@chainlink/contracts/src/v0.8/vendor/CBORChainlink.sol\":1246:1263  (major << 5) | 27 */\n      or\n        /* \"@chainlink/contracts/src/v0.8/vendor/CBORChainlink.sol\":1224:1227  buf */\n      dup5\n        /* \"@chainlink/contracts/src/v0.8/vendor/CBORChainlink.sol\":1224:1239  buf.appendUint8 */\n      tag_153\n      swap1\n        /* \"@chainlink/contracts/src/v0.8/vendor/CBORChainlink.sol\":1224:1265  buf.appendUint8(uint8((major << 5) | 27)) */\n      swap2\n      swap1\n      0xffffffff\n      and\n      jump\t// in\n    tag_168:\n      pop\n        /* \"@chainlink/contracts/src/v0.8/vendor/CBORChainlink.sol\":1273:1296  buf.appendInt(value, 8) */\n      tag_169\n        /* \"@chainlink/contracts/src/v0.8/vendor/CBORChainlink.sol\":1287:1292  value */\n      dup2\n        /* \"@chainlink/contracts/src/v0.8/vendor/CBORChainlink.sol\":1273:1296  buf.appendInt(value, 8) */\n      0xffffffffffffffff\n      and\n        /* \"@chainlink/contracts/src/v0.8/vendor/CBORChainlink.sol\":1294:1295  8 */\n      0x08\n        /* \"@chainlink/contracts/src/v0.8/vendor/CBORChainlink.sol\":1273:1276  buf */\n      dup6\n        /* \"@chainlink/contracts/src/v0.8/vendor/CBORChainlink.sol\":1273:1286  buf.appendInt */\n      tag_158\n      swap1\n        /* \"@chainlink/contracts/src/v0.8/vendor/CBORChainlink.sol\":1273:1296  buf.appendInt(value, 8) */\n      swap3\n      swap2\n      swap1\n      0xffffffff\n      and\n      jump\t// in\n    tag_169:\n      pop\n        /* \"@chainlink/contracts/src/v0.8/vendor/CBORChainlink.sol\":1098:1303  if (value <= 0xFFFFFFFF) {... */\n    tag_167:\n        /* \"@chainlink/contracts/src/v0.8/vendor/CBORChainlink.sol\":984:1303  if (value <= 0xFFFF) {... */\n    tag_163:\n        /* \"@chainlink/contracts/src/v0.8/vendor/CBORChainlink.sol\":872:1303  if (value <= 0xFF) {... */\n    tag_159:\n        /* \"@chainlink/contracts/src/v0.8/vendor/CBORChainlink.sol\":791:1303  if(value <= 23) {... */\n    tag_154:\n        /* \"@chainlink/contracts/src/v0.8/vendor/CBORChainlink.sol\":682:1307  function encodeFixedNumeric(BufferChainlink.buffer memory buf, uint8 major, uint64 value) private pure {... */\n      pop\n      pop\n      pop\n      jump\t// out\n        /* \"@chainlink/contracts/src/v0.8/vendor/BufferChainlink.sol\":4692:4847  function append(buffer memory buf, bytes memory data) internal pure returns (buffer memory) {... */\n    tag_117:\n        /* \"@chainlink/contracts/src/v0.8/vendor/BufferChainlink.sol\":4769:4782  buffer memory */\n      tag_170\n      tag_141\n      jump\t// in\n    tag_170:\n        /* \"@chainlink/contracts/src/v0.8/vendor/BufferChainlink.sol\":4797:4842  write(buf, buf.buf.length, data, data.length) */\n      tag_172\n        /* \"@chainlink/contracts/src/v0.8/vendor/BufferChainlink.sol\":4803:4806  buf */\n      dup4\n        /* \"@chainlink/contracts/src/v0.8/vendor/BufferChainlink.sol\":4808:4811  buf */\n      dup5\n        /* \"@chainlink/contracts/src/v0.8/vendor/BufferChainlink.sol\":4808:4815  buf.buf */\n      0x00\n      add\n      mload\n        /* \"@chainlink/contracts/src/v0.8/vendor/BufferChainlink.sol\":4808:4822  buf.buf.length */\n      mload\n        /* \"@chainlink/contracts/src/v0.8/vendor/BufferChainlink.sol\":4824:4828  data */\n      dup5\n        /* \"@chainlink/contracts/src/v0.8/vendor/BufferChainlink.sol\":4830:4834  data */\n      dup6\n        /* \"@chainlink/contracts/src/v0.8/vendor/BufferChainlink.sol\":4830:4841  data.length */\n      mload\n        /* \"@chainlink/contracts/src/v0.8/vendor/BufferChainlink.sol\":4797:4802  write */\n      tag_173\n        /* \"@chainlink/contracts/src/v0.8/vendor/BufferChainlink.sol\":4797:4842  write(buf, buf.buf.length, data, data.length) */\n      jump\t// in\n    tag_172:\n        /* \"@chainlink/contracts/src/v0.8/vendor/BufferChainlink.sol\":4790:4842  return write(buf, buf.buf.length, data, data.length) */\n      swap1\n      pop\n        /* \"@chainlink/contracts/src/v0.8/vendor/BufferChainlink.sol\":4692:4847  function append(buffer memory buf, bytes memory data) internal pure returns (buffer memory) {... */\n      swap3\n      swap2\n      pop\n      pop\n      jump\t// out\n        /* \"@chainlink/contracts/src/v0.8/vendor/CBORChainlink.sol\":2547:2773  function encodeSignedBigNum(BufferChainlink.buffer memory buf, int input) internal pure {... */\n    tag_121:\n        /* \"@chainlink/contracts/src/v0.8/vendor/CBORChainlink.sol\":2641:2713  buf.appendUint8(uint8((MAJOR_TYPE_TAG << 5) | TAG_TYPE_NEGATIVE_BIGNUM)) */\n      tag_175\n        /* \"@chainlink/contracts/src/v0.8/vendor/CBORChainlink.sol\":676:677  3 */\n      0x03\n        /* \"@chainlink/contracts/src/v0.8/vendor/CBORChainlink.sol\":2682:2683  5 */\n      0x05\n        /* \"@chainlink/contracts/src/v0.8/vendor/CBORChainlink.sol\":520:521  6 */\n      0x06\n        /* \"@chainlink/contracts/src/v0.8/vendor/CBORChainlink.sol\":2664:2683  MAJOR_TYPE_TAG << 5 */\n      0xff\n      and\n      swap1\n      shl\n        /* \"@chainlink/contracts/src/v0.8/vendor/CBORChainlink.sol\":2663:2711  (MAJOR_TYPE_TAG << 5) | TAG_TYPE_NEGATIVE_BIGNUM */\n      or\n        /* \"@chainlink/contracts/src/v0.8/vendor/CBORChainlink.sol\":2641:2644  buf */\n      dup4\n        /* \"@chainlink/contracts/src/v0.8/vendor/CBORChainlink.sol\":2641:2656  buf.appendUint8 */\n      tag_153\n      swap1\n        /* \"@chainlink/contracts/src/v0.8/vendor/CBORChainlink.sol\":2641:2713  buf.appendUint8(uint8((MAJOR_TYPE_TAG << 5) | TAG_TYPE_NEGATIVE_BIGNUM)) */\n      swap2\n      swap1\n      0xffffffff\n      and\n      jump\t// in\n    tag_175:\n      pop\n        /* \"@chainlink/contracts/src/v0.8/vendor/CBORChainlink.sol\":2719:2768  encodeBytes(buf, abi.encode(uint256(-1 - input))) */\n      tag_176\n        /* \"@chainlink/contracts/src/v0.8/vendor/CBORChainlink.sol\":2731:2734  buf */\n      dup3\n        /* \"@chainlink/contracts/src/v0.8/vendor/CBORChainlink.sol\":2760:2765  input */\n      dup3\n        /* \"@chainlink/contracts/src/v0.8/vendor/CBORChainlink.sol\":2755:2757  -1 */\n      0xffffffffffffffffffffffffffffffffffffffffffffffffffffffffffffffff\n        /* \"@chainlink/contracts/src/v0.8/vendor/CBORChainlink.sol\":2755:2765  -1 - input */\n      tag_177\n      swap2\n      swap1\n      tag_132\n      jump\t// in\n    tag_177:\n        /* \"@chainlink/contracts/src/v0.8/vendor/CBORChainlink.sol\":2736:2767  abi.encode(uint256(-1 - input)) */\n      add(0x20, mload(0x40))\n      tag_178\n      swap2\n      swap1\n      tag_30\n      jump\t// in\n    tag_178:\n      mload(0x40)\n      0x20\n      dup2\n      dup4\n      sub\n      sub\n      dup2\n      mstore\n      swap1\n      0x40\n      mstore\n        /* \"@chainlink/contracts/src/v0.8/vendor/CBORChainlink.sol\":2719:2730  encodeBytes */\n      tag_179\n        /* \"@chainlink/contracts/src/v0.8/vendor/CBORChainlink.sol\":2719:2768  encodeBytes(buf, abi.encode(uint256(-1 - input))) */\n      jump\t// in\n    tag_176:\n        /* \"@chainlink/contracts/src/v0.8/vendor/CBORChainlink.sol\":2547:2773  function encodeSignedBigNum(BufferChainlink.buffer memory buf, int input) internal pure {... */\n      pop\n      pop\n      jump\t// out\n        /* \"@chainlink/contracts/src/v0.8/vendor/CBORChainlink.sol\":2345:2543  function encodeBigNum(BufferChainlink.buffer memory buf, uint value) internal pure {... */\n    tag_125:\n        /* \"@chainlink/contracts/src/v0.8/vendor/CBORChainlink.sol\":2434:2497  buf.appendUint8(uint8((MAJOR_TYPE_TAG << 5) | TAG_TYPE_BIGNUM)) */\n      tag_181\n        /* \"@chainlink/contracts/src/v0.8/vendor/CBORChainlink.sol\":621:622  2 */\n      0x02\n        /* \"@chainlink/contracts/src/v0.8/vendor/CBORChainlink.sol\":2475:2476  5 */\n      0x05\n        /* \"@chainlink/contracts/src/v0.8/vendor/CBORChainlink.sol\":520:521  6 */\n      0x06\n        /* \"@chainlink/contracts/src/v0.8/vendor/CBORChainlink.sol\":2457:2476  MAJOR_TYPE_TAG << 5 */\n      0xff\n      and\n      swap1\n      shl\n        /* \"@chainlink/contracts/src/v0.8/vendor/CBORChainlink.sol\":2456:2495  (MAJOR_TYPE_TAG << 5) | TAG_TYPE_BIGNUM */\n      or\n        /* \"@chainlink/contracts/src/v0.8/vendor/CBORChainlink.sol\":2434:2437  buf */\n      dup4\n        /* \"@chainlink/contracts/src/v0.8/vendor/CBORChainlink.sol\":2434:2449  buf.appendUint8 */\n      tag_153\n      swap1\n        /* \"@chainlink/contracts/src/v0.8/vendor/CBORChainlink.sol\":2434:2497  buf.appendUint8(uint8((MAJOR_TYPE_TAG << 5) | TAG_TYPE_BIGNUM)) */\n      swap2\n      swap1\n      0xffffffff\n      and\n      jump\t// in\n    tag_181:\n      pop\n        /* \"@chainlink/contracts/src/v0.8/vendor/CBORChainlink.sol\":2503:2538  encodeBytes(buf, abi.encode(value)) */\n      tag_182\n        /* \"@chainlink/contracts/src/v0.8/vendor/CBORChainlink.sol\":2515:2518  buf */\n      dup3\n        /* \"@chainlink/contracts/src/v0.8/vendor/CBORChainlink.sol\":2531:2536  value */\n      dup3\n        /* \"@chainlink/contracts/src/v0.8/vendor/CBORChainlink.sol\":2520:2537  abi.encode(value) */\n      add(0x20, mload(0x40))\n      tag_183\n      swap2\n      swap1\n      tag_30\n      jump\t// in\n    tag_183:\n      mload(0x40)\n      0x20\n      dup2\n      dup4\n      sub\n      sub\n      dup2\n      mstore\n      swap1\n      0x40\n      mstore\n        /* \"@chainlink/contracts/src/v0.8/vendor/CBORChainlink.sol\":2503:2514  encodeBytes */\n      tag_179\n        /* \"@chainlink/contracts/src/v0.8/vendor/CBORChainlink.sol\":2503:2538  encodeBytes(buf, abi.encode(value)) */\n      jump\t// in\n    tag_182:\n        /* \"@chainlink/contracts/src/v0.8/vendor/CBORChainlink.sol\":2345:2543  function encodeBigNum(BufferChainlink.buffer memory buf, uint value) internal pure {... */\n      pop\n      pop\n      jump\t// out\n        /* \"@chainlink/contracts/src/v0.8/ChainlinkClient.sol\":6629:7059  function _rawRequest(... */\n    tag_139:\n        /* \"@chainlink/contracts/src/v0.8/ChainlinkClient.sol\":6771:6788  bytes32 requestId */\n      0x00\n        /* \"@chainlink/contracts/src/v0.8/ChainlinkClient.sol\":6835:6839  this */\n      address\n        /* \"@chainlink/contracts/src/v0.8/ChainlinkClient.sol\":6841:6846  nonce */\n      dup5\n        /* \"@chainlink/contracts/src/v0.8/ChainlinkClient.sol\":6818:6847  abi.encodePacked(this, nonce) */\n      add(0x20, mload(0x40))\n      tag_185\n      swap3\n      swap2\n      swap1\n      tag_186\n      jump\t// in\n    tag_185:\n      mload(0x40)\n      0x20\n      dup2\n      dup4\n      sub\n      sub\n      dup2\n      mstore\n      swap1\n      0x40\n      mstore\n        /* \"@chainlink/contracts/src/v0.8/ChainlinkClient.sol\":6808:6848  keccak256(abi.encodePacked(this, nonce)) */\n      dup1\n      mload\n      swap1\n      0x20\n      add\n      keccak256\n        /* \"@chainlink/contracts/src/v0.8/ChainlinkClient.sol\":6796:6848  requestId = keccak256(abi.encodePacked(this, nonce)) */\n      swap1\n      pop\n        /* \"@chainlink/contracts/src/v0.8/ChainlinkClient.sol\":6885:6898  oracleAddress */\n      dup5\n        /* \"@chainlink/contracts/src/v0.8/ChainlinkClient.sol\":6854:6871  s_pendingRequests */\n      0x05\n        /* \"@chainlink/contracts/src/v0.8/ChainlinkClient.sol\":6854:6882  s_pendingRequests[requestId] */\n      0x00\n        /* \"@chainlink/contracts/src/v0.8/ChainlinkClient.sol\":6872:6881  requestId */\n      dup4\n        /* \"@chainlink/contracts/src/v0.8/ChainlinkClient.sol\":6854:6882  s_pendingRequests[requestId] */\n      dup2\n      mstore\n      0x20\n      add\n      swap1\n      dup2\n      mstore\n      0x20\n      add\n      0x00\n      keccak256\n      0x00\n        /* \"@chainlink/contracts/src/v0.8/ChainlinkClient.sol\":6854:6898  s_pendingRequests[requestId] = oracleAddress */\n      0x0100\n      exp\n      dup2\n      sload\n      dup2\n      0xffffffffffffffffffffffffffffffffffffffff\n      mul\n      not\n      and\n      swap1\n      dup4\n      0xffffffffffffffffffffffffffffffffffffffff\n      and\n      mul\n      or\n      swap1\n      sstore\n      pop\n        /* \"@chainlink/contracts/src/v0.8/ChainlinkClient.sol\":6928:6937  requestId */\n      dup1\n        /* \"@chainlink/contracts/src/v0.8/ChainlinkClient.sol\":6909:6938  ChainlinkRequested(requestId) */\n      0xb5e6e01e79f91267dc17b4e6314d5d4d03593d2ceee0fbb452b750bd70ea5af9\n      mload(0x40)\n      mload(0x40)\n      dup1\n      swap2\n      sub\n      swap1\n      log2\n        /* \"@chainlink/contracts/src/v0.8/ChainlinkClient.sol\":6952:6958  s_link */\n      0x02\n      0x00\n      swap1\n      sload\n      swap1\n      0x0100\n      exp\n      swap1\n      div\n      0xffffffffffffffffffffffffffffffffffffffff\n      and\n        /* \"@chainlink/contracts/src/v0.8/ChainlinkClient.sol\":6952:6974  s_link.transferAndCall */\n      0xffffffffffffffffffffffffffffffffffffffff\n      and\n      0x4000aea0\n        /* \"@chainlink/contracts/src/v0.8/ChainlinkClient.sol\":6975:6988  oracleAddress */\n      dup7\n        /* \"@chainlink/contracts/src/v0.8/ChainlinkClient.sol\":6990:6997  payment */\n      dup6\n        /* \"@chainlink/contracts/src/v0.8/ChainlinkClient.sol\":6999:7013  encodedRequest */\n      dup6\n        /* \"@chainlink/contracts/src/v0.8/ChainlinkClient.sol\":6952:7014  s_link.transferAndCall(oracleAddress, payment, encodedRequest) */\n      mload(0x40)\n      dup5\n      0xffffffff\n      and\n      0xe0\n      shl\n      dup2\n      mstore\n      0x04\n      add\n      tag_187\n      swap4\n      swap3\n      swap2\n      swap1\n      tag_188\n      jump\t// in\n    tag_187:\n      0x20\n      mload(0x40)\n      dup1\n      dup4\n      sub\n      dup2\n      0x00\n      dup8\n      dup1\n      extcodesize\n      iszero\n      dup1\n      iszero\n      tag_189\n      jumpi\n      0x00\n      dup1\n      revert\n    tag_189:\n      pop\n      gas\n      call\n      iszero\n      dup1\n      iszero\n      tag_191\n      jumpi\n      returndatasize\n      0x00\n      dup1\n      returndatacopy\n      revert(0x00, returndatasize)\n    tag_191:\n      pop\n      pop\n      pop\n      pop\n      mload(0x40)\n      returndatasize\n      not(0x1f)\n      0x1f\n      dup3\n      add\n      and\n      dup3\n      add\n      dup1\n      0x40\n      mstore\n      pop\n      dup2\n      add\n      swap1\n      tag_192\n      swap2\n      swap1\n      tag_74\n      jump\t// in\n    tag_192:\n        /* \"@chainlink/contracts/src/v0.8/ChainlinkClient.sol\":6944:7054  require(s_link.transferAndCall(oracleAddress, payment, encodedRequest), \"unable to transferAndCall to oracle\") */\n      tag_193\n      jumpi\n      mload(0x40)\n      0x08c379a000000000000000000000000000000000000000000000000000000000\n      dup2\n      mstore\n      0x04\n      add\n      tag_194\n      swap1\n      tag_195\n      jump\t// in\n    tag_194:\n      mload(0x40)\n      dup1\n      swap2\n      sub\n      swap1\n      revert\n    tag_193:\n        /* \"@chainlink/contracts/src/v0.8/ChainlinkClient.sol\":6629:7059  function _rawRequest(... */\n      swap5\n      swap4\n      pop\n      pop\n      pop\n      pop\n      jump\t// out\n        /* \"@chainlink/contracts/src/v0.8/vendor/BufferChainlink.sol\":6040:6185  function appendUint8(buffer memory buf, uint8 data) internal pure returns (buffer memory) {... */\n    tag_153:\n        /* \"@chainlink/contracts/src/v0.8/vendor/BufferChainlink.sol\":6115:6128  buffer memory */\n      tag_196\n      tag_141\n      jump\t// in\n    tag_196:\n        /* \"@chainlink/contracts/src/v0.8/vendor/BufferChainlink.sol\":6143:6180  writeUint8(buf, buf.buf.length, data) */\n      tag_198\n        /* \"@chainlink/contracts/src/v0.8/vendor/BufferChainlink.sol\":6154:6157  buf */\n      dup4\n        /* \"@chainlink/contracts/src/v0.8/vendor/BufferChainlink.sol\":6159:6162  buf */\n      dup5\n        /* \"@chainlink/contracts/src/v0.8/vendor/BufferChainlink.sol\":6159:6166  buf.buf */\n      0x00\n      add\n      mload\n        /* \"@chainlink/contracts/src/v0.8/vendor/BufferChainlink.sol\":6159:6173  buf.buf.length */\n      mload\n        /* \"@chainlink/contracts/src/v0.8/vendor/BufferChainlink.sol\":6175:6179  data */\n      dup5\n        /* \"@chainlink/contracts/src/v0.8/vendor/BufferChainlink.sol\":6143:6153  writeUint8 */\n      tag_199\n        /* \"@chainlink/contracts/src/v0.8/vendor/BufferChainlink.sol\":6143:6180  writeUint8(buf, buf.buf.length, data) */\n      jump\t// in\n    tag_198:\n        /* \"@chainlink/contracts/src/v0.8/vendor/BufferChainlink.sol\":6136:6180  return writeUint8(buf, buf.buf.length, data) */\n      swap1\n      pop\n        /* \"@chainlink/contracts/src/v0.8/vendor/BufferChainlink.sol\":6040:6185  function appendUint8(buffer memory buf, uint8 data) internal pure returns (buffer memory) {... */\n      swap3\n      swap2\n      pop\n      pop\n      jump\t// out\n        /* \"@chainlink/contracts/src/v0.8/vendor/BufferChainlink.sol\":9894:10071  function appendInt(... */\n    tag_158:\n        /* \"@chainlink/contracts/src/v0.8/vendor/BufferChainlink.sol\":9998:10011  buffer memory */\n      tag_200\n      tag_141\n      jump\t// in\n    tag_200:\n        /* \"@chainlink/contracts/src/v0.8/vendor/BufferChainlink.sol\":10026:10066  writeInt(buf, buf.buf.length, data, len) */\n      tag_202\n        /* \"@chainlink/contracts/src/v0.8/vendor/BufferChainlink.sol\":10035:10038  buf */\n      dup5\n        /* \"@chainlink/contracts/src/v0.8/vendor/BufferChainlink.sol\":10040:10043  buf */\n      dup6\n        /* \"@chainlink/contracts/src/v0.8/vendor/BufferChainlink.sol\":10040:10047  buf.buf */\n      0x00\n      add\n      mload\n        /* \"@chainlink/contracts/src/v0.8/vendor/BufferChainlink.sol\":10040:10054  buf.buf.length */\n      mload\n        /* \"@chainlink/contracts/src/v0.8/vendor/BufferChainlink.sol\":10056:10060  data */\n      dup6\n        /* \"@chainlink/contracts/src/v0.8/vendor/BufferChainlink.sol\":10062:10065  len */\n      dup6\n        /* \"@chainlink/contracts/src/v0.8/vendor/BufferChainlink.sol\":10026:10034  writeInt */\n      tag_203\n        /* \"@chainlink/contracts/src/v0.8/vendor/BufferChainlink.sol\":10026:10066  writeInt(buf, buf.buf.length, data, len) */\n      jump\t// in\n    tag_202:\n        /* \"@chainlink/contracts/src/v0.8/vendor/BufferChainlink.sol\":10019:10066  return writeInt(buf, buf.buf.length, data, len) */\n      swap1\n      pop\n        /* \"@chainlink/contracts/src/v0.8/vendor/BufferChainlink.sol\":9894:10071  function appendInt(... */\n      swap4\n      swap3\n      pop\n      pop\n      pop\n      jump\t// out\n        /* \"@chainlink/contracts/src/v0.8/vendor/BufferChainlink.sol\":2745:3955  function write(... */\n    tag_173:\n        /* \"@chainlink/contracts/src/v0.8/vendor/BufferChainlink.sol\":2867:2880  buffer memory */\n      tag_204\n      tag_141\n      jump\t// in\n    tag_204:\n        /* \"@chainlink/contracts/src/v0.8/vendor/BufferChainlink.sol\":2903:2907  data */\n      dup3\n        /* \"@chainlink/contracts/src/v0.8/vendor/BufferChainlink.sol\":2903:2914  data.length */\n      mload\n        /* \"@chainlink/contracts/src/v0.8/vendor/BufferChainlink.sol\":2896:2899  len */\n      dup3\n        /* \"@chainlink/contracts/src/v0.8/vendor/BufferChainlink.sol\":2896:2914  len <= data.length */\n      gt\n      iszero\n        /* \"@chainlink/contracts/src/v0.8/vendor/BufferChainlink.sol\":2888:2915  require(len <= data.length) */\n      tag_206\n      jumpi\n      0x00\n      dup1\n      revert\n    tag_206:\n        /* \"@chainlink/contracts/src/v0.8/vendor/BufferChainlink.sol\":2938:2941  buf */\n      dup5\n        /* \"@chainlink/contracts/src/v0.8/vendor/BufferChainlink.sol\":2938:2950  buf.capacity */\n      0x20\n      add\n      mload\n        /* \"@chainlink/contracts/src/v0.8/vendor/BufferChainlink.sol\":2932:2935  len */\n      dup3\n        /* \"@chainlink/contracts/src/v0.8/vendor/BufferChainlink.sol\":2926:2929  off */\n      dup6\n        /* \"@chainlink/contracts/src/v0.8/vendor/BufferChainlink.sol\":2926:2935  off + len */\n      tag_207\n      swap2\n      swap1\n      tag_135\n      jump\t// in\n    tag_207:\n        /* \"@chainlink/contracts/src/v0.8/vendor/BufferChainlink.sol\":2926:2950  off + len > buf.capacity */\n      gt\n        /* \"@chainlink/contracts/src/v0.8/vendor/BufferChainlink.sol\":2922:3012  if (off + len > buf.capacity) {... */\n      iszero\n      tag_208\n      jumpi\n        /* \"@chainlink/contracts/src/v0.8/vendor/BufferChainlink.sol\":2960:3005  resize(buf, max(buf.capacity, len + off) * 2) */\n      tag_209\n        /* \"@chainlink/contracts/src/v0.8/vendor/BufferChainlink.sol\":2967:2970  buf */\n      dup6\n        /* \"@chainlink/contracts/src/v0.8/vendor/BufferChainlink.sol\":3003:3004  2 */\n      0x02\n        /* \"@chainlink/contracts/src/v0.8/vendor/BufferChainlink.sol\":2972:3000  max(buf.capacity, len + off) */\n      tag_210\n        /* \"@chainlink/contracts/src/v0.8/vendor/BufferChainlink.sol\":2976:2979  buf */\n      dup9\n        /* \"@chainlink/contracts/src/v0.8/vendor/BufferChainlink.sol\":2976:2988  buf.capacity */\n      0x20\n      add\n      mload\n        /* \"@chainlink/contracts/src/v0.8/vendor/BufferChainlink.sol\":2996:2999  off */\n      dup9\n        /* \"@chainlink/contracts/src/v0.8/vendor/BufferChainlink.sol\":2990:2993  len */\n      dup8\n        /* \"@chainlink/contracts/src/v0.8/vendor/BufferChainlink.sol\":2990:2999  len + off */\n      tag_211\n      swap2\n      swap1\n      tag_135\n      jump\t// in\n    tag_211:\n        /* \"@chainlink/contracts/src/v0.8/vendor/BufferChainlink.sol\":2972:2975  max */\n      tag_212\n        /* \"@chainlink/contracts/src/v0.8/vendor/BufferChainlink.sol\":2972:3000  max(buf.capacity, len + off) */\n      jump\t// in\n    tag_210:\n        /* \"@chainlink/contracts/src/v0.8/vendor/BufferChainlink.sol\":2972:3004  max(buf.capacity, len + off) * 2 */\n      tag_213\n      swap2\n      swap1\n      tag_214\n      jump\t// in\n    tag_213:\n        /* \"@chainlink/contracts/src/v0.8/vendor/BufferChainlink.sol\":2960:2966  resize */\n      tag_215\n        /* \"@chainlink/contracts/src/v0.8/vendor/BufferChainlink.sol\":2960:3005  resize(buf, max(buf.capacity, len + off) * 2) */\n      jump\t// in\n    tag_209:\n        /* \"@chainlink/contracts/src/v0.8/vendor/BufferChainlink.sol\":2922:3012  if (off + len > buf.capacity) {... */\n    tag_208:\n        /* \"@chainlink/contracts/src/v0.8/vendor/BufferChainlink.sol\":3018:3030  uint256 dest */\n      0x00\n        /* \"@chainlink/contracts/src/v0.8/vendor/BufferChainlink.sol\":3036:3047  uint256 src */\n      dup1\n        /* \"@chainlink/contracts/src/v0.8/vendor/BufferChainlink.sol\":3133:3136  buf */\n      dup7\n        /* \"@chainlink/contracts/src/v0.8/vendor/BufferChainlink.sol\":3127:3137  mload(buf) */\n      mload\n        /* \"@chainlink/contracts/src/v0.8/vendor/BufferChainlink.sol\":3204:3210  bufptr */\n      dup1\n        /* \"@chainlink/contracts/src/v0.8/vendor/BufferChainlink.sol\":3198:3211  mload(bufptr) */\n      mload\n        /* \"@chainlink/contracts/src/v0.8/vendor/BufferChainlink.sol\":3320:3323  off */\n      dup8\n        /* \"@chainlink/contracts/src/v0.8/vendor/BufferChainlink.sol\":3315:3317  32 */\n      0x20\n        /* \"@chainlink/contracts/src/v0.8/vendor/BufferChainlink.sol\":3307:3313  bufptr */\n      dup4\n        /* \"@chainlink/contracts/src/v0.8/vendor/BufferChainlink.sol\":3303:3318  add(bufptr, 32) */\n      add\n        /* \"@chainlink/contracts/src/v0.8/vendor/BufferChainlink.sol\":3299:3324  add(add(bufptr, 32), off) */\n      add\n        /* \"@chainlink/contracts/src/v0.8/vendor/BufferChainlink.sol\":3291:3324  dest := add(add(bufptr, 32), off) */\n      swap4\n      pop\n        /* \"@chainlink/contracts/src/v0.8/vendor/BufferChainlink.sol\":3404:3410  buflen */\n      dup1\n        /* \"@chainlink/contracts/src/v0.8/vendor/BufferChainlink.sol\":3398:3401  off */\n      dup9\n        /* \"@chainlink/contracts/src/v0.8/vendor/BufferChainlink.sol\":3393:3396  len */\n      dup8\n        /* \"@chainlink/contracts/src/v0.8/vendor/BufferChainlink.sol\":3389:3402  add(len, off) */\n      add\n        /* \"@chainlink/contracts/src/v0.8/vendor/BufferChainlink.sol\":3386:3411  gt(add(len, off), buflen) */\n      gt\n        /* \"@chainlink/contracts/src/v0.8/vendor/BufferChainlink.sol\":3383:3459  if gt(add(len, off), buflen) {... */\n      iszero\n      tag_216\n      jumpi\n        /* \"@chainlink/contracts/src/v0.8/vendor/BufferChainlink.sol\":3446:3449  off */\n      dup8\n        /* \"@chainlink/contracts/src/v0.8/vendor/BufferChainlink.sol\":3441:3444  len */\n      dup7\n        /* \"@chainlink/contracts/src/v0.8/vendor/BufferChainlink.sol\":3437:3450  add(len, off) */\n      add\n        /* \"@chainlink/contracts/src/v0.8/vendor/BufferChainlink.sol\":3429:3435  bufptr */\n      dup3\n        /* \"@chainlink/contracts/src/v0.8/vendor/BufferChainlink.sol\":3422:3451  mstore(bufptr, add(len, off)) */\n      mstore\n        /* \"@chainlink/contracts/src/v0.8/vendor/BufferChainlink.sol\":3383:3459  if gt(add(len, off), buflen) {... */\n    tag_216:\n        /* \"@chainlink/contracts/src/v0.8/vendor/BufferChainlink.sol\":3483:3485  32 */\n      0x20\n        /* \"@chainlink/contracts/src/v0.8/vendor/BufferChainlink.sol\":3477:3481  data */\n      dup8\n        /* \"@chainlink/contracts/src/v0.8/vendor/BufferChainlink.sol\":3473:3486  add(data, 32) */\n      add\n        /* \"@chainlink/contracts/src/v0.8/vendor/BufferChainlink.sol\":3466:3486  src := add(data, 32) */\n      swap3\n      pop\n        /* \"@chainlink/contracts/src/v0.8/vendor/BufferChainlink.sol\":3062:3492  {... */\n      pop\n      pop\n        /* \"@chainlink/contracts/src/v0.8/vendor/BufferChainlink.sol\":3544:3673  for (; len >= 32; len -= 32) {... */\n    tag_217:\n        /* \"@chainlink/contracts/src/v0.8/vendor/BufferChainlink.sol\":3558:3560  32 */\n      0x20\n        /* \"@chainlink/contracts/src/v0.8/vendor/BufferChainlink.sol\":3551:3554  len */\n      dup5\n        /* \"@chainlink/contracts/src/v0.8/vendor/BufferChainlink.sol\":3551:3560  len >= 32 */\n      lt\n        /* \"@chainlink/contracts/src/v0.8/vendor/BufferChainlink.sol\":3544:3673  for (; len >= 32; len -= 32) {... */\n      tag_218\n      jumpi\n        /* \"@chainlink/contracts/src/v0.8/vendor/BufferChainlink.sol\":3619:3622  src */\n      dup1\n        /* \"@chainlink/contracts/src/v0.8/vendor/BufferChainlink.sol\":3613:3623  mload(src) */\n      mload\n        /* \"@chainlink/contracts/src/v0.8/vendor/BufferChainlink.sol\":3607:3611  dest */\n      dup3\n        /* \"@chainlink/contracts/src/v0.8/vendor/BufferChainlink.sol\":3600:3624  mstore(dest, mload(src)) */\n      mstore\n        /* \"@chainlink/contracts/src/v0.8/vendor/BufferChainlink.sol\":3647:3649  32 */\n      0x20\n        /* \"@chainlink/contracts/src/v0.8/vendor/BufferChainlink.sol\":3639:3649  dest += 32 */\n      dup3\n      tag_220\n      swap2\n      swap1\n      tag_135\n      jump\t// in\n    tag_220:\n      swap2\n      pop\n        /* \"@chainlink/contracts/src/v0.8/vendor/BufferChainlink.sol\":3664:3666  32 */\n      0x20\n        /* \"@chainlink/contracts/src/v0.8/vendor/BufferChainlink.sol\":3657:3666  src += 32 */\n      dup2\n      tag_221\n      swap2\n      swap1\n      tag_135\n      jump\t// in\n    tag_221:\n      swap1\n      pop\n        /* \"@chainlink/contracts/src/v0.8/vendor/BufferChainlink.sol\":3569:3571  32 */\n      0x20\n        /* \"@chainlink/contracts/src/v0.8/vendor/BufferChainlink.sol\":3562:3571  len -= 32 */\n      dup5\n      tag_222\n      swap2\n      swap1\n      tag_148\n      jump\t// in\n    tag_222:\n      swap4\n      pop\n        /* \"@chainlink/contracts/src/v0.8/vendor/BufferChainlink.sol\":3544:3673  for (; len >= 32; len -= 32) {... */\n      jump(tag_217)\n    tag_218:\n        /* \"@chainlink/contracts/src/v0.8/vendor/BufferChainlink.sol\":3725:3737  uint256 mask */\n      0x00\n        /* \"@chainlink/contracts/src/v0.8/vendor/BufferChainlink.sol\":3760:3761  1 */\n      0x01\n        /* \"@chainlink/contracts/src/v0.8/vendor/BufferChainlink.sol\":3752:3755  len */\n      dup6\n        /* \"@chainlink/contracts/src/v0.8/vendor/BufferChainlink.sol\":3747:3749  32 */\n      0x20\n        /* \"@chainlink/contracts/src/v0.8/vendor/BufferChainlink.sol\":3747:3755  32 - len */\n      sub\n        /* \"@chainlink/contracts/src/v0.8/vendor/BufferChainlink.sol\":3741:3744  256 */\n      0x0100\n        /* \"@chainlink/contracts/src/v0.8/vendor/BufferChainlink.sol\":3741:3756  256**(32 - len) */\n      exp\n        /* \"@chainlink/contracts/src/v0.8/vendor/BufferChainlink.sol\":3740:3761  (256**(32 - len)) - 1 */\n      sub\n        /* \"@chainlink/contracts/src/v0.8/vendor/BufferChainlink.sol\":3725:3761  uint256 mask = (256**(32 - len)) - 1 */\n      swap1\n      pop\n        /* \"@chainlink/contracts/src/v0.8/vendor/BufferChainlink.sol\":3823:3827  mask */\n      dup1\n        /* \"@chainlink/contracts/src/v0.8/vendor/BufferChainlink.sol\":3819:3828  not(mask) */\n      not\n        /* \"@chainlink/contracts/src/v0.8/vendor/BufferChainlink.sol\":3813:3816  src */\n      dup3\n        /* \"@chainlink/contracts/src/v0.8/vendor/BufferChainlink.sol\":3807:3817  mload(src) */\n      mload\n        /* \"@chainlink/contracts/src/v0.8/vendor/BufferChainlink.sol\":3803:3829  and(mload(src), not(mask)) */\n      and\n        /* \"@chainlink/contracts/src/v0.8/vendor/BufferChainlink.sol\":3871:3875  mask */\n      dup2\n        /* \"@chainlink/contracts/src/v0.8/vendor/BufferChainlink.sol\":3864:3868  dest */\n      dup5\n        /* \"@chainlink/contracts/src/v0.8/vendor/BufferChainlink.sol\":3858:3869  mload(dest) */\n      mload\n        /* \"@chainlink/contracts/src/v0.8/vendor/BufferChainlink.sol\":3854:3876  and(mload(dest), mask) */\n      and\n        /* \"@chainlink/contracts/src/v0.8/vendor/BufferChainlink.sol\":3911:3918  srcpart */\n      dup2\n        /* \"@chainlink/contracts/src/v0.8/vendor/BufferChainlink.sol\":3901:3909  destpart */\n      dup2\n        /* \"@chainlink/contracts/src/v0.8/vendor/BufferChainlink.sol\":3898:3919  or(destpart, srcpart) */\n      or\n        /* \"@chainlink/contracts/src/v0.8/vendor/BufferChainlink.sol\":3892:3896  dest */\n      dup6\n        /* \"@chainlink/contracts/src/v0.8/vendor/BufferChainlink.sol\":3885:3920  mstore(dest, or(destpart, srcpart)) */\n      mstore\n        /* \"@chainlink/contracts/src/v0.8/vendor/BufferChainlink.sol\":3778:3928  {... */\n      pop\n      pop\n      pop\n        /* \"@chainlink/contracts/src/v0.8/vendor/BufferChainlink.sol\":3947:3950  buf */\n      dup7\n        /* \"@chainlink/contracts/src/v0.8/vendor/BufferChainlink.sol\":3940:3950  return buf */\n      swap3\n      pop\n      pop\n      pop\n        /* \"@chainlink/contracts/src/v0.8/vendor/BufferChainlink.sol\":2745:3955  function write(... */\n      swap5\n      swap4\n      pop\n      pop\n      pop\n      pop\n      jump\t// out\n        /* \"@chainlink/contracts/src/v0.8/vendor/CBORChainlink.sol\":2154:2341  function encodeBytes(BufferChainlink.buffer memory buf, bytes memory value) internal pure {... */\n    tag_179:\n        /* \"@chainlink/contracts/src/v0.8/vendor/CBORChainlink.sol\":2250:2313  encodeFixedNumeric(buf, MAJOR_TYPE_BYTES, uint64(value.length)) */\n      tag_224\n        /* \"@chainlink/contracts/src/v0.8/vendor/CBORChainlink.sol\":2269:2272  buf */\n      dup3\n        /* \"@chainlink/contracts/src/v0.8/vendor/CBORChainlink.sol\":335:336  2 */\n      0x02\n        /* \"@chainlink/contracts/src/v0.8/vendor/CBORChainlink.sol\":2299:2304  value */\n      dup4\n        /* \"@chainlink/contracts/src/v0.8/vendor/CBORChainlink.sol\":2299:2311  value.length */\n      mload\n        /* \"@chainlink/contracts/src/v0.8/vendor/CBORChainlink.sol\":2250:2268  encodeFixedNumeric */\n      tag_115\n        /* \"@chainlink/contracts/src/v0.8/vendor/CBORChainlink.sol\":2250:2313  encodeFixedNumeric(buf, MAJOR_TYPE_BYTES, uint64(value.length)) */\n      jump\t// in\n    tag_224:\n        /* \"@chainlink/contracts/src/v0.8/vendor/CBORChainlink.sol\":2319:2336  buf.append(value) */\n      tag_225\n        /* \"@chainlink/contracts/src/v0.8/vendor/CBORChainlink.sol\":2330:2335  value */\n      dup2\n        /* \"@chainlink/contracts/src/v0.8/vendor/CBORChainlink.sol\":2319:2322  buf */\n      dup4\n        /* \"@chainlink/contracts/src/v0.8/vendor/CBORChainlink.sol\":2319:2329  buf.append */\n      tag_117\n      swap1\n        /* \"@chainlink/contracts/src/v0.8/vendor/CBORChainlink.sol\":2319:2336  buf.append(value) */\n      swap2\n      swap1\n      0xffffffff\n      and\n      jump\t// in\n    tag_225:\n      pop\n        /* \"@chainlink/contracts/src/v0.8/vendor/CBORChainlink.sol\":2154:2341  function encodeBytes(BufferChainlink.buffer memory buf, bytes memory value) internal pure {... */\n      pop\n      pop\n      jump\t// out\n        /* \"@chainlink/contracts/src/v0.8/vendor/BufferChainlink.sol\":5148:5787  function writeUint8(... */\n    tag_199:\n        /* \"@chainlink/contracts/src/v0.8/vendor/BufferChainlink.sol\":5251:5264  buffer memory */\n      tag_226\n      tag_141\n      jump\t// in\n    tag_226:\n        /* \"@chainlink/contracts/src/v0.8/vendor/BufferChainlink.sol\":5283:5286  buf */\n      dup4\n        /* \"@chainlink/contracts/src/v0.8/vendor/BufferChainlink.sol\":5283:5295  buf.capacity */\n      0x20\n      add\n      mload\n        /* \"@chainlink/contracts/src/v0.8/vendor/BufferChainlink.sol\":5276:5279  off */\n      dup4\n        /* \"@chainlink/contracts/src/v0.8/vendor/BufferChainlink.sol\":5276:5295  off >= buf.capacity */\n      lt\n        /* \"@chainlink/contracts/src/v0.8/vendor/BufferChainlink.sol\":5272:5341  if (off >= buf.capacity) {... */\n      tag_228\n      jumpi\n        /* \"@chainlink/contracts/src/v0.8/vendor/BufferChainlink.sol\":5305:5334  resize(buf, buf.capacity * 2) */\n      tag_229\n        /* \"@chainlink/contracts/src/v0.8/vendor/BufferChainlink.sol\":5312:5315  buf */\n      dup5\n        /* \"@chainlink/contracts/src/v0.8/vendor/BufferChainlink.sol\":5332:5333  2 */\n      0x02\n        /* \"@chainlink/contracts/src/v0.8/vendor/BufferChainlink.sol\":5317:5320  buf */\n      dup7\n        /* \"@chainlink/contracts/src/v0.8/vendor/BufferChainlink.sol\":5317:5329  buf.capacity */\n      0x20\n      add\n      mload\n        /* \"@chainlink/contracts/src/v0.8/vendor/BufferChainlink.sol\":5317:5333  buf.capacity * 2 */\n      tag_230\n      swap2\n      swap1\n      tag_214\n      jump\t// in\n    tag_230:\n        /* \"@chainlink/contracts/src/v0.8/vendor/BufferChainlink.sol\":5305:5311  resize */\n      tag_215\n        /* \"@chainlink/contracts/src/v0.8/vendor/BufferChainlink.sol\":5305:5334  resize(buf, buf.capacity * 2) */\n      jump\t// in\n    tag_229:\n        /* \"@chainlink/contracts/src/v0.8/vendor/BufferChainlink.sol\":5272:5341  if (off >= buf.capacity) {... */\n    tag_228:\n        /* \"@chainlink/contracts/src/v0.8/vendor/BufferChainlink.sol\":5427:5430  buf */\n      dup4\n        /* \"@chainlink/contracts/src/v0.8/vendor/BufferChainlink.sol\":5421:5431  mload(buf) */\n      mload\n        /* \"@chainlink/contracts/src/v0.8/vendor/BufferChainlink.sol\":5498:5504  bufptr */\n      dup1\n        /* \"@chainlink/contracts/src/v0.8/vendor/BufferChainlink.sol\":5492:5505  mload(bufptr) */\n      mload\n        /* \"@chainlink/contracts/src/v0.8/vendor/BufferChainlink.sol\":5610:5612  32 */\n      0x20\n        /* \"@chainlink/contracts/src/v0.8/vendor/BufferChainlink.sol\":5604:5607  off */\n      dup6\n        /* \"@chainlink/contracts/src/v0.8/vendor/BufferChainlink.sol\":5596:5602  bufptr */\n      dup4\n        /* \"@chainlink/contracts/src/v0.8/vendor/BufferChainlink.sol\":5592:5608  add(bufptr, off) */\n      add\n        /* \"@chainlink/contracts/src/v0.8/vendor/BufferChainlink.sol\":5588:5613  add(add(bufptr, off), 32) */\n      add\n        /* \"@chainlink/contracts/src/v0.8/vendor/BufferChainlink.sol\":5634:5638  data */\n      dup5\n        /* \"@chainlink/contracts/src/v0.8/vendor/BufferChainlink.sol\":5628:5632  dest */\n      dup2\n        /* \"@chainlink/contracts/src/v0.8/vendor/BufferChainlink.sol\":5620:5639  mstore8(dest, data) */\n      mstore8\n        /* \"@chainlink/contracts/src/v0.8/vendor/BufferChainlink.sol\":5705:5711  buflen */\n      dup2\n        /* \"@chainlink/contracts/src/v0.8/vendor/BufferChainlink.sol\":5700:5703  off */\n      dup7\n        /* \"@chainlink/contracts/src/v0.8/vendor/BufferChainlink.sol\":5697:5712  eq(off, buflen) */\n      eq\n        /* \"@chainlink/contracts/src/v0.8/vendor/BufferChainlink.sol\":5694:5761  if eq(off, buflen) {... */\n      iszero\n      tag_231\n      jumpi\n        /* \"@chainlink/contracts/src/v0.8/vendor/BufferChainlink.sol\":5750:5751  1 */\n      0x01\n        /* \"@chainlink/contracts/src/v0.8/vendor/BufferChainlink.sol\":5742:5748  buflen */\n      dup3\n        /* \"@chainlink/contracts/src/v0.8/vendor/BufferChainlink.sol\":5738:5752  add(buflen, 1) */\n      add\n        /* \"@chainlink/contracts/src/v0.8/vendor/BufferChainlink.sol\":5730:5736  bufptr */\n      dup4\n        /* \"@chainlink/contracts/src/v0.8/vendor/BufferChainlink.sol\":5723:5753  mstore(bufptr, add(buflen, 1)) */\n      mstore\n        /* \"@chainlink/contracts/src/v0.8/vendor/BufferChainlink.sol\":5694:5761  if eq(off, buflen) {... */\n    tag_231:\n        /* \"@chainlink/contracts/src/v0.8/vendor/BufferChainlink.sol\":5356:5767  {... */\n      pop\n      pop\n      pop\n        /* \"@chainlink/contracts/src/v0.8/vendor/BufferChainlink.sol\":5779:5782  buf */\n      dup4\n        /* \"@chainlink/contracts/src/v0.8/vendor/BufferChainlink.sol\":5772:5782  return buf */\n      swap1\n      pop\n        /* \"@chainlink/contracts/src/v0.8/vendor/BufferChainlink.sol\":5148:5787  function writeUint8(... */\n      swap4\n      swap3\n      pop\n      pop\n      pop\n      jump\t// out\n        /* \"@chainlink/contracts/src/v0.8/vendor/BufferChainlink.sol\":8974:9649  function writeInt(... */\n    tag_203:\n        /* \"@chainlink/contracts/src/v0.8/vendor/BufferChainlink.sol\":9093:9106  buffer memory */\n      tag_232\n      tag_141\n      jump\t// in\n    tag_232:\n        /* \"@chainlink/contracts/src/v0.8/vendor/BufferChainlink.sol\":9130:9133  buf */\n      dup5\n        /* \"@chainlink/contracts/src/v0.8/vendor/BufferChainlink.sol\":9130:9142  buf.capacity */\n      0x20\n      add\n      mload\n        /* \"@chainlink/contracts/src/v0.8/vendor/BufferChainlink.sol\":9124:9127  off */\n      dup5\n        /* \"@chainlink/contracts/src/v0.8/vendor/BufferChainlink.sol\":9118:9121  len */\n      dup4\n        /* \"@chainlink/contracts/src/v0.8/vendor/BufferChainlink.sol\":9118:9127  len + off */\n      tag_234\n      swap2\n      swap1\n      tag_135\n      jump\t// in\n    tag_234:\n        /* \"@chainlink/contracts/src/v0.8/vendor/BufferChainlink.sol\":9118:9142  len + off > buf.capacity */\n      gt\n        /* \"@chainlink/contracts/src/v0.8/vendor/BufferChainlink.sol\":9114:9187  if (len + off > buf.capacity) {... */\n      iszero\n      tag_235\n      jumpi\n        /* \"@chainlink/contracts/src/v0.8/vendor/BufferChainlink.sol\":9152:9180  resize(buf, (len + off) * 2) */\n      tag_236\n        /* \"@chainlink/contracts/src/v0.8/vendor/BufferChainlink.sol\":9159:9162  buf */\n      dup6\n        /* \"@chainlink/contracts/src/v0.8/vendor/BufferChainlink.sol\":9178:9179  2 */\n      0x02\n        /* \"@chainlink/contracts/src/v0.8/vendor/BufferChainlink.sol\":9171:9174  off */\n      dup7\n        /* \"@chainlink/contracts/src/v0.8/vendor/BufferChainlink.sol\":9165:9168  len */\n      dup6\n        /* \"@chainlink/contracts/src/v0.8/vendor/BufferChainlink.sol\":9165:9174  len + off */\n      tag_237\n      swap2\n      swap1\n      tag_135\n      jump\t// in\n    tag_237:\n        /* \"@chainlink/contracts/src/v0.8/vendor/BufferChainlink.sol\":9164:9179  (len + off) * 2 */\n      tag_238\n      swap2\n      swap1\n      tag_214\n      jump\t// in\n    tag_238:\n        /* \"@chainlink/contracts/src/v0.8/vendor/BufferChainlink.sol\":9152:9158  resize */\n      tag_215\n        /* \"@chainlink/contracts/src/v0.8/vendor/BufferChainlink.sol\":9152:9180  resize(buf, (len + off) * 2) */\n      jump\t// in\n    tag_236:\n        /* \"@chainlink/contracts/src/v0.8/vendor/BufferChainlink.sol\":9114:9187  if (len + off > buf.capacity) {... */\n    tag_235:\n        /* \"@chainlink/contracts/src/v0.8/vendor/BufferChainlink.sol\":9193:9205  uint256 mask */\n      0x00\n        /* \"@chainlink/contracts/src/v0.8/vendor/BufferChainlink.sol\":9221:9222  1 */\n      0x01\n        /* \"@chainlink/contracts/src/v0.8/vendor/BufferChainlink.sol\":9214:9217  len */\n      dup4\n        /* \"@chainlink/contracts/src/v0.8/vendor/BufferChainlink.sol\":9209:9212  256 */\n      0x0100\n        /* \"@chainlink/contracts/src/v0.8/vendor/BufferChainlink.sol\":9209:9217  256**len */\n      tag_239\n      swap2\n      swap1\n      tag_240\n      jump\t// in\n    tag_239:\n        /* \"@chainlink/contracts/src/v0.8/vendor/BufferChainlink.sol\":9208:9222  (256**len) - 1 */\n      tag_241\n      swap2\n      swap1\n      tag_148\n      jump\t// in\n    tag_241:\n        /* \"@chainlink/contracts/src/v0.8/vendor/BufferChainlink.sol\":9193:9222  uint256 mask = (256**len) - 1 */\n      swap1\n      pop\n        /* \"@chainlink/contracts/src/v0.8/vendor/BufferChainlink.sol\":9308:9311  buf */\n      dup6\n        /* \"@chainlink/contracts/src/v0.8/vendor/BufferChainlink.sol\":9302:9312  mload(buf) */\n      mload\n        /* \"@chainlink/contracts/src/v0.8/vendor/BufferChainlink.sol\":9423:9426  len */\n      dup4\n        /* \"@chainlink/contracts/src/v0.8/vendor/BufferChainlink.sol\":9417:9420  off */\n      dup7\n        /* \"@chainlink/contracts/src/v0.8/vendor/BufferChainlink.sol\":9409:9415  bufptr */\n      dup3\n        /* \"@chainlink/contracts/src/v0.8/vendor/BufferChainlink.sol\":9405:9421  add(bufptr, off) */\n      add\n        /* \"@chainlink/contracts/src/v0.8/vendor/BufferChainlink.sol\":9401:9427  add(add(bufptr, off), len) */\n      add\n        /* \"@chainlink/contracts/src/v0.8/vendor/BufferChainlink.sol\":9479:9483  data */\n      dup6\n        /* \"@chainlink/contracts/src/v0.8/vendor/BufferChainlink.sol\":9471:9475  mask */\n      dup4\n        /* \"@chainlink/contracts/src/v0.8/vendor/BufferChainlink.sol\":9467:9476  not(mask) */\n      not\n        /* \"@chainlink/contracts/src/v0.8/vendor/BufferChainlink.sol\":9460:9464  dest */\n      dup3\n        /* \"@chainlink/contracts/src/v0.8/vendor/BufferChainlink.sol\":9454:9465  mload(dest) */\n      mload\n        /* \"@chainlink/contracts/src/v0.8/vendor/BufferChainlink.sol\":9450:9477  and(mload(dest), not(mask)) */\n      and\n        /* \"@chainlink/contracts/src/v0.8/vendor/BufferChainlink.sol\":9447:9484  or(and(mload(dest), not(mask)), data) */\n      or\n        /* \"@chainlink/contracts/src/v0.8/vendor/BufferChainlink.sol\":9441:9445  dest */\n      dup2\n        /* \"@chainlink/contracts/src/v0.8/vendor/BufferChainlink.sol\":9434:9485  mstore(dest, or(and(mload(dest), not(mask)), data)) */\n      mstore\n        /* \"@chainlink/contracts/src/v0.8/vendor/BufferChainlink.sol\":9567:9573  bufptr */\n      dup2\n        /* \"@chainlink/contracts/src/v0.8/vendor/BufferChainlink.sol\":9561:9574  mload(bufptr) */\n      mload\n        /* \"@chainlink/contracts/src/v0.8/vendor/BufferChainlink.sol\":9555:9558  len */\n      dup6\n        /* \"@chainlink/contracts/src/v0.8/vendor/BufferChainlink.sol\":9550:9553  off */\n      dup9\n        /* \"@chainlink/contracts/src/v0.8/vendor/BufferChainlink.sol\":9546:9559  add(off, len) */\n      add\n        /* \"@chainlink/contracts/src/v0.8/vendor/BufferChainlink.sol\":9543:9575  gt(add(off, len), mload(bufptr)) */\n      gt\n        /* \"@chainlink/contracts/src/v0.8/vendor/BufferChainlink.sol\":9540:9623  if gt(add(off, len), mload(bufptr)) {... */\n      iszero\n      tag_242\n      jumpi\n        /* \"@chainlink/contracts/src/v0.8/vendor/BufferChainlink.sol\":9610:9613  len */\n      dup5\n        /* \"@chainlink/contracts/src/v0.8/vendor/BufferChainlink.sol\":9605:9608  off */\n      dup8\n        /* \"@chainlink/contracts/src/v0.8/vendor/BufferChainlink.sol\":9601:9614  add(off, len) */\n      add\n        /* \"@chainlink/contracts/src/v0.8/vendor/BufferChainlink.sol\":9593:9599  bufptr */\n      dup3\n        /* \"@chainlink/contracts/src/v0.8/vendor/BufferChainlink.sol\":9586:9615  mstore(bufptr, add(off, len)) */\n      mstore\n        /* \"@chainlink/contracts/src/v0.8/vendor/BufferChainlink.sol\":9540:9623  if gt(add(off, len), mload(bufptr)) {... */\n    tag_242:\n        /* \"@chainlink/contracts/src/v0.8/vendor/BufferChainlink.sol\":9237:9629  {... */\n      pop\n      pop\n        /* \"@chainlink/contracts/src/v0.8/vendor/BufferChainlink.sol\":9641:9644  buf */\n      dup6\n        /* \"@chainlink/contracts/src/v0.8/vendor/BufferChainlink.sol\":9634:9644  return buf */\n      swap2\n      pop\n      pop\n        /* \"@chainlink/contracts/src/v0.8/vendor/BufferChainlink.sol\":8974:9649  function writeInt(... */\n      swap5\n      swap4\n      pop\n      pop\n      pop\n      pop\n      jump\t// out\n        /* \"@chainlink/contracts/src/v0.8/vendor/BufferChainlink.sol\":1961:2085  function max(uint256 a, uint256 b) private pure returns (uint256) {... */\n    tag_212:\n        /* \"@chainlink/contracts/src/v0.8/vendor/BufferChainlink.sol\":2018:2025  uint256 */\n      0x00\n        /* \"@chainlink/contracts/src/v0.8/vendor/BufferChainlink.sol\":2041:2042  b */\n      dup2\n        /* \"@chainlink/contracts/src/v0.8/vendor/BufferChainlink.sol\":2037:2038  a */\n      dup4\n        /* \"@chainlink/contracts/src/v0.8/vendor/BufferChainlink.sol\":2037:2042  a > b */\n      gt\n        /* \"@chainlink/contracts/src/v0.8/vendor/BufferChainlink.sol\":2033:2067  if (a > b) {... */\n      iszero\n      tag_244\n      jumpi\n        /* \"@chainlink/contracts/src/v0.8/vendor/BufferChainlink.sol\":2059:2060  a */\n      dup3\n        /* \"@chainlink/contracts/src/v0.8/vendor/BufferChainlink.sol\":2052:2060  return a */\n      swap1\n      pop\n      jump(tag_243)\n        /* \"@chainlink/contracts/src/v0.8/vendor/BufferChainlink.sol\":2033:2067  if (a > b) {... */\n    tag_244:\n        /* \"@chainlink/contracts/src/v0.8/vendor/BufferChainlink.sol\":2079:2080  b */\n      dup2\n        /* \"@chainlink/contracts/src/v0.8/vendor/BufferChainlink.sol\":2072:2080  return b */\n      swap1\n      pop\n        /* \"@chainlink/contracts/src/v0.8/vendor/BufferChainlink.sol\":1961:2085  function max(uint256 a, uint256 b) private pure returns (uint256) {... */\n    tag_243:\n      swap3\n      swap2\n      pop\n      pop\n      jump\t// out\n        /* \"@chainlink/contracts/src/v0.8/vendor/BufferChainlink.sol\":1801:1957  function resize(buffer memory buf, uint256 capacity) private pure {... */\n    tag_215:\n        /* \"@chainlink/contracts/src/v0.8/vendor/BufferChainlink.sol\":1873:1892  bytes memory oldbuf */\n      0x00\n        /* \"@chainlink/contracts/src/v0.8/vendor/BufferChainlink.sol\":1895:1898  buf */\n      dup3\n        /* \"@chainlink/contracts/src/v0.8/vendor/BufferChainlink.sol\":1895:1902  buf.buf */\n      0x00\n      add\n      mload\n        /* \"@chainlink/contracts/src/v0.8/vendor/BufferChainlink.sol\":1873:1902  bytes memory oldbuf = buf.buf */\n      swap1\n      pop\n        /* \"@chainlink/contracts/src/v0.8/vendor/BufferChainlink.sol\":1908:1927  init(buf, capacity) */\n      tag_246\n        /* \"@chainlink/contracts/src/v0.8/vendor/BufferChainlink.sol\":1913:1916  buf */\n      dup4\n        /* \"@chainlink/contracts/src/v0.8/vendor/BufferChainlink.sol\":1918:1926  capacity */\n      dup4\n        /* \"@chainlink/contracts/src/v0.8/vendor/BufferChainlink.sol\":1908:1912  init */\n      tag_112\n        /* \"@chainlink/contracts/src/v0.8/vendor/BufferChainlink.sol\":1908:1927  init(buf, capacity) */\n      jump\t// in\n    tag_246:\n      pop\n        /* \"@chainlink/contracts/src/v0.8/vendor/BufferChainlink.sol\":1933:1952  append(buf, oldbuf) */\n      tag_247\n        /* \"@chainlink/contracts/src/v0.8/vendor/BufferChainlink.sol\":1940:1943  buf */\n      dup4\n        /* \"@chainlink/contracts/src/v0.8/vendor/BufferChainlink.sol\":1945:1951  oldbuf */\n      dup3\n        /* \"@chainlink/contracts/src/v0.8/vendor/BufferChainlink.sol\":1933:1939  append */\n      tag_117\n        /* \"@chainlink/contracts/src/v0.8/vendor/BufferChainlink.sol\":1933:1952  append(buf, oldbuf) */\n      jump\t// in\n    tag_247:\n      pop\n        /* \"@chainlink/contracts/src/v0.8/vendor/BufferChainlink.sol\":1867:1957  {... */\n      pop\n        /* \"@chainlink/contracts/src/v0.8/vendor/BufferChainlink.sol\":1801:1957  function resize(buffer memory buf, uint256 capacity) private pure {... */\n      pop\n      pop\n      jump\t// out\n    tag_84:\n      mload(0x40)\n      dup1\n      0xa0\n      add\n      0x40\n      mstore\n      dup1\n      0x00\n      dup1\n      not\n      and\n      dup2\n      mstore\n      0x20\n      add\n      and(0xffffffffffffffffffffffffffffffffffffffff, 0x00)\n      dup2\n      mstore\n      0x20\n      add\n      and(not(0xffffffffffffffffffffffffffffffffffffffffffffffffffffffff), 0x00)\n      dup2\n      mstore\n      0x20\n      add\n      0x00\n      dup2\n      mstore\n      0x20\n      add\n      tag_248\n      tag_141\n      jump\t// in\n    tag_248:\n      dup2\n      mstore\n      pop\n      swap1\n      jump\t// out\n    tag_141:\n      mload(0x40)\n      dup1\n      0x40\n      add\n      0x40\n      mstore\n      dup1\n      0x60\n      dup2\n      mstore\n      0x20\n      add\n      0x00\n      dup2\n      mstore\n      pop\n      swap1\n      jump\t// out\n        /* \"#utility.yul\":7:146   */\n    tag_250:\n        /* \"#utility.yul\":53:58   */\n      0x00\n        /* \"#utility.yul\":91:97   */\n      dup2\n        /* \"#utility.yul\":78:98   */\n      calldataload\n        /* \"#utility.yul\":69:98   */\n      swap1\n      pop\n        /* \"#utility.yul\":107:140   */\n      tag_252\n        /* \"#utility.yul\":134:139   */\n      dup2\n        /* \"#utility.yul\":107:140   */\n      tag_253\n      jump\t// in\n    tag_252:\n        /* \"#utility.yul\":7:146   */\n      swap3\n      swap2\n      pop\n      pop\n      jump\t// out\n        /* \"#utility.yul\":152:289   */\n    tag_254:\n        /* \"#utility.yul\":206:211   */\n      0x00\n        /* \"#utility.yul\":237:243   */\n      dup2\n        /* \"#utility.yul\":231:244   */\n      mload\n        /* \"#utility.yul\":222:244   */\n      swap1\n      pop\n        /* \"#utility.yul\":253:283   */\n      tag_256\n        /* \"#utility.yul\":277:282   */\n      dup2\n        /* \"#utility.yul\":253:283   */\n      tag_257\n      jump\t// in\n    tag_256:\n        /* \"#utility.yul\":152:289   */\n      swap3\n      swap2\n      pop\n      pop\n      jump\t// out\n        /* \"#utility.yul\":295:434   */\n    tag_258:\n        /* \"#utility.yul\":341:346   */\n      0x00\n        /* \"#utility.yul\":379:385   */\n      dup2\n        /* \"#utility.yul\":366:386   */\n      calldataload\n        /* \"#utility.yul\":357:386   */\n      swap1\n      pop\n        /* \"#utility.yul\":395:428   */\n      tag_260\n        /* \"#utility.yul\":422:427   */\n      dup2\n        /* \"#utility.yul\":395:428   */\n      tag_261\n      jump\t// in\n    tag_260:\n        /* \"#utility.yul\":295:434   */\n      swap3\n      swap2\n      pop\n      pop\n      jump\t// out\n        /* \"#utility.yul\":440:579   */\n    tag_262:\n        /* \"#utility.yul\":486:491   */\n      0x00\n        /* \"#utility.yul\":524:530   */\n      dup2\n        /* \"#utility.yul\":511:531   */\n      calldataload\n        /* \"#utility.yul\":502:531   */\n      swap1\n      pop\n        /* \"#utility.yul\":540:573   */\n      tag_264\n        /* \"#utility.yul\":567:572   */\n      dup2\n        /* \"#utility.yul\":540:573   */\n      tag_265\n      jump\t// in\n    tag_264:\n        /* \"#utility.yul\":440:579   */\n      swap3\n      swap2\n      pop\n      pop\n      jump\t// out\n        /* \"#utility.yul\":585:728   */\n    tag_266:\n        /* \"#utility.yul\":642:647   */\n      0x00\n        /* \"#utility.yul\":673:679   */\n      dup2\n        /* \"#utility.yul\":667:680   */\n      mload\n        /* \"#utility.yul\":658:680   */\n      swap1\n      pop\n        /* \"#utility.yul\":689:722   */\n      tag_268\n        /* \"#utility.yul\":716:721   */\n      dup2\n        /* \"#utility.yul\":689:722   */\n      tag_265\n      jump\t// in\n    tag_268:\n        /* \"#utility.yul\":585:728   */\n      swap3\n      swap2\n      pop\n      pop\n      jump\t// out\n        /* \"#utility.yul\":734:1063   */\n    tag_33:\n        /* \"#utility.yul\":793:799   */\n      0x00\n        /* \"#utility.yul\":842:844   */\n      0x20\n        /* \"#utility.yul\":830:839   */\n      dup3\n        /* \"#utility.yul\":821:828   */\n      dup5\n        /* \"#utility.yul\":817:840   */\n      sub\n        /* \"#utility.yul\":813:845   */\n      slt\n        /* \"#utility.yul\":810:929   */\n      iszero\n      tag_270\n      jumpi\n        /* \"#utility.yul\":848:927   */\n      tag_271\n      tag_272\n      jump\t// in\n    tag_271:\n        /* \"#utility.yul\":810:929   */\n    tag_270:\n        /* \"#utility.yul\":968:969   */\n      0x00\n        /* \"#utility.yul\":993:1046   */\n      tag_273\n        /* \"#utility.yul\":1038:1045   */\n      dup5\n        /* \"#utility.yul\":1029:1035   */\n      dup3\n        /* \"#utility.yul\":1018:1027   */\n      dup6\n        /* \"#utility.yul\":1014:1036   */\n      add\n        /* \"#utility.yul\":993:1046   */\n      tag_250\n      jump\t// in\n    tag_273:\n        /* \"#utility.yul\":983:1046   */\n      swap2\n      pop\n        /* \"#utility.yul\":939:1056   */\n      pop\n        /* \"#utility.yul\":734:1063   */\n      swap3\n      swap2\n      pop\n      pop\n      jump\t// out\n        /* \"#utility.yul\":1069:1414   */\n    tag_74:\n        /* \"#utility.yul\":1136:1142   */\n      0x00\n        /* \"#utility.yul\":1185:1187   */\n      0x20\n        /* \"#utility.yul\":1173:1182   */\n      dup3\n        /* \"#utility.yul\":1164:1171   */\n      dup5\n        /* \"#utility.yul\":1160:1183   */\n      sub\n        /* \"#utility.yul\":1156:1188   */\n      slt\n        /* \"#utility.yul\":1153:1272   */\n      iszero\n      tag_275\n      jumpi\n        /* \"#utility.yul\":1191:1270   */\n      tag_276\n      tag_272\n      jump\t// in\n    tag_276:\n        /* \"#utility.yul\":1153:1272   */\n    tag_275:\n        /* \"#utility.yul\":1311:1312   */\n      0x00\n        /* \"#utility.yul\":1336:1397   */\n      tag_277\n        /* \"#utility.yul\":1389:1396   */\n      dup5\n        /* \"#utility.yul\":1380:1386   */\n      dup3\n        /* \"#utility.yul\":1369:1378   */\n      dup6\n        /* \"#utility.yul\":1365:1387   */\n      add\n        /* \"#utility.yul\":1336:1397   */\n      tag_254\n      jump\t// in\n    tag_277:\n        /* \"#utility.yul\":1326:1397   */\n      swap2\n      pop\n        /* \"#utility.yul\":1282:1407   */\n      pop\n        /* \"#utility.yul\":1069:1414   */\n      swap3\n      swap2\n      pop\n      pop\n      jump\t// out\n        /* \"#utility.yul\":1420:1894   */\n    tag_13:\n        /* \"#utility.yul\":1488:1494   */\n      0x00\n        /* \"#utility.yul\":1496:1502   */\n      dup1\n        /* \"#utility.yul\":1545:1547   */\n      0x40\n        /* \"#utility.yul\":1533:1542   */\n      dup4\n        /* \"#utility.yul\":1524:1531   */\n      dup6\n        /* \"#utility.yul\":1520:1543   */\n      sub\n        /* \"#utility.yul\":1516:1548   */\n      slt\n        /* \"#utility.yul\":1513:1632   */\n      iszero\n      tag_279\n      jumpi\n        /* \"#utility.yul\":1551:1630   */\n      tag_280\n      tag_272\n      jump\t// in\n    tag_280:\n        /* \"#utility.yul\":1513:1632   */\n    tag_279:\n        /* \"#utility.yul\":1671:1672   */\n      0x00\n        /* \"#utility.yul\":1696:1749   */\n      tag_281\n        /* \"#utility.yul\":1741:1748   */\n      dup6\n        /* \"#utility.yul\":1732:1738   */\n      dup3\n        /* \"#utility.yul\":1721:1730   */\n      dup7\n        /* \"#utility.yul\":1717:1739   */\n      add\n        /* \"#utility.yul\":1696:1749   */\n      tag_258\n      jump\t// in\n    tag_281:\n        /* \"#utility.yul\":1686:1749   */\n      swap3\n      pop\n        /* \"#utility.yul\":1642:1759   */\n      pop\n        /* \"#utility.yul\":1798:1800   */\n      0x20\n        /* \"#utility.yul\":1824:1877   */\n      tag_282\n        /* \"#utility.yul\":1869:1876   */\n      dup6\n        /* \"#utility.yul\":1860:1866   */\n      dup3\n        /* \"#utility.yul\":1849:1858   */\n      dup7\n        /* \"#utility.yul\":1845:1867   */\n      add\n        /* \"#utility.yul\":1824:1877   */\n      tag_262\n      jump\t// in\n    tag_282:\n        /* \"#utility.yul\":1814:1877   */\n      swap2\n      pop\n        /* \"#utility.yul\":1769:1887   */\n      pop\n        /* \"#utility.yul\":1420:1894   */\n      swap3\n      pop\n      swap3\n      swap1\n      pop\n      jump\t// out\n        /* \"#utility.yul\":1900:2251   */\n    tag_67:\n        /* \"#utility.yul\":1970:1976   */\n      0x00\n        /* \"#utility.yul\":2019:2021   */\n      0x20\n        /* \"#utility.yul\":2007:2016   */\n      dup3\n        /* \"#utility.yul\":1998:2005   */\n      dup5\n        /* \"#utility.yul\":1994:2017   */\n      sub\n        /* \"#utility.yul\":1990:2022   */\n      slt\n        /* \"#utility.yul\":1987:2106   */\n      iszero\n      tag_284\n      jumpi\n        /* \"#utility.yul\":2025:2104   */\n      tag_285\n      tag_272\n      jump\t// in\n    tag_285:\n        /* \"#utility.yul\":1987:2106   */\n    tag_284:\n        /* \"#utility.yul\":2145:2146   */\n      0x00\n        /* \"#utility.yul\":2170:2234   */\n      tag_286\n        /* \"#utility.yul\":2226:2233   */\n      dup5\n        /* \"#utility.yul\":2217:2223   */\n      dup3\n        /* \"#utility.yul\":2206:2215   */\n      dup6\n        /* \"#utility.yul\":2202:2224   */\n      add\n        /* \"#utility.yul\":2170:2234   */\n      tag_266\n      jump\t// in\n    tag_286:\n        /* \"#utility.yul\":2160:2234   */\n      swap2\n      pop\n        /* \"#utility.yul\":2116:2244   */\n      pop\n        /* \"#utility.yul\":1900:2251   */\n      swap3\n      swap2\n      pop\n      pop\n      jump\t// out\n        /* \"#utility.yul\":2257:2375   */\n    tag_287:\n        /* \"#utility.yul\":2344:2368   */\n      tag_289\n        /* \"#utility.yul\":2362:2367   */\n      dup2\n        /* \"#utility.yul\":2344:2368   */\n      tag_290\n      jump\t// in\n    tag_289:\n        /* \"#utility.yul\":2339:2342   */\n      dup3\n        /* \"#utility.yul\":2332:2369   */\n      mstore\n        /* \"#utility.yul\":2257:2375   */\n      pop\n      pop\n      jump\t// out\n        /* \"#utility.yul\":2381:2499   */\n    tag_291:\n        /* \"#utility.yul\":2468:2492   */\n      tag_293\n        /* \"#utility.yul\":2486:2491   */\n      dup2\n        /* \"#utility.yul\":2468:2492   */\n      tag_294\n      jump\t// in\n    tag_293:\n        /* \"#utility.yul\":2463:2466   */\n      dup3\n        /* \"#utility.yul\":2456:2493   */\n      mstore\n        /* \"#utility.yul\":2381:2499   */\n      pop\n      pop\n      jump\t// out\n        /* \"#utility.yul\":2505:2620   */\n    tag_295:\n        /* \"#utility.yul\":2590:2613   */\n      tag_297\n        /* \"#utility.yul\":2607:2612   */\n      dup2\n        /* \"#utility.yul\":2590:2613   */\n      tag_298\n      jump\t// in\n    tag_297:\n        /* \"#utility.yul\":2585:2588   */\n      dup3\n        /* \"#utility.yul\":2578:2614   */\n      mstore\n        /* \"#utility.yul\":2505:2620   */\n      pop\n      pop\n      jump\t// out\n        /* \"#utility.yul\":2626:2986   */\n    tag_299:\n        /* \"#utility.yul\":2712:2715   */\n      0x00\n        /* \"#utility.yul\":2740:2778   */\n      tag_301\n        /* \"#utility.yul\":2772:2777   */\n      dup3\n        /* \"#utility.yul\":2740:2778   */\n      tag_302\n      jump\t// in\n    tag_301:\n        /* \"#utility.yul\":2794:2864   */\n      tag_303\n        /* \"#utility.yul\":2857:2863   */\n      dup2\n        /* \"#utility.yul\":2852:2855   */\n      dup6\n        /* \"#utility.yul\":2794:2864   */\n      tag_304\n      jump\t// in\n    tag_303:\n        /* \"#utility.yul\":2787:2864   */\n      swap4\n      pop\n        /* \"#utility.yul\":2873:2925   */\n      tag_305\n        /* \"#utility.yul\":2918:2924   */\n      dup2\n        /* \"#utility.yul\":2913:2916   */\n      dup6\n        /* \"#utility.yul\":2906:2910   */\n      0x20\n        /* \"#utility.yul\":2899:2904   */\n      dup7\n        /* \"#utility.yul\":2895:2911   */\n      add\n        /* \"#utility.yul\":2873:2925   */\n      tag_306\n      jump\t// in\n    tag_305:\n        /* \"#utility.yul\":2950:2979   */\n      tag_307\n        /* \"#utility.yul\":2972:2978   */\n      dup2\n        /* \"#utility.yul\":2950:2979   */\n      tag_308\n      jump\t// in\n    tag_307:\n        /* \"#utility.yul\":2945:2948   */\n      dup5\n        /* \"#utility.yul\":2941:2980   */\n      add\n        /* \"#utility.yul\":2934:2980   */\n      swap2\n      pop\n        /* \"#utility.yul\":2716:2986   */\n      pop\n        /* \"#utility.yul\":2626:2986   */\n      swap3\n      swap2\n      pop\n      pop\n      jump\t// out\n        /* \"#utility.yul\":2992:3208   */\n    tag_309:\n        /* \"#utility.yul\":3120:3201   */\n      tag_311\n        /* \"#utility.yul\":3140:3200   */\n      tag_312\n        /* \"#utility.yul\":3194:3199   */\n      dup3\n        /* \"#utility.yul\":3140:3200   */\n      tag_313\n      jump\t// in\n    tag_312:\n        /* \"#utility.yul\":3120:3201   */\n      tag_314\n      jump\t// in\n    tag_311:\n        /* \"#utility.yul\":3115:3118   */\n      dup3\n        /* \"#utility.yul\":3108:3202   */\n      mstore\n        /* \"#utility.yul\":2992:3208   */\n      pop\n      pop\n      jump\t// out\n        /* \"#utility.yul\":3214:3580   */\n    tag_315:\n        /* \"#utility.yul\":3356:3359   */\n      0x00\n        /* \"#utility.yul\":3377:3444   */\n      tag_317\n        /* \"#utility.yul\":3441:3443   */\n      0x16\n        /* \"#utility.yul\":3436:3439   */\n      dup4\n        /* \"#utility.yul\":3377:3444   */\n      tag_318\n      jump\t// in\n    tag_317:\n        /* \"#utility.yul\":3370:3444   */\n      swap2\n      pop\n        /* \"#utility.yul\":3453:3546   */\n      tag_319\n        /* \"#utility.yul\":3542:3545   */\n      dup3\n        /* \"#utility.yul\":3453:3546   */\n      tag_320\n      jump\t// in\n    tag_319:\n        /* \"#utility.yul\":3571:3573   */\n      0x20\n        /* \"#utility.yul\":3566:3569   */\n      dup3\n        /* \"#utility.yul\":3562:3574   */\n      add\n        /* \"#utility.yul\":3555:3574   */\n      swap1\n      pop\n        /* \"#utility.yul\":3214:3580   */\n      swap2\n      swap1\n      pop\n      jump\t// out\n        /* \"#utility.yul\":3586:3952   */\n    tag_321:\n        /* \"#utility.yul\":3728:3731   */\n      0x00\n        /* \"#utility.yul\":3749:3816   */\n      tag_323\n        /* \"#utility.yul\":3813:3815   */\n      0x23\n        /* \"#utility.yul\":3808:3811   */\n      dup4\n        /* \"#utility.yul\":3749:3816   */\n      tag_318\n      jump\t// in\n    tag_323:\n        /* \"#utility.yul\":3742:3816   */\n      swap2\n      pop\n        /* \"#utility.yul\":3825:3918   */\n      tag_324\n        /* \"#utility.yul\":3914:3917   */\n      dup3\n        /* \"#utility.yul\":3825:3918   */\n      tag_325\n      jump\t// in\n    tag_324:\n        /* \"#utility.yul\":3943:3945   */\n      0x40\n        /* \"#utility.yul\":3938:3941   */\n      dup3\n        /* \"#utility.yul\":3934:3946   */\n      add\n        /* \"#utility.yul\":3927:3946   */\n      swap1\n      pop\n        /* \"#utility.yul\":3586:3952   */\n      swap2\n      swap1\n      pop\n      jump\t// out\n        /* \"#utility.yul\":3958:4324   */\n    tag_326:\n        /* \"#utility.yul\":4100:4103   */\n      0x00\n        /* \"#utility.yul\":4121:4188   */\n      tag_328\n        /* \"#utility.yul\":4185:4187   */\n      0x16\n        /* \"#utility.yul\":4180:4183   */\n      dup4\n        /* \"#utility.yul\":4121:4188   */\n      tag_318\n      jump\t// in\n    tag_328:\n        /* \"#utility.yul\":4114:4188   */\n      swap2\n      pop\n        /* \"#utility.yul\":4197:4290   */\n      tag_329\n        /* \"#utility.yul\":4286:4289   */\n      dup3\n        /* \"#utility.yul\":4197:4290   */\n      tag_330\n      jump\t// in\n    tag_329:\n        /* \"#utility.yul\":4315:4317   */\n      0x20\n        /* \"#utility.yul\":4310:4313   */\n      dup3\n        /* \"#utility.yul\":4306:4318   */\n      add\n        /* \"#utility.yul\":4299:4318   */\n      swap1\n      pop\n        /* \"#utility.yul\":3958:4324   */\n      swap2\n      swap1\n      pop\n      jump\t// out\n        /* \"#utility.yul\":4330:4696   */\n    tag_331:\n        /* \"#utility.yul\":4472:4475   */\n      0x00\n        /* \"#utility.yul\":4493:4560   */\n      tag_333\n        /* \"#utility.yul\":4557:4559   */\n      0x12\n        /* \"#utility.yul\":4552:4555   */\n      dup4\n        /* \"#utility.yul\":4493:4560   */\n      tag_318\n      jump\t// in\n    tag_333:\n        /* \"#utility.yul\":4486:4560   */\n      swap2\n      pop\n        /* \"#utility.yul\":4569:4662   */\n      tag_334\n        /* \"#utility.yul\":4658:4661   */\n      dup3\n        /* \"#utility.yul\":4569:4662   */\n      tag_335\n      jump\t// in\n    tag_334:\n        /* \"#utility.yul\":4687:4689   */\n      0x20\n        /* \"#utility.yul\":4682:4685   */\n      dup3\n        /* \"#utility.yul\":4678:4690   */\n      add\n        /* \"#utility.yul\":4671:4690   */\n      swap1\n      pop\n        /* \"#utility.yul\":4330:4696   */\n      swap2\n      swap1\n      pop\n      jump\t// out\n        /* \"#utility.yul\":4702:5068   */\n    tag_336:\n        /* \"#utility.yul\":4844:4847   */\n      0x00\n        /* \"#utility.yul\":4865:4932   */\n      tag_338\n        /* \"#utility.yul\":4929:4931   */\n      0x17\n        /* \"#utility.yul\":4924:4927   */\n      dup4\n        /* \"#utility.yul\":4865:4932   */\n      tag_318\n      jump\t// in\n    tag_338:\n        /* \"#utility.yul\":4858:4932   */\n      swap2\n      pop\n        /* \"#utility.yul\":4941:5034   */\n      tag_339\n        /* \"#utility.yul\":5030:5033   */\n      dup3\n        /* \"#utility.yul\":4941:5034   */\n      tag_340\n      jump\t// in\n    tag_339:\n        /* \"#utility.yul\":5059:5061   */\n      0x20\n        /* \"#utility.yul\":5054:5057   */\n      dup3\n        /* \"#utility.yul\":5050:5062   */\n      add\n        /* \"#utility.yul\":5043:5062   */\n      swap1\n      pop\n        /* \"#utility.yul\":4702:5068   */\n      swap2\n      swap1\n      pop\n      jump\t// out\n        /* \"#utility.yul\":5074:5440   */\n    tag_341:\n        /* \"#utility.yul\":5216:5219   */\n      0x00\n        /* \"#utility.yul\":5237:5304   */\n      tag_343\n        /* \"#utility.yul\":5301:5303   */\n      0x28\n        /* \"#utility.yul\":5296:5299   */\n      dup4\n        /* \"#utility.yul\":5237:5304   */\n      tag_318\n      jump\t// in\n    tag_343:\n        /* \"#utility.yul\":5230:5304   */\n      swap2\n      pop\n        /* \"#utility.yul\":5313:5406   */\n      tag_344\n        /* \"#utility.yul\":5402:5405   */\n      dup3\n        /* \"#utility.yul\":5313:5406   */\n      tag_345\n      jump\t// in\n    tag_344:\n        /* \"#utility.yul\":5431:5433   */\n      0x40\n        /* \"#utility.yul\":5426:5429   */\n      dup3\n        /* \"#utility.yul\":5422:5434   */\n      add\n        /* \"#utility.yul\":5415:5434   */\n      swap1\n      pop\n        /* \"#utility.yul\":5074:5440   */\n      swap2\n      swap1\n      pop\n      jump\t// out\n        /* \"#utility.yul\":5446:5564   */\n    tag_346:\n        /* \"#utility.yul\":5533:5557   */\n      tag_348\n        /* \"#utility.yul\":5551:5556   */\n      dup2\n        /* \"#utility.yul\":5533:5557   */\n      tag_349\n      jump\t// in\n    tag_348:\n        /* \"#utility.yul\":5528:5531   */\n      dup3\n        /* \"#utility.yul\":5521:5558   */\n      mstore\n        /* \"#utility.yul\":5446:5564   */\n      pop\n      pop\n      jump\t// out\n        /* \"#utility.yul\":5570:5727   */\n    tag_350:\n        /* \"#utility.yul\":5675:5720   */\n      tag_352\n        /* \"#utility.yul\":5695:5719   */\n      tag_353\n        /* \"#utility.yul\":5713:5718   */\n      dup3\n        /* \"#utility.yul\":5695:5719   */\n      tag_349\n      jump\t// in\n    tag_353:\n        /* \"#utility.yul\":5675:5720   */\n      tag_354\n      jump\t// in\n    tag_352:\n        /* \"#utility.yul\":5670:5673   */\n      dup3\n        /* \"#utility.yul\":5663:5721   */\n      mstore\n        /* \"#utility.yul\":5570:5727   */\n      pop\n      pop\n      jump\t// out\n        /* \"#utility.yul\":5733:6176   */\n    tag_186:\n        /* \"#utility.yul\":5896:5899   */\n      0x00\n        /* \"#utility.yul\":5911:6009   */\n      tag_356\n        /* \"#utility.yul\":6005:6008   */\n      dup3\n        /* \"#utility.yul\":5996:6002   */\n      dup6\n        /* \"#utility.yul\":5911:6009   */\n      tag_309\n      jump\t// in\n    tag_356:\n        /* \"#utility.yul\":6034:6036   */\n      0x14\n        /* \"#utility.yul\":6029:6032   */\n      dup3\n        /* \"#utility.yul\":6025:6037   */\n      add\n        /* \"#utility.yul\":6018:6037   */\n      swap2\n      pop\n        /* \"#utility.yul\":6047:6122   */\n      tag_357\n        /* \"#utility.yul\":6118:6121   */\n      dup3\n        /* \"#utility.yul\":6109:6115   */\n      dup5\n        /* \"#utility.yul\":6047:6122   */\n      tag_350\n      jump\t// in\n    tag_357:\n        /* \"#utility.yul\":6147:6149   */\n      0x20\n        /* \"#utility.yul\":6142:6145   */\n      dup3\n        /* \"#utility.yul\":6138:6150   */\n      add\n        /* \"#utility.yul\":6131:6150   */\n      swap2\n      pop\n        /* \"#utility.yul\":6167:6170   */\n      dup2\n        /* \"#utility.yul\":6160:6170   */\n      swap1\n      pop\n        /* \"#utility.yul\":5733:6176   */\n      swap4\n      swap3\n      pop\n      pop\n      pop\n      jump\t// out\n        /* \"#utility.yul\":6182:6404   */\n    tag_24:\n        /* \"#utility.yul\":6275:6279   */\n      0x00\n        /* \"#utility.yul\":6313:6315   */\n      0x20\n        /* \"#utility.yul\":6302:6311   */\n      dup3\n        /* \"#utility.yul\":6298:6316   */\n      add\n        /* \"#utility.yul\":6290:6316   */\n      swap1\n      pop\n        /* \"#utility.yul\":6326:6397   */\n      tag_359\n        /* \"#utility.yul\":6394:6395   */\n      0x00\n        /* \"#utility.yul\":6383:6392   */\n      dup4\n        /* \"#utility.yul\":6379:6396   */\n      add\n        /* \"#utility.yul\":6370:6376   */\n      dup5\n        /* \"#utility.yul\":6326:6397   */\n      tag_287\n      jump\t// in\n    tag_359:\n        /* \"#utility.yul\":6182:6404   */\n      swap3\n      swap2\n      pop\n      pop\n      jump\t// out\n        /* \"#utility.yul\":6410:6742   */\n    tag_69:\n        /* \"#utility.yul\":6531:6535   */\n      0x00\n        /* \"#utility.yul\":6569:6571   */\n      0x40\n        /* \"#utility.yul\":6558:6567   */\n      dup3\n        /* \"#utility.yul\":6554:6572   */\n      add\n        /* \"#utility.yul\":6546:6572   */\n      swap1\n      pop\n        /* \"#utility.yul\":6582:6653   */\n      tag_361\n        /* \"#utility.yul\":6650:6651   */\n      0x00\n        /* \"#utility.yul\":6639:6648   */\n      dup4\n        /* \"#utility.yul\":6635:6652   */\n      add\n        /* \"#utility.yul\":6626:6632   */\n      dup6\n        /* \"#utility.yul\":6582:6653   */\n      tag_287\n      jump\t// in\n    tag_361:\n        /* \"#utility.yul\":6663:6735   */\n      tag_362\n        /* \"#utility.yul\":6731:6733   */\n      0x20\n        /* \"#utility.yul\":6720:6729   */\n      dup4\n        /* \"#utility.yul\":6716:6734   */\n      add\n        /* \"#utility.yul\":6707:6713   */\n      dup5\n        /* \"#utility.yul\":6663:6735   */\n      tag_346\n      jump\t// in\n    tag_362:\n        /* \"#utility.yul\":6410:6742   */\n      swap4\n      swap3\n      pop\n      pop\n      pop\n      jump\t// out\n        /* \"#utility.yul\":6748:7828   */\n    tag_137:\n        /* \"#utility.yul\":7053:7057   */\n      0x00\n        /* \"#utility.yul\":7091:7094   */\n      0x0100\n        /* \"#utility.yul\":7080:7089   */\n      dup3\n        /* \"#utility.yul\":7076:7095   */\n      add\n        /* \"#utility.yul\":7068:7095   */\n      swap1\n      pop\n        /* \"#utility.yul\":7105:7176   */\n      tag_364\n        /* \"#utility.yul\":7173:7174   */\n      0x00\n        /* \"#utility.yul\":7162:7171   */\n      dup4\n        /* \"#utility.yul\":7158:7175   */\n      add\n        /* \"#utility.yul\":7149:7155   */\n      dup12\n        /* \"#utility.yul\":7105:7176   */\n      tag_287\n      jump\t// in\n    tag_364:\n        /* \"#utility.yul\":7186:7258   */\n      tag_365\n        /* \"#utility.yul\":7254:7256   */\n      0x20\n        /* \"#utility.yul\":7243:7252   */\n      dup4\n        /* \"#utility.yul\":7239:7257   */\n      add\n        /* \"#utility.yul\":7230:7236   */\n      dup11\n        /* \"#utility.yul\":7186:7258   */\n      tag_346\n      jump\t// in\n    tag_365:\n        /* \"#utility.yul\":7268:7340   */\n      tag_366\n        /* \"#utility.yul\":7336:7338   */\n      0x40\n        /* \"#utility.yul\":7325:7334   */\n      dup4\n        /* \"#utility.yul\":7321:7339   */\n      add\n        /* \"#utility.yul\":7312:7318   */\n      dup10\n        /* \"#utility.yul\":7268:7340   */\n      tag_291\n      jump\t// in\n    tag_366:\n        /* \"#utility.yul\":7350:7422   */\n      tag_367\n        /* \"#utility.yul\":7418:7420   */\n      0x60\n        /* \"#utility.yul\":7407:7416   */\n      dup4\n        /* \"#utility.yul\":7403:7421   */\n      add\n        /* \"#utility.yul\":7394:7400   */\n      dup9\n        /* \"#utility.yul\":7350:7422   */\n      tag_287\n      jump\t// in\n    tag_367:\n        /* \"#utility.yul\":7432:7503   */\n      tag_368\n        /* \"#utility.yul\":7498:7501   */\n      0x80\n        /* \"#utility.yul\":7487:7496   */\n      dup4\n        /* \"#utility.yul\":7483:7502   */\n      add\n        /* \"#utility.yul\":7474:7480   */\n      dup8\n        /* \"#utility.yul\":7432:7503   */\n      tag_295\n      jump\t// in\n    tag_368:\n        /* \"#utility.yul\":7513:7586   */\n      tag_369\n        /* \"#utility.yul\":7581:7584   */\n      0xa0\n        /* \"#utility.yul\":7570:7579   */\n      dup4\n        /* \"#utility.yul\":7566:7585   */\n      add\n        /* \"#utility.yul\":7557:7563   */\n      dup7\n        /* \"#utility.yul\":7513:7586   */\n      tag_346\n      jump\t// in\n    tag_369:\n        /* \"#utility.yul\":7596:7669   */\n      tag_370\n        /* \"#utility.yul\":7664:7667   */\n      0xc0\n        /* \"#utility.yul\":7653:7662   */\n      dup4\n        /* \"#utility.yul\":7649:7668   */\n      add\n        /* \"#utility.yul\":7640:7646   */\n      dup6\n        /* \"#utility.yul\":7596:7669   */\n      tag_346\n      jump\t// in\n    tag_370:\n        /* \"#utility.yul\":7717:7726   */\n      dup2\n        /* \"#utility.yul\":7711:7715   */\n      dup2\n        /* \"#utility.yul\":7707:7727   */\n      sub\n        /* \"#utility.yul\":7701:7704   */\n      0xe0\n        /* \"#utility.yul\":7690:7699   */\n      dup4\n        /* \"#utility.yul\":7686:7705   */\n      add\n        /* \"#utility.yul\":7679:7728   */\n      mstore\n        /* \"#utility.yul\":7745:7821   */\n      tag_371\n        /* \"#utility.yul\":7816:7820   */\n      dup2\n        /* \"#utility.yul\":7807:7813   */\n      dup5\n        /* \"#utility.yul\":7745:7821   */\n      tag_299\n      jump\t// in\n    tag_371:\n        /* \"#utility.yul\":7737:7821   */\n      swap1\n      pop\n        /* \"#utility.yul\":6748:7828   */\n      swap10\n      swap9\n      pop\n      pop\n      pop\n      pop\n      pop\n      pop\n      pop\n      pop\n      pop\n      jump\t// out\n        /* \"#utility.yul\":7834:8363   */\n    tag_188:\n        /* \"#utility.yul\":8001:8005   */\n      0x00\n        /* \"#utility.yul\":8039:8041   */\n      0x60\n        /* \"#utility.yul\":8028:8037   */\n      dup3\n        /* \"#utility.yul\":8024:8042   */\n      add\n        /* \"#utility.yul\":8016:8042   */\n      swap1\n      pop\n        /* \"#utility.yul\":8052:8123   */\n      tag_373\n        /* \"#utility.yul\":8120:8121   */\n      0x00\n        /* \"#utility.yul\":8109:8118   */\n      dup4\n        /* \"#utility.yul\":8105:8122   */\n      add\n        /* \"#utility.yul\":8096:8102   */\n      dup7\n        /* \"#utility.yul\":8052:8123   */\n      tag_287\n      jump\t// in\n    tag_373:\n        /* \"#utility.yul\":8133:8205   */\n      tag_374\n        /* \"#utility.yul\":8201:8203   */\n      0x20\n        /* \"#utility.yul\":8190:8199   */\n      dup4\n        /* \"#utility.yul\":8186:8204   */\n      add\n        /* \"#utility.yul\":8177:8183   */\n      dup6\n        /* \"#utility.yul\":8133:8205   */\n      tag_346\n      jump\t// in\n    tag_374:\n        /* \"#utility.yul\":8252:8261   */\n      dup2\n        /* \"#utility.yul\":8246:8250   */\n      dup2\n        /* \"#utility.yul\":8242:8262   */\n      sub\n        /* \"#utility.yul\":8237:8239   */\n      0x40\n        /* \"#utility.yul\":8226:8235   */\n      dup4\n        /* \"#utility.yul\":8222:8240   */\n      add\n        /* \"#utility.yul\":8215:8263   */\n      mstore\n        /* \"#utility.yul\":8280:8356   */\n      tag_375\n        /* \"#utility.yul\":8351:8355   */\n      dup2\n        /* \"#utility.yul\":8342:8348   */\n      dup5\n        /* \"#utility.yul\":8280:8356   */\n      tag_299\n      jump\t// in\n    tag_375:\n        /* \"#utility.yul\":8272:8356   */\n      swap1\n      pop\n        /* \"#utility.yul\":7834:8363   */\n      swap5\n      swap4\n      pop\n      pop\n      pop\n      pop\n      jump\t// out\n        /* \"#utility.yul\":8369:8591   */\n    tag_18:\n        /* \"#utility.yul\":8462:8466   */\n      0x00\n        /* \"#utility.yul\":8500:8502   */\n      0x20\n        /* \"#utility.yul\":8489:8498   */\n      dup3\n        /* \"#utility.yul\":8485:8503   */\n      add\n        /* \"#utility.yul\":8477:8503   */\n      swap1\n      pop\n        /* \"#utility.yul\":8513:8584   */\n      tag_377\n        /* \"#utility.yul\":8581:8582   */\n      0x00\n        /* \"#utility.yul\":8570:8579   */\n      dup4\n        /* \"#utility.yul\":8566:8583   */\n      add\n        /* \"#utility.yul\":8557:8563   */\n      dup5\n        /* \"#utility.yul\":8513:8584   */\n      tag_291\n      jump\t// in\n    tag_377:\n        /* \"#utility.yul\":8369:8591   */\n      swap3\n      swap2\n      pop\n      pop\n      jump\t// out\n        /* \"#utility.yul\":8597:9016   */\n    tag_54:\n        /* \"#utility.yul\":8763:8767   */\n      0x00\n        /* \"#utility.yul\":8801:8803   */\n      0x20\n        /* \"#utility.yul\":8790:8799   */\n      dup3\n        /* \"#utility.yul\":8786:8804   */\n      add\n        /* \"#utility.yul\":8778:8804   */\n      swap1\n      pop\n        /* \"#utility.yul\":8850:8859   */\n      dup2\n        /* \"#utility.yul\":8844:8848   */\n      dup2\n        /* \"#utility.yul\":8840:8860   */\n      sub\n        /* \"#utility.yul\":8836:8837   */\n      0x00\n        /* \"#utility.yul\":8825:8834   */\n      dup4\n        /* \"#utility.yul\":8821:8838   */\n      add\n        /* \"#utility.yul\":8814:8861   */\n      mstore\n        /* \"#utility.yul\":8878:9009   */\n      tag_379\n        /* \"#utility.yul\":9004:9008   */\n      dup2\n        /* \"#utility.yul\":8878:9009   */\n      tag_315\n      jump\t// in\n    tag_379:\n        /* \"#utility.yul\":8870:9009   */\n      swap1\n      pop\n        /* \"#utility.yul\":8597:9016   */\n      swap2\n      swap1\n      pop\n      jump\t// out\n        /* \"#utility.yul\":9022:9441   */\n    tag_195:\n        /* \"#utility.yul\":9188:9192   */\n      0x00\n        /* \"#utility.yul\":9226:9228   */\n      0x20\n        /* \"#utility.yul\":9215:9224   */\n      dup3\n        /* \"#utility.yul\":9211:9229   */\n      add\n        /* \"#utility.yul\":9203:9229   */\n      swap1\n      pop\n        /* \"#utility.yul\":9275:9284   */\n      dup2\n        /* \"#utility.yul\":9269:9273   */\n      dup2\n        /* \"#utility.yul\":9265:9285   */\n      sub\n        /* \"#utility.yul\":9261:9262   */\n      0x00\n        /* \"#utility.yul\":9250:9259   */\n      dup4\n        /* \"#utility.yul\":9246:9263   */\n      add\n        /* \"#utility.yul\":9239:9286   */\n      mstore\n        /* \"#utility.yul\":9303:9434   */\n      tag_381\n        /* \"#utility.yul\":9429:9433   */\n      dup2\n        /* \"#utility.yul\":9303:9434   */\n      tag_321\n      jump\t// in\n    tag_381:\n        /* \"#utility.yul\":9295:9434   */\n      swap1\n      pop\n        /* \"#utility.yul\":9022:9441   */\n      swap2\n      swap1\n      pop\n      jump\t// out\n        /* \"#utility.yul\":9447:9866   */\n    tag_103:\n        /* \"#utility.yul\":9613:9617   */\n      0x00\n        /* \"#utility.yul\":9651:9653   */\n      0x20\n        /* \"#utility.yul\":9640:9649   */\n      dup3\n        /* \"#utility.yul\":9636:9654   */\n      add\n        /* \"#utility.yul\":9628:9654   */\n      swap1\n      pop\n        /* \"#utility.yul\":9700:9709   */\n      dup2\n        /* \"#utility.yul\":9694:9698   */\n      dup2\n        /* \"#utility.yul\":9690:9710   */\n      sub\n        /* \"#utility.yul\":9686:9687   */\n      0x00\n        /* \"#utility.yul\":9675:9684   */\n      dup4\n        /* \"#utility.yul\":9671:9688   */\n      add\n        /* \"#utility.yul\":9664:9711   */\n      mstore\n        /* \"#utility.yul\":9728:9859   */\n      tag_383\n        /* \"#utility.yul\":9854:9858   */\n      dup2\n        /* \"#utility.yul\":9728:9859   */\n      tag_326\n      jump\t// in\n    tag_383:\n        /* \"#utility.yul\":9720:9859   */\n      swap1\n      pop\n        /* \"#utility.yul\":9447:9866   */\n      swap2\n      swap1\n      pop\n      jump\t// out\n        /* \"#utility.yul\":9872:10291   */\n    tag_77:\n        /* \"#utility.yul\":10038:10042   */\n      0x00\n        /* \"#utility.yul\":10076:10078   */\n      0x20\n        /* \"#utility.yul\":10065:10074   */\n      dup3\n        /* \"#utility.yul\":10061:10079   */\n      add\n        /* \"#utility.yul\":10053:10079   */\n      swap1\n      pop\n        /* \"#utility.yul\":10125:10134   */\n      dup2\n        /* \"#utility.yul\":10119:10123   */\n      dup2\n        /* \"#utility.yul\":10115:10135   */\n      sub\n        /* \"#utility.yul\":10111:10112   */\n      0x00\n        /* \"#utility.yul\":10100:10109   */\n      dup4\n        /* \"#utility.yul\":10096:10113   */\n      add\n        /* \"#utility.yul\":10089:10136   */\n      mstore\n        /* \"#utility.yul\":10153:10284   */\n      tag_385\n        /* \"#utility.yul\":10279:10283   */\n      dup2\n        /* \"#utility.yul\":10153:10284   */\n      tag_331\n      jump\t// in\n    tag_385:\n        /* \"#utility.yul\":10145:10284   */\n      swap1\n      pop\n        /* \"#utility.yul\":9872:10291   */\n      swap2\n      swap1\n      pop\n      jump\t// out\n        /* \"#utility.yul\":10297:10716   */\n    tag_108:\n        /* \"#utility.yul\":10463:10467   */\n      0x00\n        /* \"#utility.yul\":10501:10503   */\n      0x20\n        /* \"#utility.yul\":10490:10499   */\n      dup3\n        /* \"#utility.yul\":10486:10504   */\n      add\n        /* \"#utility.yul\":10478:10504   */\n      swap1\n      pop\n        /* \"#utility.yul\":10550:10559   */\n      dup2\n        /* \"#utility.yul\":10544:10548   */\n      dup2\n        /* \"#utility.yul\":10540:10560   */\n      sub\n        /* \"#utility.yul\":10536:10537   */\n      0x00\n        /* \"#utility.yul\":10525:10534   */\n      dup4\n        /* \"#utility.yul\":10521:10538   */\n      add\n        /* \"#utility.yul\":10514:10561   */\n      mstore\n        /* \"#utility.yul\":10578:10709   */\n      tag_387\n        /* \"#utility.yul\":10704:10708   */\n      dup2\n        /* \"#utility.yul\":10578:10709   */\n      tag_336\n      jump\t// in\n    tag_387:\n        /* \"#utility.yul\":10570:10709   */\n      swap1\n      pop\n        /* \"#utility.yul\":10297:10716   */\n      swap2\n      swap1\n      pop\n      jump\t// out\n        /* \"#utility.yul\":10722:11141   */\n    tag_38:\n        /* \"#utility.yul\":10888:10892   */\n      0x00\n        /* \"#utility.yul\":10926:10928   */\n      0x20\n        /* \"#utility.yul\":10915:10924   */\n      dup3\n        /* \"#utility.yul\":10911:10929   */\n      add\n        /* \"#utility.yul\":10903:10929   */\n      swap1\n      pop\n        /* \"#utility.yul\":10975:10984   */\n      dup2\n        /* \"#utility.yul\":10969:10973   */\n      dup2\n        /* \"#utility.yul\":10965:10985   */\n      sub\n        /* \"#utility.yul\":10961:10962   */\n      0x00\n        /* \"#utility.yul\":10950:10959   */\n      dup4\n        /* \"#utility.yul\":10946:10963   */\n      add\n        /* \"#utility.yul\":10939:10986   */\n      mstore\n        /* \"#utility.yul\":11003:11134   */\n      tag_389\n        /* \"#utility.yul\":11129:11133   */\n      dup2\n        /* \"#utility.yul\":11003:11134   */\n      tag_341\n      jump\t// in\n    tag_389:\n        /* \"#utility.yul\":10995:11134   */\n      swap1\n      pop\n        /* \"#utility.yul\":10722:11141   */\n      swap2\n      swap1\n      pop\n      jump\t// out\n        /* \"#utility.yul\":11147:11369   */\n    tag_30:\n        /* \"#utility.yul\":11240:11244   */\n      0x00\n        /* \"#utility.yul\":11278:11280   */\n      0x20\n        /* \"#utility.yul\":11267:11276   */\n      dup3\n        /* \"#utility.yul\":11263:11281   */\n      add\n        /* \"#utility.yul\":11255:11281   */\n      swap1\n      pop\n        /* \"#utility.yul\":11291:11362   */\n      tag_391\n        /* \"#utility.yul\":11359:11360   */\n      0x00\n        /* \"#utility.yul\":11348:11357   */\n      dup4\n        /* \"#utility.yul\":11344:11361   */\n      add\n        /* \"#utility.yul\":11335:11341   */\n      dup5\n        /* \"#utility.yul\":11291:11362   */\n      tag_346\n      jump\t// in\n    tag_391:\n        /* \"#utility.yul\":11147:11369   */\n      swap3\n      swap2\n      pop\n      pop\n      jump\t// out\n        /* \"#utility.yul\":11456:11554   */\n    tag_302:\n        /* \"#utility.yul\":11507:11513   */\n      0x00\n        /* \"#utility.yul\":11541:11546   */\n      dup2\n        /* \"#utility.yul\":11535:11547   */\n      mload\n        /* \"#utility.yul\":11525:11547   */\n      swap1\n      pop\n        /* \"#utility.yul\":11456:11554   */\n      swap2\n      swap1\n      pop\n      jump\t// out\n        /* \"#utility.yul\":11560:11728   */\n    tag_304:\n        /* \"#utility.yul\":11643:11654   */\n      0x00\n        /* \"#utility.yul\":11677:11683   */\n      dup3\n        /* \"#utility.yul\":11672:11675   */\n      dup3\n        /* \"#utility.yul\":11665:11684   */\n      mstore\n        /* \"#utility.yul\":11717:11721   */\n      0x20\n        /* \"#utility.yul\":11712:11715   */\n      dup3\n        /* \"#utility.yul\":11708:11722   */\n      add\n        /* \"#utility.yul\":11693:11722   */\n      swap1\n      pop\n        /* \"#utility.yul\":11560:11728   */\n      swap3\n      swap2\n      pop\n      pop\n      jump\t// out\n        /* \"#utility.yul\":11734:11903   */\n    tag_318:\n        /* \"#utility.yul\":11818:11829   */\n      0x00\n        /* \"#utility.yul\":11852:11858   */\n      dup3\n        /* \"#utility.yul\":11847:11850   */\n      dup3\n        /* \"#utility.yul\":11840:11859   */\n      mstore\n        /* \"#utility.yul\":11892:11896   */\n      0x20\n        /* \"#utility.yul\":11887:11890   */\n      dup3\n        /* \"#utility.yul\":11883:11897   */\n      add\n        /* \"#utility.yul\":11868:11897   */\n      swap1\n      pop\n        /* \"#utility.yul\":11734:11903   */\n      swap3\n      swap2\n      pop\n      pop\n      jump\t// out\n        /* \"#utility.yul\":11909:12214   */\n    tag_135:\n        /* \"#utility.yul\":11949:11952   */\n      0x00\n        /* \"#utility.yul\":11968:11988   */\n      tag_398\n        /* \"#utility.yul\":11986:11987   */\n      dup3\n        /* \"#utility.yul\":11968:11988   */\n      tag_349\n      jump\t// in\n    tag_398:\n        /* \"#utility.yul\":11963:11988   */\n      swap2\n      pop\n        /* \"#utility.yul\":12002:12022   */\n      tag_399\n        /* \"#utility.yul\":12020:12021   */\n      dup4\n        /* \"#utility.yul\":12002:12022   */\n      tag_349\n      jump\t// in\n    tag_399:\n        /* \"#utility.yul\":11997:12022   */\n      swap3\n      pop\n        /* \"#utility.yul\":12156:12157   */\n      dup3\n        /* \"#utility.yul\":12088:12154   */\n      0xffffffffffffffffffffffffffffffffffffffffffffffffffffffffffffffff\n        /* \"#utility.yul\":12084:12158   */\n      sub\n        /* \"#utility.yul\":12081:12082   */\n      dup3\n        /* \"#utility.yul\":12078:12159   */\n      gt\n        /* \"#utility.yul\":12075:12182   */\n      iszero\n      tag_400\n      jumpi\n        /* \"#utility.yul\":12162:12180   */\n      tag_401\n      tag_402\n      jump\t// in\n    tag_401:\n        /* \"#utility.yul\":12075:12182   */\n    tag_400:\n        /* \"#utility.yul\":12206:12207   */\n      dup3\n        /* \"#utility.yul\":12203:12204   */\n      dup3\n        /* \"#utility.yul\":12199:12208   */\n      add\n        /* \"#utility.yul\":12192:12208   */\n      swap1\n      pop\n        /* \"#utility.yul\":11909:12214   */\n      swap3\n      swap2\n      pop\n      pop\n      jump\t// out\n        /* \"#utility.yul\":12220:13068   */\n    tag_403:\n        /* \"#utility.yul\":12281:12286   */\n      0x00\n        /* \"#utility.yul\":12288:12292   */\n      dup1\n        /* \"#utility.yul\":12312:12318   */\n      dup3\n        /* \"#utility.yul\":12303:12318   */\n      swap2\n      pop\n        /* \"#utility.yul\":12336:12341   */\n      dup4\n        /* \"#utility.yul\":12327:12341   */\n      swap1\n      pop\n        /* \"#utility.yul\":12350:13062   */\n    tag_405:\n        /* \"#utility.yul\":12371:12372   */\n      0x01\n        /* \"#utility.yul\":12361:12369   */\n      dup6\n        /* \"#utility.yul\":12358:12373   */\n      gt\n        /* \"#utility.yul\":12350:13062   */\n      iszero\n      tag_407\n      jumpi\n        /* \"#utility.yul\":12466:12470   */\n      dup1\n        /* \"#utility.yul\":12461:12464   */\n      dup7\n        /* \"#utility.yul\":12457:12471   */\n      div\n        /* \"#utility.yul\":12451:12455   */\n      dup2\n        /* \"#utility.yul\":12448:12472   */\n      gt\n        /* \"#utility.yul\":12445:12495   */\n      iszero\n      tag_408\n      jumpi\n        /* \"#utility.yul\":12475:12493   */\n      tag_409\n      tag_402\n      jump\t// in\n    tag_409:\n        /* \"#utility.yul\":12445:12495   */\n    tag_408:\n        /* \"#utility.yul\":12525:12526   */\n      0x01\n        /* \"#utility.yul\":12515:12523   */\n      dup6\n        /* \"#utility.yul\":12511:12527   */\n      and\n        /* \"#utility.yul\":12508:12959   */\n      iszero\n      tag_410\n      jumpi\n        /* \"#utility.yul\":12940:12944   */\n      dup1\n        /* \"#utility.yul\":12933:12938   */\n      dup3\n        /* \"#utility.yul\":12929:12945   */\n      mul\n        /* \"#utility.yul\":12920:12945   */\n      swap2\n      pop\n        /* \"#utility.yul\":12508:12959   */\n    tag_410:\n        /* \"#utility.yul\":12990:12994   */\n      dup1\n        /* \"#utility.yul\":12984:12988   */\n      dup2\n        /* \"#utility.yul\":12980:12995   */\n      mul\n        /* \"#utility.yul\":12972:12995   */\n      swap1\n      pop\n        /* \"#utility.yul\":13020:13052   */\n      tag_411\n        /* \"#utility.yul\":13043:13051   */\n      dup6\n        /* \"#utility.yul\":13020:13052   */\n      tag_412\n      jump\t// in\n    tag_411:\n        /* \"#utility.yul\":13008:13052   */\n      swap5\n      pop\n        /* \"#utility.yul\":12350:13062   */\n      jump(tag_405)\n    tag_407:\n        /* \"#utility.yul\":12220:13068   */\n      swap5\n      pop\n      swap5\n      swap3\n      pop\n      pop\n      pop\n      jump\t// out\n        /* \"#utility.yul\":13074:13359   */\n    tag_240:\n        /* \"#utility.yul\":13134:13139   */\n      0x00\n        /* \"#utility.yul\":13158:13181   */\n      tag_414\n        /* \"#utility.yul\":13176:13180   */\n      dup3\n        /* \"#utility.yul\":13158:13181   */\n      tag_349\n      jump\t// in\n    tag_414:\n        /* \"#utility.yul\":13150:13181   */\n      swap2\n      pop\n        /* \"#utility.yul\":13202:13229   */\n      tag_415\n        /* \"#utility.yul\":13220:13228   */\n      dup4\n        /* \"#utility.yul\":13202:13229   */\n      tag_349\n      jump\t// in\n    tag_415:\n        /* \"#utility.yul\":13190:13229   */\n      swap3\n      pop\n        /* \"#utility.yul\":13248:13352   */\n      tag_416\n        /* \"#utility.yul\":13285:13351   */\n      0xffffffffffffffffffffffffffffffffffffffffffffffffffffffffffffffff\n        /* \"#utility.yul\":13275:13283   */\n      dup5\n        /* \"#utility.yul\":13269:13273   */\n      dup5\n        /* \"#utility.yul\":13248:13352   */\n      tag_417\n      jump\t// in\n    tag_416:\n        /* \"#utility.yul\":13239:13352   */\n      swap1\n      pop\n        /* \"#utility.yul\":13074:13359   */\n      swap3\n      swap2\n      pop\n      pop\n      jump\t// out\n        /* \"#utility.yul\":13365:14438   */\n    tag_417:\n        /* \"#utility.yul\":13419:13424   */\n      0x00\n        /* \"#utility.yul\":13610:13618   */\n      dup3\n        /* \"#utility.yul\":13600:13640   */\n      tag_419\n      jumpi\n        /* \"#utility.yul\":13631:13632   */\n      0x01\n        /* \"#utility.yul\":13622:13632   */\n      swap1\n      pop\n        /* \"#utility.yul\":13633:13638   */\n      jump(tag_418)\n        /* \"#utility.yul\":13600:13640   */\n    tag_419:\n        /* \"#utility.yul\":13659:13663   */\n      dup2\n        /* \"#utility.yul\":13649:13685   */\n      tag_420\n      jumpi\n        /* \"#utility.yul\":13676:13677   */\n      0x00\n        /* \"#utility.yul\":13667:13677   */\n      swap1\n      pop\n        /* \"#utility.yul\":13678:13683   */\n      jump(tag_418)\n        /* \"#utility.yul\":13649:13685   */\n    tag_420:\n        /* \"#utility.yul\":13745:13749   */\n      dup2\n        /* \"#utility.yul\":13793:13794   */\n      0x01\n        /* \"#utility.yul\":13788:13815   */\n      dup2\n      eq\n      tag_422\n      jumpi\n        /* \"#utility.yul\":13829:13830   */\n      0x02\n        /* \"#utility.yul\":13824:14015   */\n      dup2\n      eq\n      tag_423\n      jumpi\n        /* \"#utility.yul\":13738:14015   */\n      jump(tag_421)\n        /* \"#utility.yul\":13788:13815   */\n    tag_422:\n        /* \"#utility.yul\":13806:13807   */\n      0x01\n        /* \"#utility.yul\":13797:13807   */\n      swap2\n      pop\n        /* \"#utility.yul\":13808:13813   */\n      pop\n      jump(tag_418)\n        /* \"#utility.yul\":13824:14015   */\n    tag_423:\n        /* \"#utility.yul\":13869:13872   */\n      0xff\n        /* \"#utility.yul\":13859:13867   */\n      dup5\n        /* \"#utility.yul\":13856:13873   */\n      gt\n        /* \"#utility.yul\":13853:13896   */\n      iszero\n      tag_424\n      jumpi\n        /* \"#utility.yul\":13876:13894   */\n      tag_425\n      tag_402\n      jump\t// in\n    tag_425:\n        /* \"#utility.yul\":13853:13896   */\n    tag_424:\n        /* \"#utility.yul\":13925:13933   */\n      dup4\n        /* \"#utility.yul\":13922:13923   */\n      0x02\n        /* \"#utility.yul\":13918:13934   */\n      exp\n        /* \"#utility.yul\":13909:13934   */\n      swap2\n      pop\n        /* \"#utility.yul\":13960:13963   */\n      dup5\n        /* \"#utility.yul\":13953:13958   */\n      dup3\n        /* \"#utility.yul\":13950:13964   */\n      gt\n        /* \"#utility.yul\":13947:13987   */\n      iszero\n      tag_426\n      jumpi\n        /* \"#utility.yul\":13967:13985   */\n      tag_427\n      tag_402\n      jump\t// in\n    tag_427:\n        /* \"#utility.yul\":13947:13987   */\n    tag_426:\n        /* \"#utility.yul\":14000:14005   */\n      pop\n      jump(tag_418)\n        /* \"#utility.yul\":13738:14015   */\n    tag_421:\n      pop\n        /* \"#utility.yul\":14124:14126   */\n      0x20\n        /* \"#utility.yul\":14114:14122   */\n      dup4\n        /* \"#utility.yul\":14111:14127   */\n      lt\n        /* \"#utility.yul\":14105:14108   */\n      0x0133\n        /* \"#utility.yul\":14099:14103   */\n      dup4\n        /* \"#utility.yul\":14096:14109   */\n      lt\n        /* \"#utility.yul\":14092:14128   */\n      and\n        /* \"#utility.yul\":14074:14076   */\n      0x4e\n        /* \"#utility.yul\":14064:14072   */\n      dup5\n        /* \"#utility.yul\":14061:14077   */\n      lt\n        /* \"#utility.yul\":14056:14058   */\n      0x0b\n        /* \"#utility.yul\":14050:14054   */\n      dup5\n        /* \"#utility.yul\":14047:14059   */\n      lt\n        /* \"#utility.yul\":14043:14078   */\n      and\n        /* \"#utility.yul\":14027:14138   */\n      or\n        /* \"#utility.yul\":14024:14270   */\n      iszero\n      tag_428\n      jumpi\n        /* \"#utility.yul\":14180:14188   */\n      dup3\n        /* \"#utility.yul\":14174:14178   */\n      dup3\n        /* \"#utility.yul\":14170:14189   */\n      exp\n        /* \"#utility.yul\":14161:14189   */\n      swap1\n      pop\n        /* \"#utility.yul\":14215:14218   */\n      dup4\n        /* \"#utility.yul\":14208:14213   */\n      dup2\n        /* \"#utility.yul\":14205:14219   */\n      gt\n        /* \"#utility.yul\":14202:14242   */\n      iszero\n      tag_429\n      jumpi\n        /* \"#utility.yul\":14222:14240   */\n      tag_430\n      tag_402\n      jump\t// in\n    tag_430:\n        /* \"#utility.yul\":14202:14242   */\n    tag_429:\n        /* \"#utility.yul\":14255:14260   */\n      jump(tag_418)\n        /* \"#utility.yul\":14024:14270   */\n    tag_428:\n        /* \"#utility.yul\":14295:14337   */\n      tag_431\n        /* \"#utility.yul\":14333:14336   */\n      dup5\n        /* \"#utility.yul\":14323:14331   */\n      dup5\n        /* \"#utility.yul\":14317:14321   */\n      dup5\n        /* \"#utility.yul\":14314:14315   */\n      0x01\n        /* \"#utility.yul\":14295:14337   */\n      tag_403\n      jump\t// in\n    tag_431:\n        /* \"#utility.yul\":14280:14337   */\n      swap3\n      pop\n      swap1\n      pop\n        /* \"#utility.yul\":14369:14373   */\n      dup2\n        /* \"#utility.yul\":14364:14367   */\n      dup5\n        /* \"#utility.yul\":14360:14374   */\n      div\n        /* \"#utility.yul\":14353:14358   */\n      dup2\n        /* \"#utility.yul\":14350:14375   */\n      gt\n        /* \"#utility.yul\":14347:14398   */\n      iszero\n      tag_432\n      jumpi\n        /* \"#utility.yul\":14378:14396   */\n      tag_433\n      tag_402\n      jump\t// in\n    tag_433:\n        /* \"#utility.yul\":14347:14398   */\n    tag_432:\n        /* \"#utility.yul\":14427:14431   */\n      dup2\n        /* \"#utility.yul\":14420:14425   */\n      dup2\n        /* \"#utility.yul\":14416:14432   */\n      mul\n        /* \"#utility.yul\":14407:14432   */\n      swap1\n      pop\n        /* \"#utility.yul\":13365:14438   */\n    tag_418:\n      swap4\n      swap3\n      pop\n      pop\n      pop\n      jump\t// out\n        /* \"#utility.yul\":14444:14792   */\n    tag_214:\n        /* \"#utility.yul\":14484:14491   */\n      0x00\n        /* \"#utility.yul\":14507:14527   */\n      tag_435\n        /* \"#utility.yul\":14525:14526   */\n      dup3\n        /* \"#utility.yul\":14507:14527   */\n      tag_349\n      jump\t// in\n    tag_435:\n        /* \"#utility.yul\":14502:14527   */\n      swap2\n      pop\n        /* \"#utility.yul\":14541:14561   */\n      tag_436\n        /* \"#utility.yul\":14559:14560   */\n      dup4\n        /* \"#utility.yul\":14541:14561   */\n      tag_349\n      jump\t// in\n    tag_436:\n        /* \"#utility.yul\":14536:14561   */\n      swap3\n      pop\n        /* \"#utility.yul\":14729:14730   */\n      dup2\n        /* \"#utility.yul\":14661:14727   */\n      0xffffffffffffffffffffffffffffffffffffffffffffffffffffffffffffffff\n        /* \"#utility.yul\":14657:14731   */\n      div\n        /* \"#utility.yul\":14654:14655   */\n      dup4\n        /* \"#utility.yul\":14651:14732   */\n      gt\n        /* \"#utility.yul\":14646:14647   */\n      dup3\n        /* \"#utility.yul\":14639:14648   */\n      iszero\n        /* \"#utility.yul\":14632:14649   */\n      iszero\n        /* \"#utility.yul\":14628:14733   */\n      and\n        /* \"#utility.yul\":14625:14756   */\n      iszero\n      tag_437\n      jumpi\n        /* \"#utility.yul\":14736:14754   */\n      tag_438\n      tag_402\n      jump\t// in\n    tag_438:\n        /* \"#utility.yul\":14625:14756   */\n    tag_437:\n        /* \"#utility.yul\":14784:14785   */\n      dup3\n        /* \"#utility.yul\":14781:14782   */\n      dup3\n        /* \"#utility.yul\":14777:14786   */\n      mul\n        /* \"#utility.yul\":14766:14786   */\n      swap1\n      pop\n        /* \"#utility.yul\":14444:14792   */\n      swap3\n      swap2\n      pop\n      pop\n      jump\t// out\n        /* \"#utility.yul\":14798:15325   */\n    tag_132:\n        /* \"#utility.yul\":14837:14841   */\n      0x00\n        /* \"#utility.yul\":14857:14876   */\n      tag_440\n        /* \"#utility.yul\":14874:14875   */\n      dup3\n        /* \"#utility.yul\":14857:14876   */\n      tag_441\n      jump\t// in\n    tag_440:\n        /* \"#utility.yul\":14852:14876   */\n      swap2\n      pop\n        /* \"#utility.yul\":14890:14909   */\n      tag_442\n        /* \"#utility.yul\":14907:14908   */\n      dup4\n        /* \"#utility.yul\":14890:14909   */\n      tag_441\n      jump\t// in\n    tag_442:\n        /* \"#utility.yul\":14885:14909   */\n      swap3\n      pop\n        /* \"#utility.yul\":15079:15080   */\n      dup3\n        /* \"#utility.yul\":15011:15077   */\n      0x8000000000000000000000000000000000000000000000000000000000000000\n        /* \"#utility.yul\":15007:15081   */\n      add\n        /* \"#utility.yul\":15004:15005   */\n      dup3\n        /* \"#utility.yul\":15000:15082   */\n      slt\n        /* \"#utility.yul\":14995:14996   */\n      0x00\n        /* \"#utility.yul\":14992:14993   */\n      dup5\n        /* \"#utility.yul\":14988:14997   */\n      slt\n        /* \"#utility.yul\":14981:14998   */\n      iszero\n        /* \"#utility.yul\":14977:15083   */\n      and\n        /* \"#utility.yul\":14974:15106   */\n      iszero\n      tag_443\n      jumpi\n        /* \"#utility.yul\":15086:15104   */\n      tag_444\n      tag_402\n      jump\t// in\n    tag_444:\n        /* \"#utility.yul\":14974:15106   */\n    tag_443:\n        /* \"#utility.yul\":15265:15266   */\n      dup3\n        /* \"#utility.yul\":15197:15263   */\n      0x7fffffffffffffffffffffffffffffffffffffffffffffffffffffffffffffff\n        /* \"#utility.yul\":15193:15267   */\n      add\n        /* \"#utility.yul\":15190:15191   */\n      dup3\n        /* \"#utility.yul\":15186:15268   */\n      sgt\n        /* \"#utility.yul\":15182:15183   */\n      0x00\n        /* \"#utility.yul\":15179:15180   */\n      dup5\n        /* \"#utility.yul\":15175:15184   */\n      slt\n        /* \"#utility.yul\":15171:15269   */\n      and\n        /* \"#utility.yul\":15168:15292   */\n      iszero\n      tag_445\n      jumpi\n        /* \"#utility.yul\":15272:15290   */\n      tag_446\n      tag_402\n      jump\t// in\n    tag_446:\n        /* \"#utility.yul\":15168:15292   */\n    tag_445:\n        /* \"#utility.yul\":15317:15318   */\n      dup3\n        /* \"#utility.yul\":15314:15315   */\n      dup3\n        /* \"#utility.yul\":15310:15319   */\n      sub\n        /* \"#utility.yul\":15302:15319   */\n      swap1\n      pop\n        /* \"#utility.yul\":14798:15325   */\n      swap3\n      swap2\n      pop\n      pop\n      jump\t// out\n        /* \"#utility.yul\":15331:15522   */\n    tag_148:\n        /* \"#utility.yul\":15371:15375   */\n      0x00\n        /* \"#utility.yul\":15391:15411   */\n      tag_448\n        /* \"#utility.yul\":15409:15410   */\n      dup3\n        /* \"#utility.yul\":15391:15411   */\n      tag_349\n      jump\t// in\n    tag_448:\n        /* \"#utility.yul\":15386:15411   */\n      swap2\n      pop\n        /* \"#utility.yul\":15425:15445   */\n      tag_449\n        /* \"#utility.yul\":15443:15444   */\n      dup4\n        /* \"#utility.yul\":15425:15445   */\n      tag_349\n      jump\t// in\n    tag_449:\n        /* \"#utility.yul\":15420:15445   */\n      swap3\n      pop\n        /* \"#utility.yul\":15464:15465   */\n      dup3\n        /* \"#utility.yul\":15461:15462   */\n      dup3\n        /* \"#utility.yul\":15458:15466   */\n      lt\n        /* \"#utility.yul\":15455:15489   */\n      iszero\n      tag_450\n      jumpi\n        /* \"#utility.yul\":15469:15487   */\n      tag_451\n      tag_402\n      jump\t// in\n    tag_451:\n        /* \"#utility.yul\":15455:15489   */\n    tag_450:\n        /* \"#utility.yul\":15514:15515   */\n      dup3\n        /* \"#utility.yul\":15511:15512   */\n      dup3\n        /* \"#utility.yul\":15507:15516   */\n      sub\n        /* \"#utility.yul\":15499:15516   */\n      swap1\n      pop\n        /* \"#utility.yul\":15331:15522   */\n      swap3\n      swap2\n      pop\n      pop\n      jump\t// out\n        /* \"#utility.yul\":15528:15624   */\n    tag_290:\n        /* \"#utility.yul\":15565:15572   */\n      0x00\n        /* \"#utility.yul\":15594:15618   */\n      tag_453\n        /* \"#utility.yul\":15612:15617   */\n      dup3\n        /* \"#utility.yul\":15594:15618   */\n      tag_454\n      jump\t// in\n    tag_453:\n        /* \"#utility.yul\":15583:15618   */\n      swap1\n      pop\n        /* \"#utility.yul\":15528:15624   */\n      swap2\n      swap1\n      pop\n      jump\t// out\n        /* \"#utility.yul\":15630:15720   */\n    tag_455:\n        /* \"#utility.yul\":15664:15671   */\n      0x00\n        /* \"#utility.yul\":15707:15712   */\n      dup2\n        /* \"#utility.yul\":15700:15713   */\n      iszero\n        /* \"#utility.yul\":15693:15714   */\n      iszero\n        /* \"#utility.yul\":15682:15714   */\n      swap1\n      pop\n        /* \"#utility.yul\":15630:15720   */\n      swap2\n      swap1\n      pop\n      jump\t// out\n        /* \"#utility.yul\":15726:15803   */\n    tag_294:\n        /* \"#utility.yul\":15763:15770   */\n      0x00\n        /* \"#utility.yul\":15792:15797   */\n      dup2\n        /* \"#utility.yul\":15781:15797   */\n      swap1\n      pop\n        /* \"#utility.yul\":15726:15803   */\n      swap2\n      swap1\n      pop\n      jump\t// out\n        /* \"#utility.yul\":15809:15958   */\n    tag_298:\n        /* \"#utility.yul\":15845:15852   */\n      0x00\n        /* \"#utility.yul\":15885:15951   */\n      0xffffffff00000000000000000000000000000000000000000000000000000000\n        /* \"#utility.yul\":15878:15883   */\n      dup3\n        /* \"#utility.yul\":15874:15952   */\n      and\n        /* \"#utility.yul\":15863:15952   */\n      swap1\n      pop\n        /* \"#utility.yul\":15809:15958   */\n      swap2\n      swap1\n      pop\n      jump\t// out\n        /* \"#utility.yul\":15964:16040   */\n    tag_441:\n        /* \"#utility.yul\":16000:16007   */\n      0x00\n        /* \"#utility.yul\":16029:16034   */\n      dup2\n        /* \"#utility.yul\":16018:16034   */\n      swap1\n      pop\n        /* \"#utility.yul\":15964:16040   */\n      swap2\n      swap1\n      pop\n      jump\t// out\n        /* \"#utility.yul\":16046:16172   */\n    tag_454:\n        /* \"#utility.yul\":16083:16090   */\n      0x00\n        /* \"#utility.yul\":16123:16165   */\n      0xffffffffffffffffffffffffffffffffffffffff\n        /* \"#utility.yul\":16116:16121   */\n      dup3\n        /* \"#utility.yul\":16112:16166   */\n      and\n        /* \"#utility.yul\":16101:16166   */\n      swap1\n      pop\n        /* \"#utility.yul\":16046:16172   */\n      swap2\n      swap1\n      pop\n      jump\t// out\n        /* \"#utility.yul\":16178:16255   */\n    tag_349:\n        /* \"#utility.yul\":16215:16222   */\n      0x00\n        /* \"#utility.yul\":16244:16249   */\n      dup2\n        /* \"#utility.yul\":16233:16249   */\n      swap1\n      pop\n        /* \"#utility.yul\":16178:16255   */\n      swap2\n      swap1\n      pop\n      jump\t// out\n        /* \"#utility.yul\":16261:16410   */\n    tag_313:\n        /* \"#utility.yul\":16334:16343   */\n      0x00\n        /* \"#utility.yul\":16367:16404   */\n      tag_463\n        /* \"#utility.yul\":16398:16403   */\n      dup3\n        /* \"#utility.yul\":16367:16404   */\n      tag_464\n      jump\t// in\n    tag_463:\n        /* \"#utility.yul\":16354:16404   */\n      swap1\n      pop\n        /* \"#utility.yul\":16261:16410   */\n      swap2\n      swap1\n      pop\n      jump\t// out\n        /* \"#utility.yul\":16416:16542   */\n    tag_464:\n        /* \"#utility.yul\":16466:16475   */\n      0x00\n        /* \"#utility.yul\":16499:16536   */\n      tag_466\n        /* \"#utility.yul\":16530:16535   */\n      dup3\n        /* \"#utility.yul\":16499:16536   */\n      tag_467\n      jump\t// in\n    tag_466:\n        /* \"#utility.yul\":16486:16536   */\n      swap1\n      pop\n        /* \"#utility.yul\":16416:16542   */\n      swap2\n      swap1\n      pop\n      jump\t// out\n        /* \"#utility.yul\":16548:16661   */\n    tag_467:\n        /* \"#utility.yul\":16598:16607   */\n      0x00\n        /* \"#utility.yul\":16631:16655   */\n      tag_469\n        /* \"#utility.yul\":16649:16654   */\n      dup3\n        /* \"#utility.yul\":16631:16655   */\n      tag_454\n      jump\t// in\n    tag_469:\n        /* \"#utility.yul\":16618:16655   */\n      swap1\n      pop\n        /* \"#utility.yul\":16548:16661   */\n      swap2\n      swap1\n      pop\n      jump\t// out\n        /* \"#utility.yul\":16667:16974   */\n    tag_306:\n        /* \"#utility.yul\":16735:16736   */\n      0x00\n        /* \"#utility.yul\":16745:16858   */\n    tag_471:\n        /* \"#utility.yul\":16759:16765   */\n      dup4\n        /* \"#utility.yul\":16756:16757   */\n      dup2\n        /* \"#utility.yul\":16753:16766   */\n      lt\n        /* \"#utility.yul\":16745:16858   */\n      iszero\n      tag_473\n      jumpi\n        /* \"#utility.yul\":16844:16845   */\n      dup1\n        /* \"#utility.yul\":16839:16842   */\n      dup3\n        /* \"#utility.yul\":16835:16846   */\n      add\n        /* \"#utility.yul\":16829:16847   */\n      mload\n        /* \"#utility.yul\":16825:16826   */\n      dup2\n        /* \"#utility.yul\":16820:16823   */\n      dup5\n        /* \"#utility.yul\":16816:16827   */\n      add\n        /* \"#utility.yul\":16809:16848   */\n      mstore\n        /* \"#utility.yul\":16781:16783   */\n      0x20\n        /* \"#utility.yul\":16778:16779   */\n      dup2\n        /* \"#utility.yul\":16774:16784   */\n      add\n        /* \"#utility.yul\":16769:16784   */\n      swap1\n      pop\n        /* \"#utility.yul\":16745:16858   */\n      jump(tag_471)\n    tag_473:\n        /* \"#utility.yul\":16876:16882   */\n      dup4\n        /* \"#utility.yul\":16873:16874   */\n      dup2\n        /* \"#utility.yul\":16870:16883   */\n      gt\n        /* \"#utility.yul\":16867:16968   */\n      iszero\n      tag_474\n      jumpi\n        /* \"#utility.yul\":16956:16957   */\n      0x00\n        /* \"#utility.yul\":16947:16953   */\n      dup5\n        /* \"#utility.yul\":16942:16945   */\n      dup5\n        /* \"#utility.yul\":16938:16954   */\n      add\n        /* \"#utility.yul\":16931:16958   */\n      mstore\n        /* \"#utility.yul\":16867:16968   */\n    tag_474:\n        /* \"#utility.yul\":16716:16974   */\n      pop\n        /* \"#utility.yul\":16667:16974   */\n      pop\n      pop\n      pop\n      jump\t// out\n        /* \"#utility.yul\":16980:17080   */\n    tag_314:\n        /* \"#utility.yul\":17019:17026   */\n      0x00\n        /* \"#utility.yul\":17048:17074   */\n      tag_476\n        /* \"#utility.yul\":17068:17073   */\n      dup3\n        /* \"#utility.yul\":17048:17074   */\n      tag_477\n      jump\t// in\n    tag_476:\n        /* \"#utility.yul\":17037:17074   */\n      swap1\n      pop\n        /* \"#utility.yul\":16980:17080   */\n      swap2\n      swap1\n      pop\n      jump\t// out\n        /* \"#utility.yul\":17086:17180   */\n    tag_477:\n        /* \"#utility.yul\":17125:17132   */\n      0x00\n        /* \"#utility.yul\":17154:17174   */\n      tag_479\n        /* \"#utility.yul\":17168:17173   */\n      dup3\n        /* \"#utility.yul\":17154:17174   */\n      tag_480\n      jump\t// in\n    tag_479:\n        /* \"#utility.yul\":17143:17174   */\n      swap1\n      pop\n        /* \"#utility.yul\":17086:17180   */\n      swap2\n      swap1\n      pop\n      jump\t// out\n        /* \"#utility.yul\":17186:17265   */\n    tag_354:\n        /* \"#utility.yul\":17225:17232   */\n      0x00\n        /* \"#utility.yul\":17254:17259   */\n      dup2\n        /* \"#utility.yul\":17243:17259   */\n      swap1\n      pop\n        /* \"#utility.yul\":17186:17265   */\n      swap2\n      swap1\n      pop\n      jump\t// out\n        /* \"#utility.yul\":17271:17447   */\n    tag_144:\n        /* \"#utility.yul\":17303:17304   */\n      0x00\n        /* \"#utility.yul\":17320:17340   */\n      tag_483\n        /* \"#utility.yul\":17338:17339   */\n      dup3\n        /* \"#utility.yul\":17320:17340   */\n      tag_349\n      jump\t// in\n    tag_483:\n        /* \"#utility.yul\":17315:17340   */\n      swap2\n      pop\n        /* \"#utility.yul\":17354:17374   */\n      tag_484\n        /* \"#utility.yul\":17372:17373   */\n      dup4\n        /* \"#utility.yul\":17354:17374   */\n      tag_349\n      jump\t// in\n    tag_484:\n        /* \"#utility.yul\":17349:17374   */\n      swap3\n      pop\n        /* \"#utility.yul\":17393:17394   */\n      dup3\n        /* \"#utility.yul\":17383:17418   */\n      tag_485\n      jumpi\n        /* \"#utility.yul\":17398:17416   */\n      tag_486\n      tag_487\n      jump\t// in\n    tag_486:\n        /* \"#utility.yul\":17383:17418   */\n    tag_485:\n        /* \"#utility.yul\":17439:17440   */\n      dup3\n        /* \"#utility.yul\":17436:17437   */\n      dup3\n        /* \"#utility.yul\":17432:17441   */\n      mod\n        /* \"#utility.yul\":17427:17441   */\n      swap1\n      pop\n        /* \"#utility.yul\":17271:17447   */\n      swap3\n      swap2\n      pop\n      pop\n      jump\t// out\n        /* \"#utility.yul\":17453:17633   */\n    tag_402:\n        /* \"#utility.yul\":17501:17578   */\n      0x4e487b7100000000000000000000000000000000000000000000000000000000\n        /* \"#utility.yul\":17498:17499   */\n      0x00\n        /* \"#utility.yul\":17491:17579   */\n      mstore\n        /* \"#utility.yul\":17598:17602   */\n      0x11\n        /* \"#utility.yul\":17595:17596   */\n      0x04\n        /* \"#utility.yul\":17588:17603   */\n      mstore\n        /* \"#utility.yul\":17622:17626   */\n      0x24\n        /* \"#utility.yul\":17619:17620   */\n      0x00\n        /* \"#utility.yul\":17612:17627   */\n      revert\n        /* \"#utility.yul\":17639:17819   */\n    tag_487:\n        /* \"#utility.yul\":17687:17764   */\n      0x4e487b7100000000000000000000000000000000000000000000000000000000\n        /* \"#utility.yul\":17684:17685   */\n      0x00\n        /* \"#utility.yul\":17677:17765   */\n      mstore\n        /* \"#utility.yul\":17784:17788   */\n      0x12\n        /* \"#utility.yul\":17781:17782   */\n      0x04\n        /* \"#utility.yul\":17774:17789   */\n      mstore\n        /* \"#utility.yul\":17808:17812   */\n      0x24\n        /* \"#utility.yul\":17805:17806   */\n      0x00\n        /* \"#utility.yul\":17798:17813   */\n      revert\n        /* \"#utility.yul\":17948:18065   */\n    tag_272:\n        /* \"#utility.yul\":18057:18058   */\n      0x00\n        /* \"#utility.yul\":18054:18055   */\n      dup1\n        /* \"#utility.yul\":18047:18059   */\n      revert\n        /* \"#utility.yul\":18071:18173   */\n    tag_308:\n        /* \"#utility.yul\":18112:18118   */\n      0x00\n        /* \"#utility.yul\":18163:18165   */\n      0x1f\n        /* \"#utility.yul\":18159:18166   */\n      not\n        /* \"#utility.yul\":18154:18156   */\n      0x1f\n        /* \"#utility.yul\":18147:18152   */\n      dup4\n        /* \"#utility.yul\":18143:18157   */\n      add\n        /* \"#utility.yul\":18139:18167   */\n      and\n        /* \"#utility.yul\":18129:18167   */\n      swap1\n      pop\n        /* \"#utility.yul\":18071:18173   */\n      swap2\n      swap1\n      pop\n      jump\t// out\n        /* \"#utility.yul\":18179:18273   */\n    tag_480:\n        /* \"#utility.yul\":18212:18220   */\n      0x00\n        /* \"#utility.yul\":18260:18265   */\n      dup2\n        /* \"#utility.yul\":18256:18258   */\n      0x60\n        /* \"#utility.yul\":18252:18266   */\n      shl\n        /* \"#utility.yul\":18231:18266   */\n      swap1\n      pop\n        /* \"#utility.yul\":18179:18273   */\n      swap2\n      swap1\n      pop\n      jump\t// out\n        /* \"#utility.yul\":18279:18381   */\n    tag_412:\n        /* \"#utility.yul\":18321:18329   */\n      0x00\n        /* \"#utility.yul\":18368:18373   */\n      dup2\n        /* \"#utility.yul\":18365:18366   */\n      0x01\n        /* \"#utility.yul\":18361:18374   */\n      shr\n        /* \"#utility.yul\":18340:18374   */\n      swap1\n      pop\n        /* \"#utility.yul\":18279:18381   */\n      swap2\n      swap1\n      pop\n      jump\t// out\n        /* \"#utility.yul\":18387:18559   */\n    tag_320:\n        /* \"#utility.yul\":18527:18551   */\n      0x4d7573742062652070726f706f736564206f776e657200000000000000000000\n        /* \"#utility.yul\":18523:18524   */\n      0x00\n        /* \"#utility.yul\":18515:18521   */\n      dup3\n        /* \"#utility.yul\":18511:18525   */\n      add\n        /* \"#utility.yul\":18504:18552   */\n      mstore\n        /* \"#utility.yul\":18387:18559   */\n      pop\n      jump\t// out\n        /* \"#utility.yul\":18565:18787   */\n    tag_325:\n        /* \"#utility.yul\":18705:18739   */\n      0x756e61626c6520746f207472616e73666572416e6443616c6c20746f206f7261\n        /* \"#utility.yul\":18701:18702   */\n      0x00\n        /* \"#utility.yul\":18693:18699   */\n      dup3\n        /* \"#utility.yul\":18689:18703   */\n      add\n        /* \"#utility.yul\":18682:18740   */\n      mstore\n        /* \"#utility.yul\":18774:18779   */\n      0x636c650000000000000000000000000000000000000000000000000000000000\n        /* \"#utility.yul\":18769:18771   */\n      0x20\n        /* \"#utility.yul\":18761:18767   */\n      dup3\n        /* \"#utility.yul\":18757:18772   */\n      add\n        /* \"#utility.yul\":18750:18780   */\n      mstore\n        /* \"#utility.yul\":18565:18787   */\n      pop\n      jump\t// out\n        /* \"#utility.yul\":18793:18965   */\n    tag_330:\n        /* \"#utility.yul\":18933:18957   */\n      0x4f6e6c792063616c6c61626c65206279206f776e657200000000000000000000\n        /* \"#utility.yul\":18929:18930   */\n      0x00\n        /* \"#utility.yul\":18921:18927   */\n      dup3\n        /* \"#utility.yul\":18917:18931   */\n      add\n        /* \"#utility.yul\":18910:18958   */\n      mstore\n        /* \"#utility.yul\":18793:18965   */\n      pop\n      jump\t// out\n        /* \"#utility.yul\":18971:19139   */\n    tag_335:\n        /* \"#utility.yul\":19111:19131   */\n      0x556e61626c6520746f207472616e736665720000000000000000000000000000\n        /* \"#utility.yul\":19107:19108   */\n      0x00\n        /* \"#utility.yul\":19099:19105   */\n      dup3\n        /* \"#utility.yul\":19095:19109   */\n      add\n        /* \"#utility.yul\":19088:19132   */\n      mstore\n        /* \"#utility.yul\":18971:19139   */\n      pop\n      jump\t// out\n        /* \"#utility.yul\":19145:19318   */\n    tag_340:\n        /* \"#utility.yul\":19285:19310   */\n      0x43616e6e6f74207472616e7366657220746f2073656c66000000000000000000\n        /* \"#utility.yul\":19281:19282   */\n      0x00\n        /* \"#utility.yul\":19273:19279   */\n      dup3\n        /* \"#utility.yul\":19269:19283   */\n      add\n        /* \"#utility.yul\":19262:19311   */\n      mstore\n        /* \"#utility.yul\":19145:19318   */\n      pop\n      jump\t// out\n        /* \"#utility.yul\":19324:19551   */\n    tag_345:\n        /* \"#utility.yul\":19464:19498   */\n      0x536f75726365206d75737420626520746865206f7261636c65206f6620746865\n        /* \"#utility.yul\":19460:19461   */\n      0x00\n        /* \"#utility.yul\":19452:19458   */\n      dup3\n        /* \"#utility.yul\":19448:19462   */\n      add\n        /* \"#utility.yul\":19441:19499   */\n      mstore\n        /* \"#utility.yul\":19533:19543   */\n      0x2072657175657374000000000000000000000000000000000000000000000000\n        /* \"#utility.yul\":19528:19530   */\n      0x20\n        /* \"#utility.yul\":19520:19526   */\n      dup3\n        /* \"#utility.yul\":19516:19531   */\n      add\n        /* \"#utility.yul\":19509:19544   */\n      mstore\n        /* \"#utility.yul\":19324:19551   */\n      pop\n      jump\t// out\n        /* \"#utility.yul\":19557:19679   */\n    tag_253:\n        /* \"#utility.yul\":19630:19654   */\n      tag_503\n        /* \"#utility.yul\":19648:19653   */\n      dup2\n        /* \"#utility.yul\":19630:19654   */\n      tag_290\n      jump\t// in\n    tag_503:\n        /* \"#utility.yul\":19623:19628   */\n      dup2\n        /* \"#utility.yul\":19620:19655   */\n      eq\n        /* \"#utility.yul\":19610:19673   */\n      tag_504\n      jumpi\n        /* \"#utility.yul\":19669:19670   */\n      0x00\n        /* \"#utility.yul\":19666:19667   */\n      dup1\n        /* \"#utility.yul\":19659:19671   */\n      revert\n        /* \"#utility.yul\":19610:19673   */\n    tag_504:\n        /* \"#utility.yul\":19557:19679   */\n      pop\n      jump\t// out\n        /* \"#utility.yul\":19685:19801   */\n    tag_257:\n        /* \"#utility.yul\":19755:19776   */\n      tag_506\n        /* \"#utility.yul\":19770:19775   */\n      dup2\n        /* \"#utility.yul\":19755:19776   */\n      tag_455\n      jump\t// in\n    tag_506:\n        /* \"#utility.yul\":19748:19753   */\n      dup2\n        /* \"#utility.yul\":19745:19777   */\n      eq\n        /* \"#utility.yul\":19735:19795   */\n      tag_507\n      jumpi\n        /* \"#utility.yul\":19791:19792   */\n      0x00\n        /* \"#utility.yul\":19788:19789   */\n      dup1\n        /* \"#utility.yul\":19781:19793   */\n      revert\n        /* \"#utility.yul\":19735:19795   */\n    tag_507:\n        /* \"#utility.yul\":19685:19801   */\n      pop\n      jump\t// out\n        /* \"#utility.yul\":19807:19929   */\n    tag_261:\n        /* \"#utility.yul\":19880:19904   */\n      tag_509\n        /* \"#utility.yul\":19898:19903   */\n      dup2\n        /* \"#utility.yul\":19880:19904   */\n      tag_294\n      jump\t// in\n    tag_509:\n        /* \"#utility.yul\":19873:19878   */\n      dup2\n        /* \"#utility.yul\":19870:19905   */\n      eq\n        /* \"#utility.yul\":19860:19923   */\n      tag_510\n      jumpi\n        /* \"#utility.yul\":19919:19920   */\n      0x00\n        /* \"#utility.yul\":19916:19917   */\n      dup1\n        /* \"#utility.yul\":19909:19921   */\n      revert\n        /* \"#utility.yul\":19860:19923   */\n    tag_510:\n        /* \"#utility.yul\":19807:19929   */\n      pop\n      jump\t// out\n        /* \"#utility.yul\":19935:20057   */\n    tag_265:\n        /* \"#utility.yul\":20008:20032   */\n      tag_512\n        /* \"#utility.yul\":20026:20031   */\n      dup2\n        /* \"#utility.yul\":20008:20032   */\n      tag_349\n      jump\t// in\n    tag_512:\n        /* \"#utility.yul\":20001:20006   */\n      dup2\n        /* \"#utility.yul\":19998:20033   */\n      eq\n        /* \"#utility.yul\":19988:20051   */\n      tag_513\n      jumpi\n        /* \"#utility.yul\":20047:20048   */\n      0x00\n        /* \"#utility.yul\":20044:20045   */\n      dup1\n        /* \"#utility.yul\":20037:20049   */\n      revert\n        /* \"#utility.yul\":19988:20051   */\n    tag_513:\n        /* \"#utility.yul\":19935:20057   */\n      pop\n      jump\t// out\n    stop\n    data_f3fa6b402eb4c49347f9ac6c8c8e0baf0eacaf39bcd59583feb12d9b90720124 68747470733a2f2f6d696e2d6170692e63727970746f636f6d706172652e636f6d2f646174612f70726963656d756c746966756c6c3f6673796d733d455448267473796d733d555344\n\n    auxdata: 0xa2646970667358221220d5f73714d5869a1e0514a11219a362c642a2c2bf83600c6ec1ee3930318bf4f264736f6c63430008070033\n}\n",
				"bytecode": {
					"linkReferences": {},
					"object": "608060405260016004553480156200001657600080fd5b50338060008073ffffffffffffffffffffffffffffffffffffffff168273ffffffffffffffffffffffffffffffffffffffff1614156200008d576040517f08c379a00000000000000000000000000000000000000000000000000000000081526004016200008490620003c2565b60405180910390fd5b81600660006101000a81548173ffffffffffffffffffffffffffffffffffffffff021916908373ffffffffffffffffffffffffffffffffffffffff160217905550600073ffffffffffffffffffffffffffffffffffffffff168173ffffffffffffffffffffffffffffffffffffffff161462000115576200011481620001ba60201b60201c565b5b5050506200013d73326c977e6efc84e512bb9c30f76e30c160ed06fb620002ec60201b60201c565b6200016273cc79157eb46f5624204f47ab42b3906caa40eab76200033060201b60201c565b7f6361393833363663633733313439353762386330313263373266303561656562600981905550600a670de0b6b3a76400006001620001a291906200044f565b620001ae919062000417565b600a819055506200056a565b3373ffffffffffffffffffffffffffffffffffffffff168173ffffffffffffffffffffffffffffffffffffffff1614156200022c576040517f08c379a00000000000000000000000000000000000000000000000000000000081526004016200022390620003e4565b60405180910390fd5b80600760006101000a81548173ffffffffffffffffffffffffffffffffffffffff021916908373ffffffffffffffffffffffffffffffffffffffff1602179055508073ffffffffffffffffffffffffffffffffffffffff16600660009054906101000a900473ffffffffffffffffffffffffffffffffffffffff1673ffffffffffffffffffffffffffffffffffffffff167fed8889f560326eb138920d842192f0eb3dd22b4f139c87a2c57538e05bae127860405160405180910390a350565b80600260006101000a81548173ffffffffffffffffffffffffffffffffffffffff021916908373ffffffffffffffffffffffffffffffffffffffff16021790555050565b80600360006101000a81548173ffffffffffffffffffffffffffffffffffffffff021916908373ffffffffffffffffffffffffffffffffffffffff16021790555050565b60006200038360188362000406565b9150620003908262000518565b602082019050919050565b6000620003aa60178362000406565b9150620003b78262000541565b602082019050919050565b60006020820190508181036000830152620003dd8162000374565b9050919050565b60006020820190508181036000830152620003ff816200039b565b9050919050565b600082825260208201905092915050565b60006200042482620004b0565b91506200043183620004b0565b925082620004445762000443620004e9565b5b828204905092915050565b60006200045c82620004b0565b91506200046983620004b0565b9250817fffffffffffffffffffffffffffffffffffffffffffffffffffffffffffffffff0483118215151615620004a557620004a4620004ba565b5b828202905092915050565b6000819050919050565b7f4e487b7100000000000000000000000000000000000000000000000000000000600052601160045260246000fd5b7f4e487b7100000000000000000000000000000000000000000000000000000000600052601260045260246000fd5b7f43616e6e6f7420736574206f776e657220746f207a65726f0000000000000000600082015250565b7f43616e6e6f74207472616e7366657220746f2073656c66000000000000000000600082015250565b611f7b806200057a6000396000f3fe608060405234801561001057600080fd5b506004361061007d5760003560e01c80638da5cb5b1161005b5780638da5cb5b146100c65780638dc654a2146100e4578063c618a1e4146100ee578063f2fde38b1461010c5761007d565b80634357855e146100825780636021abac1461009e57806379ba5097146100bc575b600080fd5b61009c6004803603810190610097919061145f565b610128565b005b6100a6610271565b6040516100b39190611774565b60405180910390f35b6100c46103d5565b005b6100ce61056c565b6040516100db919061166d565b60405180910390f35b6100ec610596565b005b6100f6610701565b604051610103919061184f565b60405180910390f35b61012660048036038101906101219190611405565b610707565b005b816005600082815260200190815260200160002060009054906101000a900473ffffffffffffffffffffffffffffffffffffffff1673ffffffffffffffffffffffffffffffffffffffff163373ffffffffffffffffffffffffffffffffffffffff16146101ca576040517f08c379a00000000000000000000000000000000000000000000000000000000081526004016101c19061182f565b60405180910390fd5b6005600082815260200190815260200160002060006101000a81549073ffffffffffffffffffffffffffffffffffffffff0219169055807f7cc135e0cebb02c3480ae5d74d377283180a2601f8f644edf7987b009316c63a60405160405180910390a2827f673b38182859a514d734bdfcb49d3a05c4a641dec9311d9894c9717bcb79af768360405161025d919061184f565b60405180910390a281600881905550505050565b60008061028860095430634357855e60e01b61071b565b90506102ec6040518060400160405280600381526020017f6765740000000000000000000000000000000000000000000000000000000000815250604051806080016040528060498152602001611efd604991398361074c9092919063ffffffff16565b61036b6040518060400160405280600481526020017f70617468000000000000000000000000000000000000000000000000000000008152506040518060400160405280601881526020017f5241572c4554482c5553442c564f4c554d453234484f555200000000000000008152508361074c9092919063ffffffff16565b6000670de0b6b3a764000090506103c26040518060400160405280600581526020017f74696d6573000000000000000000000000000000000000000000000000000000815250828461077f9092919063ffffffff16565b6103ce82600a546107b2565b9250505090565b600760009054906101000a900473ffffffffffffffffffffffffffffffffffffffff1673ffffffffffffffffffffffffffffffffffffffff163373ffffffffffffffffffffffffffffffffffffffff1614610465576040517f08c379a000000000000000000000000000000000000000000000000000000000815260040161045c9061178f565b60405180910390fd5b6000600660009054906101000a900473ffffffffffffffffffffffffffffffffffffffff16905033600660006101000a81548173ffffffffffffffffffffffffffffffffffffffff021916908373ffffffffffffffffffffffffffffffffffffffff1602179055506000600760006101000a81548173ffffffffffffffffffffffffffffffffffffffff021916908373ffffffffffffffffffffffffffffffffffffffff1602179055503373ffffffffffffffffffffffffffffffffffffffff168173ffffffffffffffffffffffffffffffffffffffff167f8be0079c531659141344cd1fd0a4f28419497f9722a3daafe3b4186f6b6457e060405160405180910390a350565b6000600660009054906101000a900473ffffffffffffffffffffffffffffffffffffffff16905090565b61059e6107e9565b60006105a861087b565b90508073ffffffffffffffffffffffffffffffffffffffff1663a9059cbb338373ffffffffffffffffffffffffffffffffffffffff166370a08231306040518263ffffffff1660e01b8152600401610600919061166d565b60206040518083038186803b15801561061857600080fd5b505afa15801561062c573d6000803e3d6000fd5b505050506040513d601f19601f82011682018060405250810190610650919061149f565b6040518363ffffffff1660e01b815260040161066d929190611688565b602060405180830381600087803b15801561068757600080fd5b505af115801561069b573d6000803e3d6000fd5b505050506040513d601f19601f820116820180604052508101906106bf9190611432565b6106fe576040517f08c379a00000000000000000000000000000000000000000000000000000000081526004016106f5906117ef565b60405180910390fd5b50565b60085481565b61070f6107e9565b610718816108a5565b50565b610723611315565b61072b611315565b610742858585846109d4909392919063ffffffff16565b9150509392505050565b610763828460800151610a8490919063ffffffff16565b61077a818460800151610a8490919063ffffffff16565b505050565b610796828460800151610a8490919063ffffffff16565b6107ad818460800151610aa990919063ffffffff16565b505050565b60006107e1600360009054906101000a900473ffffffffffffffffffffffffffffffffffffffff168484610b56565b905092915050565b600660009054906101000a900473ffffffffffffffffffffffffffffffffffffffff1673ffffffffffffffffffffffffffffffffffffffff163373ffffffffffffffffffffffffffffffffffffffff1614610879576040517f08c379a0000000000000000000000000000000000000000000000000000000008152600401610870906117cf565b60405180910390fd5b565b6000600260009054906101000a900473ffffffffffffffffffffffffffffffffffffffff16905090565b3373ffffffffffffffffffffffffffffffffffffffff168173ffffffffffffffffffffffffffffffffffffffff161415610914576040517f08c379a000000000000000000000000000000000000000000000000000000000815260040161090b9061180f565b60405180910390fd5b80600760006101000a81548173ffffffffffffffffffffffffffffffffffffffff021916908373ffffffffffffffffffffffffffffffffffffffff1602179055508073ffffffffffffffffffffffffffffffffffffffff16600660009054906101000a900473ffffffffffffffffffffffffffffffffffffffff1673ffffffffffffffffffffffffffffffffffffffff167fed8889f560326eb138920d842192f0eb3dd22b4f139c87a2c57538e05bae127860405160405180910390a350565b6109dc611315565b6109ec8560800151610100610c22565b508385600001818152505082856020019073ffffffffffffffffffffffffffffffffffffffff16908173ffffffffffffffffffffffffffffffffffffffff16815250508185604001907bffffffffffffffffffffffffffffffffffffffffffffffffffffffff191690817bffffffffffffffffffffffffffffffffffffffffffffffffffffffff191681525050849050949350505050565b610a918260038351610c8c565b610aa48183610e1190919063ffffffff16565b505050565b7fffffffffffffffffffffffffffffffffffffffffffffffff0000000000000000811215610ae057610adb8282610e33565b610b52565b67ffffffffffffffff811315610aff57610afa8282610eaa565b610b51565b60008112610b1857610b1382600083610c8c565b610b50565b610b4f826001837fffffffffffffffffffffffffffffffffffffffffffffffffffffffffffffffff610b4a9190611ab8565b610c8c565b5b5b5b5050565b6000806004549050600181610b6b9190611897565b6004819055506000634042994660e01b60008087600001513089604001518760018c6080015160000151604051602401610bac9897969594939291906116b1565b604051602081830303815290604052907bffffffffffffffffffffffffffffffffffffffffffffffffffffffff19166020820180517bffffffffffffffffffffffffffffffffffffffffffffffffffffffff83818316178352505050509050610c1786838684610ef6565b925050509392505050565b610c2a611382565b6000602083610c399190611c9f565b14610c6557602082610c4b9190611c9f565b6020610c579190611b4c565b82610c629190611897565b91505b81836020018181525050604051808452600081528281016020016040525082905092915050565b60178167ffffffffffffffff1611610cc357610cbd8160058460ff16901b60ff16178461109a90919063ffffffff16565b50610e0c565b60ff8167ffffffffffffffff1611610d1957610cf2601860058460ff16901b178461109a90919063ffffffff16565b50610d138167ffffffffffffffff166001856110ba9092919063ffffffff16565b50610e0b565b61ffff8167ffffffffffffffff1611610d7057610d49601960058460ff16901b178461109a90919063ffffffff16565b50610d6a8167ffffffffffffffff166002856110ba9092919063ffffffff16565b50610e0a565b63ffffffff8167ffffffffffffffff1611610dc957610da2601a60058460ff16901b178461109a90919063ffffffff16565b50610dc38167ffffffffffffffff166004856110ba9092919063ffffffff16565b50610e09565b610de6601b60058460ff16901b178461109a90919063ffffffff16565b50610e078167ffffffffffffffff166008856110ba9092919063ffffffff16565b505b5b5b5b505050565b610e19611382565b610e2b838460000151518485516110dc565b905092915050565b610e5160036005600660ff16901b178361109a90919063ffffffff16565b50610ea682827fffffffffffffffffffffffffffffffffffffffffffffffffffffffffffffffff610e829190611ab8565b604051602001610e92919061184f565b6040516020818303038152906040526111cb565b5050565b610ec860026005600660ff16901b178361109a90919063ffffffff16565b50610ef28282604051602001610ede919061184f565b6040516020818303038152906040526111cb565b5050565b60003084604051602001610f0b929190611641565b604051602081830303815290604052805190602001209050846005600083815260200190815260200160002060006101000a81548173ffffffffffffffffffffffffffffffffffffffff021916908373ffffffffffffffffffffffffffffffffffffffff160217905550807fb5e6e01e79f91267dc17b4e6314d5d4d03593d2ceee0fbb452b750bd70ea5af960405160405180910390a2600260009054906101000a900473ffffffffffffffffffffffffffffffffffffffff1673ffffffffffffffffffffffffffffffffffffffff16634000aea08685856040518463ffffffff1660e01b815260040161100193929190611736565b602060405180830381600087803b15801561101b57600080fd5b505af115801561102f573d6000803e3d6000fd5b505050506040513d601f19601f820116820180604052508101906110539190611432565b611092576040517f08c379a0000000000000000000000000000000000000000000000000000000008152600401611089906117af565b60405180910390fd5b949350505050565b6110a2611382565b6110b283846000015151846111f0565b905092915050565b6110c2611382565b6110d3848560000151518585611247565b90509392505050565b6110e4611382565b82518211156110f257600080fd5b846020015182856111039190611897565b111561113857611137856002611128886020015188876111239190611897565b6112d5565b6111329190611a5e565b6112f1565b5b6000808651805187602083010193508088870111156111575787860182525b60208701925050505b6020841061119e57805182526020826111799190611897565b91506020816111889190611897565b90506020846111979190611b4c565b9350611160565b60006001856020036101000a03905080198251168184511681811785525050508692505050949350505050565b6111d88260028351610c8c565b6111eb8183610e1190919063ffffffff16565b505050565b6111f8611382565b8360200151831061121e5761121d84600286602001516112189190611a5e565b6112f1565b5b835180516020858301018481538186141561123a576001820183525b5050508390509392505050565b61124f611382565b846020015184836112609190611897565b11156112885761128785600286856112789190611897565b6112829190611a5e565b6112f1565b5b600060018361010061129a9190611940565b6112a49190611b4c565b905085518386820101858319825116178152815185880111156112c75784870182525b505085915050949350505050565b6000818311156112e7578290506112eb565b8190505b92915050565b6000826000015190506113048383610c22565b5061130f8382610e11565b50505050565b6040518060a0016040528060008019168152602001600073ffffffffffffffffffffffffffffffffffffffff16815260200160007bffffffffffffffffffffffffffffffffffffffffffffffffffffffff191681526020016000815260200161137c611382565b81525090565b604051806040016040528060608152602001600081525090565b6000813590506113ab81611ea0565b92915050565b6000815190506113c081611eb7565b92915050565b6000813590506113d581611ece565b92915050565b6000813590506113ea81611ee5565b92915050565b6000815190506113ff81611ee5565b92915050565b60006020828403121561141b5761141a611d2e565b5b60006114298482850161139c565b91505092915050565b60006020828403121561144857611447611d2e565b5b6000611456848285016113b1565b91505092915050565b6000806040838503121561147657611475611d2e565b5b6000611484858286016113c6565b9250506020611495858286016113db565b9150509250929050565b6000602082840312156114b5576114b4611d2e565b5b60006114c3848285016113f0565b91505092915050565b6114d581611b80565b82525050565b6114e481611b9e565b82525050565b6114f381611ba8565b82525050565b60006115048261186a565b61150e8185611875565b935061151e818560208601611c3e565b61152781611d33565b840191505092915050565b61154361153e82611c08565b611c71565b82525050565b6000611556601683611886565b915061156182611d5e565b602082019050919050565b6000611579602383611886565b915061158482611d87565b604082019050919050565b600061159c601683611886565b91506115a782611dd6565b602082019050919050565b60006115bf601283611886565b91506115ca82611dff565b602082019050919050565b60006115e2601783611886565b91506115ed82611e28565b602082019050919050565b6000611605602883611886565b915061161082611e51565b604082019050919050565b61162481611bfe565b82525050565b61163b61163682611bfe565b611c95565b82525050565b600061164d8285611532565b60148201915061165d828461162a565b6020820191508190509392505050565b600060208201905061168260008301846114cc565b92915050565b600060408201905061169d60008301856114cc565b6116aa602083018461161b565b9392505050565b6000610100820190506116c7600083018b6114cc565b6116d4602083018a61161b565b6116e160408301896114db565b6116ee60608301886114cc565b6116fb60808301876114ea565b61170860a083018661161b565b61171560c083018561161b565b81810360e083015261172781846114f9565b90509998505050505050505050565b600060608201905061174b60008301866114cc565b611758602083018561161b565b818103604083015261176a81846114f9565b9050949350505050565b600060208201905061178960008301846114db565b92915050565b600060208201905081810360008301526117a881611549565b9050919050565b600060208201905081810360008301526117c88161156c565b9050919050565b600060208201905081810360008301526117e88161158f565b9050919050565b60006020820190508181036000830152611808816115b2565b9050919050565b60006020820190508181036000830152611828816115d5565b9050919050565b60006020820190508181036000830152611848816115f8565b9050919050565b6000602082019050611864600083018461161b565b92915050565b600081519050919050565b600082825260208201905092915050565b600082825260208201905092915050565b60006118a282611bfe565b91506118ad83611bfe565b9250827fffffffffffffffffffffffffffffffffffffffffffffffffffffffffffffffff038211156118e2576118e1611cd0565b5b828201905092915050565b6000808291508390505b60018511156119375780860481111561191357611912611cd0565b5b60018516156119225780820291505b808102905061193085611d51565b94506118f7565b94509492505050565b600061194b82611bfe565b915061195683611bfe565b92506119837fffffffffffffffffffffffffffffffffffffffffffffffffffffffffffffffff848461198b565b905092915050565b60008261199b5760019050611a57565b816119a95760009050611a57565b81600181146119bf57600281146119c9576119f8565b6001915050611a57565b60ff8411156119db576119da611cd0565b5b8360020a9150848211156119f2576119f1611cd0565b5b50611a57565b5060208310610133831016604e8410600b8410161715611a2d5782820a905083811115611a2857611a27611cd0565b5b611a57565b611a3a84848460016118ed565b92509050818404811115611a5157611a50611cd0565b5b81810290505b9392505050565b6000611a6982611bfe565b9150611a7483611bfe565b9250817fffffffffffffffffffffffffffffffffffffffffffffffffffffffffffffffff0483118215151615611aad57611aac611cd0565b5b828202905092915050565b6000611ac382611bd4565b9150611ace83611bd4565b9250827f800000000000000000000000000000000000000000000000000000000000000001821260008412151615611b0957611b08611cd0565b5b827f7fffffffffffffffffffffffffffffffffffffffffffffffffffffffffffffff018213600084121615611b4157611b40611cd0565b5b828203905092915050565b6000611b5782611bfe565b9150611b6283611bfe565b925082821015611b7557611b74611cd0565b5b828203905092915050565b6000611b8b82611bde565b9050919050565b60008115159050919050565b6000819050919050565b60007fffffffff0000000000000000000000000000000000000000000000000000000082169050919050565b6000819050919050565b600073ffffffffffffffffffffffffffffffffffffffff82169050919050565b6000819050919050565b6000611c1382611c1a565b9050919050565b6000611c2582611c2c565b9050919050565b6000611c3782611bde565b9050919050565b60005b83811015611c5c578082015181840152602081019050611c41565b83811115611c6b576000848401525b50505050565b6000611c7c82611c83565b9050919050565b6000611c8e82611d44565b9050919050565b6000819050919050565b6000611caa82611bfe565b9150611cb583611bfe565b925082611cc557611cc4611cff565b5b828206905092915050565b7f4e487b7100000000000000000000000000000000000000000000000000000000600052601160045260246000fd5b7f4e487b7100000000000000000000000000000000000000000000000000000000600052601260045260246000fd5b600080fd5b6000601f19601f8301169050919050565b60008160601b9050919050565b60008160011c9050919050565b7f4d7573742062652070726f706f736564206f776e657200000000000000000000600082015250565b7f756e61626c6520746f207472616e73666572416e6443616c6c20746f206f726160008201527f636c650000000000000000000000000000000000000000000000000000000000602082015250565b7f4f6e6c792063616c6c61626c65206279206f776e657200000000000000000000600082015250565b7f556e61626c6520746f207472616e736665720000000000000000000000000000600082015250565b7f43616e6e6f74207472616e7366657220746f2073656c66000000000000000000600082015250565b7f536f75726365206d75737420626520746865206f7261636c65206f662074686560008201527f2072657175657374000000000000000000000000000000000000000000000000602082015250565b611ea981611b80565b8114611eb457600080fd5b50565b611ec081611b92565b8114611ecb57600080fd5b50565b611ed781611b9e565b8114611ee257600080fd5b50565b611eee81611bfe565b8114611ef957600080fd5b5056fe68747470733a2f2f6d696e2d6170692e63727970746f636f6d706172652e636f6d2f646174612f70726963656d756c746966756c6c3f6673796d733d455448267473796d733d555344a2646970667358221220d5f73714d5869a1e0514a11219a362c642a2c2bf83600c6ec1ee3930318bf4f264736f6c63430008070033",
					"opcodes": "PUSH1 0x80 PUSH1 0x40 MSTORE PUSH1 0x1 PUSH1 0x4 SSTORE CALLVALUE DUP1 ISZERO PUSH3 0x16 JUMPI PUSH1 0x0 DUP1 REVERT JUMPDEST POP CALLER DUP1 PUSH1 0x0 DUP1 PUSH20 0xFFFFFFFFFFFFFFFFFFFFFFFFFFFFFFFFFFFFFFFF AND DUP3 PUSH20 0xFFFFFFFFFFFFFFFFFFFFFFFFFFFFFFFFFFFFFFFF AND EQ ISZERO PUSH3 0x8D JUMPI PUSH1 0x40 MLOAD PUSH32 0x8C379A000000000000000000000000000000000000000000000000000000000 DUP2 MSTORE PUSH1 0x4 ADD PUSH3 0x84 SWAP1 PUSH3 0x3C2 JUMP JUMPDEST PUSH1 0x40 MLOAD DUP1 SWAP2 SUB SWAP1 REVERT JUMPDEST DUP2 PUSH1 0x6 PUSH1 0x0 PUSH2 0x100 EXP DUP2 SLOAD DUP2 PUSH20 0xFFFFFFFFFFFFFFFFFFFFFFFFFFFFFFFFFFFFFFFF MUL NOT AND SWAP1 DUP4 PUSH20 0xFFFFFFFFFFFFFFFFFFFFFFFFFFFFFFFFFFFFFFFF AND MUL OR SWAP1 SSTORE POP PUSH1 0x0 PUSH20 0xFFFFFFFFFFFFFFFFFFFFFFFFFFFFFFFFFFFFFFFF AND DUP2 PUSH20 0xFFFFFFFFFFFFFFFFFFFFFFFFFFFFFFFFFFFFFFFF AND EQ PUSH3 0x115 JUMPI PUSH3 0x114 DUP2 PUSH3 0x1BA PUSH1 0x20 SHL PUSH1 0x20 SHR JUMP JUMPDEST JUMPDEST POP POP POP PUSH3 0x13D PUSH20 0x326C977E6EFC84E512BB9C30F76E30C160ED06FB PUSH3 0x2EC PUSH1 0x20 SHL PUSH1 0x20 SHR JUMP JUMPDEST PUSH3 0x162 PUSH20 0xCC79157EB46F5624204F47AB42B3906CAA40EAB7 PUSH3 0x330 PUSH1 0x20 SHL PUSH1 0x20 SHR JUMP JUMPDEST PUSH32 0x6361393833363663633733313439353762386330313263373266303561656562 PUSH1 0x9 DUP2 SWAP1 SSTORE POP PUSH1 0xA PUSH8 0xDE0B6B3A7640000 PUSH1 0x1 PUSH3 0x1A2 SWAP2 SWAP1 PUSH3 0x44F JUMP JUMPDEST PUSH3 0x1AE SWAP2 SWAP1 PUSH3 0x417 JUMP JUMPDEST PUSH1 0xA DUP2 SWAP1 SSTORE POP PUSH3 0x56A JUMP JUMPDEST CALLER PUSH20 0xFFFFFFFFFFFFFFFFFFFFFFFFFFFFFFFFFFFFFFFF AND DUP2 PUSH20 0xFFFFFFFFFFFFFFFFFFFFFFFFFFFFFFFFFFFFFFFF AND EQ ISZERO PUSH3 0x22C JUMPI PUSH1 0x40 MLOAD PUSH32 0x8C379A000000000000000000000000000000000000000000000000000000000 DUP2 MSTORE PUSH1 0x4 ADD PUSH3 0x223 SWAP1 PUSH3 0x3E4 JUMP JUMPDEST PUSH1 0x40 MLOAD DUP1 SWAP2 SUB SWAP1 REVERT JUMPDEST DUP1 PUSH1 0x7 PUSH1 0x0 PUSH2 0x100 EXP DUP2 SLOAD DUP2 PUSH20 0xFFFFFFFFFFFFFFFFFFFFFFFFFFFFFFFFFFFFFFFF MUL NOT AND SWAP1 DUP4 PUSH20 0xFFFFFFFFFFFFFFFFFFFFFFFFFFFFFFFFFFFFFFFF AND MUL OR SWAP1 SSTORE POP DUP1 PUSH20 0xFFFFFFFFFFFFFFFFFFFFFFFFFFFFFFFFFFFFFFFF AND PUSH1 0x6 PUSH1 0x0 SWAP1 SLOAD SWAP1 PUSH2 0x100 EXP SWAP1 DIV PUSH20 0xFFFFFFFFFFFFFFFFFFFFFFFFFFFFFFFFFFFFFFFF AND PUSH20 0xFFFFFFFFFFFFFFFFFFFFFFFFFFFFFFFFFFFFFFFF AND PUSH32 0xED8889F560326EB138920D842192F0EB3DD22B4F139C87A2C57538E05BAE1278 PUSH1 0x40 MLOAD PUSH1 0x40 MLOAD DUP1 SWAP2 SUB SWAP1 LOG3 POP JUMP JUMPDEST DUP1 PUSH1 0x2 PUSH1 0x0 PUSH2 0x100 EXP DUP2 SLOAD DUP2 PUSH20 0xFFFFFFFFFFFFFFFFFFFFFFFFFFFFFFFFFFFFFFFF MUL NOT AND SWAP1 DUP4 PUSH20 0xFFFFFFFFFFFFFFFFFFFFFFFFFFFFFFFFFFFFFFFF AND MUL OR SWAP1 SSTORE POP POP JUMP JUMPDEST DUP1 PUSH1 0x3 PUSH1 0x0 PUSH2 0x100 EXP DUP2 SLOAD DUP2 PUSH20 0xFFFFFFFFFFFFFFFFFFFFFFFFFFFFFFFFFFFFFFFF MUL NOT AND SWAP1 DUP4 PUSH20 0xFFFFFFFFFFFFFFFFFFFFFFFFFFFFFFFFFFFFFFFF AND MUL OR SWAP1 SSTORE POP POP JUMP JUMPDEST PUSH1 0x0 PUSH3 0x383 PUSH1 0x18 DUP4 PUSH3 0x406 JUMP JUMPDEST SWAP2 POP PUSH3 0x390 DUP3 PUSH3 0x518 JUMP JUMPDEST PUSH1 0x20 DUP3 ADD SWAP1 POP SWAP2 SWAP1 POP JUMP JUMPDEST PUSH1 0x0 PUSH3 0x3AA PUSH1 0x17 DUP4 PUSH3 0x406 JUMP JUMPDEST SWAP2 POP PUSH3 0x3B7 DUP3 PUSH3 0x541 JUMP JUMPDEST PUSH1 0x20 DUP3 ADD SWAP1 POP SWAP2 SWAP1 POP JUMP JUMPDEST PUSH1 0x0 PUSH1 0x20 DUP3 ADD SWAP1 POP DUP2 DUP2 SUB PUSH1 0x0 DUP4 ADD MSTORE PUSH3 0x3DD DUP2 PUSH3 0x374 JUMP JUMPDEST SWAP1 POP SWAP2 SWAP1 POP JUMP JUMPDEST PUSH1 0x0 PUSH1 0x20 DUP3 ADD SWAP1 POP DUP2 DUP2 SUB PUSH1 0x0 DUP4 ADD MSTORE PUSH3 0x3FF DUP2 PUSH3 0x39B JUMP JUMPDEST SWAP1 POP SWAP2 SWAP1 POP JUMP JUMPDEST PUSH1 0x0 DUP3 DUP3 MSTORE PUSH1 0x20 DUP3 ADD SWAP1 POP SWAP3 SWAP2 POP POP JUMP JUMPDEST PUSH1 0x0 PUSH3 0x424 DUP3 PUSH3 0x4B0 JUMP JUMPDEST SWAP2 POP PUSH3 0x431 DUP4 PUSH3 0x4B0 JUMP JUMPDEST SWAP3 POP DUP3 PUSH3 0x444 JUMPI PUSH3 0x443 PUSH3 0x4E9 JUMP JUMPDEST JUMPDEST DUP3 DUP3 DIV SWAP1 POP SWAP3 SWAP2 POP POP JUMP JUMPDEST PUSH1 0x0 PUSH3 0x45C DUP3 PUSH3 0x4B0 JUMP JUMPDEST SWAP2 POP PUSH3 0x469 DUP4 PUSH3 0x4B0 JUMP JUMPDEST SWAP3 POP DUP2 PUSH32 0xFFFFFFFFFFFFFFFFFFFFFFFFFFFFFFFFFFFFFFFFFFFFFFFFFFFFFFFFFFFFFFFF DIV DUP4 GT DUP3 ISZERO ISZERO AND ISZERO PUSH3 0x4A5 JUMPI PUSH3 0x4A4 PUSH3 0x4BA JUMP JUMPDEST JUMPDEST DUP3 DUP3 MUL SWAP1 POP SWAP3 SWAP2 POP POP JUMP JUMPDEST PUSH1 0x0 DUP2 SWAP1 POP SWAP2 SWAP1 POP JUMP JUMPDEST PUSH32 0x4E487B7100000000000000000000000000000000000000000000000000000000 PUSH1 0x0 MSTORE PUSH1 0x11 PUSH1 0x4 MSTORE PUSH1 0x24 PUSH1 0x0 REVERT JUMPDEST PUSH32 0x4E487B7100000000000000000000000000000000000000000000000000000000 PUSH1 0x0 MSTORE PUSH1 0x12 PUSH1 0x4 MSTORE PUSH1 0x24 PUSH1 0x0 REVERT JUMPDEST PUSH32 0x43616E6E6F7420736574206F776E657220746F207A65726F0000000000000000 PUSH1 0x0 DUP3 ADD MSTORE POP JUMP JUMPDEST PUSH32 0x43616E6E6F74207472616E7366657220746F2073656C66000000000000000000 PUSH1 0x0 DUP3 ADD MSTORE POP JUMP JUMPDEST PUSH2 0x1F7B DUP1 PUSH3 0x57A PUSH1 0x0 CODECOPY PUSH1 0x0 RETURN INVALID PUSH1 0x80 PUSH1 0x40 MSTORE CALLVALUE DUP1 ISZERO PUSH2 0x10 JUMPI PUSH1 0x0 DUP1 REVERT JUMPDEST POP PUSH1 0x4 CALLDATASIZE LT PUSH2 0x7D JUMPI PUSH1 0x0 CALLDATALOAD PUSH1 0xE0 SHR DUP1 PUSH4 0x8DA5CB5B GT PUSH2 0x5B JUMPI DUP1 PUSH4 0x8DA5CB5B EQ PUSH2 0xC6 JUMPI DUP1 PUSH4 0x8DC654A2 EQ PUSH2 0xE4 JUMPI DUP1 PUSH4 0xC618A1E4 EQ PUSH2 0xEE JUMPI DUP1 PUSH4 0xF2FDE38B EQ PUSH2 0x10C JUMPI PUSH2 0x7D JUMP JUMPDEST DUP1 PUSH4 0x4357855E EQ PUSH2 0x82 JUMPI DUP1 PUSH4 0x6021ABAC EQ PUSH2 0x9E JUMPI DUP1 PUSH4 0x79BA5097 EQ PUSH2 0xBC JUMPI JUMPDEST PUSH1 0x0 DUP1 REVERT JUMPDEST PUSH2 0x9C PUSH1 0x4 DUP1 CALLDATASIZE SUB DUP2 ADD SWAP1 PUSH2 0x97 SWAP2 SWAP1 PUSH2 0x145F JUMP JUMPDEST PUSH2 0x128 JUMP JUMPDEST STOP JUMPDEST PUSH2 0xA6 PUSH2 0x271 JUMP JUMPDEST PUSH1 0x40 MLOAD PUSH2 0xB3 SWAP2 SWAP1 PUSH2 0x1774 JUMP JUMPDEST PUSH1 0x40 MLOAD DUP1 SWAP2 SUB SWAP1 RETURN JUMPDEST PUSH2 0xC4 PUSH2 0x3D5 JUMP JUMPDEST STOP JUMPDEST PUSH2 0xCE PUSH2 0x56C JUMP JUMPDEST PUSH1 0x40 MLOAD PUSH2 0xDB SWAP2 SWAP1 PUSH2 0x166D JUMP JUMPDEST PUSH1 0x40 MLOAD DUP1 SWAP2 SUB SWAP1 RETURN JUMPDEST PUSH2 0xEC PUSH2 0x596 JUMP JUMPDEST STOP JUMPDEST PUSH2 0xF6 PUSH2 0x701 JUMP JUMPDEST PUSH1 0x40 MLOAD PUSH2 0x103 SWAP2 SWAP1 PUSH2 0x184F JUMP JUMPDEST PUSH1 0x40 MLOAD DUP1 SWAP2 SUB SWAP1 RETURN JUMPDEST PUSH2 0x126 PUSH1 0x4 DUP1 CALLDATASIZE SUB DUP2 ADD SWAP1 PUSH2 0x121 SWAP2 SWAP1 PUSH2 0x1405 JUMP JUMPDEST PUSH2 0x707 JUMP JUMPDEST STOP JUMPDEST DUP2 PUSH1 0x5 PUSH1 0x0 DUP3 DUP2 MSTORE PUSH1 0x20 ADD SWAP1 DUP2 MSTORE PUSH1 0x20 ADD PUSH1 0x0 KECCAK256 PUSH1 0x0 SWAP1 SLOAD SWAP1 PUSH2 0x100 EXP SWAP1 DIV PUSH20 0xFFFFFFFFFFFFFFFFFFFFFFFFFFFFFFFFFFFFFFFF AND PUSH20 0xFFFFFFFFFFFFFFFFFFFFFFFFFFFFFFFFFFFFFFFF AND CALLER PUSH20 0xFFFFFFFFFFFFFFFFFFFFFFFFFFFFFFFFFFFFFFFF AND EQ PUSH2 0x1CA JUMPI PUSH1 0x40 MLOAD PUSH32 0x8C379A000000000000000000000000000000000000000000000000000000000 DUP2 MSTORE PUSH1 0x4 ADD PUSH2 0x1C1 SWAP1 PUSH2 0x182F JUMP JUMPDEST PUSH1 0x40 MLOAD DUP1 SWAP2 SUB SWAP1 REVERT JUMPDEST PUSH1 0x5 PUSH1 0x0 DUP3 DUP2 MSTORE PUSH1 0x20 ADD SWAP1 DUP2 MSTORE PUSH1 0x20 ADD PUSH1 0x0 KECCAK256 PUSH1 0x0 PUSH2 0x100 EXP DUP2 SLOAD SWAP1 PUSH20 0xFFFFFFFFFFFFFFFFFFFFFFFFFFFFFFFFFFFFFFFF MUL NOT AND SWAP1 SSTORE DUP1 PUSH32 0x7CC135E0CEBB02C3480AE5D74D377283180A2601F8F644EDF7987B009316C63A PUSH1 0x40 MLOAD PUSH1 0x40 MLOAD DUP1 SWAP2 SUB SWAP1 LOG2 DUP3 PUSH32 0x673B38182859A514D734BDFCB49D3A05C4A641DEC9311D9894C9717BCB79AF76 DUP4 PUSH1 0x40 MLOAD PUSH2 0x25D SWAP2 SWAP1 PUSH2 0x184F JUMP JUMPDEST PUSH1 0x40 MLOAD DUP1 SWAP2 SUB SWAP1 LOG2 DUP2 PUSH1 0x8 DUP2 SWAP1 SSTORE POP POP POP POP JUMP JUMPDEST PUSH1 0x0 DUP1 PUSH2 0x288 PUSH1 0x9 SLOAD ADDRESS PUSH4 0x4357855E PUSH1 0xE0 SHL PUSH2 0x71B JUMP JUMPDEST SWAP1 POP PUSH2 0x2EC PUSH1 0x40 MLOAD DUP1 PUSH1 0x40 ADD PUSH1 0x40 MSTORE DUP1 PUSH1 0x3 DUP2 MSTORE PUSH1 0x20 ADD PUSH32 0x6765740000000000000000000000000000000000000000000000000000000000 DUP2 MSTORE POP PUSH1 0x40 MLOAD DUP1 PUSH1 0x80 ADD PUSH1 0x40 MSTORE DUP1 PUSH1 0x49 DUP2 MSTORE PUSH1 0x20 ADD PUSH2 0x1EFD PUSH1 0x49 SWAP2 CODECOPY DUP4 PUSH2 0x74C SWAP1 SWAP3 SWAP2 SWAP1 PUSH4 0xFFFFFFFF AND JUMP JUMPDEST PUSH2 0x36B PUSH1 0x40 MLOAD DUP1 PUSH1 0x40 ADD PUSH1 0x40 MSTORE DUP1 PUSH1 0x4 DUP2 MSTORE PUSH1 0x20 ADD PUSH32 0x7061746800000000000000000000000000000000000000000000000000000000 DUP2 MSTORE POP PUSH1 0x40 MLOAD DUP1 PUSH1 0x40 ADD PUSH1 0x40 MSTORE DUP1 PUSH1 0x18 DUP2 MSTORE PUSH1 0x20 ADD PUSH32 0x5241572C4554482C5553442C564F4C554D453234484F55520000000000000000 DUP2 MSTORE POP DUP4 PUSH2 0x74C SWAP1 SWAP3 SWAP2 SWAP1 PUSH4 0xFFFFFFFF AND JUMP JUMPDEST PUSH1 0x0 PUSH8 0xDE0B6B3A7640000 SWAP1 POP PUSH2 0x3C2 PUSH1 0x40 MLOAD DUP1 PUSH1 0x40 ADD PUSH1 0x40 MSTORE DUP1 PUSH1 0x5 DUP2 MSTORE PUSH1 0x20 ADD PUSH32 0x74696D6573000000000000000000000000000000000000000000000000000000 DUP2 MSTORE POP DUP3 DUP5 PUSH2 0x77F SWAP1 SWAP3 SWAP2 SWAP1 PUSH4 0xFFFFFFFF AND JUMP JUMPDEST PUSH2 0x3CE DUP3 PUSH1 0xA SLOAD PUSH2 0x7B2 JUMP JUMPDEST SWAP3 POP POP POP SWAP1 JUMP JUMPDEST PUSH1 0x7 PUSH1 0x0 SWAP1 SLOAD SWAP1 PUSH2 0x100 EXP SWAP1 DIV PUSH20 0xFFFFFFFFFFFFFFFFFFFFFFFFFFFFFFFFFFFFFFFF AND PUSH20 0xFFFFFFFFFFFFFFFFFFFFFFFFFFFFFFFFFFFFFFFF AND CALLER PUSH20 0xFFFFFFFFFFFFFFFFFFFFFFFFFFFFFFFFFFFFFFFF AND EQ PUSH2 0x465 JUMPI PUSH1 0x40 MLOAD PUSH32 0x8C379A000000000000000000000000000000000000000000000000000000000 DUP2 MSTORE PUSH1 0x4 ADD PUSH2 0x45C SWAP1 PUSH2 0x178F JUMP JUMPDEST PUSH1 0x40 MLOAD DUP1 SWAP2 SUB SWAP1 REVERT JUMPDEST PUSH1 0x0 PUSH1 0x6 PUSH1 0x0 SWAP1 SLOAD SWAP1 PUSH2 0x100 EXP SWAP1 DIV PUSH20 0xFFFFFFFFFFFFFFFFFFFFFFFFFFFFFFFFFFFFFFFF AND SWAP1 POP CALLER PUSH1 0x6 PUSH1 0x0 PUSH2 0x100 EXP DUP2 SLOAD DUP2 PUSH20 0xFFFFFFFFFFFFFFFFFFFFFFFFFFFFFFFFFFFFFFFF MUL NOT AND SWAP1 DUP4 PUSH20 0xFFFFFFFFFFFFFFFFFFFFFFFFFFFFFFFFFFFFFFFF AND MUL OR SWAP1 SSTORE POP PUSH1 0x0 PUSH1 0x7 PUSH1 0x0 PUSH2 0x100 EXP DUP2 SLOAD DUP2 PUSH20 0xFFFFFFFFFFFFFFFFFFFFFFFFFFFFFFFFFFFFFFFF MUL NOT AND SWAP1 DUP4 PUSH20 0xFFFFFFFFFFFFFFFFFFFFFFFFFFFFFFFFFFFFFFFF AND MUL OR SWAP1 SSTORE POP CALLER PUSH20 0xFFFFFFFFFFFFFFFFFFFFFFFFFFFFFFFFFFFFFFFF AND DUP2 PUSH20 0xFFFFFFFFFFFFFFFFFFFFFFFFFFFFFFFFFFFFFFFF AND PUSH32 0x8BE0079C531659141344CD1FD0A4F28419497F9722A3DAAFE3B4186F6B6457E0 PUSH1 0x40 MLOAD PUSH1 0x40 MLOAD DUP1 SWAP2 SUB SWAP1 LOG3 POP JUMP JUMPDEST PUSH1 0x0 PUSH1 0x6 PUSH1 0x0 SWAP1 SLOAD SWAP1 PUSH2 0x100 EXP SWAP1 DIV PUSH20 0xFFFFFFFFFFFFFFFFFFFFFFFFFFFFFFFFFFFFFFFF AND SWAP1 POP SWAP1 JUMP JUMPDEST PUSH2 0x59E PUSH2 0x7E9 JUMP JUMPDEST PUSH1 0x0 PUSH2 0x5A8 PUSH2 0x87B JUMP JUMPDEST SWAP1 POP DUP1 PUSH20 0xFFFFFFFFFFFFFFFFFFFFFFFFFFFFFFFFFFFFFFFF AND PUSH4 0xA9059CBB CALLER DUP4 PUSH20 0xFFFFFFFFFFFFFFFFFFFFFFFFFFFFFFFFFFFFFFFF AND PUSH4 0x70A08231 ADDRESS PUSH1 0x40 MLOAD DUP3 PUSH4 0xFFFFFFFF AND PUSH1 0xE0 SHL DUP2 MSTORE PUSH1 0x4 ADD PUSH2 0x600 SWAP2 SWAP1 PUSH2 0x166D JUMP JUMPDEST PUSH1 0x20 PUSH1 0x40 MLOAD DUP1 DUP4 SUB DUP2 DUP7 DUP1 EXTCODESIZE ISZERO DUP1 ISZERO PUSH2 0x618 JUMPI PUSH1 0x0 DUP1 REVERT JUMPDEST POP GAS STATICCALL ISZERO DUP1 ISZERO PUSH2 0x62C JUMPI RETURNDATASIZE PUSH1 0x0 DUP1 RETURNDATACOPY RETURNDATASIZE PUSH1 0x0 REVERT JUMPDEST POP POP POP POP PUSH1 0x40 MLOAD RETURNDATASIZE PUSH1 0x1F NOT PUSH1 0x1F DUP3 ADD AND DUP3 ADD DUP1 PUSH1 0x40 MSTORE POP DUP2 ADD SWAP1 PUSH2 0x650 SWAP2 SWAP1 PUSH2 0x149F JUMP JUMPDEST PUSH1 0x40 MLOAD DUP4 PUSH4 0xFFFFFFFF AND PUSH1 0xE0 SHL DUP2 MSTORE PUSH1 0x4 ADD PUSH2 0x66D SWAP3 SWAP2 SWAP1 PUSH2 0x1688 JUMP JUMPDEST PUSH1 0x20 PUSH1 0x40 MLOAD DUP1 DUP4 SUB DUP2 PUSH1 0x0 DUP8 DUP1 EXTCODESIZE ISZERO DUP1 ISZERO PUSH2 0x687 JUMPI PUSH1 0x0 DUP1 REVERT JUMPDEST POP GAS CALL ISZERO DUP1 ISZERO PUSH2 0x69B JUMPI RETURNDATASIZE PUSH1 0x0 DUP1 RETURNDATACOPY RETURNDATASIZE PUSH1 0x0 REVERT JUMPDEST POP POP POP POP PUSH1 0x40 MLOAD RETURNDATASIZE PUSH1 0x1F NOT PUSH1 0x1F DUP3 ADD AND DUP3 ADD DUP1 PUSH1 0x40 MSTORE POP DUP2 ADD SWAP1 PUSH2 0x6BF SWAP2 SWAP1 PUSH2 0x1432 JUMP JUMPDEST PUSH2 0x6FE JUMPI PUSH1 0x40 MLOAD PUSH32 0x8C379A000000000000000000000000000000000000000000000000000000000 DUP2 MSTORE PUSH1 0x4 ADD PUSH2 0x6F5 SWAP1 PUSH2 0x17EF JUMP JUMPDEST PUSH1 0x40 MLOAD DUP1 SWAP2 SUB SWAP1 REVERT JUMPDEST POP JUMP JUMPDEST PUSH1 0x8 SLOAD DUP2 JUMP JUMPDEST PUSH2 0x70F PUSH2 0x7E9 JUMP JUMPDEST PUSH2 0x718 DUP2 PUSH2 0x8A5 JUMP JUMPDEST POP JUMP JUMPDEST PUSH2 0x723 PUSH2 0x1315 JUMP JUMPDEST PUSH2 0x72B PUSH2 0x1315 JUMP JUMPDEST PUSH2 0x742 DUP6 DUP6 DUP6 DUP5 PUSH2 0x9D4 SWAP1 SWAP4 SWAP3 SWAP2 SWAP1 PUSH4 0xFFFFFFFF AND JUMP JUMPDEST SWAP2 POP POP SWAP4 SWAP3 POP POP POP JUMP JUMPDEST PUSH2 0x763 DUP3 DUP5 PUSH1 0x80 ADD MLOAD PUSH2 0xA84 SWAP1 SWAP2 SWAP1 PUSH4 0xFFFFFFFF AND JUMP JUMPDEST PUSH2 0x77A DUP2 DUP5 PUSH1 0x80 ADD MLOAD PUSH2 0xA84 SWAP1 SWAP2 SWAP1 PUSH4 0xFFFFFFFF AND JUMP JUMPDEST POP POP POP JUMP JUMPDEST PUSH2 0x796 DUP3 DUP5 PUSH1 0x80 ADD MLOAD PUSH2 0xA84 SWAP1 SWAP2 SWAP1 PUSH4 0xFFFFFFFF AND JUMP JUMPDEST PUSH2 0x7AD DUP2 DUP5 PUSH1 0x80 ADD MLOAD PUSH2 0xAA9 SWAP1 SWAP2 SWAP1 PUSH4 0xFFFFFFFF AND JUMP JUMPDEST POP POP POP JUMP JUMPDEST PUSH1 0x0 PUSH2 0x7E1 PUSH1 0x3 PUSH1 0x0 SWAP1 SLOAD SWAP1 PUSH2 0x100 EXP SWAP1 DIV PUSH20 0xFFFFFFFFFFFFFFFFFFFFFFFFFFFFFFFFFFFFFFFF AND DUP5 DUP5 PUSH2 0xB56 JUMP JUMPDEST SWAP1 POP SWAP3 SWAP2 POP POP JUMP JUMPDEST PUSH1 0x6 PUSH1 0x0 SWAP1 SLOAD SWAP1 PUSH2 0x100 EXP SWAP1 DIV PUSH20 0xFFFFFFFFFFFFFFFFFFFFFFFFFFFFFFFFFFFFFFFF AND PUSH20 0xFFFFFFFFFFFFFFFFFFFFFFFFFFFFFFFFFFFFFFFF AND CALLER PUSH20 0xFFFFFFFFFFFFFFFFFFFFFFFFFFFFFFFFFFFFFFFF AND EQ PUSH2 0x879 JUMPI PUSH1 0x40 MLOAD PUSH32 0x8C379A000000000000000000000000000000000000000000000000000000000 DUP2 MSTORE PUSH1 0x4 ADD PUSH2 0x870 SWAP1 PUSH2 0x17CF JUMP JUMPDEST PUSH1 0x40 MLOAD DUP1 SWAP2 SUB SWAP1 REVERT JUMPDEST JUMP JUMPDEST PUSH1 0x0 PUSH1 0x2 PUSH1 0x0 SWAP1 SLOAD SWAP1 PUSH2 0x100 EXP SWAP1 DIV PUSH20 0xFFFFFFFFFFFFFFFFFFFFFFFFFFFFFFFFFFFFFFFF AND SWAP1 POP SWAP1 JUMP JUMPDEST CALLER PUSH20 0xFFFFFFFFFFFFFFFFFFFFFFFFFFFFFFFFFFFFFFFF AND DUP2 PUSH20 0xFFFFFFFFFFFFFFFFFFFFFFFFFFFFFFFFFFFFFFFF AND EQ ISZERO PUSH2 0x914 JUMPI PUSH1 0x40 MLOAD PUSH32 0x8C379A000000000000000000000000000000000000000000000000000000000 DUP2 MSTORE PUSH1 0x4 ADD PUSH2 0x90B SWAP1 PUSH2 0x180F JUMP JUMPDEST PUSH1 0x40 MLOAD DUP1 SWAP2 SUB SWAP1 REVERT JUMPDEST DUP1 PUSH1 0x7 PUSH1 0x0 PUSH2 0x100 EXP DUP2 SLOAD DUP2 PUSH20 0xFFFFFFFFFFFFFFFFFFFFFFFFFFFFFFFFFFFFFFFF MUL NOT AND SWAP1 DUP4 PUSH20 0xFFFFFFFFFFFFFFFFFFFFFFFFFFFFFFFFFFFFFFFF AND MUL OR SWAP1 SSTORE POP DUP1 PUSH20 0xFFFFFFFFFFFFFFFFFFFFFFFFFFFFFFFFFFFFFFFF AND PUSH1 0x6 PUSH1 0x0 SWAP1 SLOAD SWAP1 PUSH2 0x100 EXP SWAP1 DIV PUSH20 0xFFFFFFFFFFFFFFFFFFFFFFFFFFFFFFFFFFFFFFFF AND PUSH20 0xFFFFFFFFFFFFFFFFFFFFFFFFFFFFFFFFFFFFFFFF AND PUSH32 0xED8889F560326EB138920D842192F0EB3DD22B4F139C87A2C57538E05BAE1278 PUSH1 0x40 MLOAD PUSH1 0x40 MLOAD DUP1 SWAP2 SUB SWAP1 LOG3 POP JUMP JUMPDEST PUSH2 0x9DC PUSH2 0x1315 JUMP JUMPDEST PUSH2 0x9EC DUP6 PUSH1 0x80 ADD MLOAD PUSH2 0x100 PUSH2 0xC22 JUMP JUMPDEST POP DUP4 DUP6 PUSH1 0x0 ADD DUP2 DUP2 MSTORE POP POP DUP3 DUP6 PUSH1 0x20 ADD SWAP1 PUSH20 0xFFFFFFFFFFFFFFFFFFFFFFFFFFFFFFFFFFFFFFFF AND SWAP1 DUP2 PUSH20 0xFFFFFFFFFFFFFFFFFFFFFFFFFFFFFFFFFFFFFFFF AND DUP2 MSTORE POP POP DUP2 DUP6 PUSH1 0x40 ADD SWAP1 PUSH28 0xFFFFFFFFFFFFFFFFFFFFFFFFFFFFFFFFFFFFFFFFFFFFFFFFFFFFFFFF NOT AND SWAP1 DUP2 PUSH28 0xFFFFFFFFFFFFFFFFFFFFFFFFFFFFFFFFFFFFFFFFFFFFFFFFFFFFFFFF NOT AND DUP2 MSTORE POP POP DUP5 SWAP1 POP SWAP5 SWAP4 POP POP POP POP JUMP JUMPDEST PUSH2 0xA91 DUP3 PUSH1 0x3 DUP4 MLOAD PUSH2 0xC8C JUMP JUMPDEST PUSH2 0xAA4 DUP2 DUP4 PUSH2 0xE11 SWAP1 SWAP2 SWAP1 PUSH4 0xFFFFFFFF AND JUMP JUMPDEST POP POP POP JUMP JUMPDEST PUSH32 0xFFFFFFFFFFFFFFFFFFFFFFFFFFFFFFFFFFFFFFFFFFFFFFFF0000000000000000 DUP2 SLT ISZERO PUSH2 0xAE0 JUMPI PUSH2 0xADB DUP3 DUP3 PUSH2 0xE33 JUMP JUMPDEST PUSH2 0xB52 JUMP JUMPDEST PUSH8 0xFFFFFFFFFFFFFFFF DUP2 SGT ISZERO PUSH2 0xAFF JUMPI PUSH2 0xAFA DUP3 DUP3 PUSH2 0xEAA JUMP JUMPDEST PUSH2 0xB51 JUMP JUMPDEST PUSH1 0x0 DUP2 SLT PUSH2 0xB18 JUMPI PUSH2 0xB13 DUP3 PUSH1 0x0 DUP4 PUSH2 0xC8C JUMP JUMPDEST PUSH2 0xB50 JUMP JUMPDEST PUSH2 0xB4F DUP3 PUSH1 0x1 DUP4 PUSH32 0xFFFFFFFFFFFFFFFFFFFFFFFFFFFFFFFFFFFFFFFFFFFFFFFFFFFFFFFFFFFFFFFF PUSH2 0xB4A SWAP2 SWAP1 PUSH2 0x1AB8 JUMP JUMPDEST PUSH2 0xC8C JUMP JUMPDEST JUMPDEST JUMPDEST JUMPDEST POP POP JUMP JUMPDEST PUSH1 0x0 DUP1 PUSH1 0x4 SLOAD SWAP1 POP PUSH1 0x1 DUP2 PUSH2 0xB6B SWAP2 SWAP1 PUSH2 0x1897 JUMP JUMPDEST PUSH1 0x4 DUP2 SWAP1 SSTORE POP PUSH1 0x0 PUSH4 0x40429946 PUSH1 0xE0 SHL PUSH1 0x0 DUP1 DUP8 PUSH1 0x0 ADD MLOAD ADDRESS DUP10 PUSH1 0x40 ADD MLOAD DUP8 PUSH1 0x1 DUP13 PUSH1 0x80 ADD MLOAD PUSH1 0x0 ADD MLOAD PUSH1 0x40 MLOAD PUSH1 0x24 ADD PUSH2 0xBAC SWAP9 SWAP8 SWAP7 SWAP6 SWAP5 SWAP4 SWAP3 SWAP2 SWAP1 PUSH2 0x16B1 JUMP JUMPDEST PUSH1 0x40 MLOAD PUSH1 0x20 DUP2 DUP4 SUB SUB DUP2 MSTORE SWAP1 PUSH1 0x40 MSTORE SWAP1 PUSH28 0xFFFFFFFFFFFFFFFFFFFFFFFFFFFFFFFFFFFFFFFFFFFFFFFFFFFFFFFF NOT AND PUSH1 0x20 DUP3 ADD DUP1 MLOAD PUSH28 0xFFFFFFFFFFFFFFFFFFFFFFFFFFFFFFFFFFFFFFFFFFFFFFFFFFFFFFFF DUP4 DUP2 DUP4 AND OR DUP4 MSTORE POP POP POP POP SWAP1 POP PUSH2 0xC17 DUP7 DUP4 DUP7 DUP5 PUSH2 0xEF6 JUMP JUMPDEST SWAP3 POP POP POP SWAP4 SWAP3 POP POP POP JUMP JUMPDEST PUSH2 0xC2A PUSH2 0x1382 JUMP JUMPDEST PUSH1 0x0 PUSH1 0x20 DUP4 PUSH2 0xC39 SWAP2 SWAP1 PUSH2 0x1C9F JUMP JUMPDEST EQ PUSH2 0xC65 JUMPI PUSH1 0x20 DUP3 PUSH2 0xC4B SWAP2 SWAP1 PUSH2 0x1C9F JUMP JUMPDEST PUSH1 0x20 PUSH2 0xC57 SWAP2 SWAP1 PUSH2 0x1B4C JUMP JUMPDEST DUP3 PUSH2 0xC62 SWAP2 SWAP1 PUSH2 0x1897 JUMP JUMPDEST SWAP2 POP JUMPDEST DUP2 DUP4 PUSH1 0x20 ADD DUP2 DUP2 MSTORE POP POP PUSH1 0x40 MLOAD DUP1 DUP5 MSTORE PUSH1 0x0 DUP2 MSTORE DUP3 DUP2 ADD PUSH1 0x20 ADD PUSH1 0x40 MSTORE POP DUP3 SWAP1 POP SWAP3 SWAP2 POP POP JUMP JUMPDEST PUSH1 0x17 DUP2 PUSH8 0xFFFFFFFFFFFFFFFF AND GT PUSH2 0xCC3 JUMPI PUSH2 0xCBD DUP2 PUSH1 0x5 DUP5 PUSH1 0xFF AND SWAP1 SHL PUSH1 0xFF AND OR DUP5 PUSH2 0x109A SWAP1 SWAP2 SWAP1 PUSH4 0xFFFFFFFF AND JUMP JUMPDEST POP PUSH2 0xE0C JUMP JUMPDEST PUSH1 0xFF DUP2 PUSH8 0xFFFFFFFFFFFFFFFF AND GT PUSH2 0xD19 JUMPI PUSH2 0xCF2 PUSH1 0x18 PUSH1 0x5 DUP5 PUSH1 0xFF AND SWAP1 SHL OR DUP5 PUSH2 0x109A SWAP1 SWAP2 SWAP1 PUSH4 0xFFFFFFFF AND JUMP JUMPDEST POP PUSH2 0xD13 DUP2 PUSH8 0xFFFFFFFFFFFFFFFF AND PUSH1 0x1 DUP6 PUSH2 0x10BA SWAP1 SWAP3 SWAP2 SWAP1 PUSH4 0xFFFFFFFF AND JUMP JUMPDEST POP PUSH2 0xE0B JUMP JUMPDEST PUSH2 0xFFFF DUP2 PUSH8 0xFFFFFFFFFFFFFFFF AND GT PUSH2 0xD70 JUMPI PUSH2 0xD49 PUSH1 0x19 PUSH1 0x5 DUP5 PUSH1 0xFF AND SWAP1 SHL OR DUP5 PUSH2 0x109A SWAP1 SWAP2 SWAP1 PUSH4 0xFFFFFFFF AND JUMP JUMPDEST POP PUSH2 0xD6A DUP2 PUSH8 0xFFFFFFFFFFFFFFFF AND PUSH1 0x2 DUP6 PUSH2 0x10BA SWAP1 SWAP3 SWAP2 SWAP1 PUSH4 0xFFFFFFFF AND JUMP JUMPDEST POP PUSH2 0xE0A JUMP JUMPDEST PUSH4 0xFFFFFFFF DUP2 PUSH8 0xFFFFFFFFFFFFFFFF AND GT PUSH2 0xDC9 JUMPI PUSH2 0xDA2 PUSH1 0x1A PUSH1 0x5 DUP5 PUSH1 0xFF AND SWAP1 SHL OR DUP5 PUSH2 0x109A SWAP1 SWAP2 SWAP1 PUSH4 0xFFFFFFFF AND JUMP JUMPDEST POP PUSH2 0xDC3 DUP2 PUSH8 0xFFFFFFFFFFFFFFFF AND PUSH1 0x4 DUP6 PUSH2 0x10BA SWAP1 SWAP3 SWAP2 SWAP1 PUSH4 0xFFFFFFFF AND JUMP JUMPDEST POP PUSH2 0xE09 JUMP JUMPDEST PUSH2 0xDE6 PUSH1 0x1B PUSH1 0x5 DUP5 PUSH1 0xFF AND SWAP1 SHL OR DUP5 PUSH2 0x109A SWAP1 SWAP2 SWAP1 PUSH4 0xFFFFFFFF AND JUMP JUMPDEST POP PUSH2 0xE07 DUP2 PUSH8 0xFFFFFFFFFFFFFFFF AND PUSH1 0x8 DUP6 PUSH2 0x10BA SWAP1 SWAP3 SWAP2 SWAP1 PUSH4 0xFFFFFFFF AND JUMP JUMPDEST POP JUMPDEST JUMPDEST JUMPDEST JUMPDEST POP POP POP JUMP JUMPDEST PUSH2 0xE19 PUSH2 0x1382 JUMP JUMPDEST PUSH2 0xE2B DUP4 DUP5 PUSH1 0x0 ADD MLOAD MLOAD DUP5 DUP6 MLOAD PUSH2 0x10DC JUMP JUMPDEST SWAP1 POP SWAP3 SWAP2 POP POP JUMP JUMPDEST PUSH2 0xE51 PUSH1 0x3 PUSH1 0x5 PUSH1 0x6 PUSH1 0xFF AND SWAP1 SHL OR DUP4 PUSH2 0x109A SWAP1 SWAP2 SWAP1 PUSH4 0xFFFFFFFF AND JUMP JUMPDEST POP PUSH2 0xEA6 DUP3 DUP3 PUSH32 0xFFFFFFFFFFFFFFFFFFFFFFFFFFFFFFFFFFFFFFFFFFFFFFFFFFFFFFFFFFFFFFFF PUSH2 0xE82 SWAP2 SWAP1 PUSH2 0x1AB8 JUMP JUMPDEST PUSH1 0x40 MLOAD PUSH1 0x20 ADD PUSH2 0xE92 SWAP2 SWAP1 PUSH2 0x184F JUMP JUMPDEST PUSH1 0x40 MLOAD PUSH1 0x20 DUP2 DUP4 SUB SUB DUP2 MSTORE SWAP1 PUSH1 0x40 MSTORE PUSH2 0x11CB JUMP JUMPDEST POP POP JUMP JUMPDEST PUSH2 0xEC8 PUSH1 0x2 PUSH1 0x5 PUSH1 0x6 PUSH1 0xFF AND SWAP1 SHL OR DUP4 PUSH2 0x109A SWAP1 SWAP2 SWAP1 PUSH4 0xFFFFFFFF AND JUMP JUMPDEST POP PUSH2 0xEF2 DUP3 DUP3 PUSH1 0x40 MLOAD PUSH1 0x20 ADD PUSH2 0xEDE SWAP2 SWAP1 PUSH2 0x184F JUMP JUMPDEST PUSH1 0x40 MLOAD PUSH1 0x20 DUP2 DUP4 SUB SUB DUP2 MSTORE SWAP1 PUSH1 0x40 MSTORE PUSH2 0x11CB JUMP JUMPDEST POP POP JUMP JUMPDEST PUSH1 0x0 ADDRESS DUP5 PUSH1 0x40 MLOAD PUSH1 0x20 ADD PUSH2 0xF0B SWAP3 SWAP2 SWAP1 PUSH2 0x1641 JUMP JUMPDEST PUSH1 0x40 MLOAD PUSH1 0x20 DUP2 DUP4 SUB SUB DUP2 MSTORE SWAP1 PUSH1 0x40 MSTORE DUP1 MLOAD SWAP1 PUSH1 0x20 ADD KECCAK256 SWAP1 POP DUP5 PUSH1 0x5 PUSH1 0x0 DUP4 DUP2 MSTORE PUSH1 0x20 ADD SWAP1 DUP2 MSTORE PUSH1 0x20 ADD PUSH1 0x0 KECCAK256 PUSH1 0x0 PUSH2 0x100 EXP DUP2 SLOAD DUP2 PUSH20 0xFFFFFFFFFFFFFFFFFFFFFFFFFFFFFFFFFFFFFFFF MUL NOT AND SWAP1 DUP4 PUSH20 0xFFFFFFFFFFFFFFFFFFFFFFFFFFFFFFFFFFFFFFFF AND MUL OR SWAP1 SSTORE POP DUP1 PUSH32 0xB5E6E01E79F91267DC17B4E6314D5D4D03593D2CEEE0FBB452B750BD70EA5AF9 PUSH1 0x40 MLOAD PUSH1 0x40 MLOAD DUP1 SWAP2 SUB SWAP1 LOG2 PUSH1 0x2 PUSH1 0x0 SWAP1 SLOAD SWAP1 PUSH2 0x100 EXP SWAP1 DIV PUSH20 0xFFFFFFFFFFFFFFFFFFFFFFFFFFFFFFFFFFFFFFFF AND PUSH20 0xFFFFFFFFFFFFFFFFFFFFFFFFFFFFFFFFFFFFFFFF AND PUSH4 0x4000AEA0 DUP7 DUP6 DUP6 PUSH1 0x40 MLOAD DUP5 PUSH4 0xFFFFFFFF AND PUSH1 0xE0 SHL DUP2 MSTORE PUSH1 0x4 ADD PUSH2 0x1001 SWAP4 SWAP3 SWAP2 SWAP1 PUSH2 0x1736 JUMP JUMPDEST PUSH1 0x20 PUSH1 0x40 MLOAD DUP1 DUP4 SUB DUP2 PUSH1 0x0 DUP8 DUP1 EXTCODESIZE ISZERO DUP1 ISZERO PUSH2 0x101B JUMPI PUSH1 0x0 DUP1 REVERT JUMPDEST POP GAS CALL ISZERO DUP1 ISZERO PUSH2 0x102F JUMPI RETURNDATASIZE PUSH1 0x0 DUP1 RETURNDATACOPY RETURNDATASIZE PUSH1 0x0 REVERT JUMPDEST POP POP POP POP PUSH1 0x40 MLOAD RETURNDATASIZE PUSH1 0x1F NOT PUSH1 0x1F DUP3 ADD AND DUP3 ADD DUP1 PUSH1 0x40 MSTORE POP DUP2 ADD SWAP1 PUSH2 0x1053 SWAP2 SWAP1 PUSH2 0x1432 JUMP JUMPDEST PUSH2 0x1092 JUMPI PUSH1 0x40 MLOAD PUSH32 0x8C379A000000000000000000000000000000000000000000000000000000000 DUP2 MSTORE PUSH1 0x4 ADD PUSH2 0x1089 SWAP1 PUSH2 0x17AF JUMP JUMPDEST PUSH1 0x40 MLOAD DUP1 SWAP2 SUB SWAP1 REVERT JUMPDEST SWAP5 SWAP4 POP POP POP POP JUMP JUMPDEST PUSH2 0x10A2 PUSH2 0x1382 JUMP JUMPDEST PUSH2 0x10B2 DUP4 DUP5 PUSH1 0x0 ADD MLOAD MLOAD DUP5 PUSH2 0x11F0 JUMP JUMPDEST SWAP1 POP SWAP3 SWAP2 POP POP JUMP JUMPDEST PUSH2 0x10C2 PUSH2 0x1382 JUMP JUMPDEST PUSH2 0x10D3 DUP5 DUP6 PUSH1 0x0 ADD MLOAD MLOAD DUP6 DUP6 PUSH2 0x1247 JUMP JUMPDEST SWAP1 POP SWAP4 SWAP3 POP POP POP JUMP JUMPDEST PUSH2 0x10E4 PUSH2 0x1382 JUMP JUMPDEST DUP3 MLOAD DUP3 GT ISZERO PUSH2 0x10F2 JUMPI PUSH1 0x0 DUP1 REVERT JUMPDEST DUP5 PUSH1 0x20 ADD MLOAD DUP3 DUP6 PUSH2 0x1103 SWAP2 SWAP1 PUSH2 0x1897 JUMP JUMPDEST GT ISZERO PUSH2 0x1138 JUMPI PUSH2 0x1137 DUP6 PUSH1 0x2 PUSH2 0x1128 DUP9 PUSH1 0x20 ADD MLOAD DUP9 DUP8 PUSH2 0x1123 SWAP2 SWAP1 PUSH2 0x1897 JUMP JUMPDEST PUSH2 0x12D5 JUMP JUMPDEST PUSH2 0x1132 SWAP2 SWAP1 PUSH2 0x1A5E JUMP JUMPDEST PUSH2 0x12F1 JUMP JUMPDEST JUMPDEST PUSH1 0x0 DUP1 DUP7 MLOAD DUP1 MLOAD DUP8 PUSH1 0x20 DUP4 ADD ADD SWAP4 POP DUP1 DUP9 DUP8 ADD GT ISZERO PUSH2 0x1157 JUMPI DUP8 DUP7 ADD DUP3 MSTORE JUMPDEST PUSH1 0x20 DUP8 ADD SWAP3 POP POP POP JUMPDEST PUSH1 0x20 DUP5 LT PUSH2 0x119E JUMPI DUP1 MLOAD DUP3 MSTORE PUSH1 0x20 DUP3 PUSH2 0x1179 SWAP2 SWAP1 PUSH2 0x1897 JUMP JUMPDEST SWAP2 POP PUSH1 0x20 DUP2 PUSH2 0x1188 SWAP2 SWAP1 PUSH2 0x1897 JUMP JUMPDEST SWAP1 POP PUSH1 0x20 DUP5 PUSH2 0x1197 SWAP2 SWAP1 PUSH2 0x1B4C JUMP JUMPDEST SWAP4 POP PUSH2 0x1160 JUMP JUMPDEST PUSH1 0x0 PUSH1 0x1 DUP6 PUSH1 0x20 SUB PUSH2 0x100 EXP SUB SWAP1 POP DUP1 NOT DUP3 MLOAD AND DUP2 DUP5 MLOAD AND DUP2 DUP2 OR DUP6 MSTORE POP POP POP DUP7 SWAP3 POP POP POP SWAP5 SWAP4 POP POP POP POP JUMP JUMPDEST PUSH2 0x11D8 DUP3 PUSH1 0x2 DUP4 MLOAD PUSH2 0xC8C JUMP JUMPDEST PUSH2 0x11EB DUP2 DUP4 PUSH2 0xE11 SWAP1 SWAP2 SWAP1 PUSH4 0xFFFFFFFF AND JUMP JUMPDEST POP POP POP JUMP JUMPDEST PUSH2 0x11F8 PUSH2 0x1382 JUMP JUMPDEST DUP4 PUSH1 0x20 ADD MLOAD DUP4 LT PUSH2 0x121E JUMPI PUSH2 0x121D DUP5 PUSH1 0x2 DUP7 PUSH1 0x20 ADD MLOAD PUSH2 0x1218 SWAP2 SWAP1 PUSH2 0x1A5E JUMP JUMPDEST PUSH2 0x12F1 JUMP JUMPDEST JUMPDEST DUP4 MLOAD DUP1 MLOAD PUSH1 0x20 DUP6 DUP4 ADD ADD DUP5 DUP2 MSTORE8 DUP2 DUP7 EQ ISZERO PUSH2 0x123A JUMPI PUSH1 0x1 DUP3 ADD DUP4 MSTORE JUMPDEST POP POP POP DUP4 SWAP1 POP SWAP4 SWAP3 POP POP POP JUMP JUMPDEST PUSH2 0x124F PUSH2 0x1382 JUMP JUMPDEST DUP5 PUSH1 0x20 ADD MLOAD DUP5 DUP4 PUSH2 0x1260 SWAP2 SWAP1 PUSH2 0x1897 JUMP JUMPDEST GT ISZERO PUSH2 0x1288 JUMPI PUSH2 0x1287 DUP6 PUSH1 0x2 DUP7 DUP6 PUSH2 0x1278 SWAP2 SWAP1 PUSH2 0x1897 JUMP JUMPDEST PUSH2 0x1282 SWAP2 SWAP1 PUSH2 0x1A5E JUMP JUMPDEST PUSH2 0x12F1 JUMP JUMPDEST JUMPDEST PUSH1 0x0 PUSH1 0x1 DUP4 PUSH2 0x100 PUSH2 0x129A SWAP2 SWAP1 PUSH2 0x1940 JUMP JUMPDEST PUSH2 0x12A4 SWAP2 SWAP1 PUSH2 0x1B4C JUMP JUMPDEST SWAP1 POP DUP6 MLOAD DUP4 DUP7 DUP3 ADD ADD DUP6 DUP4 NOT DUP3 MLOAD AND OR DUP2 MSTORE DUP2 MLOAD DUP6 DUP9 ADD GT ISZERO PUSH2 0x12C7 JUMPI DUP5 DUP8 ADD DUP3 MSTORE JUMPDEST POP POP DUP6 SWAP2 POP POP SWAP5 SWAP4 POP POP POP POP JUMP JUMPDEST PUSH1 0x0 DUP2 DUP4 GT ISZERO PUSH2 0x12E7 JUMPI DUP3 SWAP1 POP PUSH2 0x12EB JUMP JUMPDEST DUP2 SWAP1 POP JUMPDEST SWAP3 SWAP2 POP POP JUMP JUMPDEST PUSH1 0x0 DUP3 PUSH1 0x0 ADD MLOAD SWAP1 POP PUSH2 0x1304 DUP4 DUP4 PUSH2 0xC22 JUMP JUMPDEST POP PUSH2 0x130F DUP4 DUP3 PUSH2 0xE11 JUMP JUMPDEST POP POP POP POP JUMP JUMPDEST PUSH1 0x40 MLOAD DUP1 PUSH1 0xA0 ADD PUSH1 0x40 MSTORE DUP1 PUSH1 0x0 DUP1 NOT AND DUP2 MSTORE PUSH1 0x20 ADD PUSH1 0x0 PUSH20 0xFFFFFFFFFFFFFFFFFFFFFFFFFFFFFFFFFFFFFFFF AND DUP2 MSTORE PUSH1 0x20 ADD PUSH1 0x0 PUSH28 0xFFFFFFFFFFFFFFFFFFFFFFFFFFFFFFFFFFFFFFFFFFFFFFFFFFFFFFFF NOT AND DUP2 MSTORE PUSH1 0x20 ADD PUSH1 0x0 DUP2 MSTORE PUSH1 0x20 ADD PUSH2 0x137C PUSH2 0x1382 JUMP JUMPDEST DUP2 MSTORE POP SWAP1 JUMP JUMPDEST PUSH1 0x40 MLOAD DUP1 PUSH1 0x40 ADD PUSH1 0x40 MSTORE DUP1 PUSH1 0x60 DUP2 MSTORE PUSH1 0x20 ADD PUSH1 0x0 DUP2 MSTORE POP SWAP1 JUMP JUMPDEST PUSH1 0x0 DUP2 CALLDATALOAD SWAP1 POP PUSH2 0x13AB DUP2 PUSH2 0x1EA0 JUMP JUMPDEST SWAP3 SWAP2 POP POP JUMP JUMPDEST PUSH1 0x0 DUP2 MLOAD SWAP1 POP PUSH2 0x13C0 DUP2 PUSH2 0x1EB7 JUMP JUMPDEST SWAP3 SWAP2 POP POP JUMP JUMPDEST PUSH1 0x0 DUP2 CALLDATALOAD SWAP1 POP PUSH2 0x13D5 DUP2 PUSH2 0x1ECE JUMP JUMPDEST SWAP3 SWAP2 POP POP JUMP JUMPDEST PUSH1 0x0 DUP2 CALLDATALOAD SWAP1 POP PUSH2 0x13EA DUP2 PUSH2 0x1EE5 JUMP JUMPDEST SWAP3 SWAP2 POP POP JUMP JUMPDEST PUSH1 0x0 DUP2 MLOAD SWAP1 POP PUSH2 0x13FF DUP2 PUSH2 0x1EE5 JUMP JUMPDEST SWAP3 SWAP2 POP POP JUMP JUMPDEST PUSH1 0x0 PUSH1 0x20 DUP3 DUP5 SUB SLT ISZERO PUSH2 0x141B JUMPI PUSH2 0x141A PUSH2 0x1D2E JUMP JUMPDEST JUMPDEST PUSH1 0x0 PUSH2 0x1429 DUP5 DUP3 DUP6 ADD PUSH2 0x139C JUMP JUMPDEST SWAP2 POP POP SWAP3 SWAP2 POP POP JUMP JUMPDEST PUSH1 0x0 PUSH1 0x20 DUP3 DUP5 SUB SLT ISZERO PUSH2 0x1448 JUMPI PUSH2 0x1447 PUSH2 0x1D2E JUMP JUMPDEST JUMPDEST PUSH1 0x0 PUSH2 0x1456 DUP5 DUP3 DUP6 ADD PUSH2 0x13B1 JUMP JUMPDEST SWAP2 POP POP SWAP3 SWAP2 POP POP JUMP JUMPDEST PUSH1 0x0 DUP1 PUSH1 0x40 DUP4 DUP6 SUB SLT ISZERO PUSH2 0x1476 JUMPI PUSH2 0x1475 PUSH2 0x1D2E JUMP JUMPDEST JUMPDEST PUSH1 0x0 PUSH2 0x1484 DUP6 DUP3 DUP7 ADD PUSH2 0x13C6 JUMP JUMPDEST SWAP3 POP POP PUSH1 0x20 PUSH2 0x1495 DUP6 DUP3 DUP7 ADD PUSH2 0x13DB JUMP JUMPDEST SWAP2 POP POP SWAP3 POP SWAP3 SWAP1 POP JUMP JUMPDEST PUSH1 0x0 PUSH1 0x20 DUP3 DUP5 SUB SLT ISZERO PUSH2 0x14B5 JUMPI PUSH2 0x14B4 PUSH2 0x1D2E JUMP JUMPDEST JUMPDEST PUSH1 0x0 PUSH2 0x14C3 DUP5 DUP3 DUP6 ADD PUSH2 0x13F0 JUMP JUMPDEST SWAP2 POP POP SWAP3 SWAP2 POP POP JUMP JUMPDEST PUSH2 0x14D5 DUP2 PUSH2 0x1B80 JUMP JUMPDEST DUP3 MSTORE POP POP JUMP JUMPDEST PUSH2 0x14E4 DUP2 PUSH2 0x1B9E JUMP JUMPDEST DUP3 MSTORE POP POP JUMP JUMPDEST PUSH2 0x14F3 DUP2 PUSH2 0x1BA8 JUMP JUMPDEST DUP3 MSTORE POP POP JUMP JUMPDEST PUSH1 0x0 PUSH2 0x1504 DUP3 PUSH2 0x186A JUMP JUMPDEST PUSH2 0x150E DUP2 DUP6 PUSH2 0x1875 JUMP JUMPDEST SWAP4 POP PUSH2 0x151E DUP2 DUP6 PUSH1 0x20 DUP7 ADD PUSH2 0x1C3E JUMP JUMPDEST PUSH2 0x1527 DUP2 PUSH2 0x1D33 JUMP JUMPDEST DUP5 ADD SWAP2 POP POP SWAP3 SWAP2 POP POP JUMP JUMPDEST PUSH2 0x1543 PUSH2 0x153E DUP3 PUSH2 0x1C08 JUMP JUMPDEST PUSH2 0x1C71 JUMP JUMPDEST DUP3 MSTORE POP POP JUMP JUMPDEST PUSH1 0x0 PUSH2 0x1556 PUSH1 0x16 DUP4 PUSH2 0x1886 JUMP JUMPDEST SWAP2 POP PUSH2 0x1561 DUP3 PUSH2 0x1D5E JUMP JUMPDEST PUSH1 0x20 DUP3 ADD SWAP1 POP SWAP2 SWAP1 POP JUMP JUMPDEST PUSH1 0x0 PUSH2 0x1579 PUSH1 0x23 DUP4 PUSH2 0x1886 JUMP JUMPDEST SWAP2 POP PUSH2 0x1584 DUP3 PUSH2 0x1D87 JUMP JUMPDEST PUSH1 0x40 DUP3 ADD SWAP1 POP SWAP2 SWAP1 POP JUMP JUMPDEST PUSH1 0x0 PUSH2 0x159C PUSH1 0x16 DUP4 PUSH2 0x1886 JUMP JUMPDEST SWAP2 POP PUSH2 0x15A7 DUP3 PUSH2 0x1DD6 JUMP JUMPDEST PUSH1 0x20 DUP3 ADD SWAP1 POP SWAP2 SWAP1 POP JUMP JUMPDEST PUSH1 0x0 PUSH2 0x15BF PUSH1 0x12 DUP4 PUSH2 0x1886 JUMP JUMPDEST SWAP2 POP PUSH2 0x15CA DUP3 PUSH2 0x1DFF JUMP JUMPDEST PUSH1 0x20 DUP3 ADD SWAP1 POP SWAP2 SWAP1 POP JUMP JUMPDEST PUSH1 0x0 PUSH2 0x15E2 PUSH1 0x17 DUP4 PUSH2 0x1886 JUMP JUMPDEST SWAP2 POP PUSH2 0x15ED DUP3 PUSH2 0x1E28 JUMP JUMPDEST PUSH1 0x20 DUP3 ADD SWAP1 POP SWAP2 SWAP1 POP JUMP JUMPDEST PUSH1 0x0 PUSH2 0x1605 PUSH1 0x28 DUP4 PUSH2 0x1886 JUMP JUMPDEST SWAP2 POP PUSH2 0x1610 DUP3 PUSH2 0x1E51 JUMP JUMPDEST PUSH1 0x40 DUP3 ADD SWAP1 POP SWAP2 SWAP1 POP JUMP JUMPDEST PUSH2 0x1624 DUP2 PUSH2 0x1BFE JUMP JUMPDEST DUP3 MSTORE POP POP JUMP JUMPDEST PUSH2 0x163B PUSH2 0x1636 DUP3 PUSH2 0x1BFE JUMP JUMPDEST PUSH2 0x1C95 JUMP JUMPDEST DUP3 MSTORE POP POP JUMP JUMPDEST PUSH1 0x0 PUSH2 0x164D DUP3 DUP6 PUSH2 0x1532 JUMP JUMPDEST PUSH1 0x14 DUP3 ADD SWAP2 POP PUSH2 0x165D DUP3 DUP5 PUSH2 0x162A JUMP JUMPDEST PUSH1 0x20 DUP3 ADD SWAP2 POP DUP2 SWAP1 POP SWAP4 SWAP3 POP POP POP JUMP JUMPDEST PUSH1 0x0 PUSH1 0x20 DUP3 ADD SWAP1 POP PUSH2 0x1682 PUSH1 0x0 DUP4 ADD DUP5 PUSH2 0x14CC JUMP JUMPDEST SWAP3 SWAP2 POP POP JUMP JUMPDEST PUSH1 0x0 PUSH1 0x40 DUP3 ADD SWAP1 POP PUSH2 0x169D PUSH1 0x0 DUP4 ADD DUP6 PUSH2 0x14CC JUMP JUMPDEST PUSH2 0x16AA PUSH1 0x20 DUP4 ADD DUP5 PUSH2 0x161B JUMP JUMPDEST SWAP4 SWAP3 POP POP POP JUMP JUMPDEST PUSH1 0x0 PUSH2 0x100 DUP3 ADD SWAP1 POP PUSH2 0x16C7 PUSH1 0x0 DUP4 ADD DUP12 PUSH2 0x14CC JUMP JUMPDEST PUSH2 0x16D4 PUSH1 0x20 DUP4 ADD DUP11 PUSH2 0x161B JUMP JUMPDEST PUSH2 0x16E1 PUSH1 0x40 DUP4 ADD DUP10 PUSH2 0x14DB JUMP JUMPDEST PUSH2 0x16EE PUSH1 0x60 DUP4 ADD DUP9 PUSH2 0x14CC JUMP JUMPDEST PUSH2 0x16FB PUSH1 0x80 DUP4 ADD DUP8 PUSH2 0x14EA JUMP JUMPDEST PUSH2 0x1708 PUSH1 0xA0 DUP4 ADD DUP7 PUSH2 0x161B JUMP JUMPDEST PUSH2 0x1715 PUSH1 0xC0 DUP4 ADD DUP6 PUSH2 0x161B JUMP JUMPDEST DUP2 DUP2 SUB PUSH1 0xE0 DUP4 ADD MSTORE PUSH2 0x1727 DUP2 DUP5 PUSH2 0x14F9 JUMP JUMPDEST SWAP1 POP SWAP10 SWAP9 POP POP POP POP POP POP POP POP POP JUMP JUMPDEST PUSH1 0x0 PUSH1 0x60 DUP3 ADD SWAP1 POP PUSH2 0x174B PUSH1 0x0 DUP4 ADD DUP7 PUSH2 0x14CC JUMP JUMPDEST PUSH2 0x1758 PUSH1 0x20 DUP4 ADD DUP6 PUSH2 0x161B JUMP JUMPDEST DUP2 DUP2 SUB PUSH1 0x40 DUP4 ADD MSTORE PUSH2 0x176A DUP2 DUP5 PUSH2 0x14F9 JUMP JUMPDEST SWAP1 POP SWAP5 SWAP4 POP POP POP POP JUMP JUMPDEST PUSH1 0x0 PUSH1 0x20 DUP3 ADD SWAP1 POP PUSH2 0x1789 PUSH1 0x0 DUP4 ADD DUP5 PUSH2 0x14DB JUMP JUMPDEST SWAP3 SWAP2 POP POP JUMP JUMPDEST PUSH1 0x0 PUSH1 0x20 DUP3 ADD SWAP1 POP DUP2 DUP2 SUB PUSH1 0x0 DUP4 ADD MSTORE PUSH2 0x17A8 DUP2 PUSH2 0x1549 JUMP JUMPDEST SWAP1 POP SWAP2 SWAP1 POP JUMP JUMPDEST PUSH1 0x0 PUSH1 0x20 DUP3 ADD SWAP1 POP DUP2 DUP2 SUB PUSH1 0x0 DUP4 ADD MSTORE PUSH2 0x17C8 DUP2 PUSH2 0x156C JUMP JUMPDEST SWAP1 POP SWAP2 SWAP1 POP JUMP JUMPDEST PUSH1 0x0 PUSH1 0x20 DUP3 ADD SWAP1 POP DUP2 DUP2 SUB PUSH1 0x0 DUP4 ADD MSTORE PUSH2 0x17E8 DUP2 PUSH2 0x158F JUMP JUMPDEST SWAP1 POP SWAP2 SWAP1 POP JUMP JUMPDEST PUSH1 0x0 PUSH1 0x20 DUP3 ADD SWAP1 POP DUP2 DUP2 SUB PUSH1 0x0 DUP4 ADD MSTORE PUSH2 0x1808 DUP2 PUSH2 0x15B2 JUMP JUMPDEST SWAP1 POP SWAP2 SWAP1 POP JUMP JUMPDEST PUSH1 0x0 PUSH1 0x20 DUP3 ADD SWAP1 POP DUP2 DUP2 SUB PUSH1 0x0 DUP4 ADD MSTORE PUSH2 0x1828 DUP2 PUSH2 0x15D5 JUMP JUMPDEST SWAP1 POP SWAP2 SWAP1 POP JUMP JUMPDEST PUSH1 0x0 PUSH1 0x20 DUP3 ADD SWAP1 POP DUP2 DUP2 SUB PUSH1 0x0 DUP4 ADD MSTORE PUSH2 0x1848 DUP2 PUSH2 0x15F8 JUMP JUMPDEST SWAP1 POP SWAP2 SWAP1 POP JUMP JUMPDEST PUSH1 0x0 PUSH1 0x20 DUP3 ADD SWAP1 POP PUSH2 0x1864 PUSH1 0x0 DUP4 ADD DUP5 PUSH2 0x161B JUMP JUMPDEST SWAP3 SWAP2 POP POP JUMP JUMPDEST PUSH1 0x0 DUP2 MLOAD SWAP1 POP SWAP2 SWAP1 POP JUMP JUMPDEST PUSH1 0x0 DUP3 DUP3 MSTORE PUSH1 0x20 DUP3 ADD SWAP1 POP SWAP3 SWAP2 POP POP JUMP JUMPDEST PUSH1 0x0 DUP3 DUP3 MSTORE PUSH1 0x20 DUP3 ADD SWAP1 POP SWAP3 SWAP2 POP POP JUMP JUMPDEST PUSH1 0x0 PUSH2 0x18A2 DUP3 PUSH2 0x1BFE JUMP JUMPDEST SWAP2 POP PUSH2 0x18AD DUP4 PUSH2 0x1BFE JUMP JUMPDEST SWAP3 POP DUP3 PUSH32 0xFFFFFFFFFFFFFFFFFFFFFFFFFFFFFFFFFFFFFFFFFFFFFFFFFFFFFFFFFFFFFFFF SUB DUP3 GT ISZERO PUSH2 0x18E2 JUMPI PUSH2 0x18E1 PUSH2 0x1CD0 JUMP JUMPDEST JUMPDEST DUP3 DUP3 ADD SWAP1 POP SWAP3 SWAP2 POP POP JUMP JUMPDEST PUSH1 0x0 DUP1 DUP3 SWAP2 POP DUP4 SWAP1 POP JUMPDEST PUSH1 0x1 DUP6 GT ISZERO PUSH2 0x1937 JUMPI DUP1 DUP7 DIV DUP2 GT ISZERO PUSH2 0x1913 JUMPI PUSH2 0x1912 PUSH2 0x1CD0 JUMP JUMPDEST JUMPDEST PUSH1 0x1 DUP6 AND ISZERO PUSH2 0x1922 JUMPI DUP1 DUP3 MUL SWAP2 POP JUMPDEST DUP1 DUP2 MUL SWAP1 POP PUSH2 0x1930 DUP6 PUSH2 0x1D51 JUMP JUMPDEST SWAP5 POP PUSH2 0x18F7 JUMP JUMPDEST SWAP5 POP SWAP5 SWAP3 POP POP POP JUMP JUMPDEST PUSH1 0x0 PUSH2 0x194B DUP3 PUSH2 0x1BFE JUMP JUMPDEST SWAP2 POP PUSH2 0x1956 DUP4 PUSH2 0x1BFE JUMP JUMPDEST SWAP3 POP PUSH2 0x1983 PUSH32 0xFFFFFFFFFFFFFFFFFFFFFFFFFFFFFFFFFFFFFFFFFFFFFFFFFFFFFFFFFFFFFFFF DUP5 DUP5 PUSH2 0x198B JUMP JUMPDEST SWAP1 POP SWAP3 SWAP2 POP POP JUMP JUMPDEST PUSH1 0x0 DUP3 PUSH2 0x199B JUMPI PUSH1 0x1 SWAP1 POP PUSH2 0x1A57 JUMP JUMPDEST DUP2 PUSH2 0x19A9 JUMPI PUSH1 0x0 SWAP1 POP PUSH2 0x1A57 JUMP JUMPDEST DUP2 PUSH1 0x1 DUP2 EQ PUSH2 0x19BF JUMPI PUSH1 0x2 DUP2 EQ PUSH2 0x19C9 JUMPI PUSH2 0x19F8 JUMP JUMPDEST PUSH1 0x1 SWAP2 POP POP PUSH2 0x1A57 JUMP JUMPDEST PUSH1 0xFF DUP5 GT ISZERO PUSH2 0x19DB JUMPI PUSH2 0x19DA PUSH2 0x1CD0 JUMP JUMPDEST JUMPDEST DUP4 PUSH1 0x2 EXP SWAP2 POP DUP5 DUP3 GT ISZERO PUSH2 0x19F2 JUMPI PUSH2 0x19F1 PUSH2 0x1CD0 JUMP JUMPDEST JUMPDEST POP PUSH2 0x1A57 JUMP JUMPDEST POP PUSH1 0x20 DUP4 LT PUSH2 0x133 DUP4 LT AND PUSH1 0x4E DUP5 LT PUSH1 0xB DUP5 LT AND OR ISZERO PUSH2 0x1A2D JUMPI DUP3 DUP3 EXP SWAP1 POP DUP4 DUP2 GT ISZERO PUSH2 0x1A28 JUMPI PUSH2 0x1A27 PUSH2 0x1CD0 JUMP JUMPDEST JUMPDEST PUSH2 0x1A57 JUMP JUMPDEST PUSH2 0x1A3A DUP5 DUP5 DUP5 PUSH1 0x1 PUSH2 0x18ED JUMP JUMPDEST SWAP3 POP SWAP1 POP DUP2 DUP5 DIV DUP2 GT ISZERO PUSH2 0x1A51 JUMPI PUSH2 0x1A50 PUSH2 0x1CD0 JUMP JUMPDEST JUMPDEST DUP2 DUP2 MUL SWAP1 POP JUMPDEST SWAP4 SWAP3 POP POP POP JUMP JUMPDEST PUSH1 0x0 PUSH2 0x1A69 DUP3 PUSH2 0x1BFE JUMP JUMPDEST SWAP2 POP PUSH2 0x1A74 DUP4 PUSH2 0x1BFE JUMP JUMPDEST SWAP3 POP DUP2 PUSH32 0xFFFFFFFFFFFFFFFFFFFFFFFFFFFFFFFFFFFFFFFFFFFFFFFFFFFFFFFFFFFFFFFF DIV DUP4 GT DUP3 ISZERO ISZERO AND ISZERO PUSH2 0x1AAD JUMPI PUSH2 0x1AAC PUSH2 0x1CD0 JUMP JUMPDEST JUMPDEST DUP3 DUP3 MUL SWAP1 POP SWAP3 SWAP2 POP POP JUMP JUMPDEST PUSH1 0x0 PUSH2 0x1AC3 DUP3 PUSH2 0x1BD4 JUMP JUMPDEST SWAP2 POP PUSH2 0x1ACE DUP4 PUSH2 0x1BD4 JUMP JUMPDEST SWAP3 POP DUP3 PUSH32 0x8000000000000000000000000000000000000000000000000000000000000000 ADD DUP3 SLT PUSH1 0x0 DUP5 SLT ISZERO AND ISZERO PUSH2 0x1B09 JUMPI PUSH2 0x1B08 PUSH2 0x1CD0 JUMP JUMPDEST JUMPDEST DUP3 PUSH32 0x7FFFFFFFFFFFFFFFFFFFFFFFFFFFFFFFFFFFFFFFFFFFFFFFFFFFFFFFFFFFFFFF ADD DUP3 SGT PUSH1 0x0 DUP5 SLT AND ISZERO PUSH2 0x1B41 JUMPI PUSH2 0x1B40 PUSH2 0x1CD0 JUMP JUMPDEST JUMPDEST DUP3 DUP3 SUB SWAP1 POP SWAP3 SWAP2 POP POP JUMP JUMPDEST PUSH1 0x0 PUSH2 0x1B57 DUP3 PUSH2 0x1BFE JUMP JUMPDEST SWAP2 POP PUSH2 0x1B62 DUP4 PUSH2 0x1BFE JUMP JUMPDEST SWAP3 POP DUP3 DUP3 LT ISZERO PUSH2 0x1B75 JUMPI PUSH2 0x1B74 PUSH2 0x1CD0 JUMP JUMPDEST JUMPDEST DUP3 DUP3 SUB SWAP1 POP SWAP3 SWAP2 POP POP JUMP JUMPDEST PUSH1 0x0 PUSH2 0x1B8B DUP3 PUSH2 0x1BDE JUMP JUMPDEST SWAP1 POP SWAP2 SWAP1 POP JUMP JUMPDEST PUSH1 0x0 DUP2 ISZERO ISZERO SWAP1 POP SWAP2 SWAP1 POP JUMP JUMPDEST PUSH1 0x0 DUP2 SWAP1 POP SWAP2 SWAP1 POP JUMP JUMPDEST PUSH1 0x0 PUSH32 0xFFFFFFFF00000000000000000000000000000000000000000000000000000000 DUP3 AND SWAP1 POP SWAP2 SWAP1 POP JUMP JUMPDEST PUSH1 0x0 DUP2 SWAP1 POP SWAP2 SWAP1 POP JUMP JUMPDEST PUSH1 0x0 PUSH20 0xFFFFFFFFFFFFFFFFFFFFFFFFFFFFFFFFFFFFFFFF DUP3 AND SWAP1 POP SWAP2 SWAP1 POP JUMP JUMPDEST PUSH1 0x0 DUP2 SWAP1 POP SWAP2 SWAP1 POP JUMP JUMPDEST PUSH1 0x0 PUSH2 0x1C13 DUP3 PUSH2 0x1C1A JUMP JUMPDEST SWAP1 POP SWAP2 SWAP1 POP JUMP JUMPDEST PUSH1 0x0 PUSH2 0x1C25 DUP3 PUSH2 0x1C2C JUMP JUMPDEST SWAP1 POP SWAP2 SWAP1 POP JUMP JUMPDEST PUSH1 0x0 PUSH2 0x1C37 DUP3 PUSH2 0x1BDE JUMP JUMPDEST SWAP1 POP SWAP2 SWAP1 POP JUMP JUMPDEST PUSH1 0x0 JUMPDEST DUP4 DUP2 LT ISZERO PUSH2 0x1C5C JUMPI DUP1 DUP3 ADD MLOAD DUP2 DUP5 ADD MSTORE PUSH1 0x20 DUP2 ADD SWAP1 POP PUSH2 0x1C41 JUMP JUMPDEST DUP4 DUP2 GT ISZERO PUSH2 0x1C6B JUMPI PUSH1 0x0 DUP5 DUP5 ADD MSTORE JUMPDEST POP POP POP POP JUMP JUMPDEST PUSH1 0x0 PUSH2 0x1C7C DUP3 PUSH2 0x1C83 JUMP JUMPDEST SWAP1 POP SWAP2 SWAP1 POP JUMP JUMPDEST PUSH1 0x0 PUSH2 0x1C8E DUP3 PUSH2 0x1D44 JUMP JUMPDEST SWAP1 POP SWAP2 SWAP1 POP JUMP JUMPDEST PUSH1 0x0 DUP2 SWAP1 POP SWAP2 SWAP1 POP JUMP JUMPDEST PUSH1 0x0 PUSH2 0x1CAA DUP3 PUSH2 0x1BFE JUMP JUMPDEST SWAP2 POP PUSH2 0x1CB5 DUP4 PUSH2 0x1BFE JUMP JUMPDEST SWAP3 POP DUP3 PUSH2 0x1CC5 JUMPI PUSH2 0x1CC4 PUSH2 0x1CFF JUMP JUMPDEST JUMPDEST DUP3 DUP3 MOD SWAP1 POP SWAP3 SWAP2 POP POP JUMP JUMPDEST PUSH32 0x4E487B7100000000000000000000000000000000000000000000000000000000 PUSH1 0x0 MSTORE PUSH1 0x11 PUSH1 0x4 MSTORE PUSH1 0x24 PUSH1 0x0 REVERT JUMPDEST PUSH32 0x4E487B7100000000000000000000000000000000000000000000000000000000 PUSH1 0x0 MSTORE PUSH1 0x12 PUSH1 0x4 MSTORE PUSH1 0x24 PUSH1 0x0 REVERT JUMPDEST PUSH1 0x0 DUP1 REVERT JUMPDEST PUSH1 0x0 PUSH1 0x1F NOT PUSH1 0x1F DUP4 ADD AND SWAP1 POP SWAP2 SWAP1 POP JUMP JUMPDEST PUSH1 0x0 DUP2 PUSH1 0x60 SHL SWAP1 POP SWAP2 SWAP1 POP JUMP JUMPDEST PUSH1 0x0 DUP2 PUSH1 0x1 SHR SWAP1 POP SWAP2 SWAP1 POP JUMP JUMPDEST PUSH32 0x4D7573742062652070726F706F736564206F776E657200000000000000000000 PUSH1 0x0 DUP3 ADD MSTORE POP JUMP JUMPDEST PUSH32 0x756E61626C6520746F207472616E73666572416E6443616C6C20746F206F7261 PUSH1 0x0 DUP3 ADD MSTORE PUSH32 0x636C650000000000000000000000000000000000000000000000000000000000 PUSH1 0x20 DUP3 ADD MSTORE POP JUMP JUMPDEST PUSH32 0x4F6E6C792063616C6C61626C65206279206F776E657200000000000000000000 PUSH1 0x0 DUP3 ADD MSTORE POP JUMP JUMPDEST PUSH32 0x556E61626C6520746F207472616E736665720000000000000000000000000000 PUSH1 0x0 DUP3 ADD MSTORE POP JUMP JUMPDEST PUSH32 0x43616E6E6F74207472616E7366657220746F2073656C66000000000000000000 PUSH1 0x0 DUP3 ADD MSTORE POP JUMP JUMPDEST PUSH32 0x536F75726365206D75737420626520746865206F7261636C65206F6620746865 PUSH1 0x0 DUP3 ADD MSTORE PUSH32 0x2072657175657374000000000000000000000000000000000000000000000000 PUSH1 0x20 DUP3 ADD MSTORE POP JUMP JUMPDEST PUSH2 0x1EA9 DUP2 PUSH2 0x1B80 JUMP JUMPDEST DUP2 EQ PUSH2 0x1EB4 JUMPI PUSH1 0x0 DUP1 REVERT JUMPDEST POP JUMP JUMPDEST PUSH2 0x1EC0 DUP2 PUSH2 0x1B92 JUMP JUMPDEST DUP2 EQ PUSH2 0x1ECB JUMPI PUSH1 0x0 DUP1 REVERT JUMPDEST POP JUMP JUMPDEST PUSH2 0x1ED7 DUP2 PUSH2 0x1B9E JUMP JUMPDEST DUP2 EQ PUSH2 0x1EE2 JUMPI PUSH1 0x0 DUP1 REVERT JUMPDEST POP JUMP JUMPDEST PUSH2 0x1EEE DUP2 PUSH2 0x1BFE JUMP JUMPDEST DUP2 EQ PUSH2 0x1EF9 JUMPI PUSH1 0x0 DUP1 REVERT JUMPDEST POP JUMP INVALID PUSH9 0x747470733A2F2F6D69 PUSH15 0x2D6170692E63727970746F636F6D70 PUSH2 0x7265 0x2E PUSH4 0x6F6D2F64 PUSH2 0x7461 0x2F PUSH17 0x726963656D756C746966756C6C3F667379 PUSH14 0x733D455448267473796D733D5553 DIFFICULTY LOG2 PUSH5 0x6970667358 0x22 SLT KECCAK256 0xD5 0xF7 CALLDATACOPY EQ 0xD5 DUP7 SWAP11 0x1E SDIV EQ LOG1 SLT NOT LOG3 PUSH3 0xC642A2 0xC2 0xBF DUP4 PUSH1 0xC PUSH15 0xC1EE3930318BF4F264736F6C634300 ADDMOD SMOD STOP CALLER "
				},
				"gasEstimates": {
					"creation": {
						"codeDepositCost": "1611800",
						"executionCost": "infinite",
						"totalCost": "infinite"
					},
					"external": {
						"acceptOwnership()": "54585",
						"fulfill(bytes32,uint256)": "infinite",
						"owner()": "2522",
						"requestVolumeData()": "infinite",
						"transferOwnership(address)": "30729",
						"volume()": "2473",
						"withdrawLink()": "infinite"
					}
				},
				"methodIdentifiers": {
					"acceptOwnership()": "79ba5097",
					"fulfill(bytes32,uint256)": "4357855e",
					"owner()": "8da5cb5b",
					"requestVolumeData()": "6021abac",
					"transferOwnership(address)": "f2fde38b",
					"volume()": "c618a1e4",
					"withdrawLink()": "8dc654a2"
				}
			},
			"storageLayout": {
				"storage": [
					{
						"astId": 319,
						"contract": "docs.chain.link/samples/APIRequests/APIConsumer.sol:APIConsumer",
						"label": "s_ens",
						"offset": 0,
						"slot": "0",
						"type": "t_contract(ENSInterface)1156"
					},
					{
						"astId": 321,
						"contract": "docs.chain.link/samples/APIRequests/APIConsumer.sol:APIConsumer",
						"label": "s_ensNode",
						"offset": 0,
						"slot": "1",
						"type": "t_bytes32"
					},
					{
						"astId": 324,
						"contract": "docs.chain.link/samples/APIRequests/APIConsumer.sol:APIConsumer",
						"label": "s_link",
						"offset": 0,
						"slot": "2",
						"type": "t_contract(LinkTokenInterface)1251"
					},
					{
						"astId": 327,
						"contract": "docs.chain.link/samples/APIRequests/APIConsumer.sol:APIConsumer",
						"label": "s_oracle",
						"offset": 0,
						"slot": "3",
						"type": "t_contract(OperatorInterface)1331"
					},
					{
						"astId": 330,
						"contract": "docs.chain.link/samples/APIRequests/APIConsumer.sol:APIConsumer",
						"label": "s_requestCount",
						"offset": 0,
						"slot": "4",
						"type": "t_uint256"
					},
					{
						"astId": 334,
						"contract": "docs.chain.link/samples/APIRequests/APIConsumer.sol:APIConsumer",
						"label": "s_pendingRequests",
						"offset": 0,
						"slot": "5",
						"type": "t_mapping(t_bytes32,t_address)"
					},
					{
						"astId": 889,
						"contract": "docs.chain.link/samples/APIRequests/APIConsumer.sol:APIConsumer",
						"label": "s_owner",
						"offset": 0,
						"slot": "6",
						"type": "t_address"
					},
					{
						"astId": 891,
						"contract": "docs.chain.link/samples/APIRequests/APIConsumer.sol:APIConsumer",
						"label": "s_pendingOwner",
						"offset": 0,
						"slot": "7",
						"type": "t_address"
					},
					{
						"astId": 2388,
						"contract": "docs.chain.link/samples/APIRequests/APIConsumer.sol:APIConsumer",
						"label": "volume",
						"offset": 0,
						"slot": "8",
						"type": "t_uint256"
					},
					{
						"astId": 2390,
						"contract": "docs.chain.link/samples/APIRequests/APIConsumer.sol:APIConsumer",
						"label": "jobId",
						"offset": 0,
						"slot": "9",
						"type": "t_bytes32"
					},
					{
						"astId": 2392,
						"contract": "docs.chain.link/samples/APIRequests/APIConsumer.sol:APIConsumer",
						"label": "fee",
						"offset": 0,
						"slot": "10",
						"type": "t_uint256"
					}
				],
				"types": {
					"t_address": {
						"encoding": "inplace",
						"label": "address",
						"numberOfBytes": "20"
					},
					"t_bytes32": {
						"encoding": "inplace",
						"label": "bytes32",
						"numberOfBytes": "32"
					},
					"t_contract(ENSInterface)1156": {
						"encoding": "inplace",
						"label": "contract ENSInterface",
						"numberOfBytes": "20"
					},
					"t_contract(LinkTokenInterface)1251": {
						"encoding": "inplace",
						"label": "contract LinkTokenInterface",
						"numberOfBytes": "20"
					},
					"t_contract(OperatorInterface)1331": {
						"encoding": "inplace",
						"label": "contract OperatorInterface",
						"numberOfBytes": "20"
					},
					"t_mapping(t_bytes32,t_address)": {
						"encoding": "mapping",
						"key": "t_bytes32",
						"label": "mapping(bytes32 => address)",
						"numberOfBytes": "32",
						"value": "t_address"
					},
					"t_uint256": {
						"encoding": "inplace",
						"label": "uint256",
						"numberOfBytes": "32"
					}
				}
			},
			"userdoc": {
				"kind": "user",
				"methods": {
					"acceptOwnership()": {
						"notice": "Allows an ownership transfer to be completed by the recipient."
					},
					"constructor": {
						"notice": "Initialize the link token and target oracle Goerli Testnet details: Link Token: 0x326C977E6efc84E512bB9C30f76E30c160eD06FB Oracle: 0xCC79157eb46F5624204f47AB42b3906cAA40eaB7 (Chainlink DevRel) jobId: ca98366cc7314957b8c012c72f05aeeb"
					},
					"fulfill(bytes32,uint256)": {
						"notice": "Receive the response in the form of uint256"
					},
					"owner()": {
						"notice": "Get the current owner"
					},
					"requestVolumeData()": {
						"notice": "Create a Chainlink request to retrieve API response, find the target data, then multiply by 1000000000000000000 (to remove decimal places from data)."
					},
					"transferOwnership(address)": {
						"notice": "Allows an owner to begin transferring ownership to a new address, pending."
					},
					"withdrawLink()": {
						"notice": "Allow withdraw of Link tokens from the contract"
					}
				},
				"notice": "THIS IS AN EXAMPLE CONTRACT WHICH USES HARDCODED VALUES FOR CLARITY. THIS EXAMPLE USES UN-AUDITED CODE. DO NOT USE THIS CODE IN PRODUCTION.",
				"version": 1
			}
		}
	}
}