{
	"data": {
		"bytecode": {
			"linkReferences": {},
			"object": "6080604052603260005534801561001557600080fd5b50610197806100256000396000f3fe6080604052600436106100295760003560e01c80633430a88c1461002e5780633d750b2814610059575b600080fd5b34801561003a57600080fd5b50610043610063565b60405161005091906100c9565b60405180910390f35b610061610069565b005b60005481565b6000543410156100ae576040517f08c379a00000000000000000000000000000000000000000000000000000000081526004016100a590610141565b60405180910390fd5b565b6000819050919050565b6100c3816100b0565b82525050565b60006020820190506100de60008301846100ba565b92915050565b600082825260208201905092915050565b7f6469646e27742073656e6420656e6f7567680000000000000000000000000000600082015250565b600061012b6012836100e4565b9150610136826100f5565b602082019050919050565b6000602082019050818103600083015261015a8161011e565b905091905056fea2646970667358221220b14cc10437d88b97bb18fca5847684b1b89ba09d7efda800e34c457503592a2264736f6c63430008080033",
			"opcodes": "PUSH1 0x80 PUSH1 0x40 MSTORE PUSH1 0x32 PUSH1 0x0 SSTORE CALLVALUE DUP1 ISZERO PUSH2 0x15 JUMPI PUSH1 0x0 DUP1 REVERT JUMPDEST POP PUSH2 0x197 DUP1 PUSH2 0x25 PUSH1 0x0 CODECOPY PUSH1 0x0 RETURN INVALID PUSH1 0x80 PUSH1 0x40 MSTORE PUSH1 0x4 CALLDATASIZE LT PUSH2 0x29 JUMPI PUSH1 0x0 CALLDATALOAD PUSH1 0xE0 SHR DUP1 PUSH4 0x3430A88C EQ PUSH2 0x2E JUMPI DUP1 PUSH4 0x3D750B28 EQ PUSH2 0x59 JUMPI JUMPDEST PUSH1 0x0 DUP1 REVERT JUMPDEST CALLVALUE DUP1 ISZERO PUSH2 0x3A JUMPI PUSH1 0x0 DUP1 REVERT JUMPDEST POP PUSH2 0x43 PUSH2 0x63 JUMP JUMPDEST PUSH1 0x40 MLOAD PUSH2 0x50 SWAP2 SWAP1 PUSH2 0xC9 JUMP JUMPDEST PUSH1 0x40 MLOAD DUP1 SWAP2 SUB SWAP1 RETURN JUMPDEST PUSH2 0x61 PUSH2 0x69 JUMP JUMPDEST STOP JUMPDEST PUSH1 0x0 SLOAD DUP2 JUMP JUMPDEST PUSH1 0x0 SLOAD CALLVALUE LT ISZERO PUSH2 0xAE JUMPI PUSH1 0x40 MLOAD PUSH32 0x8C379A000000000000000000000000000000000000000000000000000000000 DUP2 MSTORE PUSH1 0x4 ADD PUSH2 0xA5 SWAP1 PUSH2 0x141 JUMP JUMPDEST PUSH1 0x40 MLOAD DUP1 SWAP2 SUB SWAP1 REVERT JUMPDEST JUMP JUMPDEST PUSH1 0x0 DUP2 SWAP1 POP SWAP2 SWAP1 POP JUMP JUMPDEST PUSH2 0xC3 DUP2 PUSH2 0xB0 JUMP JUMPDEST DUP3 MSTORE POP POP JUMP JUMPDEST PUSH1 0x0 PUSH1 0x20 DUP3 ADD SWAP1 POP PUSH2 0xDE PUSH1 0x0 DUP4 ADD DUP5 PUSH2 0xBA JUMP JUMPDEST SWAP3 SWAP2 POP POP JUMP JUMPDEST PUSH1 0x0 DUP3 DUP3 MSTORE PUSH1 0x20 DUP3 ADD SWAP1 POP SWAP3 SWAP2 POP POP JUMP JUMPDEST PUSH32 0x6469646E27742073656E6420656E6F7567680000000000000000000000000000 PUSH1 0x0 DUP3 ADD MSTORE POP JUMP JUMPDEST PUSH1 0x0 PUSH2 0x12B PUSH1 0x12 DUP4 PUSH2 0xE4 JUMP JUMPDEST SWAP2 POP PUSH2 0x136 DUP3 PUSH2 0xF5 JUMP JUMPDEST PUSH1 0x20 DUP3 ADD SWAP1 POP SWAP2 SWAP1 POP JUMP JUMPDEST PUSH1 0x0 PUSH1 0x20 DUP3 ADD SWAP1 POP DUP2 DUP2 SUB PUSH1 0x0 DUP4 ADD MSTORE PUSH2 0x15A DUP2 PUSH2 0x11E JUMP JUMPDEST SWAP1 POP SWAP2 SWAP1 POP JUMP INVALID LOG2 PUSH5 0x6970667358 0x22 SLT KECCAK256 0xB1 0x4C 0xC1 DIV CALLDATACOPY 0xD8 DUP12 SWAP8 0xBB XOR 0xFC 0xA5 DUP5 PUSH23 0x84B1B89BA09D7EFDA800E34C457503592A2264736F6C63 NUMBER STOP ADDMOD ADDMOD STOP CALLER "
		},
		"gasEstimates": {
			"creation": {
				"codeDepositCost": "81400",
				"executionCost": "22235",
				"totalCost": "103635"
			},
			"external": {
				"found()": "2534",
				"minimumUSD()": "2407"
			}
		},
		"methodIdentifiers": {
			"found()": "3d750b28",
			"minimumUSD()": "3430a88c"
		}
	},
	"abi": [
		{
			"inputs": [],
			"name": "found",
			"outputs": [],
			"stateMutability": "payable",
			"type": "function"
		},
		{
			"inputs": [],
			"name": "minimumUSD",
			"outputs": [
				{
					"internalType": "uint256",
					"name": "",
					"type": "uint256"
				}
			],
			"stateMutability": "view",
			"type": "function"
		}
	]
}